:100000000C946B230C94B0230C94B0230C94B02369
:100010000C94B0230C94B0230C94B0230C94B02314
:100020000C94B0230C94B0230C94823E0C94B02317
:100030000C9410340C94B0230C94B0230C94B02383
:100040000C94B0230C94C0390C94B0230C94B023BE
:100050000C94B0230C94B0230C94B0230C94B023D4
:100060000C94B0230C94B0230C94B0230C94B023C4
:100070000C94B0230C94B0230C94B0230C94B023B4
:100080000C94B0230C94B0230C94B0230C94B023A4
:100090000C94B0230C94B023342BEC26F2261027BA
:1000A0001627AA28B028CC27D227D928FB2815291B
:1000B0002F2944299A29D829EE2A132BF529112A08
:1000C000302A552A6E2A932AB32ACC2A733F963FA8
:1000D0007D40963F7D40DB3FFD3F7D404F4061408E
:1000E0000000000000000000000000000000000010
:1000F0002A002B002800000000002800000000005B
:1001000000000000000000000000000000000000EF
:1001100000000000000029000000000000000000B6
:100120002C001E023402200221022202240234008A
:100130002602270225022E0236002D003700380045
:1001400027001E001F0020002100220023002400A1
:10015000250026003302330036022E003702380213
:100160001F020402050206020702080209020A022F
:100170000B020C020D020E020F02100211021202FB
:1001800013021402150216021702180219021A02AB
:100190001B021C021D022F003100300023022D0221
:1001A00035000400050006000700080009000A00E9
:1001B0000B000C000D000E000F00100011001200CB
:1001C00013001400150016001700180019001A007B
:1001D0001B001C001D002F023102300235024C00B2
:1001E00040000000000000000000000000000000CF
:1001F00000000000000000000000000000000000FF
:1002000000000000000000000000000000000000EE
:1002100000000000000000000000000000000000DE
:1002200000000000000000000000000000000000CE
:103880000000000000000000FF00FF00FF00FF003C
:10389000FF00FF00FF00FF00FF00FF00FF00FF0030
:1038A000FF00FF00FF00FF00FF00FF00FF00FF0020
:1038B000FF00000000000000000000000000000009
:1038C00000000000000000000000000000000000F8
:1038D00000000000000000000000000000000000E8
:1038E0000000080C000000000000000000000000C4
:1038F00000000000000000000000000000000000C8
:1039000000000000000000000000000000000000B7
:1039100000000000000000000000000000000000A7
:103920000000000000000000000000000000000097
:103930000000000000000000000000000000000087
:103940000000000000000000000000000000000077
:103950000000000000000000000000000000000067
:103960000000000000000000000000000000000057
:103970000000000000000000000000000000000047
:103980000000000000000000000000000000000037
:103990000000000000000000000000000000000027
:1039A0000000000000000000000000000000000017
:1039B0000000000000000000000000000000000007
:1039C00000000000000000000000000000000000F7
:1039D00000000000000000000000000000010101E4
:1039E00001140000000000000000000000000000C2
:1039F00000000000000000000000000000000000C7
:103A0000000000000000000000000001010101149E
:103A100000000000000000000000000000000000A6
:103A20000000000000000000000000000000000096
:103A3000000000000000000000010101011400006E
:103A40000000000000000000000000000000000076
:103A50000000000000000000000000000000000066
:103A6000000000000000000101010114CC3BC5353D
:103A7000D8330000CB35A7380D36D833CC3BD435FE
:103A8000D8330000E0354625D326D8334F7574204F
:103A90006F662072616E67652E0A00456E746572EE
:103AA000206E65772064656661756C742064696D4D
:103AB0006D6572206C6576656C2028312D31362954
:103AC0003E2000456E746572206E657720646566E1
:103AD00061756C74206261636B6C696768742065E2
:103AE0006E61626C652028312D3136293E200045FB
:103AF0006E746572206E6577206D617472697820CE
:103B00007365747570207761697420696E206379BC
:103B1000636C65732028312D323535293E200045F0
:103B20006E746572206E65772072657065617420B1
:103B300074696D6520696E206D732028312D3939C7
:103B4000293E2000456E746572206E657720686F8F
:103B50006C642074696D6520696E206D7320283156
:103B60002D393939293E2000456E746572206E6505
:103B700077206D6F757365206D6F76656D656E74FA
:103B8000206D756C7469706C6965722028312D39EF
:103B900039293E2000456E746572206E657720627B
:103BA000617365206D6F757365206D6F76656D65EA
:103BB0006E742028312D3939293E2000456E7465F8
:103BC00072206E657720646F75626C657461702019
:103BD00064656C61792074696D6520696E206D7310
:103BE0002028312D393939293E2000456E746572FF
:103BF000206E6577207461702074696D6520696E30
:103C0000206D732028312D393939293E2000456E29
:103C1000746572206E6577206465626F756E63658A
:103C20002074696D6520696E206D732028312D39EF
:103C300039293E20005365743A00456E7465722040
:103C40006E65772064656661756C74206C6179655A
:103C5000722028302D39293E200042797465732066
:103C600028686578293E200041646472657373207A
:103C700028686578293E200020532D3078005D208B
:103C8000432D3078000A5B004E756D206C6F636BBE
:103C9000206973206C696E6B656420746F20746892
:103CA000652073797374656D206E756D206C6F631C
:103CB0006B2E0A004E756D206C6F636B2077696CFC
:103CC0006C2066756E6374696F6E20696E646570D2
:103CD000656E64656E746C79206F6620746865200B
:103CE00073797374656D206E756D206C6F636B2EC8
:103CF0000A004B6579626F6172642061637473209E
:103D0000617320657874656E646564204E4B524F14
:103D1000206B6579626F6172642077697468206DC9
:103D20006F75736520616E64206D65646961206BD9
:103D30006579732E0A004B6579626F617264206148
:103D400063747320617320364B524F206B65796228
:103D50006F61726420706C7573206D6F7573652070
:103D6000616E64206D65646961206B6579732E0AEC
:103D7000004B6579626F617264206973206C696DB4
:103D80006974656420746F207374616E6461726419
:103D900020364B524F20626F6F742D636F6D7061D0
:103DA0007469626C65206B6579626F6172642E0A5A
:103DB000005363726F6C6C206C6F636B2077696C5F
:103DC0006C206E6F74206166666563742077696E1F
:103DD000206C6F636B2E0A0057696E646F777320D7
:103DE0006B65792077696C6C20626520646973610A
:103DF000626C6564207768656E207363726F6C6CAB
:103E0000206C6F636B20697320656E61626C656402
:103E10002E0A004E756D206C6F636B2077696C6C99
:103E2000206E6F7420616666656374206E756D62C6
:103E3000657220726F772E0A004E756D6265722072
:103E4000726F772077696C6C206265207377617080
:103E500070656420666F72206E756D706164206B92
:103E6000657973207768656E206E756D206C6F6361
:103E70006B20697320656E61626C65642E0A00496F
:103E80006E707574206E6F74207265636F676E69F3
:103E90007A65642E0A000A54696D696E67204D6563
:103EA0006E753A0A312920536574206465626F7516
:103EB0006E63652074696D650A322920536574202C
:103EC0006D617820686F6C642074696D6520666F21
:103ED00072207461700A332920536574206D6178F3
:103EE0002064656C61792074696D6520666F72204D
:103EF000646F75626C65207461700A3429205365A3
:103F0000742062617365206D6F757365206D6F76C7
:103F1000656D656E740A352920536574206D6F7563
:103F20007365206D6F76656D656E74206D756C744C
:103F300069706C6965720A362920536574206D6951
:103F40006E20686F6C642074696D6520666F7220E6
:103F50007265706561740A37292053657420726533
:103F60007065617420706572696F640A3829205326
:103F70006574206D61747269782073657475702042
:103F8000776169740A3929204261636B0A3E200017
:103F90000A436F6E666967204D656E753A0A31296E
:103FA00020546F67676C65207669727475616C2048
:103FB0006E756D207061640A322920546F67676CDA
:103FC000652077696E206C6F636B206F6E20736362
:103FD000726F6C6C206C6F636B0A332920536574AD
:103FE0002064656661756C74206C617965720A3451
:103FF0002920546F67676C65206261736963206B69
:104000006579626F6172640A352920546F67676C45
:104010006520756E6C696E6B206E756D206C6F63BC
:104020006B0A3629205365742064656661756C746B
:104030002064696D6D6572206C6576656C0A372940
:10404000205365742064656661756C7420626163D9
:104050006B6C6967687420656E61626C650A3929EA
:10406000204261636B0A3E20000A44656275672046
:104070004D656E753A0A3129205072696E7420655B
:1040800076656E74730A322920436C65617220650F
:1040900076656E74730A3329204578616D696E65A3
:1040A000206D656D6F72790A3429205072696E74C3
:1040B0002F636C65617220636C6F636B2D696E7327
:1040C0000A3929204261636B0A3E20000A4D61696A
:1040D0006E204D656E753A0A312920436F6E666910
:1040E00067206D656E750A32292054696D696E67A7
:1040F000206D656E750A3329204465627567206DF1
:10410000656E750A34292052657365740A39292051
:10411000517569740A3E20001E4D1F51204E2150DA
:104120002200234F244A2552264B2749374CE200D0
:10413000E900EA00E500B500B600B700CD002402B2
:10414000250283018A019201940121022302C10107
:10415000C202C304C408C510E001E102E204E3089E
:10416000E410E520E640E7800105080A0C0F101472
:1041700014181800F0AA060001B3060101B70602E0
:1041800001A8060301AE060401B6060501B806063D
:1041900001AB060701A5060801B0060902AC060B33
:1041A00002A9060D01AF060E01B4060F02A7061103
:1041B00001B206120161416242634364446545668F
:1041C000466747684869496A4A6B4B6C4C6D4D6E4F
:1041D0004E6F4F70507151725273537454755576BF
:1041E000567757785879597A5A31213240332334E7
:1041F000243525365E3726382A3928302900000034
:10420000000000000020202D5F3D2B5B7B5D7D5C6E
:104210007C237E3B3A2722607E2C3C2E3E2F3F00A3
:10422000000000000000000000000000000000008E
:10423000000000000000000000000000000000007E
:10424000000000000000000000000000000000006E
:1042500000000000002F2F2A2A2D2D2B2B000031CB
:1042600000320033003400350036003700380039A2
:104270000030002E005C7C00000000000000000008
:10428000000000000000000000000000000000002E
:1042900000000000006162636465666768696A6BBC
:1042A0006C6D6E6F707172737475767778797A4110
:1042B00042434445464748494A4B4C4D4E4F505166
:1042C00052535455565758595A3031323334353683
:1042D0003738392122232425262728292A2B2C2D3B
:1042E0002E2F3A3B3C3D3E3F405B5C5D5E5F607B1A
:1042F0007C7D7E00800000000000000000000000C7
:1043000000000000000000000000000000000000AD
:10431000000000000000000000000000000000009D
:10432000000000000000000000000000000000008D
:10433000000000000000000000000000000000007D
:10434000000000000000000000000000000000006D
:10435000000000000000000000000000000000005D
:10436000000000000000000000000000000000004D
:10437000000000000000000000000000000000003D
:10438000000000000000000000000000000000002D
:10439000000000000000000000000000000000001D
:1043A000000000000000000000000000000000000D
:1043B00000000000000000000000000000000000FD
:1043C00000000000000000000000000000000000ED
:1043D00000000000000000000000000000000000DD
:1043E00000000000000000000000000000000000CD
:1043F00000000000000000000000000000000000BD
:1044000000000000000000000000000000000000AC
:10441000000000000000000000000000000000009C
:10442000000000000000000000000000000000008C
:10443000000000000000000000000000000000007C
:10444000000000000000000000000000000000006C
:10445000000000000000000000000000000000005C
:10446000000000000000000000000000000000004C
:10447000000000000000000000000000000000003C
:10448000000000000000000000000000000000002C
:10449000000000000000000000000000000000001C
:1044A000000000000000000000000000000000000C
:1044B00000000000000000000000000000000000FC
:1044C00000000000000000000000000000000000EC
:1044D0000000000000004A034500610073007900FD
:1044E00041005600520020004D0075006C00740021
:1044F00069006D00650064006900610020004B00E8
:104500006500790062006F006100720064002000A5
:10451000760023002E00230023002E00230023001A
:1045200000000403090409022200010100A032096D
:1045300004000001030101000921B0010001223F34
:10454000000705810308000109025400030100A0CF
:10455000320904000001030101000921B00100013A
:10456000223F00070581030800010904010001033F
:104570000102000921B0010001223A00070582036F
:104580000300050904020001030000000921B00135
:104590000001221B000705830302000809025400E2
:1045A000030100A0320904000001030101000921F8
:1045B000B0010001223F0007058103120001090438
:1045C000010001030102000921B0010001223A00AB
:1045D000070582030300050904020001030000002F
:1045E0000921B0010001221B000705830302000816
:1045F0001201000200000008EB03FF201000000180
:104600000001050C0901A101050C160100269C0200
:104610001A01002A9C02751095018100C00501094C
:1046200002A1010901A100050919012903150025AD
:104630000195037501810295017505810105010947
:104640003009311681FF267F0036000046000095B4
:104650000275088106C0C005010906A101050719F8
:10466000E029E7150025017501950881029501757E
:104670000881010508190129059505750191029523
:1046800001750391011500250105071900297F9582
:104690008075018102C005010906A101050719E025
:1046A00029E7150025017501950881029501750816
:1046B00081010508190129059505750191029501EA
:1046C00075039101150025FF0507190029FF9506BF
:1046D00075088100C00011241FBECFEFD0E2DEBFFD
:1046E000CDBF84B714BE0FB6F894A8959091600022
:1046F000986190936000109260000FBE83FF11C01C
:104700008091EC069091ED068D3A9E4D51F41092F9
:10471000ED061092EC06E3E7F1E425913491F901FE
:10472000099585B7806885BF85B7806885BF11E02A
:10473000A0E0B1E0E6E3F7E800E00BBF02C00790BD
:104740000D92A435B107D9F726E0A4E5B1E001C088
:104750001D92AC3EB207E1F70E9402430C949943CC
:104760000C9400001092780110927701109273015E
:10477000109272011092820110928101089590911D
:10478000740180917F01992399F181113AC0809140
:104790007601811129C080919301811121C0E0919E
:1047A0006D01E91305C01092740110926D0129C0CA
:1047B00081E08E0F80936D01F0E0EE0FFF1FED574B
:1047C000FE4F80819181813019F49093760119C058
:1047D00090936E0180939301882399F0B7D711C00D
:1047E000EAD7109293010DC081508093760109C0E1
:1047F000811107C010926E01809175018D7F8093A9
:10480000750180917F01811103C081E080937F0158
:1048100008958091340390916F01981731F180933E
:104820006F01882311F1883211F0883531F48091BD
:1048300075018B7F809375010895E09171018A3233
:1048400051F4EE2391F0E150E0937101F0E0E7586C
:10485000FE4F10820895E63040F4AE2FB0E0A75826
:10486000BE4F8C93EF5FE093710108958091340304
:10487000811102C0109275010895BC0180917401EC
:10488000DB01982F292F281B983058F09093740142
:10489000620F711D27FD7A957093820160938101EB
:1048A00022C0FD0125913491211109C0909374011A
:1048B00010928201109281019923D1F014C0492FE6
:1048C00050E0F901FF27EE0FFF1FE052FF4F259147
:1048D0003491440F551FFA01ED57FE4F3183208369
:1048E0009F5F1196CFCF8091750183608093750192
:1048F00081E008954091740128E030E0241B3109E3
:104900002617370758F1B0E04B2F0B2E000C550B34
:1049100046175707D8F4A09174012A2F30E0FC0104
:10492000E40FF51FE081F0E0EE0FFF1FE052FF4FB4
:1049300045915491220F331FF901ED57FE4F5183DA
:104940004083AF5FA0937401BF5FDECF672B41F060
:104950008091750183608093750102C080E00895A5
:1049600081E0089590917401983090F4E92FF0E07F
:10497000EE0FFF1FED57FE4F808361839F5F909383
:1049800074018091750183608093750181E00895C1
:1049900080E008959C019091740191112EC0A901AD
:1049A000983049F490937401205F3F4F3093780121
:1049B000209377011BC0FA01659174914E5F5F4FA0
:1049C0006115710549F49093740110927801109269
:1049D0007701992381F00AC0E92FF0E0EE0FFF1F65
:1049E000ED57FE4F718360839F5FDACF8091750131
:1049F00083608093750181E0089580E00895AC01A3
:104A00008091740181113EC060938001282F082E8F
:104A1000000C330B2617370758F590917401220FBD
:104A2000331F983038F0240F351F309373012093D3
:104A300072011EC0FA01E20FF31F20813181E92FBC
:104A4000F0E0EE0FFF1FED57FE4F318320839F5F95
:104A500090937401909180019150909380019111F5
:104A600005C0109273011092720102C08F5FCECF09
:104A700080917401882341F0809175018360809357
:104A8000750102C080E0089581E00895909175015C
:104A900091FD75CE20917701309178012115310576
:104AA00011F0C90177CF2091720130917301211566
:104AB000310539F060918001062E000C770BC90199
:104AC0009ECF20918101309182012115310511F095
:104AD000C901D3CE92FD9DCEC9CEE9E7F1E01082A7
:104AE00011821282138214821582109271018091B8
:104AF000340380936F018091750185608093750107
:104B00000895E82FF0E0EE0FFF1FE052FF4F859170
:104B100094910895CF92DF92EF92FF920F931F939B
:104B2000CF93DF93CDB7DEB7EDB6FEB6E0EEF1E0A2
:104B30001491E1EEF1E0E4916E2F70E08DB79EB735
:104B4000F3E0EF9F8019910911240FB6F8949EBFEE
:104B50000FBE8DBF01966C0122EE31E0ADB7BEB73E
:104B6000139640E050E046175707B4F4F901319628
:104B70000491CD010197FC010083F9018491FD01AD
:104B800032978083F9013296E491EC934F5F5F4F47
:104B90002D5F3F4F1396E7CF412FC6010E9403348C
:104BA000412F61E070E0C6010E9403340FB6F89413
:104BB000FEBE0FBEEDBEDF91CF911F910F91FF9012
:104BC000EF90DF90CF90089508959091CA019031B1
:104BD00078F4E92FF0E09F01220F331FE20FF31F5B
:104BE000EB56FE4F8083728361839F5F9093CA016F
:104BF000089541111BC04091CA0150E090E0292F57
:104C0000092E000C330B2417350784F4F901EE0F3D
:104C1000FF1F2E0F3F1FF901EB56FE4F2081281377
:104C200003C07283618308959F5FE9CFCECF8A303E
:104C300010F4805D0895895C08951F93CF93DF93EE
:104C4000182FEB0182958F70F2DF8883812F8F7090
:104C5000EEDF8983DF91CF911F9108951F93CF934A
:104C6000DF93182FEB01892FE8DFBE016E5F7F4FC6
:104C7000812FDF91CF911F91E0CF8F929F92AF92C2
:104C8000BF92CF92DF92EF92FF920F931F93CF9339
:104C9000DF931F92CDB7DEB79C018B0180E3FB0150
:104CA000808380E28183828383E0E82EF12C94E686
:104CB000892E912C4AE0B42E682D70E0911003C02B
:104CC0002617370790F06801C90CD11C97FCDA94BD
:104CD000C9010E941543A82E862F9983A8DFF601EB
:104CE00080832A2D9981392F9394882D6B2D0E94D2
:104CF0000943882EF1E0EF1AF108F1F60F90DF91E9
:104D0000CF911F910F91FF90EF90DF90CF90BF90C8
:104D1000AF909F908F90089597EA980F993010F474
:104D20008855089592EE980F993010F48D5108959A
:104D30009CEF980F963010F48A5F089580E00895F4
:104D4000BF92CF92DF92EF92FF920F931F93CF9378
:104D5000DF937C018B0180E090E0B12CC42FD0E088
:104D60002B2D0B2C000C330B2017310790F48C9F4C
:104D700060018D9FD00C9C9FD00C1124F701E20F95
:104D8000F31F8081C9DF9601280F311DC901B3943B
:104D9000E7CFDF91CF911F910F91FF90EF90DF90C0
:104DA000CF90BF9008950F931F93CF93DF9300D0C0
:104DB00000D0CDB7DEB780917501811155C4E09167
:104DC00094018E2F90E08A31910508F04BC4FC01CC
:104DD000E45BFF4F0C943C438CEC90E44EDD7DDEB5
:104DE00082E011C011E0109394018091790194DF69
:104DF000893009F437C4843019F41093CB0134C4DA
:104E0000813021F483E0809394012EC4823011F428
:104E100087E0F9CF833009F4D9C18FE79EE320C042
:104E200080E99FE32ADD59DE84E0EDCF13E01093A3
:104E300094018091790170DF893011F481E0E3CF32
:104E4000813099F49091B70689278093B70682E064
:104E50000E94E8368091B706882321F089E39EE31B
:104E60000CDD02C483E19EE3FBCF823099F4909184
:104E7000B30681E089278093B30681E00E94E8367B
:104E80008091B306882319F088ED9DE3E9CF81EB8B
:104E90009DE3E6CF8330B1F485E39CE3EEDCBE0115
:104EA0006F5F7F4F8091A806C8DE8AE08B8363E046
:104EB00070E0CE0101961EDD8AE39CE3DEDC0DDEB0
:104EC0008FE0A1CF8430F9F48091B606811109C03A
:104ED00081E08093B60685E00E94E83686E39DE394
:104EE000BFCF813041F41093B60685E00E94E836CA
:104EF00081E79DE3B5CF1092B60685E00E94E836C3
:104F000082EF9CE3ADCF853099F49091AB0681E0C0
:104F100089278093AB0687E00E94E8368091AB0634
:104F2000882319F084EB9CE39BCF88E89CE398CF1F
:104F30008630B9F485E39CE3A0DC8091AE06BE0127
:104F40006F5F7F4F90E099DE8AE08B8363E070E0D3
:104F5000CE010196CFDC8BE99AE38FDCBEDD80E1E8
:104F600052CF873009F059CF85E39CE386DC8091EE
:104F7000A50690E0BE016F5F7F4F01967EDE8AE05E
:104F80008B8363E070E0CE010196B4DC83EC9AE39E
:104F900074DCA3DD81E137CF86E99EE36EDC9DDD25
:104FA00088E031CF87E08093940180917901B4DE6D
:104FB000893009F443CF8130B9F485E39CE35DDCAB
:104FC0008091B806BE016F5F7F4F90E056DE8AE0A9
:104FD0008B8363E070E0CE0101968CDC8EE09CE375
:104FE0004CDC7BDD82E10FCF8230C1F485E39CE3B2
:104FF00044DCBE016F5F7F4F8091B0069091B10697
:105000003CDE8AE08C8364E070E0CE01019672DCC5
:105010008BEE9BE332DC61DD83E1F5CE8330D9F4A6
:1050200085E39CE32ADC8091AC069091AD06BE013D
:105030006F5F7F4F9195819591091FDE8AE08C8388
:1050400064E070E0CE01019655DC8CEB9BE315DC4F
:1050500044DD84E1D8CE8430B9F485E39CE30DDCF3
:105060008091A906BE016F5F7F4F90E006DE8AE067
:105070008B8363E070E0CE0101963CDC85E99BE325
:10508000FCDB2BDD85E1BFCE8530B9F485E39CE305
:10509000F4DB8091AF06BE016F5F7F4F90E0EDDDE6
:1050A0008AE08B8363E070E0CE01019623DC88E622
:1050B0009BE3E3DB12DD86E1A6CE8630C1F485E317
:1050C0009CE3DBDBBE016F5F7F4F8091B406909164
:1050D000B506D3DD8AE08C8364E070E0CE010196F2
:1050E00009DC84E49BE3C9DBF8DC87E18CCE873004
:1050F000B9F485E39CE3C1DB8091A706BE016F5F35
:105100007F4F90E0BADD8AE08B8363E070E0CE01F0
:105110000196F0DB8FE19BE3B0DBDFDC88E173CE4F
:10512000883009F0A1C285E39CE3A7DB8091B20639
:10513000BE016F5F7F4F90E0A0DD8AE08C8364E06A
:1051400070E0CE010196D6DB8FEE9AE396DBC5DCEC
:1051500089E159CE89E690E490DBBFDC86E053CE4E
:1051600085E08093940180917901D6DD893009F43E
:1051700065CE813011F489E046CE823069F4E5E9EC
:10518000F1E0108212821182339641E0E53CF4078F
:10519000C1F71092CA0168C2833031F488E69CE3FB
:1051A0006CDB9BDC8CE02FCE843009F036CE8EE0B9
:1051B0002ACE8091C901803158F01092C9018AE04D
:1051C000898361E070E0CE01019694DB85E01BCE1F
:1051D00085E89CE352DBBE016F5F7F4F8091C90180
:1051E0002CDD62E070E0CE01019684DB8EE79CE36B
:1051F00044DB8AE008CE8091C90190E0FC01EE0F0B
:10520000FF1F8E0F9F1FFC01EB56FE4FBE016F5F0D
:105210007F4F808112DD62E070E0CE0101966ADB93
:1052200088E79CE32ADB8BE0EECD8091C90190E01A
:10523000FC01EE0FFF1F8E0F9F1FFC01EB56FE4F70
:10524000BE016F5F7F4F8181928108DD64E070E075
:10525000CE0101964FDB89E080939401A3C0609159
:10526000710170E040E189E791E06ADD9093C60149
:105270008093C5011092C8011092C7018AE59CE392
:10528000FCDA2BDC8DE0BFCD8091C7019091C80185
:10529000892B89F40091C5011091C60160917101BB
:1052A00070E040E189E791E04BDD800F911F909322
:1052B000C8018093C70110E20AE0E091C501F091B6
:1052C000C6018091C7019091C801E817F907D8F489
:1052D000BE016F5F7F4F8081B0DC8091C7019091EC
:1052E000C80101972091C5013091C60128173907DF
:1052F00011F40B8301C01B8363E070E0CE010196C3
:10530000F9DA81110DC02091C5013091C60180915B
:10531000C7019091C8012817390708F057CFA4C1D9
:105320008091C5019091C60101969093C60180932A
:10533000C501C3CF8091C901803178F01092C901B5
:105340008AE0898361E070E0CE010196D3DA85E0DE
:10535000809394010E94E73987C1182F1370082F9A
:1053600006950695111102C08AE001C080E289838A
:1053700061E070E0CE010196BDDA84E0189FF00193
:105380001124E00FF11DEE0FFF1FE154F94FBE0194
:105390006F5F7F4F8081918161DC64E070E0CE01BE
:1053A0000196A8DA8091C9018F5F8093C9015CC121
:1053B0006091710170E04AE089E791E0C1DC8A30D8
:1053C000910578F48093A80683E00E94E83685E38F
:1053D0009CE353DABE016F5F7F4F8091A8062DDCFE
:1053E0001AC18CE89AE349DA0DCD6091710170E041
:1053F0004AE089E791E0A4DC9C0121503109233681
:10540000310558F48093B80686E00E94E83685E3BB
:105410009CE333DA8091B80679C08CE89AE32DDA00
:10542000F7CC6091710170E04AE089E791E088DC97
:105430009C0121503109273E334078F79093B10603
:105440008093B00689E00E94E83685E39CE315DA94
:10545000BE016F5F7F4F8091B0069091B106B8C0DA
:105460006091710170E04AE089E791E069DC9C019C
:1054700021503109273E334080F69195819591095D
:105480009093AD068093AC068AE00E94E83685E3EF
:105490009CE3F3D98091AC069091AD06BE016F5F9D
:1054A0007F4F91958195910993C06091710170E052
:1054B0004AE089E791E044DC9C0121503109233620
:1054C000310508F0AACF8093A9068BE00E94E83648
:1054D00085E39CE3D2D98091A90618C0609171013F
:1054E00070E04AE089E791E02BDC9C012150310912
:1054F0002336310508F091CF8093AF068CE00E94EF
:10550000E83685E39CE3B9D98091AF06BE016F5FB1
:105510007F4F90E0B2DB8AE08B8363E070E0CE01E6
:105520000196E8D975CC6091710170E04AE089E795
:1055300091E006DC9C0121503109273E334008F000
:105540006CCF9093B5068093B4068DE00E94E83648
:1055500085E39CE392D9BE016F5F7F4F8091B406D3
:105560009091B50635C06091710170E04AE089E71D
:1055700091E0E6DB9C01215031092336310508F02A
:105580004CCF8093A7068EE00E94E83685E39CE32B
:1055900074D98091A706BACF6091710170E04AE09A
:1055A00089E791E0CDDB9C01215031092F3F310586
:1055B00008F033CF8093B2068FE00E94E83685E38F
:1055C0009CE35BD98091B206BE016F5F7F4F90E094
:1055D00054DB8AE08C8364E070E0A1CF60917101BC
:1055E00070E04AE089E791E0ABDB9C012150310992
:1055F0002031310508F0F5CE8093AE0684E00E949C
:10560000E83685E39CE339D98091AE06BE016F5F31
:105610007F4F90E032DB8AE08B8363E070E0CE0165
:10562000019668D9EFCB6091710170E04AE089E79B
:1056300091E086DB9C01215031092031310508F0D1
:10564000D0CE81508093A50688E00E94E83685E39D
:105650009CE313D98091A50690E0BE016F5F7F4F58
:105660000196D8CF109294010F900F900F900F9049
:10567000DF91CF911F910F91089526E0829FC00185
:105680001124FC01E05DFE4F0190F081E02D2081AE
:1056900081E090E001C0880F6A95EAF7822B808351
:1056A000089526E0829FC0011124FC01E05DFE4FB9
:1056B0000190F081E02D808160956823462B408326
:1056C000089526E0829FC0011124FC01E05DFE4F99
:1056D0000280F381E02D208181E090E001C0880FFD
:1056E0006A95EAF7822B8083089526E0829FC001A5
:1056F0001124FC01E05DFE4F0280F381E02D20814A
:1057000081E090E001C0880F6A95EAF780958223D6
:105710008083089526E0829FC0011124FC01E05D92
:10572000FE4F0280F381E02D80816823462B408369
:10573000089526E0829FC0011124FC01E05DFE4F28
:105740000480F581E02D808186230895E82FE69579
:10575000E695E695F0E0E95DFC4F982F977021E023
:1057600030E001C0220F9A95EAF79081292B20831F
:105770009091210320E029175CF4E22F022E000C07
:10578000FF0BEC5CFC4F30813817A1F02F5FF3CF9B
:1057900096305CF4E92F092E000CFF0BEC5CFC4FFB
:1057A00080839F5F90932103089510923A0381E0D4
:1057B00080932A050895E82FE695E695E695F0E0B2
:1057C000E95DFC4F982F977021E030E001C0220F77
:1057D0009A95EAF7209590812923208390912103BF
:1057E00044E353E0FA012E2F241B291724F43191AE
:1057F0003813F9CF01C00895E22F022E000CFF0BE1
:10580000EC5CFC4F818180832F5F2917ACF39150B2
:105810009093210310922A050895E82FE695E695C6
:10582000E695F0E0E95DFC4F982F977021E030E0BD
:1058300001C0220F9A95EAF7908129272083909141
:10584000210344E353E0FA012E2F241B291724F4EB
:1058500031913813F9CF13C096305CF4E92F092E3B
:10586000000CFF0BEC5CFC4F80839F5F9093210347
:10587000089510923A0381E080932A050895E22F5B
:10588000022E000CFF0BEC5CFC4F818180832F5FAC
:105890002917ACF391509093210310922A05089593
:1058A00090917C0494305CF4E92F092E000CFF0BDE
:1058B000EE5DFC4F80839F5F90937C04089540E0F1
:1058C00060E070E082E495D910922603089520915B
:1058D0007C0442E253E0FA019E2F941B92179CF441
:1058E00031913813F9CF921751F0E92F092E000C9E
:1058F000FF0BEE5DFC4F818180839F5FF4CF915061
:1059000090937C040895682F70E040E083E471C9AF
:105910008091A80680932D05089598E1899F600DD8
:10592000112480911C0368130DC08091AC069091E6
:10593000AD068417950734F480912C058F5F809312
:105940002C05089510921C0310922C050895E091E7
:10595000B006F091B1064E175F0754F491E0F901DB
:105960009083F8E18F9F600D112460931C030895CC
:10597000F901108210921C0310922C050895909149
:105980008001E92FEE0FFF0BE45CFC4F20911E031A
:1059900030E0322F2227282B318320839F5F909382
:1059A0008001089590912E05911111C0805D8E3077
:1059B00070F4E82FF0E0EE0FFF1FE958F84E8591E4
:1059C0009491880F991F8958984E0C94CA24089571
:1059D000CF93DF93C82FD62F63DF80912D05909151
:1059E000A806891711F08B5F59D580E18C0F809341
:1059F0002D0585E18C0F32D58FE030D580912D05B6
:105A000090911D03D0FF02C0981308C0981308C0DE
:105A100080912C05811104C08091A80680931D03FC
:105A2000DF91CF910895E82FF0E0EE53FC4F849181
:105A3000882311F060E0CCCF08951F93CF93DF93BC
:105A400000D01F92CDB7DEB7182F2B834A8369830E
:105A50003EDF2B814A816981222399F120912D0516
:105A6000E22FF0E0812F90E0805F9109E817F907BD
:105A700041F580912C05882319F061FD20931D03C9
:105A80008091200381131DC062FF1BC0141624F4F3
:105A900060911E03842F13C0842F807E803E89F482
:105AA000E42FF0E0EE0FFF1FE756F04C8491809555
:105AB00090911E03892380931E03649180E00E94CD
:105AC000B22480912D058B5FE9D4E0917C04E11133
:105AD00003C080911D0307C00E2E000CFF0BEF5D6D
:105AE000FC4F8081805F80932D0580912D059091E2
:105AF000A806891741F08B5F0F900F900F90DF91F0
:105B0000CF911F91ABC48FE00F900F900F90DF915A
:105B1000CF911F91C3C4E82FF0E0EE53FC4F849166
:105B2000882321F020E040E060E087CF08956F7087
:105B3000623051F028F4662339F0613081F0089525
:105B4000643011F06830F1F4E82FF0E0EE0FFF1F41
:105B5000E756F04CE49180911E03E82B0AC0E82F31
:105B6000F0E0EE0FFF1FE756F04CE49180911E032A
:105B7000E827E0931E0380912B05882319F0E7772F
:105B8000E0931E0308956F70623009F43FC018F46B
:105B9000662381F10895643019F0683059F1089551
:105BA000E82FF0E0EE0FFF1FE756F04CE491E09590
:105BB00060911E036E2360931E03222309F444C0E8
:105BC00090912003981340C0842F14168CF0807E8F
:105BD000803E09F039C0E42FF0E0EE0FFF1FE756DA
:105BE000F04C84918095682360931E03649180E05B
:105BF0000C94B224E82FF0E0EE0FFF1FE756F04CB4
:105C0000E491E09580911E03E8231CC0E82FF0E0AA
:105C100090911E03EE0FFF1FE756F04C222379F000
:105C200080912C05882359F08491E82FE92BE0938B
:105C30001E0380912B05882339F0E77703C0E49198
:105C4000E095E923E0931E0308956F70623051F0F0
:105C500028F4662339F0613031F00895643011F092
:105C6000683011F473CDD9CD08956F70623049F06A
:105C700018F461110DC00BC0643049F0683041F474
:105C800006C0222321F090912C05911101C093CDE3
:105C900008951F93CF93DF931F92CDB7DEB7182FD0
:105CA000862F807F11F080936E01103C78F5103BB9
:105CB00008F0C1C0133A09F48CC0B8F4133809F4E1
:105CC00072C050F4143008F40FC1143708F458C0EF
:105CD000123809F460C008C1113A09F476C008F01E
:105CE00076C0143809F469C0FFC0193A09F48AC0B3
:105CF00020F4183A08F07FC06EC01E3A09F48FC035
:105D000008F091C01A3A09F4F5C0EEC01E3D20F526
:105D1000103D08F0C1C0163C09F4A2C088F4113C43
:105D200008F4E2C0EFE3E10FF0E0EE0FFF1FE15BEC
:105D3000FE4BE49180912705E82BE0932705DAC01C
:105D4000183C09F497C008F48FC0193C09F0CCC086
:105D500080913B038F5F91C0183E50F4103E08F0D5
:105D6000C0C01E3D09F49BC01F3D09F4ACC0BCC0BF
:105D70008FE0810F893008F0B7C0812F29DEBAC0CB
:105D800080912905882321F0812F6983F8DD6981BD
:105D9000812F5BDFAFC080911F0381FDABC060919D
:105DA0001E0389E307C080911F0380FDA3C060919B
:105DB0001E0383E50E94B2249DC080911F0382FDD3
:105DC00099C060911E0387E4F5CF4BD493C023D4D0
:105DD00091C013D48FC08091290581118BC081E0BF
:105DE000809329051092800180932E058CE5810F08
:105DF0008093BB065EC090912E0581E08927809339
:105E00002E0578C090912B0581E0892780932B0582
:105E1000811102C085E055C085E020D36BC082E0CF
:105E20008093CB0167C080919401811163C081E0B0
:105E3000809394015FC080917D0490917E04892BB2
:105E400009F058C0E0E5E10FF0E0EE0FFF1FE25D62
:105E5000FE4B8591949190937E0480937D044AC07B
:105E6000809128058F5F03C0809128058150809321
:105E7000280505C080913B03815080933B0390919E
:105E8000A40680912C05992321F09091A2069817E1
:105E900088F58093A2062EC0812F84DD2BC09091BF
:105EA000290581E0892780932905882321F0109214
:105EB000800180E1B2CF80918001811180937001D7
:105EC00080E1ECD217C080912905811113C0609147
:105ED0007001062E000C770B8CE393E00E94FF24E8
:105EE00009C0812F24DE06C0612F70E040E084E409
:105EF0000E94F925109320030F90DF91CF911F91FD
:105F000008951F93CF93DF9300D01F92CDB7DEB7D4
:105F1000182F862F807F11F010926E01163C10F51D
:105F2000113C08F0A0C01B3A98F4113A08F0DFC009
:105F3000123809F462C028F48CEF810F8037B0F179
:105F4000CAC0133809F461C0143809F46DC0C3C065
:105F50001E3A08F4C0C0103B08F4C9C0103C08F455
:105F60006BC0B9C0103E90F4103D08F0C0C0173CA3
:105F700009F48DC008F487C0183C09F48EC0193CA0
:105F800009F0A9C080913B0381508AC0183E08F4F3
:105F90008AC08FE0810F893008F09DC0812F0F905B
:105FA0000F900F90DF91CF911F9147CD80912905E0
:105FB0008823D9F080912E058823B9F0183211F08A
:105FC0001B3299F410922E051092290580918001C0
:105FD0008150809370011092BC0680E12B834A832C
:105FE00069835CD269814A812B81812F0F900F9048
:105FF0000F90DF91CF911F9138CE80911F0381FFC9
:1060000076C060911E0389E307C080911F0380FF63
:106010006EC060911E0383E50F900F900F90DF918B
:10602000CF911F910C94B22480911F0382FF5FC017
:1060300060911E0387E4F0CF60E5610FE62FF0E08A
:10604000EE0FFF1FE25DFE4B8591949120917D0440
:1060500030917E042817390709F049C010927E0458
:1060600010927D0444C06FE3610FE62FF0E0EE0F65
:10607000FF1FE15BFE4BE491E09580912705E8234B
:10608000E093270534C080912805815003C080919A
:1060900028058F5F809328052AC080913B038F5F7E
:1060A00080933B0324C080912905882361F080916F
:1060B0002003811308C080E02B834A8369835FDC5F
:1060C00069814A812B81812F0F900F900F90DF9172
:1060D000CF911F9158CD612F70E040E085E40F9083
:1060E0000F900F90DF91CF911F910C94F9250F9095
:1060F0000F900F90DF91CF911F91089520911E0373
:10610000227291E009F090E02091B706222359F025
:10611000992349F020911F0320FF05C022EE280F8C
:106120002A3008F4855C2091AB06222321F18335C7
:1061300071F490911F0381E0892780931F0380FFF2
:1061400003C080E08BD11FC080E0A8D11CC027EA2B
:10615000280F2B3080F420911F03E82FF0E0EE0F82
:10616000FF1F20FF05C0992319F0EA59FF4B02C019
:10617000E959FF4B84918A3A39F4911102C085E3C1
:10618000089589E2089580E00895AF92BF92CF927A
:10619000DF92EF92FF920F931F93CF93DF9300D084
:1061A0001F92CDB7DEB7D82E062F10E080912D05B7
:1061B00098EAC92E98E1D99E70011124F701C89E72
:1061C000E00DF11D1124E00FF11FE951FF4E849104
:1061D0004A835B83698392DFB82E80912D059701F6
:1061E000C89E200D311D1124200F311FF901E95ADD
:1061F000F54FC490F901E953FC4FA4900E0D1F1DFB
:10620000F801EC58FD4FB082F801E158FB4FC08215
:10621000F801E453FE4FA0824A815B8169818D2D94
:106220007CDB4A2D6C2D8B2D34DD25D20F900F9009
:106230000F90DF91CF911F910F91FF90EF90DF9022
:10624000CF90BF90AF900C94EC3B9F92AF92BF92D7
:10625000CF92DF92EF92FF920F931F93CF93DF9332
:106260001F92CDB7DEB798E1899F90011124260FC8
:10627000311DF901EC58FD4F6F01B080F901E15873
:10628000FB4F7F01A080890104531E4FF8019080CD
:106290009E012F5F3F4F5BDB2981492D6A2D8B2D9E
:1062A00030DEF6011082F7011082F80110820F90A3
:1062B000DF91CF911F910F91FF90EF90DF90CF90E2
:1062C000BF90AF909F90089528E1829FC001112454
:1062D0009C01260F311DF901EC58FD4F8081F90119
:1062E000E158FB4F908193FF1AC018161CF460917F
:1062F0001E0313C0982F907E903E89F4E82FF0E0A3
:10630000EE0FFF1FE756F04C8491809590911E038D
:10631000892380931E03649180E00C94B224089535
:1063200020912E05211112C0FC01A4E3B3E00696D2
:1063300021E030912A05332311F0208302C03C91E3
:10634000308331961196E817F90799F7089520914F
:106350002E05211109C0DC01E7E2F3E08DE08E0F8C
:1063600091919D938E13FCCF0895FC0180912E0591
:10637000811106C080916E0190911E03982B90832D
:10638000089528E1829FC0011124FC01E60FF11D50
:10639000E951FF4EE491E83211F0E83539F441E07B
:1063A00060E070E081E50E94F92574C4089590E0F2
:1063B0009C01220F331F820F931FFC01EC54F74CFA
:1063C0002491FC0131968E54974CEE54F74C621791
:1063D00021F06491FC01849174C96491FC01849161
:1063E00084C90F931F93CF93DF93E3EEF8E3D49127
:1063F00002EB18E3C0E0CD1769F0F8013196649123
:10640000F80184913AD960E08C2FD1DFCF5F0D5F26
:106410001F4FF1CF8091AE0680933E0580933B05E0
:106420008091A50680933905DF91CF911F910F913F
:10643000089580913705893F69F4809143058F3E27
:1064400019F41092430503C08F5F809343051092A7
:10645000370508958F5F80933705089590E0880F82
:10646000991FFC01E857F74CA491FC01E757F74C42
:106470008491E2EEF8E3E491AE1778F4B0E0A15D28
:10648000BA4F811103C08C91816006C09C919170BC
:10649000E82FEE0F892F8E0F8C93089590E0880FD0
:1064A000991FFC01E857F74CA491FC01E757F74C02
:1064B0008491E2EEF8E3E491AE1780F4B0E0A15DE0
:1064C000BA4F811104C08C918E7F8C9308959C915A
:1064D000292F2695281302C091709C93089582302D
:1064E00049F0833079F08130A1F481E1B7DF82E1B6
:1064F000D5DF0CC081E1D2DF82E1D0DF83E1AEDF06
:1065000084E1CCCF81E1CADF82E1A8DF83E1C6DF8D
:10651000F7CF81E1C3DF82E1C1DF83E1BFDF84E147
:106520009DCF0F931F93CF93E2EEF8E3E491C0E089
:106530000E2F10E08C2F0C2E000C990B801791075A
:1065400014F520913A052223C9F0FC01E15DFA4FD0
:106550002081223018F421110FC010C0E22FE695DF
:10656000F0E0E859FE4B6491809143050E94094395
:10657000921720F490FF02C061E001C060E08C2F10
:1065800016DFCF5FD7CFCF911F910F9108958091E4
:106590003E05803110F081E002C08C5F8C7F8093DB
:1065A0003E05089580913F058F5F813118F48093F7
:1065B0003F05089581E080933F0510923D051092BC
:1065C0004205089590913E05903120F081E080933E
:1065D0003A05089580913D0520913F05929F902DA9
:1065E0001124891738F491E090933A05805F8093E5
:1065F0003D05089510923A050895E7E8F8E3E4911F
:10660000809139058F5F8E1718F4809339050895AE
:10661000109239050895809140058F5F843018F4F9
:106620008093400502C01092400580914005811181
:1066300003C080913E0503C0813021F484E0809343
:106640003B050895823031F484E080933B0510923D
:106650003C05089580E180933B0581E080933C05F3
:10666000089595DF80914005811104C080913E0519
:1066700080933B05089580914005823011F488E1B4
:106680000BC0833071F480913B05853010F084504D
:1066900003C0882321F0815080933B050895109218
:1066A0003B050895809141058F5F803318F48093F6
:1066B0004105089510924105909140059130B1F443
:1066C00020913C0580913B05222341F08F5F809310
:1066D0003B058831E0F010923C050895815080938D
:1066E0003B058530A0F490933C050895923031F439
:1066F00080913B05853058F0815007C0933039F4C4
:1067000080913B05803118F48F5F80933B0508959D
:1067100080913B05803120F081E080933805089519
:1067200090913F05899F802D112490913C059111F6
:10673000807F90914205981738F481E08093380566
:10674000905F9093420508951092380508951F9325
:10675000CF93DF93E3EEF8E3E49110E0CE2FD0E0A7
:10676000212F012E000C330B2C173D07ECF4F901FF
:10677000E958F74CE491EE23A9F08091380588237D
:1067800071F080913905F90190E1899FE00DF11DCB
:106790001124E958F84CE49161E0E11101C060E096
:1067A000812F05DE1F5FDCCFDF91CF911F91089510
:1067B000F9DE08DF3EDEB5DE75DFAADFC8CF27B120
:1067C000242B27B928B1342F3095232338B1432BFC
:1067D0003FB7F894FC01680F791FE617F70789F0B7
:1067E000819198E048B9000000C087FF28B9880F60
:1067F000000000C000C000C028B900C09A9591F701
:10680000ECCF3FBF08959B01220F331F620F731F10
:10681000D6DF87EC90E00197F1F700C00000089503
:106820001F920F920FB60F9211240F900FBE0F9070
:106830001F90189590E080E80FB6F894809361005F
:10684000909361000FBE0895F5CF8DEA9EED909371
:10685000ED068093EC06089584E189BD86E189BD4B
:1068600009B400FEFDCF8091D8008F7D8093D800C1
:106870008091E00082608093E0008091E00081FDE3
:10688000FCCF0895CF92DF92EF92FF921F93CF93A8
:10689000DF93E3EBF9E3E491E0934405E2EBF9E302
:1068A000E491E0934B05E1EBF9E3E491E0934C05CF
:1068B000E0EBF9E3E491E0934D0584EAE82E89E307
:1068C000F82E95E4C92E95E0D92ED0E0F701149169
:1068D00080914B0581111FEFF7013196C4914C2F28
:1068E000612F8D2F0E94512B2C2F2095F601219383
:1068F0006F01422F412380914B05642F60958111D8
:1069000001C040E08D2F0E948A2BDF5FF2E0EF0E86
:10691000F11CD630D9F6DF91CF911F91FF90EF9007
:10692000DF90CF900895CF92DF92EF92FF920F9376
:106930001F93CF93C0E080914C0590E02C2F0C2E3C
:10694000000C330B281739070CF054C085E4E82EEF
:1069500085E0F82EF6E0CF026001112400E010E09F
:10696000F801EC0DFD1DEC5EF64C4491F7016191D0
:106970007F01802F0E948A2B0F5F1F4F0630110569
:1069800079F78091B2068A95F1F710E0212F012E58
:10699000000C330B80914D0590E02817390744F522
:1069A00080914B05220F331FF901EB51F74C8823DF
:1069B00051F06491F901EC51F74C84910E94992BAC
:1069C000882351F013C06491F901EC51F74C849184
:1069D0000E94992B882351F080914405882319F057
:1069E0006C2F812F02C0612F8C2FCBDC1F5FCECF8D
:1069F000CF5FA1CFCF911F910F91FF90EF90DF90CC
:106A0000CF900895CF93DF93962F642F28E1929F24
:106A1000E0011124C40FD11DCC0FDD1FC25BDA4F82
:106A200048815981882301F157FF0EC02091B80693
:106A300030E0319521953109241735077CF1892FF4
:106A4000A4DB84E090E020C02091B4063091B5062C
:106A50004217530794F0892F37DC2091A7068881CD
:106A60009981821B910910C01416150684F4209197
:106A7000B80630E0421753071CF44C5F5F4F10C05C
:106A8000892FE3DB8CEF9FEF998388830BC0809184
:106A9000AC069091AD068417950724F44450510933
:106AA00059834883DF91CF910895CF92DF92EF927F
:106AB000FF920F931F93CF93DF93D62FC82FCD173D
:106AC0000CF05AC085E4E82E85E0F82EF6E0CF02FF
:106AD0006001112400E010E0F70161917F016F3F38
:106AE00049F0F801EC0DFD1DEC5EF64C4491802F51
:106AF0000E948A2B0F5F1F4F0630110569F78091A6
:106B0000B2068A95F1F710E0212F012E000C330B0D
:106B100080914D0590E02817390764F580914B0569
:106B2000220F331FF901EB51F74C882359F0649180
:106B3000F901EC51F74C84910E94992B91E0882344
:106B400061F00AC06491F901EC51F74C84910E9404
:106B5000992B91E0811101C090E080914405882338
:106B600019F04C2F612F02C0412F6C2F892F4ADF63
:106B70001F5FCACFCF5FA3CFDF91CF911F910F913E
:106B8000FF90EF90DF90CF90089560914C0566954F
:106B9000669580E08ACF80914C05682F70E07595EE
:106BA00067958695869581CF80914C0593E0899F66
:106BB000B00111247595679575956795869575CF84
:106BC00060914C0523E0629FC00111249595879543
:106BD000959587956ACF81E08093A10608952091CD
:106BE000A106AC01249FC001259F900D11246AE0ED
:106BF00070E00E9415438091A006562F581B852FE8
:106C00006093A0062F5F2093A1062B3028F01092EE
:106C1000A00691E09093A106089580912805811126
:106C200004C080913B03882311F181E08093A40686
:106C30002091A9068091A2069091AF063091A306FB
:106C4000311120C0899FC0011124820F911DC7DF1F
:106C500090912805899F902D112490939F069091E3
:106C60003B03899F802D112480939E060BC01092B8
:106C7000A4061092A00610929F0610929E068AE02B
:106C80008093A1068091A306811103C081E08093C7
:106C9000A3060895CF93DF93CDB7DEB763970FB602
:106CA000F894DEBF0FBECDBF59E15093AA061092F3
:106CB000B3061092B7061092A80640E14093AE06C4
:106CC0001092B60636E03093B8061092AB061092DA
:106CD000A50680EF90E09093B1068093B00688E817
:106CE0009FEF9093AD068093AC0685E08093A90654
:106CF0002FE02093AF0660E273E07093B5066093D7
:106D0000B40690E29093A7068093B20659831A8244
:106D10001B821C824D831E823F831886198630EFAA
:106D20003A871B8638E83C873FEF3D878E872F8761
:106D3000988B23E0298B9A8B8B8B43E150E060E0AA
:106D400070E0CE0101960E946F4363960FB6F894EF
:106D5000DEBF0FBECDBFDF91CF9108950F931F937C
:106D6000CF93DF93C5E7D1E4FE013296849131964B
:106D7000E49190E0E23059F4FE01059114918050C5
:106D800090400E946A43F8019183808309C0FE010C
:106D900005911491805090400E946243F8018083D5
:106DA0002496F1E4C53BDF07F9F66091AA06693144
:106DB00031F070E041E080E50E94F9256BDF8091C1
:106DC000B6068093A606DF91CF911F910F9108958B
:106DD00024E0829FC0011124FC01E958FE4B24915C
:106DE000FC01E858FE4B3491FC01EB58FE4B822F1E
:106DF00090E0323041F4A591B4916D917C91805036
:106E000090400C948643A591B4916C918050904031
:106E10000C94784385E08093BC0608958091BB066E
:106E20002EE28202C0011124FC01E352F64C44918F
:106E3000FC01E252F64C3491FC01E152F64C2491F3
:106E4000FC01E052F64C9491509180018091B9067A
:106E5000513079F01CF4552331F01FC0523081F0CD
:106E60005330A9F01AC0442321F06AE10E9409437B
:106E70002EC0332329F06AE10E940943965E27C0A1
:106E8000222329F06AE00E9409439C5C20C09923D8
:106E900021F0982F9F71925C1AC0442311F06AE18F
:106EA00001C060E03111665E2111665F9111605E84
:106EB0000E940943411101C0965E311103C09A310D
:106EC00034F0965E211103C094330CF0965FE92FE5
:106ED000990FFF0BEB56FD4B8491089584509272ED
:106EE000E82FF0E0EE0FFF1F911103C0EB54FE4BB3
:106EF00002C0EA54FE4B849108950F931F93CF93E1
:106F0000DF93E091BB0620918001022E000C330B31
:106F1000CE2F0E2E000CDD0B8EE2E802F0011124C4
:106F2000E452F64C649170E0C9010E942943082F95
:106F30001091B90660917001062E000C770BC90103
:106F40000E942943FC01FF27EE0FFF1FE45CFC4F6A
:106F500080819181C3DF810F982F990F87FD9F5FFB
:106F60009093B9068EE28C9FF0018D9FF00D112455
:106F7000E00FF11DEC54F64CE4918091B906E8273E
:106F8000E093B906DF91CF911F910F910895EF9291
:106F9000FF920F931F93CF93DF931F92CDB7DEB76E
:106FA0008091BB062EE28202C0011124FC01EF5148
:106FB000F64C6491062F10E020EA30E0201B310BE4
:106FC000220F331FA901445C5C4F7A012091BC065B
:106FD000223009F444C028F4222351F02130C9F0B2
:106FE000AEC0233009F45BC0243009F47FC0A7C0D1
:106FF0001092B90621E02093BC0610928001FC019A
:10700000E452F64CE491E1119AC085E08093BC060D
:1070100096C020918001FC01E20FF11D27FDFA9539
:10702000EC54F64CE4914091B9064E0F4093B906EA
:107030002F5F20938001FC01E452F64C8491022ED4
:10704000000C330B90E0281739070CF478C082E06D
:107050008093BC06109280014093BA0670C01091D4
:10706000BA06E0918001EE0FFF0BE45CFC4F8081DB
:107070009181698333DF810F8093BA0690918001FB
:107080009F5F9093800120917001698192170CF4A9
:1070900056C00E9409439093BA0683E022C02DDFB8
:1070A0008091BA06E80EF11CE80EF11CB7DE0E94D2
:1070B0008125F701918380838091BA0690E0019643
:1070C000B8010E9429438093BA06809180018F5FA6
:1070D00080938001082E000C990B801791077CF19A
:1070E00084E08093BC061092800129C080918001C9
:1070F000282F220F330BFA01E20FF31F4081518139
:10710000F901E45CFC4F518340838F5F80938001E1
:10711000082E000C990B801791078CF085E0809366
:10712000BC0660937001B8018CE393E00F90DF918F
:10713000CF911F910F91FF90EF900C94FF240F902F
:10714000DF91CF911F910F91FF90EF900895809163
:10715000BC06853009F01BCF0895CF92DF92EF92E5
:10716000FF920F931F93CF93DF93CDB7DEB7EDB6AA
:10717000FEB6E4EFF2E41491E5EFF2E4E4916E2F51
:1071800070E08DB79EB7F3E0EF9F8019910911244D
:107190000FB6F8949EBF0FBE8DBF01966C0126EF0F
:1071A00032E4ADB7BEB7139640E050E0461757073C
:1071B000B4F4F90131960491CD010197FC010083EB
:1071C000F9018491FD0132978083F9013296E491AF
:1071D000EC934F5F5F4F2D5F3F4F1396E7CF412FEB
:1071E000C60111DB412F61E070E0C6010CDB0FB678
:1071F000F894FEBE0FBEEDBEDF91CF911F910F91AF
:10720000FF90EF90DF90CF90089513BC1092800014
:107210001092820080E89EE390938900809388001A
:1072200008951092BD067894109285001092840003
:1072300081E08093810082E080936F009AE088E192
:107240000FB6F894A895809360000FBE90936000ED
:10725000E0E6F0E08081806C808308950FB6F894BA
:10726000A895809160008861809360001092600012
:107270000FBEE0E6F0E080818F7B808310926F008C
:107280001092810008958091840090918500E09192
:10729000BD062091DF0634E0E39FF0011124E20FE8
:1072A000F11DEE0FFF1FE154F94F208131812817A6
:1072B000390780F4E091BD062091DF0634E0E39FBA
:1072C000F0011124E20FF11DEE0FFF1FE154F94F01
:1072D000918380830895CF93DF93C0E0D0E08091C5
:1072E000BD06FE0124E0829FE00DF11D1124EE0F8A
:1072F000FF1FE459F54C85919491009729F0C093B4
:10730000DF06FC010995BFDF2196C430D10539F7AE
:10731000DF91CF91089510928500109284008091A2
:10732000BE06882381F08091BD066091DF0670E083
:10733000782B40E081E10E94F9258091BE068F5FA5
:107340008093BE06089581E08093BE067894C3DFE3
:107350008091BD068F5F8093BD06843010F010923F
:10736000BD068091BE06823038F06091BE0670E0A6
:1073700040E084E10E94F925A8951092BE06089588
:107380001F920F920FB60F9211240BB60F922F93EC
:107390003F934F935F936F937F938F939F93AF939D
:1073A000BF93EF93FF93B7DFFF91EF91BF91AF9141
:1073B0009F918F917F916F915F914F913F912F910D
:1073C0000F900BBE0F900FBE0F901F901895EFEB14
:1073D000F6E01182108213821282158214821782C3
:1073E0001682389686E0EF3DF80799F70895292F21
:1073F00033272330310511F13CF42130310561F0A0
:107400002230310571F070C02132310531F1223264
:10741000310509F43DC068C082E190E020EF35E419
:107420006CC08091A606833009F44AC0813009F40B
:107430004CC084E590E02CE935E45FC099270097C3
:1074400031F0019709F050C0E6EDF4E402C0E2E249
:10745000F5E4849190E09F0150C0613049F068F0FC
:10746000623009F041C089E090E020EE35E445C08B
:1074700089E090E027EC35E440C08091A606833097
:1074800049F1813061F189E090E02EEA35E435C0C0
:10749000613041F060F0623039F58BE190E022E03C
:1074A00036E42BC08AE390E02DE136E426C08091DB
:1074B000A60680FD1EC08FE390E027E536E41DC0E0
:1074C00082E290E026E235E418C084E590E028E40A
:1074D00035E413C089E090E028E335E40EC089E08C
:1074E00090E02AE535E409C080E090E020E030E05B
:1074F00004C08FE390E026E936E4FA01318320836B
:10750000089581E00C946F320895CF93DF9380E269
:1075100091E05DD7C82F8091A60681FD09C080E16A
:1075200091E055D7D82F80E091E051D78D23C82323
:10753000CC2311F080E001C083E00E946F32809183
:10754000E20084608093E200DF91CF91089580E2B1
:1075500091E005D68091A60681FD06C080E191E00C
:10756000FED580E091E0FBC5089580912E019091B9
:107570002F01009729F0019790932F0180932E01FE
:107580008091A60681FD16C080911E0190911F0179
:10759000009729F0019790931F0180931E0180911D
:1075A0000E0190910F01009729F0019790930F0120
:1075B00080930E01089580E00C946F3282E00C9469
:1075C0006F3280E00C946F320F931F93CF93DF9351
:1075D000F90121E080329207F9F4EF0110927F0166
:1075E0002091A606CF01029620FD07C02091290117
:1075F000222319F00E94A73102C00E949031CE01CF
:107600000E94B5318091A60680FF03C088E090E01B
:1076100024C082E190E021C080519140B1F41092E9
:10762000A30680912705808380919F0681838091A6
:107630009E06828383E090E0F8019183808381E05D
:107640009091A40691110DC00BC080917D04909182
:107650007E049183808382E090E0F80191838083AF
:1076600080E0DF91CF911F910F910895CF938052C9
:10767000914009F081C0F901808180931F03C0917E
:107680005501C82780935501CC2309F475C090910A
:10769000AB06911111C0C0FF0FC080FF07C080E092
:1076A0000E942E3280E00E94132D06C080E00E94CE
:1076B0004E3280E00E948B2DC1FF11C080911F03CC
:1076C00081FF07C081E00E942E3281E00E94132DCD
:1076D00006C081E00E944E3281E00E948B2DC2FFE5
:1076E00024C080911F0382FF11C082E00E942E32CD
:1076F00082E00E94132D8091B3068823B1F081E0CF
:1077000080932B0585E00E942E320FC082E00E94FC
:107710004E3282E00E948B2D8091B306882329F09F
:1077200010922B0585E00E944E32C3FF11C080915C
:107730001F0383FF07C083E00E942E3283E00E9474
:10774000132D06C083E00E944E3283E00E948B2DF1
:10775000C4FF12C080911F0384FF07C084E00E9411
:107760002E3284E0CF910C94132D84E00E944E328F
:1077700084E0CF910C948B2DCF9108958091A60633
:1077800080FF09C088E08093280188E090E0909312
:10779000230180932201089580E291E02BD680910D
:1077A000A60681FD06C080E191E024D680E091E04C
:1077B00021D6BBD48091E30690915401981759F0DB
:1077C0006091E30670E041E086EA0E94F92580912D
:1077D000E3068093540108958091E106882329F0FF
:1077E0008091E306853009F437C80895CF92DF927F
:1077F000EF92FF920F931F93CF93DF93EC018B01D6
:107800007A01D8D1811133C0E114F10439F0F701C4
:1078100080819181081B190BC80FD91FC12CD12C55
:107820000115110519F18091E80085FD16C08091C0
:10783000E8008E778093E80078D4E114F10449F0F1
:10784000F70180819181C80ED91ED182C08285E066
:107850000EC0B0D1882321F30AC089918093F10032
:1078600001501109FFEFCF1ADF0ADACF80E0DF9174
:10787000CF911F910F91FF90EF90DF90CF900895DF
:107880002091EA063091EB062617370748F061157C
:10789000710539F42091E8002E772093E80001C0AB
:1078A000B90140E06115710599F12091E3062223A9
:1078B00009F441C0253009F440C02091E80023FDBF
:1078C0003EC02091E80022FD30C02091E80020FF5A
:1078D000E9CF2091F2003091F300FC01CF01611556
:1078E000710559F02830310540F481918093F10001
:1078F000615071092F5F3F4FF1CF41E028303105D2
:1079000009F040E02091E8002E772093E800CACFEC
:107910004111CBCF0AC08091E306882361F0853006
:1079200061F08091E80083FD0AC08091E80082FF49
:10793000F2CF80E0089582E0089583E0089581E029
:1079400008956115710529F42091E8002B772093A3
:10795000E800FC016115710531F18091E30688238F
:1079600051F1853051F18091E80083FD22C0809172
:10797000E80082FFEFCF8091F2009091F300892B15
:1079800031F08091F100819361507109A1F78091EC
:10799000E8008B778093E800DDCF8091E3068823B1
:1079A00051F0853051F08091E80080FFF6CF80E003
:1079B000089581E0089582E0089583E0089520917C
:1079C000EA063091EB062617370748F06115710576
:1079D00039F42091E8002E772093E80001C0B90126
:1079E000FC0120E06115710581F18091E306882397
:1079F00009F43EC0853009F43DC08091E80083FD64
:107A00003BC08091E80082FD2DC08091E80080FF9E
:107A1000E9CF8091F2009091F3006115710559F062
:107A20008830910540F424912093F1003196615003
:107A300071090196F2CF21E0089709F020E08091CA
:107A4000E8008E778093E800CDCF2111CECF0AC019
:107A50008091E306882361F0853061F08091E80031
:107A600083FD0AC08091E80082FFF2CF80E0089594
:107A700082E0089583E0089581E00895982F97307B
:107A800058F59093E900981739F07091EC00209127
:107A9000ED005091F00003C0242F762F50E021FF1D
:107AA00019C03091EB003E7F3093EB003091ED0038
:107AB0003D7F3093ED003091EB0031603093EB006F
:107AC0007093EC002093ED005093F0002091EE00B5
:107AD00027FF07C09F5FD3CF8F708093E90081E0BD
:107AE000089580E00895EF92FF920F931F93CF9334
:107AF000DF93E62EEC018C010C5F1F4FF12CFE147E
:107B000091F15881552351F1F801208169817A81E1
:107B100031979081852F8F70873010F080E024C0DE
:107B2000223010F442E001C046E0E8E0F0E020E05E
:107B3000E617F70720F42F5FEE0FFF1FF9CF22950E
:107B4000207F422BF0E49F9F90011124551F552761
:107B5000551F652F622B92DF882301F3F39425963E
:107B60000B5F1F4FCCCF81E0DF91CF911F910F9121
:107B7000FF90EF9008958091E40687FF11C08091F7
:107B8000E80082FD05C08091E3068111F8CF11C0A5
:107B90008091E8008B770BC08091E306882349F041
:107BA0008091E80080FFF8CF8091E8008E77809385
:107BB000E80008952091E4003091E50095E64091B9
:107BC000EC00842F817040FF22C08091E80080FD8E
:107BD0001CC08091E306882391F0853091F080915C
:107BE000EB0085FD10C04091E4005091E500421784
:107BF000530729F39A01915011F784E0089582E028
:107C0000089583E0089581E0089580E0089540910B
:107C1000E80042FFDECF089568D06FD0E0EEF0E0DC
:107C2000808181608083E8EDF0E080818F778083C0
:107C300019BCA7EDB0E08C918E7F8C9380818F7EF4
:107C400080831092E20608950F931F93CF93DF93E2
:107C50004CD053D0C8EDD0E088818F77888388815D
:107C60008068888388818F7D8883E7EDF0E080815C
:107C70008068808319BC1092E3061092E00610928F
:107C8000E10600EE10E0F80180818B7F808388811F
:107C90008160888342E060E080E0F0DEE1EEF0E0C9
:107CA00080818E7F8083E2EEF0E08081816080833E
:107CB000808188608083F80180818E7F80838881C5
:107CC00080618883DF91CF911F910F910895E8ED36
:107CD000F0E080818F7E8083E7EDF0E0808181603D
:107CE000808381E08093E206AFCFE8EDF0E0808111
:107CF0008C7F80831092E20008951092DA00109237
:107D0000E10008951F920F920FB60F9211240BB647
:107D10000F922F933F934F935F936F937F938F9324
:107D20009F93AF93BF93EF93FF938091E10082FF06
:107D30000AC08091E20082FF06C08091E1008B7F43
:107D40008093E10012DC8091DA0080FF1DC08091F9
:107D5000D80080FF19C08091DA008E7F8093DA000E
:107D60008091D90080FF0CC084E189BD86E189BD86
:107D700009B400FEFDCF81E08093E306C2DB04C0BE
:107D800019BC1092E306C0DB8091E10080FF18C0AF
:107D90008091E20080FF14C08091E2008E7F80938A
:107DA000E2008091E20080618093E2008091D8003F
:107DB00080628093D80019BC85E08093E306FEDBE7
:107DC0008091E10084FF2FC08091E20084FF2BC0EE
:107DD00084E189BD86E189BD09B400FEFDCF8091B3
:107DE000D8008F7D8093D8008091E1008F7E8093B2
:107DF000E1008091E2008F7E8093E2008091E200BA
:107E000081608093E2008091E006882311F084E095
:107E100007C08091E30087FD02C081E001C083E0DC
:107E20008093E306CEDB8091E10083FF22C0809146
:107E3000E20083FF1EC08091E100877F8093E10014
:107E400082E08093E3061092E0068091E1008E7F4D
:107E50008093E1008091E2008E7F8093E200809128
:107E6000E20080618093E20042E060E080E006DEB4
:107E7000A2DBFF91EF91BF91AF919F918F917F9185
:107E80006F915F914F913F912F910F900BBE0F908B
:107E90000FBE0F901F9018951F93CF93DF93CDB710
:107EA000DEB7AA970FB6F894DEBF0FBECDBFE4EEE3
:107EB000F6E088E08E0F9091F10091938E13FBCF46
:107EC00046DB8091E80083FF18C18091E406909121
:107ED000E506492F50E04A30510508F00EC1FA017D
:107EE000EA59FF4FC9C3803881F0823809F005C1D3
:107EF0008091E8068F708093E9008091EB0085FB0C
:107F0000882780F91092E90007C08091E106882354
:107F100011F082E001C080E09091E800977F90939B
:107F2000E8008093F1001092F100C4C0282F2D7F4B
:107F300009F0E3C0882319F0823061F0DEC080913F
:107F4000E606813009F0D9C0933009F080E08093D3
:107F5000E1062BC08091E606811127C08091E806DA
:107F60008F7009F4CAC08093E9002091EB0020FFD4
:107F70001CC0933021F48091EB00806214C090917A
:107F8000EB0090619093EB0021E030E0A90102C08A
:107F9000440F551F8A95E2F74093EA001092EA00D9
:107FA0008091EB0088608093EB001092E900809153
:107FB000E800877F82C08111A0C01091E6061F777C
:107FC0008091E3008078812B8093E3008091E8002A
:107FD000877F8093E800CFDD8091E80080FFFCCFB1
:107FE0008091E30080688093E300111102C082E079
:107FF00001C083E08093E30680C08058823008F09F
:108000007CC08091E6069091E7068C3D53E0950791
:1080100071F583E08A838AE289834FB7F894DE01A1
:10802000139620E03EE051E2E32FF0E0509357003A
:10803000E49120FF03C0E295EF703F5FEF708E2F59
:1080400090E0EA3010F0C79601C0C0968D939D93E2
:108050002F5F243149F74FBF8091E800877F8093DD
:10806000E8006AE270E0CE0101960ADC12C0AE01BF
:108070004F5F5F4F6091E806BAD9BC01892B09F4C4
:108080003CC09091E800977F9093E80089819A81A5
:1080900096DC8091E8008B778093E8002EC08038D2
:1080A00061F58091E800877F8093E8008091E00689
:1080B0008093F1008091E8008E778093E8005BDD8B
:1080C0001CC081111AC09091E6069230B0F48091E4
:1080D000E800877F8093E8009093E0064CDD809174
:1080E000E006811106C08091E30087FD02C081E0B7
:1080F00001C084E08093E30608DA8091E80083FF02
:108100000AC08091E800877F8093E8008091EB00AF
:1081100080628093EB00AA960FB6F894DEBF0FBE84
:10812000CDBFDF91CF911F910895CF938091E3064A
:10813000882399F0C091E900CF709091EC00892FCD
:10814000817090FD80E8C82B1092E9008091E800D2
:1081500083FDA2DECF70C093E900CF9108956F92A6
:108160007F928F929F92AF92BF92CF92DF92EF92C7
:10817000FF920F931F93CF93DF9300D01F92CDB741
:10818000DEB77C01CDB6DEB68091E80083FF08C182
:10819000F701808190E02091E8063091E9062817E8
:1081A000390709F0FDC08091E506833009F49FC0CE
:1081B00030F4813071F0823009F4D6C0F1C08A30D9
:1081C00009F4BAC08B3009F4A3C0893009F0E8C0C3
:1081D00051C08091E406813A09F0E2C08DB69EB6A6
:1081E0001A8219828091E6061091E7068B83F701C7
:1081F0008085482F50E08DB79EB7841B950B0FB636
:10820000F8949EBF0FBE8DBFEDB7FEB731965F01EC
:1082100060E070E0CF014FD24FEF410F8E010F5F52
:108220001F4F9501BE016D5F7F4FC701CDD9F7018B
:1082300086819781009721F0408550E0B50132D2C8
:108240001092E9008091E800877F8093E8008B819D
:1082500081118093F10069817A81C50111DB8091E0
:10826000E8008B778093E8000FB6F8949EBE0FBEAF
:108270008DBE96C08091E406813209F091C0ADB602
:10828000BEB60091EA061091EB067090E60660908B
:10829000E7068DB79EB7801B910B0FB6F8949EBF73
:1082A0000FBE8DBFEDB7FEB731964F018091E8004C
:1082B000877F8093E800B801CF0143DB8091E8001D
:1082C0008E778093E80021E0711001C020E030E05B
:1082D000021B130B280D391D4FEF460D672DC701EB
:1082E000C5D90FB6F894BEBE0FBEADBE59C08091C1
:1082F000E406813A09F054C08091E800877F8093BA
:10830000E8008091E80080FFFCCFF701818540C044
:108310008091E406813209F043C08091E800877FB4
:108320008093E80028DC9091E60681E0911101C07D
:1083300080E0F701818734C08091E406813281F5C5
:108340008091E800877F8093E80015DC8091E60645
:108350009091E706882736E0969587953A95E1F75C
:10836000F701958784871CC08091E406813AC1F4A7
:108370008091E800877F8093E8008091E80080FF8B
:10838000FCCFF70184859585969587959695879579
:108390008093F1008091E8008E778093E800EBDB1A
:1083A0000FB6F894DEBE0FBECDBE0F900F900F90AB
:1083B000DF91CF911F910F91FF90EF90DF90CF90C1
:1083C000BF90AF909F908F907F906F900895FC0129
:1083D000399627E0DF011D922A95E9F721E0FC019B
:1083E000218724EF31E03587248723E0248361E06F
:1083F000019679CB4F925F926F927F928F929F926C
:10840000AF92BF92CF92DF92EF92FF920F931F93A2
:10841000CF93DF9300D01F92CDB7DEB77C01ADB60E
:10842000BEB68091E306843009F08DC08091E400EF
:108430009091E500F701228533852817390709F463
:1084400082C081818F708093E9008091E80085FF70
:108450007AC08DB69EB6408550E08DB79EB7841B1E
:10846000950B0FB6F8949EBF0FBE8DBFEDB7FEB74C
:1084700031966F011B821A82198260E070E0CF0191
:108480001AD18E010F5F1F4F960140E0BE016D5F54
:108490007F4FC70199D8482EF70184859585892B90
:1084A00051F091E080E026853785232B09F090E09C
:1084B000092F182F02C000E010E0F70166807780D6
:1084C0006114710489F049815A81B301C601DDD07C
:1084D00055245394892B09F4512CF701408550E021
:1084E000B601C301DFD001C0512C89819A81892B4B
:1084F000F1F0411004C0511002C0012BC1F0F7018E
:10850000848595859787868781818F708093E90020
:108510008B8181118093F10069817A8140E050E084
:10852000C60164D98091E8008E778093E80080913D
:10853000E4009091E500F701938782870FB6F894E5
:108540009EBE0FBE8DBE0FB6F894BEBE0FBEADBEB2
:108550000F900F900F90DF91CF911F910F91FF908F
:10856000EF90DF90CF90BF90AF909F908F907F90D3
:108570006F905F904F90089508950E9424340E9458
:10858000E4250E94AE360E9442340E94F1310E94DE
:10859000882C0E94EB350E94B2230E940A370E9469
:1085A0000539ECD80E94AD380E948A250E94933488
:1085B0008ECB0E9411398091CB018823E1F30C947A
:1085C0002E392ADBF8942FEF87EA91E6215080407C
:1085D0009040E1F700C000008091CB01823011F49F
:1085E0000E9425348091CB01882359F09CE088E1DA
:1085F0000FB6F894A895809360000FBE909360002A
:10860000FFCF0895B9DFB9DFD4DFDBDF80E090E092
:108610000895991B79E004C0991F961708F0961BDE
:10862000881F7A95C9F780950895AA1BBB1B51E155
:1086300007C0AA1FBB1FA617B70710F0A61BB70BD2
:10864000881F991F5A95A9F780959095BC01CD0177
:10865000089597FB072E16F4009406D077FD08D0F6
:10866000E4DF07FC05D03EF4909581959F4F089577
:10867000709561957F4F0895EE0FFF1F0024001C39
:108680000BBE0790F691E02D0994FB01DC0104C0BC
:108690008D910190801921F441505040C8F7881BFA
:1086A000990B0895FB01DC0102C001900D9241502D
:1086B0005040D8F70895DC0101C06D9341505040FF
:1086C000E0F70895F999FECF92BD81BDF89A9927F8
:1086D00080B50895A8E1B0E042E050E01CC0DC01A4
:1086E000CB0102C02D9105D041505040D8F70895DC
:1086F000262FF999FECF1FBA92BD81BD20BD0FB6BE
:10870000F894FA9AF99A0FBE01960895F1DF272F8F
:10871000F0CFDC01CB01FC01F999FECF06C0F2BD20
:10872000E1BDF89A319600B40D9241505040B8F72F
:068730000895F894FFCF4C
:108736000283020000015601020000000000000052
:108746000182030000015801030000000000000040
:108756000081120000015B01120000000000000011
:108766002400250023002700280026002A002B00CD
:1087760029002D002E002C00300031002F00210092
:0487860022002000AD
:00000001FF
