:100000000C9447210C948C210C948C210C948C2101
:100010000C948C210C948C210C948C210C948C21AC
:100020000C948C210C948C210C945E3C0C948C21AF
:100030000C94EC310C948C210C948C210C948C211C
:100040000C948C210C949C370C948C210C948C2156
:100050000C948C210C948C210C948C210C948C216C
:100060000C948C210C948C210C948C210C948C215C
:100070000C948C210C948C210C948C210C948C214C
:100080000C948C210C948C210C948C210C948C213C
:100090000C948C210C948C211029C824CE24EC249F
:1000A000F22486268C26A825AE25B526D726F1264D
:1000B0000B2720277627B427CA28EF28D127ED273A
:1000C0000C2831284A286F288F28A8284F3D723DD8
:1000D000593E723D593EB73DD93D593E2B3E3D3EBE
:1000E0000000000000000000000000000000000010
:1000F0002A002B002800000000002800000000005B
:1001000000000000000000000000000000000000EF
:1001100000000000000029000000000000000000B6
:100120002C001E023402200221022202240234008A
:100130002602270225022E0236002D003700380045
:1001400027001E001F0020002100220023002400A1
:10015000250026003302330036022E003702380213
:100160001F020402050206020702080209020A022F
:100170000B020C020D020E020F02100211021202FB
:1001800013021402150216021702180219021A02AB
:100190001B021C021D022F003100300023022D0221
:1001A00035000400050006000700080009000A00E9
:1001B0000B000C000D000E000F00100011001200CB
:1001C00013001400150016001700180019001A007B
:1001D0001B001C001D002F023102300235024C00B2
:1001E00040000000000000000000000000000000CF
:1001F00000000000000000000000000000000000FF
:1002000000000000000000000000000000000000EE
:1002100000000000000000000000000000000000DE
:1002200000000000000000000000000000000000CE
:10347000FF00FF00FF00FF00FF0000000000000051
:10348000000000000000000000000000000000003C
:10349000000000000000000000000000000000002C
:1034A00000000000000000000000080C0000000008
:1034B000000000000000000000000000000000000C
:1034C00000000000000000000000000000000000FC
:1034D00000000000000000000000000000000000EC
:1034E00000000000000000000000000000000000DC
:1034F00000000000000000000000000000000000CC
:1035000000000000000000000000000000000000BB
:1035100000000000000000000000000000000000AB
:10352000000000000000000000000000000000009B
:10353000000000000000000000000000000000008B
:10354000000000000000000000000000000000007B
:10355000000000000000000000000000000000006B
:10356000000000000000000000000000000000005B
:10357000000000000000000000000000000000004B
:10358000000000000000000000000000000000003B
:103590000000000000010101011400000000000013
:1035A000000000000000000000000000000000001B
:1035B000000000000000000000000000000000000B
:1035C00000000001010101140000000000000000E3
:1035D00000000000000000000000000000000000EB
:1035E00000000000000000000000000000000000DB
:1035F00000010101011400000000000000000000B3
:1036000000000000000000000000000000000000BA
:1036100000000000000000000000000000000001A9
:1036200001010114A839A133B4310000A733833656
:10363000E933B431A839B033B4310000BC332223AC
:10364000AF24B4314F7574206F662072616E676568
:103650002E0A00456E746572206E6577206465667B
:1036600061756C742064696D6D6572206C6576653A
:103670006C2028312D3136293E2000456E7465724C
:10368000206E65772064656661756C742062616385
:103690006B6C6967687420656E61626C65202831A7
:1036A0002D3136293E2000456E746572206E657797
:1036B000206D61747269782073657475702077610C
:1036C000697420696E206379636C65732028312DDD
:1036D000323535293E2000456E746572206E65775F
:1036E000207265706561742074696D6520696E2053
:1036F0006D732028312D3939293E2000456E7465BF
:1037000072206E657720686F6C642074696D652027
:10371000696E206D732028312D393939293E2000FA
:10372000456E746572206E6577206D6F75736520C8
:103730006D6F76656D656E74206D756C7469706CF7
:103740006965722028312D3939293E2000456E7473
:103750006572206E65772062617365206D6F757389
:1037600065206D6F76656D656E742028312D393951
:10377000293E2000456E746572206E657720646F67
:1037800075626C657461702064656C617920746920
:103790006D6520696E206D732028312D39393929E6
:1037A0003E2000456E746572206E657720746170EE
:1037B0002074696D6520696E206D732028312D3964
:1037C0003939293E2000456E746572206E65772078
:1037D0006465626F756E63652074696D6520696EDE
:1037E000206D732028312D3939293E20005365740E
:1037F0003A00456E746572206E6577206465666177
:10380000756C74206C617965722028302D39293EE1
:10381000200042797465732028686578293E20006D
:10382000416464726573732028686578293E2000BE
:1038300020532D3078005D20432D3078000A5B0046
:103840004E756D206C6F636B206973206C696E6BB5
:10385000656420746F207468652073797374656D76
:10386000206E756D206C6F636B2E0A004E756D2097
:103870006C6F636B2077696C6C2066756E6374691E
:103880006F6E20696E646570656E64656E746C79C8
:10389000206F66207468652073797374656D206E7F
:1038A000756D206C6F636B2E0A004B6579626F61DA
:1038B0007264206163747320617320657874656E2F
:1038C000646564204E4B524F206B6579626F617264
:1038D000642077697468206D6F75736520616E640C
:1038E000206D65646961206B6579732E0A004B65F4
:1038F00079626F6172642061637473206173203632
:103900004B524F206B6579626F61726420706C75E9
:1039100073206D6F75736520616E64206D656469D9
:1039200061206B6579732E0A004B6579626F617255
:1039300064206973206C696D6974656420746F20FC
:103940007374616E6461726420364B524F20626FF3
:103950006F742D636F6D70617469626C65206B6547
:1039600079626F6172642E0A005363726F6C6C200F
:103970006C6F636B2077696C6C206E6F742061666E
:10398000666563742077696E206C6F636B2E0A0026
:1039900057696E646F7773206B65792077696C6CFB
:1039A0002062652064697361626C65642077686574
:1039B0006E207363726F6C6C206C6F636B20697325
:1039C00020656E61626C65642E0A004E756D206C18
:1039D0006F636B2077696C6C206E6F742061666614
:1039E000656374206E756D62657220726F772E0A42
:1039F000004E756D62657220726F772077696C6C0E
:103A0000206265207377617070656420666F722034
:103A10006E756D706164206B657973207768656E73
:103A2000206E756D206C6F636B20697320656E610D
:103A3000626C65642E0A00496E707574206E6F7436
:103A4000207265636F676E697A65642E0A000A5496
:103A5000696D696E67204D656E753A0A312920538C
:103A60006574206465626F756E63652074696D6549
:103A70000A322920536574206D617820686F6C6468
:103A80002074696D6520666F72207461700A332935
:103A900020536574206D61782064656C61792074B1
:103AA000696D6520666F7220646F75626C65207445
:103AB00061700A3429205365742062617365206D3A
:103AC0006F757365206D6F76656D656E740A352947
:103AD00020536574206D6F757365206D6F76656D0D
:103AE000656E74206D756C7469706C6965720A36E8
:103AF0002920536574206D696E20686F6C64207492
:103B0000696D6520666F72207265706561740A3731
:103B10002920536574207265706561742070657228
:103B2000696F640A382920536574206D6174726965
:103B30007820736574757020776169740A3929205B
:103B40004261636B0A3E20000A436F6E666967201C
:103B50004D656E753A0A312920546F67676C652090
:103B60007669727475616C206E756D207061640A7F
:103B7000322920546F67676C652077696E206C6FFF
:103B8000636B206F6E207363726F6C6C206C6F635D
:103B90006B0A3329205365742064656661756C7403
:103BA000206C617965720A342920546F67676C65EF
:103BB000206261736963206B6579626F6172640A68
:103BC000352920546F67676C6520756E6C696E6B64
:103BD000206E756D206C6F636B0A362920536574F7
:103BE0002064656661756C742064696D6D65722012
:103BF0006C6576656C0A37292053657420646566A8
:103C000061756C74206261636B6C696768742065B0
:103C10006E61626C650A3929204261636B0A3E203D
:103C2000000A4465627567204D656E753A0A312950
:103C3000205072696E74206576656E74730A32293D
:103C400020436C656172206576656E74730A332952
:103C5000204578616D696E65206D656D6F72790ABA
:103C60003429205072696E742F636C656172206311
:103C70006C6F636B2D696E730A3929204261636B27
:103C80000A3E20000A4D61696E204D656E753A0A44
:103C9000312920436F6E666967206D656E750A3243
:103CA000292054696D696E67206D656E750A332928
:103CB000204465627567206D656E750A342920524F
:103CC000657365740A392920517569740A3E2000AC
:103CD0001E4D1F51204E21502200234F244A2552B1
:103CE000264B2749374CE200E900EA00E500B50021
:103CF000B600B700CD002402250283018A0192019B
:103D0000940121022302C101C202C304C408C510E8
:103D1000E001E102E204E308E410E520E640E78088
:103D20000105080A0C0F101414181800F0F605000D
:103D300001FF05010103060201F4050301FA050470
:103D4000010206050104060601F7050701F1050851
:103D500001FC050902F8050B02F5050D01FB050E36
:103D60000100060F02F3051101FE05120161416217
:103D70004263436444654566466747684869496AE3
:103D80004A6B4B6C4C6D4D6E4E6F4F705071517253
:103D90005273537454755576567757785879597AC3
:103DA0005A31213240332334243525365E372638C4
:103DB0002A39283029000000000000000020202DB2
:103DC0005F3D2B5B7B5D7D5C7C237E3B3A272260E5
:103DD0007E2C3C2E3E2F3F00000000000000000023
:103DE00000000000000000000000000000000000D3
:103DF00000000000000000000000000000000000C3
:103E0000000000000000000000000000002F2F2A2A
:103E10002A2D2D2B2B0000310032003300340035C9
:103E200000360037003800390030002E005C7C007E
:103E30000000000000000000000000000000000082
:103E4000000000000000000000000000006162634C
:103E50006465666768696A6B6C6D6E6F70717273AA
:103E60007475767778797A414243444546474849A4
:103E70004A4B4C4D4E4F505152535455565758592A
:103E80005A3031323334353637383921222324251C
:103E9000262728292A2B2C2D2E2F3A3B3C3D3E3F0E
:103EA000405B5C5D5E5F607B7C7D7E00800000002F
:103EB0000000000000000000000000000000000002
:103EC00000000000000000000000000000000000F2
:103ED00000000000000000000000000000000000E2
:103EE00000000000000000000000000000000000D2
:103EF00000000000000000000000000000000000C2
:103F000000000000000000000000000000000000B1
:103F100000000000000000000000000000000000A1
:103F20000000000000000000000000000000000091
:103F30000000000000000000000000000000000081
:103F40000000000000000000000000000000000071
:103F50000000000000000000000000000000000061
:103F60000000000000000000000000000000000051
:103F70000000000000000000000000000000000041
:103F80000000000000000000000000000000000031
:103F90000000000000000000000000000000000021
:103FA0000000000000000000000000000000000011
:103FB0000000000000000000000000000000000001
:103FC00000000000000000000000000000000000F1
:103FD00000000000000000000000000000000000E1
:103FE00000000000000000000000000000000000D1
:103FF00000000000000000000000000000000000C1
:1040000000000000000000000000000000000000B0
:1040100000000000000000000000000000000000A0
:104020000000000000000000000000000000000090
:104030000000000000000000000000000000000080
:104040000000000000000000000000000000000070
:104050000000000000000000000000000000000060
:104060000000000000000000000000000000000050
:104070000000000000000000000000000000000040
:1040800000000000000000000000000000004A03E3
:104090004500610073007900410056005200200085
:1040A0004D0075006C00740069006D0065006400CF
:1040B0006900610020004B006500790062006F001C
:1040C0006100720064002000760023002E002300AF
:1040D00023002E002300230000000403090409022A
:1040E0002200010100A032090400000103010100C7
:1040F0000921B0010001223F0007058103080001EA
:1041000009025400030100A0320904000001030168
:1041100001000921B0010001223F000705810308C9
:1041200000010904010001030102000921B001009E
:1041300001223A0007058203030005090402000179
:10414000030000000921B0010001221B00070583C4
:104150000302000809025400030100A03209040010
:104160000001030101000921B0010001223F000705
:104170000581031200010904010001030102000985
:1041800021B0010001223A0007058203030005095E
:1041900004020001030000000921B0010001221BFC
:1041A0000007058303020008120100020000000856
:1041B000EB03FF20100000010001050C0901A10123
:1041C000050C160100269C021A01002A9C0275109B
:1041D00095018100C005010902A1010901A10005A5
:1041E000091901290315002501950375018102951F
:1041F00001750581010501093009311681FF267F0E
:1042000000360000460000950275088106C0C00512
:10421000010906A101050719E029E7150025017527
:104220000195088102950175088101050819012988
:1042300005950575019102950175039101150025FC
:104240000105071900297F958075018102C00501CC
:104250000906A101050719E029E7150025017501E7
:104260009508810295017508810105081901290544
:10427000950575019102950175039101150025FFC2
:104280000507190029FF950675088100C000112453
:104290001FBECFEFD0E2DEBFCDBF84B714BE0FB6D6
:1042A000F894A895909160009861909360001092A6
:1042B00060000FBE83FF11C08091380690913906CF
:1042C0008D3A9E4D51F41092390610923806EBE269
:1042D000FDE325913491F901099585B7806885BF83
:1042E00085B7806885BF11E0A0E0B1E0EEEEF2E8AE
:1042F00000E00BBF02C007900D92A435B107D9F7BB
:1043000026E0A4E5B1E001C01D92A833B207E1F7B1
:104310000E94DE400C9475410C94000010927801CC
:104320001092770110927301109272011092820123
:104330001092810108959091740180917F019923D9
:1043400099F181113AC080917601811129C0809143
:104350009301811121C0E0916D01E91305C0109214
:10436000740110926D0129C081E08E0F80936D0160
:10437000F0E0EE0FFF1FED57FE4F808191818130FD
:1043800019F49093760119C090936E018093930174
:10439000882399F0B7D711C0EAD7109293010DC0C6
:1043A00081508093760109C0811107C010926E017F
:1043B000809175018D7F8093750180917F018111BE
:1043C00003C081E080937F0108958091EC02909179
:1043D0006F01981731F180936F01882311F18832B2
:1043E00011F0883531F4809175018B7F80937501D0
:1043F0000895E09171018A3251F4EE2391F0E15079
:10440000E0937101F0E0E758FE4F10820895E63026
:1044100040F4AE2FB0E0A758BE4F8C93EF5FE0930F
:10442000710108958091EC02811102C01092750112
:104430000895BC0180917401DB01982F292F281B5E
:10444000983058F090937401620F711D27FD7A9592
:10445000709382016093810122C0FD012591349106
:10446000211109C090937401109282011092810170
:104470009923D1F014C0492F50E0F901FF27EE0F26
:10448000FF1FE052FF4F25913491440F551FFA0151
:10449000ED57FE4F318320839F5F1196CFCF8091E0
:1044A000750183608093750181E0089540917401E6
:1044B00028E030E0241B31092617370758F1B0E017
:1044C0004B2F0B2E000C550B46175707D8F4A09115
:1044D00074012A2F30E0FC01E40FF51FE081F0E0C9
:1044E000EE0FFF1FE052FF4F45915491220F331FF3
:1044F000F901ED57FE4F51834083AF5FA0937401E4
:10450000BF5FDECF672B41F08091750183608093A0
:10451000750102C080E0089581E0089590917401D2
:10452000983090F4E92FF0E0EE0FFF1FED57FE4FAB
:10453000808361839F5F9093740180917501836094
:104540008093750181E0089580E008959C01909129
:10455000740191112EC0A901983049F4909374010F
:10456000205F3F4F30937801209377011BC0FA0101
:10457000659174914E5F5F4F6115710549F4909399
:1045800074011092780110927701992381F00AC08A
:10459000E92FF0E0EE0FFF1FED57FE4F71836083B0
:1045A0009F5FDACF8091750183608093750181E010
:1045B000089580E00895AC018091740181113EC09E
:1045C00060938001282F082E000C330B2617370725
:1045D00058F590917401220F331F983038F0240F52
:1045E000351F30937301209372011EC0FA01E20F50
:1045F000F31F20813181E92FF0E0EE0FFF1FED570F
:10460000FE4F318320839F5F9093740190918001CE
:10461000915090938001911105C0109273011092F6
:10462000720102C08F5FCECF80917401882341F068
:104630008091750183608093750102C080E00895C8
:1046400081E008959091750191FD75CE20917701DB
:10465000309178012115310511F0C90177CF2091F2
:104660007201309173012115310539F0609180019B
:10467000062E000C770BC9019ECF2091810130914D
:1046800082012115310511F0C901D3CE92FD9DCED5
:10469000C9CEE9E7F1E010821182128213821482FE
:1046A0001582109271018091EC0280936F018091CC
:1046B00075018560809375010895E82FF0E0EE0F95
:1046C000FF1FE052FF4F859194910895CF92DF92A2
:1046D000EF92FF920F931F93CF93DF93CDB7DEB787
:1046E000EDB6FEB6E0EEF1E01491E1EEF1E0E4911A
:1046F0006E2F70E08DB79EB7F3E0EF9F80199109A0
:1047000011240FB6F8949EBF0FBE8DBF01966C01A9
:1047100022EE31E0ADB7BEB7139640E050E0461749
:104720005707B4F4F90131960491CD010197FC01CA
:104730000083F9018491FD0132978083F90132965B
:10474000E491EC934F5F5F4F2D5F3F4F1396E7CFA0
:10475000412FC6010E94DF31412F61E070E0C601A8
:104760000E94DF310FB6F894FEBE0FBEEDBEDF91A2
:10477000CF911F910F91FF90EF90DF90CF90089510
:1047800008959091CA01903178F4E92FF0E09F01EB
:10479000220F331FE20FF31FEB56FE4F808372830D
:1047A00061839F5F9093CA01089541111BC040919E
:1047B000CA0150E090E0292F092E000C330B24177A
:1047C000350784F4F901EE0FFF1F2E0F3F1FF9018B
:1047D000EB56FE4F2081281303C072836183089536
:1047E0009F5FE9CFCECF8A3010F4805D0895895C59
:1047F00008951F93CF93DF93182FEB0182958F704D
:10480000F2DF8883812F8F70EEDF8983DF91CF9174
:104810001F9108951F93CF93DF93182FEB01892FDA
:10482000E8DFBE016E5F7F4F812FDF91CF911F9137
:10483000E0CF8F929F92AF92BF92CF92DF92EF9292
:10484000FF920F931F93CF93DF931F92CDB7DEB7E5
:104850009C018B0180E3FB01808380E28183828362
:1048600083E0E82EF12C94E6892E912C4AE0B42EB8
:10487000682D70E0911003C02617370790F068018B
:10488000C90CD11C97FCDA94C9010E94F140A82EF2
:10489000862F9983A8DFF60180832A2D9981392FED
:1048A0009394882D6B2D0E94E540882EF1E0EF1A3D
:1048B000F108F1F60F90DF91CF911F910F91FF90CA
:1048C000EF90DF90CF90BF90AF909F908F90089522
:1048D00097EA980F993010F48855089592EE980F42
:1048E000993010F48D5108959CEF980F963010F484
:1048F0008A5F089580E00895BF92CF92DF92EF9291
:10490000FF920F931F93CF93DF937C018B0180E085
:1049100090E0B12CC42FD0E02B2D0B2C000C330BCE
:104920002017310790F48C9F60018D9FD00C9C9FC5
:10493000D00C1124F701E20FF31F8081C9DF96012B
:10494000280F311DC901B394E7CFDF91CF911F919B
:104950000F91FF90EF90DF90CF90BF9008950F934D
:104960001F93CF93DF9300D000D0CDB7DEB78091F7
:104970007501811155C4E09194018E2F90E08A3128
:10498000910508F04BC4FC01E45BFF4F0C94184107
:1049900084E89CE34EDD7DDE82E011C011E01093DF
:1049A00094018091790194DF893009F437C484300F
:1049B00019F41093CB0134C4813021F483E0809347
:1049C00094012EC4823011F487E0F9CF833009F4CA
:1049D000D9C187E39AE320C088E49BE32ADD59DE4E
:1049E00084E0EDCF13E0109394018091790170DFA2
:1049F000893011F481E0E3CF813099F4909103067E
:104A000089278093030682E00E94C43480910306C4
:104A1000882321F081EF99E30CDD02C48BEC99E34C
:104A2000FBCF823099F49091FF0581E08927809334
:104A3000FF0581E00E94C4348091FF05882319F0AE
:104A400080E999E3E9CF89E699E3E6CF8330B1F4D1
:104A50008DEE97E3EEDCBE016F5F7F4F8091F40532
:104A6000C8DE8AE08B8363E070E0CE0101961EDD34
:104A700082EF97E3DEDC0DDE8FE0A1CF8430F9F426
:104A800080910206811109C081E08093020685E0D1
:104A90000E94C4348EEE98E3BFCF813041F410936E
:104AA000020685E00E94C43489E299E3B5CF1092F2
:104AB000020685E00E94C4348AEA98E3ADCF8530CF
:104AC00099F49091F70581E089278093F70587E0B5
:104AD0000E94C4348091F705882319F08CE698E38E
:104AE0009BCF80E498E398CF8630B9F48DEE97E3BE
:104AF000A0DC8091FA05BE016F5F7F4F90E099DEE8
:104B00008AE08B8363E070E0CE010196CFDC83E521
:104B100096E38FDCBEDD80E152CF873009F059CFBC
:104B20008DEE97E386DC8091F10590E0BE016F5F2A
:104B30007F4F01967EDE8AE08B8363E070E0CE01DA
:104B40000196B4DC8BE796E374DCA3DD81E137CF1B
:104B50008EE49AE36EDC9DDD88E031CF87E08093C0
:104B6000940180917901B4DE893009F443CF81301A
:104B7000B9F48DEE97E35DDC80910406BE016F5FB2
:104B80007F4F90E056DE8AE08B8363E070E0CE01D9
:104B900001968CDC86EC97E34CDC7BDD82E10FCF69
:104BA0008230C1F48DEE97E344DCBE016F5F7F4F2E
:104BB0008091FC059091FD053CDE8AE08C8364E0E9
:104BC00070E0CE01019672DC83EA97E332DC61DDAE
:104BD00083E1F5CE8330D9F48DEE97E32ADC809122
:104BE000F8059091F905BE016F5F7F4F9195819512
:104BF00091091FDE8AE08C8364E070E0CE010196AB
:104C000055DC84E797E315DC44DD84E1D8CE8430BD
:104C1000B9F48DEE97E30DDC8091F505BE016F5F71
:104C20007F4F90E006DE8AE08B8363E070E0CE0188
:104C300001963CDC8DE497E3FCDB2BDD85E1BFCE08
:104C40008530B9F48DEE97E3F4DB8091FB05BE016E
:104C50006F5F7F4F90E0EDDD8AE08B8363E070E073
:104C6000CE01019623DC80E297E3E3DB12DD86E1EF
:104C7000A6CE8630C1F48DEE97E3DBDBBE016F5F1D
:104C80007F4F8091000690910106D3DD8AE08C83EE
:104C900064E070E0CE01019609DC8CEF96E3C9DB9D
:104CA000F8DC87E18CCE8730B9F48DEE97E3C1DB79
:104CB0008091F305BE016F5F7F4F90E0BADD8AE01F
:104CC0008B8363E070E0CE010196F0DB87ED96E325
:104CD000B0DBDFDC88E173CE883009F0A1C28DEE55
:104CE00097E3A7DB8091FE05BE016F5F7F4F90E0E9
:104CF000A0DD8AE08C8364E070E0CE010196D6DB13
:104D000087EA96E396DBC5DC89E159CE81E29CE334
:104D100090DBBFDC86E053CE85E0809394018091E8
:104D20007901D6DD893009F465CE813011F489E04E
:104D300046CE823069F4E5E9F1E0108212821182F8
:104D4000339641E0E53CF407C1F71092CA0168C20E
:104D5000833031F480E298E36CDB9BDC8CE02FCE77
:104D6000843009F036CE8EE02ACE8091C9018031A0
:104D700058F01092C9018AE0898361E070E0CE01A9
:104D8000019694DB85E01BCE8DE398E352DBBE01F8
:104D90006F5F7F4F8091C9012CDD62E070E0CE0132
:104DA000019684DB86E398E344DB8AE008CE8091B9
:104DB000C90190E0FC01EE0FFF1F8E0F9F1FFC0149
:104DC000EB56FE4FBE016F5F7F4F808112DD62E0C8
:104DD00070E0CE0101966ADB80E398E32ADB8BE08A
:104DE000EECD8091C90190E0FC01EE0FFF1F8E0F08
:104DF0009F1FFC01EB56FE4FBE016F5F7F4F81810D
:104E0000928108DD64E070E0CE0101964FDB89E01D
:104E100080939401A3C06091710170E040E189E743
:104E200091E06ADD9093C6018093C5011092C8019C
:104E30001092C70182E198E3FCDA2BDC8DE0BFCD54
:104E40008091C7019091C801892B89F40091C50117
:104E50001091C6016091710170E040E189E791E035
:104E60004BDD800F911F9093C8018093C70110E222
:104E70000AE0E091C501F091C6018091C7019091CF
:104E8000C801E817F907D8F4BE016F5F7F4F808132
:104E9000B0DC8091C7019091C80101972091C501B4
:104EA0003091C6012817390711F40B8301C01B8309
:104EB00063E070E0CE010196F9DA81110DC0209116
:104EC000C5013091C6018091C7019091C801281792
:104ED000390708F057CFA4C18091C5019091C60150
:104EE00001969093C6018093C501C3CF8091C901FB
:104EF000803178F01092C9018AE0898361E070E026
:104F0000CE010196D3DA85E0809394010E94C337E5
:104F100087C1182F1370082F06950695111102C02E
:104F20008AE001C080E2898361E070E0CE010196F1
:104F3000BDDA84E0189FF0011124E00FF11DEE0F9F
:104F4000FF1FE55FF94FBE016F5F7F4F8081918149
:104F500061DC64E070E0CE010196A8DA8091C901BD
:104F60008F5F8093C9015CC16091710170E04AE07C
:104F700089E791E0C1DC8A30910578F48093F405EB
:104F800083E00E94C4348DEE97E353DABE016F5F75
:104F90007F4F8091F4052DDC1AC184E496E349DA51
:104FA0000DCD6091710170E04AE089E791E0A4DCE9
:104FB0009C01215031092336310558F480930406B1
:104FC00086E00E94C4348DEE97E333DA80910406C4
:104FD00079C084E496E32DDAF7CC6091710170E03A
:104FE0004AE089E791E088DC9C0121503109273EA5
:104FF000334078F79093FD058093FC0589E00E948B
:10500000C4348DEE97E315DABE016F5F7F4F809158
:10501000FC059091FD05B8C06091710170E04AE017
:1050200089E791E069DC9C0121503109273E33403A
:1050300080F69195819591099093F9058093F805F3
:105040008AE00E94C4348DEE97E3F3D98091F8058D
:105050009091F905BE016F5F7F4F91958195910900
:1050600093C06091710170E04AE089E791E044DC0F
:105070009C01215031092336310508F0AACF8093D5
:10508000F5058BE00E94C4348DEE97E3D2D9809170
:10509000F50518C06091710170E04AE089E791E080
:1050A0002BDC9C01215031092336310508F091CFCA
:1050B0008093FB058CE00E94C4348DEE97E3B9D950
:1050C0008091FB05BE016F5F7F4F90E0B2DB8AE00D
:1050D0008B8363E070E0CE010196E8D975CC6091D6
:1050E000710170E04AE089E791E006DC9C01215003
:1050F0003109273E334008F06CCF9093010680932E
:1051000000068DE00E94C4348DEE97E392D9BE0173
:105110006F5F7F4F809100069091010635C06091CE
:10512000710170E04AE089E791E0E6DB9C012150E3
:1051300031092336310508F04CCF8093F3058EE01A
:105140000E94C4348DEE97E374D98091F305BACFF1
:105150006091710170E04AE089E791E0CDDB9C014C
:10516000215031092F3F310508F033CF8093FE05E0
:105170008FE00E94C4348DEE97E35BD98091FE05E9
:10518000BE016F5F7F4F90E054DB8AE08C8364E068
:1051900070E0A1CF6091710170E04AE089E791E091
:1051A000ABDB9C01215031092031310508F0F5CEEF
:1051B0008093FA0584E00E94C4348DEE97E339D9D8
:1051C0008091FA05BE016F5F7F4F90E032DB8AE08D
:1051D0008B8363E070E0CE01019668D9EFCB6091DC
:1051E000710170E04AE089E791E086DB9C01215083
:1051F00031092031310508F0D0CE81508093F1057E
:1052000088E00E94C4348DEE97E313D98091F105B4
:1052100090E0BE016F5F7F4F0196D8CF109294014E
:105220000F900F900F900F90DF91CF911F910F91E2
:10523000089526E0829FC0011124FC01E05DFE4F2D
:105240000190F081E02D208181E090E001C0880F85
:105250006A95EAF7822B8083089526E0829FC00139
:105260001124FC01E05DFE4F0190F081E02D808172
:1052700060956823462B4083089526E0829FC001F5
:105280001124FC01E05DFE4F0280F381E02D2081BE
:1052900081E090E001C0880F6A95EAF7822B808355
:1052A000089526E0829FC0011124FC01E05DFE4FBD
:1052B0000280F381E02D208181E090E001C0880F21
:1052C0006A95EAF7809582238083089526E0829F7D
:1052D000C0011124FC01E05DFE4F0280F381E02D4E
:1052E00080816823462B4083089526E0829FC00179
:1052F0001124FC01E05DFE4F0480F581E02D8081EA
:1053000086230895E82FE695E695E695F0E0E152CC
:10531000FD4F982F977021E030E001C0220F9A9541
:10532000EAF79081292B20839091D90220E0291758
:105330005CF4E22F022E000CFF0BE451FD4F308194
:105340003817A1F02F5FF3CF96305CF4E92F092EC8
:10535000000CFF0BE451FD4F80839F5F9093D902B7
:1053600008951092F20281E08093BE040895E82F20
:10537000E695E695E695F0E0E152FD4F982F97709F
:1053800021E030E001C0220F9A95EAF72095908144
:10539000292320839091D9024CEE52E0FA012E2F5E
:1053A000241B291724F431913813F9CF01C0089533
:1053B000E22F022E000CFF0BE451FD4F8181808310
:1053C0002F5F2917ACF391509093D9021092BE042D
:1053D0000895E82FE695E695E695F0E0E152FD4F59
:1053E000982F977021E030E001C0220F9A95EAF7DC
:1053F0009081292720839091D9024CEE52E0FA0146
:105400002E2F241B291724F431913813F9CF13C000
:1054100096305CF4E92F092E000CFF0BE451FD4F90
:1054200080839F5F9093D90208951092F20281E0E9
:105430008093BE040895E22F022E000CFF0BE4516E
:10544000FD4F818180832F5F2917ACF3915090939A
:10545000D9021092BE0408959091340494305CF403
:10546000E92F092E000CFF0BE652FD4F80839F5F52
:1054700090933404089540E060E070E082E495D9B0
:105480001092DE020895209134044AED52E0FA01B0
:105490009E2F941B92179CF431913813F9CF9217D9
:1054A00051F0E92F092E000CFF0BE652FD4F8181D0
:1054B00080839F5FF4CF9150909334040895682FB8
:1054C00070E040E083E471C98091F4058093C104E9
:1054D000089596E1899F600D11248091D40268138C
:1054E0000DC08091F8059091F9058417950734F463
:1054F0008091C0048F5F8093C00408951092D402FD
:105500001092C0040895E091FC05F091FD054E173E
:105510005F0754F491E0F9019083F6E18F9F600DED
:1055200011246093D4020895F90110821092D402DC
:105530001092C004089590918001E92FEE0FFF0BA7
:10554000EC50FD4F2091D60230E0322F2227282B3D
:10555000318320839F5F9093800108959091C204CE
:10556000911111C0805D8E3070F4E82FF0E0EE0FE5
:10557000FF1FE15CFC4E85919491880F991F815C1F
:105580009C4E0C94A6220895CF93DF93C82FD62F5C
:1055900063DF8091C1049091F405891711F08B5F4E
:1055A00059D580E18C0F8093C10485E18C0F32D5F1
:1055B0008FE030D58091C1049091D502D0FF02C018
:1055C000981308C0981308C08091C004811104C0CA
:1055D0008091F4058093D502DF91CF910895E82F53
:1055E000F0E0EE53FC4F8491882311F060E0CCCFC3
:1055F00008951F93CF93DF9300D01F92CDB7DEB7EE
:10560000182F2B834A8369833EDF2B814A8169816E
:10561000222399F12091C104E22FF0E0812F90E044
:10562000805F9109E817F90741F58091C00488234C
:1056300019F061FD2093D5028091D80281131DC01D
:1056400062FF1BC0141624F46091D602842F13C08D
:10565000842F807E803E89F4E42FF0E0EE0FFF1F60
:10566000EF5AF44C849180959091D60289238093CF
:10567000D602649180E00E948E228091C1048B5FEB
:10568000E9D4E0913404E11103C08091D50207C050
:105690000E2E000CFF0BE752FD4F8081805F809340
:1056A000C1048091C1049091F405891741F08B5F8A
:1056B0000F900F900F90DF91CF911F91ABC48FE0AF
:1056C0000F900F900F90DF91CF911F91C3C4E82FDF
:1056D000F0E0EE53FC4F8491882321F020E040E07D
:1056E00060E087CF08956F70623051F028F4662330
:1056F00039F0613081F00895643011F06830F1F4D0
:10570000E82FF0E0EE0FFF1FEF5AF44CE491809188
:10571000D602E82B0AC0E82FF0E0EE0FFF1FEF5A89
:10572000F44CE4918091D602E827E093D602809170
:10573000BF04882319F0E777E093D60208956F70CD
:10574000623009F43FC018F4662381F10895643093
:1057500019F0683059F10895E82FF0E0EE0FFF1FBF
:10576000EF5AF44CE491E0956091D6026E23609379
:10577000D602222309F444C09091D802981340C065
:10578000842F14168CF0807E803E09F039C0E42FFF
:10579000F0E0EE0FFF1FEF5AF44C849180956823E0
:1057A0006093D602649180E00C948E22E82FF0E0A2
:1057B000EE0FFF1FEF5AF44CE491E0958091D60272
:1057C000E8231CC0E82FF0E09091D602EE0FFF1FF7
:1057D000EF5AF44C222379F08091C004882359F0C9
:1057E0008491E82FE92BE093D6028091BF048823AF
:1057F00039F0E77703C0E491E095E923E093D6021E
:1058000008956F70623051F028F4662339F06130EA
:1058100031F00895643011F0683011F473CDD9CDB2
:1058200008956F70623049F018F461110DC00BC01B
:10583000643049F0683041F406C0222321F0909191
:10584000C004911101C093CD08951F93CF93DF93AE
:105850001F92CDB7DEB7182F862F807F11F080936F
:105860006E01103C78F5103B08F0C1C0133A09F402
:105870008CC0B8F4133809F472C050F4143008F432
:105880000FC1143708F458C0123809F460C008C1B9
:10589000113A09F476C008F076C0143809F469C0EA
:1058A000FFC0193A09F48AC020F4183A08F07FC002
:1058B0006EC01E3A09F48FC008F091C01A3A09F47C
:1058C000F5C0EEC01E3D20F5103D08F0C1C0163CED
:1058D00009F4A2C088F4113C08F4E2C0EFE3E10F40
:1058E000F0E0EE0FFF1FE95FF24CE4918091BB0402
:1058F000E82BE093BB04DAC0183C09F497C008F425
:105900008FC0193C09F0CCC08091F3028F5F91C029
:10591000183E50F4103E08F0C0C01E3D09F49BC074
:105920001F3D09F4ACC0BCC08FE0810F893008F086
:10593000B7C0812F29DEBAC08091BD04882321F031
:10594000812F6983F8DD6981812F5BDFAFC0809192
:10595000D70281FDABC06091D60289E307C0809178
:10596000D70280FDA3C06091D60283E50E948E22FB
:105970009DC08091D70282FD99C06091D60287E4D4
:10598000F5CF4BD493C023D491C013D48FC0809152
:10599000BD0481118BC081E08093BD041092800111
:1059A0008093C2048CE5810F809307065EC09091BE
:1059B000C20481E089278093C20478C09091BF041B
:1059C00081E089278093BF04811102C085E055C022
:1059D00085E020D36BC082E08093CB0167C08091CB
:1059E0009401811163C081E0809394015FC0809134
:1059F000350490913604892B09F058C0E0E5E10F99
:105A0000F0E0EE0FFF1FEA51F34C859194919093D3
:105A10003604809335044AC08091BC048F5F03C074
:105A20008091BC0481508093BC0405C08091F30236
:105A300081508093F3029091F0058091C0049923E6
:105A400021F09091EE05981788F58093EE052EC011
:105A5000812F84DD2BC09091BD0481E08927809344
:105A6000BD04882321F01092800180E1B2CF8091A3
:105A7000800181118093700180E1ECD217C0809188
:105A8000BD04811113C060917001062E000C770BCC
:105A900084EF92E00E94DB2209C0812F24DE06C041
:105AA000612F70E040E084E40E94D5231093D80277
:105AB0000F90DF91CF911F9108951F93CF93DF93A4
:105AC00000D01F92CDB7DEB7182F862F807F11F040
:105AD00010926E01163C10F5113C08F0A0C01B3A64
:105AE00098F4113A08F0DFC0123809F462C028F4C3
:105AF0008CEF810F8037B0F1CAC0133809F461C050
:105B0000143809F46DC0C3C01E3A08F4C0C0103B7D
:105B100008F4C9C0103C08F46BC0B9C0103E90F442
:105B2000103D08F0C0C0173C09F48DC008F487C0D0
:105B3000183C09F48EC0193C09F0A9C08091F30209
:105B400081508AC0183E08F48AC08FE0810F8930E6
:105B500008F09DC0812F0F900F900F90DF91CF9193
:105B60001F9147CD8091BD048823D9F08091C20454
:105B70008823B9F0183211F01B3299F41092C20444
:105B80001092BD0480918001815080937001109229
:105B9000080680E12B834A8369835CD269814A814C
:105BA0002B81812F0F900F900F90DF91CF911F913C
:105BB00038CE8091D70281FF76C06091D60289E30A
:105BC00007C08091D70280FF6EC06091D60283E546
:105BD0000F900F900F90DF91CF911F910C948E2218
:105BE0008091D70282FF5FC06091D60287E4F0CF38
:105BF00060E5610FE62FF0E0EE0FFF1FEA51F34C76
:105C000085919491209135043091360428173907F5
:105C100009F049C0109236041092350444C06FE375
:105C2000610FE62FF0E0EE0FFF1FE95FF24CE49109
:105C3000E0958091BB04E823E093BB0434C08091DD
:105C4000BC04815003C08091BC048F5F8093BC046E
:105C50002AC08091F3028F5F8093F30224C0809169
:105C6000BD04882361F08091D802811308C080E0D0
:105C70002B834A8369835FDC69814A812B81812F71
:105C80000F900F900F90DF91CF911F9158CD612F02
:105C900070E040E085E40F900F900F90DF91CF917E
:105CA0001F910C94D5230F900F900F90DF91CF91FF
:105CB0001F9108952091D602227291E009F090E0A0
:105CC00020910306222359F0992349F02091D7020D
:105CD00020FF05C022EE280F2A3008F4855C2091B1
:105CE000F705222321F1833571F49091D70281E0E9
:105CF00089278093D70280FF03C080E08BD11FC02B
:105D000080E0A8D11CC027EA280F2B3080F4209116
:105D1000D702E82FF0E0EE0FFF1F20FF05C0992308
:105D200019F0E25EF34C02C0E15EF34C84918A3AD2
:105D300039F4911102C085E3089589E2089580E065
:105D40000895AF92BF92CF92DF92EF92FF920F939E
:105D50001F93CF93DF9300D01F92CDB7DEB7D82E1D
:105D6000062F10E08091C10494E8C92E96E1D99ED7
:105D700070011124F701C89EE00DF11D1124E00F00
:105D8000F11FE95EF14F84914A835B83698392DF5F
:105D9000B82E8091C1049701C89E200D311D112499
:105DA000200F311FF901E151F74FC490F901E95378
:105DB000FC4FA4900E0D1F1DF801E05BFD4FB0825B
:105DC000F801E95CFB4FC082F801E453FE4FA0826A
:105DD0004A815B8169818D2D7CDB4A2D6C2D8B2D59
:105DE00034DD25D20F900F900F90DF91CF911F914E
:105DF0000F91FF90EF90DF90CF90BF90AF900C94F9
:105E0000C8399F92AF92BF92CF92DF92EF92FF92EA
:105E10000F931F93CF93DF931F92CDB7DEB796E119
:105E2000899F90011124260F311DF901E05BFD4F80
:105E30006F01B080F901E95CFB4F7F01A08089010F
:105E400004531E4FF80190809E012F5F3F4F5BDB94
:105E50002981492D6A2D8B2D30DEF6011082F70144
:105E60001082F80110820F90DF91CF911F910F9156
:105E7000FF90EF90DF90CF90BF90AF909F900895EC
:105E800026E1829FC00111249C01260F311DF901DA
:105E9000E05BFD4F8081F901E95CFB4F908193FF4E
:105EA0001AC018161CF46091D60213C0982F907E69
:105EB000903E89F4E82FF0E0EE0FFF1FEF5AF44C0C
:105EC000849180959091D60289238093D602649123
:105ED00080E00C948E2208952091C204211112C0FA
:105EE000FC01ACEEB2E0069621E03091BE04332313
:105EF00011F0208302C03C91308331961196E8174F
:105F0000F90799F708952091C204211109C0DC0115
:105F1000EFEDF2E08DE08E0F91919D938E13FCCF0B
:105F20000895FC018091C204811106C080916E0128
:105F30009091D602982B9083089526E1829FC0010C
:105F40001124FC01E60FF11DE95EF14FE491E83206
:105F500011F0E83539F441E060E070E081E50E943D
:105F6000D52374C4089590E09C01220F331F820F43
:105F7000931FFC01E458FB4C2491FC013196865898
:105F80009B4CE658FB4C621721F06491FC01849114
:105F900074C96491FC01849184C90F931F93CF93BA
:105FA000DF93EBEAF4E3D4910AE714E3C0E0CD1702
:105FB00069F0F80131966491F80184913AD960E072
:105FC0008C2FD1DFCF5F0D5F1F4FF1CF8091FA058E
:105FD0008093D2048093CF048091F1058093CD0407
:105FE000DF91CF911F910F9108958091CB04893F4C
:105FF00069F48091D7048F3E19F41092D70403C03E
:106000008F5F8093D7041092CB0408958F5F8093A5
:10601000CB04089590E0880F991FFC01E05BFB4CD6
:10602000A491FC01EF5AFB4C8491EAEAF4E3E49179
:10603000AE1778F4B0E0AD53BB4F811103C08C9123
:10604000816006C09C919170E82FEE0F892F8E0F12
:106050008C93089590E0880F991FFC01E05BFB4C46
:10606000A491FC01EF5AFB4C8491EAEAF4E3E49139
:10607000AE1780F4B0E0AD53BB4F811104C08C91DA
:106080008E7F8C9308959C91292F2695281302C00A
:1060900091709C930895823049F0833079F081307B
:1060A000A1F481E1B7DF82E1D5DF0CC081E1D2DF6D
:1060B00082E1D0DF83E1AEDF84E1CCCF81E1CADFD2
:1060C00082E1A8DF83E1C6DFF7CF81E1C3DF82E1B0
:1060D000C1DF83E1BFDF84E19DCF0F931F93CF9397
:1060E000EAEAF4E3E491C0E00E2F10E08C2F0C2ECE
:1060F000000C990B8017910714F52091CE042223F0
:10610000C9F0FC01ED53FB4F2081223018F421111E
:106110000FC010C0E22FE695F0E0E05EF24C649113
:106120008091D7040E94E540921720F490FF02C0AE
:1061300061E001C060E08C2F16DFCF5FD7CFCF9139
:106140001F910F9108958091D204803110F081E069
:1061500002C08C5F8C7F8093D20408958091D30419
:106160008F5F813118F48093D304089581E0809388
:10617000D3041092D1041092D60408959091D204C1
:10618000903120F081E08093CE0408958091D10475
:106190002091D304929F902D1124891738F491E017
:1061A0009093CE04805F8093D10408951092CE0422
:1061B0000895EFE4F4E3E4918091CD048F5F8E17AE
:1061C00018F48093CD0408951092CD040895809121
:1061D000D4048F5F843018F48093D40402C01092EA
:1061E000D4048091D404811103C08091D20403C0EF
:1061F000813021F484E08093CF040895823031F41B
:1062000084E08093CF041092D004089580E18093BD
:10621000CF0481E08093D004089595DF8091D40469
:10622000811104C08091D2048093CF04089580919D
:10623000D404823011F488E10BC0833071F4809172
:10624000CF04853010F0845003C0882321F08150A2
:106250008093CF0408951092CF0408958091D504BF
:106260008F5F803318F48093D50408951092D5047D
:106270009091D4049130B1F42091D0048091CF0456
:10628000222341F08F5F8093CF048831E0F0109299
:10629000D004089581508093CF048530A0F490936A
:1062A000D0040895923031F48091CF04853058F0B5
:1062B000815007C0933039F48091CF04803118F4B5
:1062C0008F5F8093CF0408958091CF04803120F0B8
:1062D00081E08093CC0408959091D304899F802D10
:1062E00011249091D0049111807F9091D604981739
:1062F00038F481E08093CC04905F9093D6040895A5
:106300001092CC0408951F93CF93DF93EBEAF4E34C
:10631000E49110E0CE2FD0E0212F012E000C330BA2
:106320002C173D07ECF4F901E15CFB4CE491EE2302
:10633000A9F08091CC04882371F08091CD04F901FB
:1063400090E1899FE00DF11D1124E15CFC4CE4918A
:1063500061E0E11101C060E0812F05DE1F5FDCCF4D
:10636000DF91CF911F910895F9DE08DF3EDEB5DEA3
:1063700075DFAADFC8CF27B1242B27B928B1342F66
:106380003095232338B1432B3FB7F894FC01680FB5
:10639000791FE617F70789F0819198E048B9000066
:1063A00000C087FF28B9880F000000C000C000C0EF
:1063B00028B900C09A9591F7ECCF3FBF08959B0193
:1063C000220F331F620F731FD6DF87EC90E0019717
:1063D000F1F700C0000008951F920F920FB60F92C0
:1063E00011240F900FBE0F901F90189590E080E839
:1063F0000FB6F89480936100909361000FBE0895EA
:10640000F5CF8DEA9EED9093390680933806089576
:1064100084E189BD86E189BD09B400FEFDCF80918C
:10642000D8008F7D8093D8008091E00082608093B7
:10643000E0008091E00081FDFCCF0895CF92DF92D3
:10644000EF92FF921F93CF93DF93EBE6F5E3E49196
:10645000E093D804EAE6F5E3E491E093DF04E9E6AB
:10646000F5E3E491E093E004E8E6F5E3E491E093FA
:10647000E1048CE5E82E85E3F82E99EDC92E94E031
:10648000D92ED0E0F70114918091DF0481111FEF24
:10649000F7013196C4914C2F612F8D2F0E942D2929
:1064A0002C2F2095F60121936F01422F41238091DB
:1064B000DF04642F6095811101C040E08D2F0E94A0
:1064C0006629DF5FF2E0EF0EF11CD630D9F6DF91DE
:1064D000CF911F91FF90EF90DF90CF900895CF92D2
:1064E000DF92EF92FF920F931F93CF93C0E08091C2
:1064F000E00490E02C2F0C2E000C330B28173907EA
:106500000CF054C089EDE82E84E0F82EF6E0CF02BE
:106510006001112400E010E0F801EC0DFD1DE852CF
:10652000FB4C4491F70161917F01802F0E94662905
:106530000F5F1F4F0630110579F78091FE058A9590
:10654000F1F710E0212F012E000C330B8091E104B4
:1065500090E02817390744F58091DF04220F331F9C
:10656000F901E355FB4C882351F06491F901E4559E
:10657000FB4C84910E947529882351F013C06491CB
:10658000F901E455FB4C84910E947529882351F050
:106590008091D804882319F06C2F812F02C0612FBD
:1065A0008C2FCBDC1F5FCECFCF5FA1CFCF911F91C0
:1065B0000F91FF90EF90DF90CF900895CF93DF93EE
:1065C000962F642F26E1929FE0011124C40FD11D64
:1065D000CC0FDD1FCE51DB4F48815981882301F15B
:1065E00057FF0EC02091040630E031952195310906
:1065F000241735077CF1892FA4DB84E090E020C0CC
:1066000020910006309101064217530794F0892F1C
:1066100037DC2091F30588819981821B910910C094
:106620001416150684F42091040630E0421753072F
:106630001CF44C5F5F4F10C0892FE3DB8CEF9FEFA2
:10664000998388830BC08091F8059091F905841790
:10665000950724F44450510959834883DF91CF9121
:106660000895CF92DF92EF92FF920F931F93CF93F3
:10667000DF93D62FC82FCD170CF05AC089EDE82E26
:1066800084E0F82EF6E0CF026001112400E010E073
:10669000F70161917F016F3F49F0F801EC0DFD1D9D
:1066A000E852FB4C4491802F0E9466290F5F1F4FD8
:1066B0000630110569F78091FE058A95F1F710E023
:1066C000212F012E000C330B8091E10490E028175C
:1066D000390764F58091DF04220F331FF901E35578
:1066E000FB4C882359F06491F901E455FB4C8491EB
:1066F0000E94752991E0882361F00AC06491F90134
:10670000E455FB4C84910E94752991E0811101C0F0
:1067100090E08091D804882319F04C2F612F02C09B
:10672000412F6C2F892F4ADF1F5FCACFCF5FA3CFC6
:10673000DF91CF911F910F91FF90EF90DF90CF905D
:1067400008956091E0046695669580E08ACF809117
:10675000E004682F70E0759567958695869581CFE2
:106760008091E00493E0899FB001112475956795AD
:1067700075956795869575CF6091E00423E0629FDB
:10678000C001112495958795959587956ACF81E0ED
:106790008093ED0508952091ED05AC01249FC00183
:1067A000259F900D11246AE070E00E94F1408091D5
:1067B000EC05562F581B852F6093EC052F5F209317
:1067C000ED052B3028F01092EC0591E09093ED054B
:1067D00008958091BC04811104C08091F302882344
:1067E00011F181E08093F0052091F5058091EE058F
:1067F0009091FB053091EF05311120C0899FC001B8
:106800001124820F911DC7DF9091BC04899F902DA8
:1068100011249093EB059091F302899F802D112410
:106820008093EA050BC01092F0051092EC051092CF
:10683000EB051092EA058AE08093ED058091EF0563
:10684000811103C081E08093EF050895CF93DF931A
:10685000CDB7DEB763970FB6F894DEBF0FBECDBFDE
:1068600059E15093F6051092FF051092030610921D
:10687000F40540E14093FA051092020636E03093A9
:1068800004061092F7051092F10580EF90E09093C6
:10689000FD058093FC0588E89FEF9093F9058093B0
:1068A000F80585E08093F5052FE02093FB0560E275
:1068B00073E0709301066093000690E29093F305F5
:1068C0008093FE0559831A821B821C824D831E828F
:1068D0003F831886198630EF3A871B8638E83C8755
:1068E0003FEF3D878E872F87988B23E0298B9A8BEC
:1068F0008B8B43E150E060E070E0CE0101960E9496
:106900004B4163960FB6F894DEBF0FBECDBFDF914B
:10691000CF9108950F931F93CF93DF93CDE2DDE3E3
:10692000FE01329684913196E49190E0E23059F480
:10693000FE0105911491805090400E944641F8015B
:106940009183808309C0FE0105911491805090408D
:106950000E943E41F80180832496FDE3CD36DF0797
:10696000F9F66091F605693131F070E041E080E5BB
:106970000E94D5236BDF809102068093F205DF91A0
:10698000CF911F910F91089524E0829FC00111249F
:10699000FC01E15DF24C2491FC01E05DF24C34918C
:1069A000FC01E35DF24C822F90E0323041F4A5917E
:1069B000B4916D917C91805090400C946241A5916E
:1069C000B4916C91805090400C94544185E0809338
:1069D00008060895809107062EE28202C001112464
:1069E000FC01EB56FA4C4491FC01EA56FA4C349106
:1069F000FC01E956FA4C2491FC01E856FA4C9491BA
:106A00005091800180910506513079F01CF4552396
:106A100031F01FC0523081F05330A9F01AC0442326
:106A200021F06AE10E94E5402EC0332329F06AE19B
:106A30000E94E540965E27C0222329F06AE00E946A
:106A4000E5409C5C20C0992321F0982F9F71925CB7
:106A50001AC0442311F06AE101C060E03111665EA2
:106A60002111665F9111605E0E94E540411101C0F5
:106A7000965E311103C09A3134F0965E211103C045
:106A800094330CF0965FE92F990FFF0BE35BF14C09
:106A90008491089584509272E82FF0E0EE0FFF1F6A
:106AA000911103C0E359F24C02C0E259F24C8491B7
:106AB00008950F931F93CF93DF93E09107062091E2
:106AC0008001022E000C330BCE2F0E2E000CDD0B9E
:106AD0008EE2E802F0011124EC56FA4C649170E069
:106AE000C9010E940541082F1091050660917001AF
:106AF000062E000C770BC9010E940541FC01FF27FF
:106B0000EE0FFF1FEC50FD4F80819181C3DF810F9D
:106B1000982F990F87FD9F5F909305068EE28C9FBB
:106B2000F0018D9FF00D1124E00FF11DE459FA4C96
:106B3000E49180910506E827E0930506DF91CF9167
:106B40001F910F910895EF92FF920F931F93CF9390
:106B5000DF931F92CDB7DEB7809107062EE2820247
:106B6000C0011124FC01E756FA4C6491062F10E095
:106B700020EA30E0201B310B220F331FA9014C50BB
:106B80005D4F7A0120910806223009F444C028F4B0
:106B9000222351F02130C9F0AEC0233009F45BC08C
:106BA000243009F47FC0A7C01092050621E020938D
:106BB000080610928001FC01EC56FA4CE491E111B8
:106BC0009AC085E08093080696C020918001FC0160
:106BD000E20FF11D27FDFA95E459FA4CE49140913A
:106BE00005064E0F409305062F5F20938001FC01A0
:106BF000EC56FA4C8491022E000C330B90E02817CF
:106C000039070CF478C082E0809308061092800166
:106C10004093060670C010910606E0918001EE0FC9
:106C2000FF0BEC50FD4F80819181698333DF810F31
:106C300080930606909180019F5F90938001209140
:106C40007001698192170CF456C00E94E540909340
:106C5000060683E022C02DDF80910606E80EF11CB7
:106C6000E80EF11CB7DE0E945D23F701918380835B
:106C70008091060690E00196B8010E94054180933C
:106C80000606809180018F5F80938001082E000CA2
:106C9000990B801791077CF184E08093080610928D
:106CA000800129C080918001282F220F330BFA0127
:106CB000E20FF31F40815181F901EC50FD4F5183E8
:106CC00040838F5F80938001082E000C990B801702
:106CD00091078CF085E08093080660937001B801FD
:106CE00084EF92E00F90DF91CF911F910F91FF9071
:106CF000EF900C94DB220F90DF91CF911F910F91B9
:106D0000FF90EF90089580910806853009F01BCF21
:106D10000895CF92DF92EF92FF920F931F93CF933C
:106D2000DF93CDB7DEB7EDB6FEB6ECEAFEE3149125
:106D3000EDEAFEE3E4916E2F70E08DB79EB7F3E0CD
:106D4000EF9F8019910911240FB6F8949EBF0FBED2
:106D50008DBF01966C012EEA3EE3ADB7BEB7139628
:106D600040E050E046175707B4F4F901319604911A
:106D7000CD010197FC010083F9018491FD01329757
:106D80008083F9013296E491EC934F5F5F4F2D5F62
:106D90003F4F1396E7CF412FC60111DB412F61E032
:106DA00070E0C6010CDB0FB6F894FEBE0FBEEDBE60
:106DB000DF91CF911F910F91FF90EF90DF90CF90D7
:106DC000089513BC109280001092820080E89EE328
:106DD0009093890080938800089510920906789412
:106DE000109285001092840081E08093810082E0FF
:106DF00080936F009AE088E10FB6F894A89580938D
:106E000060000FBE90936000E0E6F0E08081806C4F
:106E1000808308950FB6F894A895809160008861EA
:106E200080936000109260000FBEE0E6F0E0808189
:106E30008F7B808310926F00109281000895809163
:106E4000840090918500E091090620912B0634E0A2
:106E5000E39FF0011124E20FF11DEE0FFF1FE55F2C
:106E6000F94F208131812817390780F4E091090614
:106E700020912B0634E0E39FF0011124E20FF11D75
:106E8000EE0FFF1FE55FF94F918380830895CF9345
:106E9000DF93C0E0D0E080910906FE0124E0829FEC
:106EA000E00DF11D1124EE0FFF1FEC5DF94C8591F3
:106EB0009491009729F0C0932B06FC010995BFDF40
:106EC0002196C430D10539F7DF91CF910895109202
:106ED00085001092840080910A06882381F08091B9
:106EE000090660912B0670E0782B40E081E10E945A
:106EF000D52380910A068F5F80930A06089581E06A
:106F000080930A067894C3DF809109068F5F80938F
:106F10000906843010F01092090680910A0682302A
:106F200038F060910A0670E040E084E10E94D523C9
:106F3000A89510920A0608951F920F920FB60F920D
:106F400011240BB60F922F933F934F935F936F9340
:106F50007F938F939F93AF93BF93EF93FF93B7DF8D
:106F6000FF91EF91BF91AF919F918F917F916F9121
:106F70005F914F913F912F910F900BBE0F900FBEDD
:106F80000F901F901895EBE0F6E0118210821382AB
:106F900012821582148217821682389686E0EB32AE
:106FA000F80799F70895292F33272330310511F178
:106FB0003CF42130310561F02230310571F070C0B0
:106FC0002132310531F12232310509F43DC068C06A
:106FD00082E190E028EA31E46CC08091F2058330D0
:106FE00009F44AC0813009F44CC084E590E024E5FE
:106FF00031E45FC09927009731F0019709F050C044
:10700000EEE8F0E402C0EAEDF0E4849190E09F0144
:1070100050C0613049F068F0623009F041C089E049
:1070200090E028E931E445C089E090E02FE731E4C1
:1070300040C08091F205833049F1813061F189E0EF
:1070400090E026E631E435C0613041F060F0623016
:1070500039F58BE190E02AEB31E42BC08AE390E034
:1070600025ED31E426C08091F20580FD1EC08FE33E
:1070700090E02FE032E41DC082E290E02EED30E49B
:1070800018C084E590E020E031E413C089E090E08E
:1070900020EF30E40EC089E090E022E131E409C045
:1070A00080E090E020E030E004C08FE390E02EE448
:1070B00032E4FA0131832083089581E00C944B304F
:1070C0000895CF93DF9380E291E05DD7C82F809140
:1070D000F20581FD09C080E191E055D7D82F80E00D
:1070E00091E051D78D23C823CC2311F080E001C05B
:1070F00083E00E944B308091E20084608093E20044
:10710000DF91CF91089580E291E005D68091F2055C
:1071100081FD06C080E191E0FED580E091E0FBC5F5
:10712000089580912E0190912F01009729F00197E9
:1071300090932F0180932E018091F20581FD16C05E
:1071400080911E0190911F01009729F00197909363
:107150001F0180931E0180910E0190910F010097F5
:1071600029F0019790930F0180930E01089580E01C
:107170000C944B3082E00C944B3080E00C944B30FC
:107180000F931F93CF93DF93F90121E08032920791
:10719000F9F4EF0110927F012091F205CF010296E0
:1071A00020FD07C020912901222319F00E94832F7E
:1071B00002C00E946C2FCE010E94912F8091F20597
:1071C00080FF03C088E090E024C082E190E021C00D
:1071D00080519140B1F41092EF058091BB048083FF
:1071E0008091EB0581838091EA05828383E090E0C2
:1071F000F8019183808381E09091F00591110DC099
:107200000BC080913504909136049183808382E095
:1072100090E0F8019183808380E0DF91CF911F910E
:107220000F910895CF938052914009F081C0F901E8
:1072300080818093D702C0915501C8278093550162
:10724000CC2309F475C09091F705911111C0C0FFCE
:107250000FC080FF07C080E00E940A3080E00E94DB
:10726000EF2A06C080E00E942A3080E00E94672B4F
:10727000C1FF11C08091D70281FF07C081E00E9449
:107280000A3081E00E94EF2A06C081E00E942A3085
:1072900081E00E94672BC2FF24C08091D70282FF49
:1072A00011C082E00E940A3082E00E94EF2A8091A1
:1072B000FF058823B1F081E08093BF0485E00E9440
:1072C0000A300FC082E00E942A3082E00E94672BC1
:1072D0008091FF05882329F01092BF0485E00E9469
:1072E0002A30C3FF11C08091D70283FF07C083E01B
:1072F0000E940A3083E00E94EF2A06C083E00E94C9
:107300002A3083E00E94672BC4FF12C08091D7020D
:1073100084FF07C084E00E940A3084E0CF910C947F
:10732000EF2A84E00E942A3084E0CF910C94672BEE
:10733000CF9108958091F20580FF09C088E0809385
:10734000280188E090E09093230180932201089522
:1073500080E291E02BD68091F20581FD06C080E1AC
:1073600091E024D680E091E021D6BBD480912F0615
:1073700090915401981759F060912F0670E041E008
:1073800086EA0E94D52380912F06809354010895A8
:1073900080912D06882329F080912F06853009F4ED
:1073A00037C80895CF92DF92EF92FF920F931F9309
:1073B000CF93DF93EC018B017A01D8D1811133C0D7
:1073C000E114F10439F0F70180819181081B190B58
:1073D000C80FD91FC12CD12C0115110519F18091AD
:1073E000E80085FD16C08091E8008E778093E80064
:1073F00078D4E114F10449F0F70180819181C80E3D
:10740000D91ED182C08285E00EC0B0D1882321F37D
:107410000AC089918093F10001501109FFEFCF1A42
:10742000DF0ADACF80E0DF91CF911F910F91FF90BB
:10743000EF90DF90CF900895209136063091370677
:107440002617370748F06115710539F42091E800D7
:107450002E772093E80001C0B90140E06115710565
:1074600099F120912F06222309F441C0253009F417
:1074700040C02091E80023FD3EC02091E80022FD9D
:1074800030C02091E80020FFE9CF2091F200309138
:10749000F300FC01CF016115710559F02830310569
:1074A00040F481918093F100615071092F5F3F4F4B
:1074B000F1CF41E02830310509F040E02091E800AB
:1074C0002E772093E800CACF4111CBCF0AC080911C
:1074D0002F06882361F0853061F08091E80083FDFC
:1074E0000AC08091E80082FFF2CF80E0089582E038
:1074F000089583E0089581E008956115710529F4E8
:107500002091E8002B772093E800FC0161157105BC
:1075100031F180912F06882351F1853051F180910E
:10752000E80083FD22C08091E80082FFEFCF8091C8
:10753000F2009091F300892B31F08091F10081935A
:1075400061507109A1F78091E8008B778093E80082
:10755000DDCF80912F06882351F0853051F0809146
:10756000E80080FFF6CF80E0089581E0089582E092
:10757000089583E008952091360630913706261746
:10758000370748F06115710539F42091E8002E772E
:107590002093E80001C0B901FC0120E061157105EC
:1075A00081F180912F06882309F43EC0853009F4CB
:1075B0003DC08091E80083FD3BC08091E80082FDE2
:1075C0002DC08091E80080FFE9CF8091F20090917A
:1075D000F3006115710559F08830910540F424914C
:1075E0002093F1003196615071090196F2CF21E0AC
:1075F000089709F020E08091E8008E778093E800FA
:10760000CDCF2111CECF0AC080912F06882361F003
:10761000853061F08091E80083FD0AC08091E80028
:1076200082FFF2CF80E0089582E0089583E008951C
:1076300081E00895982F973058F59093E9009817B6
:1076400039F07091EC002091ED005091F00003C0F2
:10765000242F762F50E021FF19C03091EB003E7FA0
:107660003093EB003091ED003D7F3093ED00309191
:10767000EB0031603093EB007093EC002093ED0051
:107680005093F0002091EE0027FF07C09F5FD3CFFB
:107690008F708093E90081E0089580E00895EF9273
:1076A000FF920F931F93CF93DF93E62EEC018C0193
:1076B0000C5F1F4FF12CFE1491F15881552351F1AD
:1076C000F801208169817A8131979081852F8F70AF
:1076D000873010F080E024C0223010F442E001C076
:1076E00046E0E8E0F0E020E0E617F70720F42F5F3F
:1076F000EE0FFF1FF9CF2295207F422BF0E49F9FD2
:1077000090011124551F5527551F652F622B92DFBD
:10771000882301F3F39425960B5F1F4FCCCF81E0B4
:10772000DF91CF911F910F91FF90EF90089580917D
:10773000300687FF11C08091E80082FD05C080916E
:107740002F068111F8CF11C08091E8008B770BC014
:1077500080912F06882349F08091E80080FFF8CFC0
:107760008091E8008E778093E80008952091E400EE
:107770003091E50095E64091EC00842F817040FF48
:1077800022C08091E80080FD1CC080912F068823D4
:1077900091F0853091F08091EB0085FD10C0409113
:1077A000E4005091E5004217530729F39A019150E4
:1077B00011F784E0089582E0089583E0089581E060
:1077C000089580E008954091E80042FFDECF0895DB
:1077D00068D06FD0E0EEF0E0808181608083E8EDDA
:1077E000F0E080818F77808319BCA7EDB0E08C91A9
:1077F0008E7F8C9380818F7E808310922E060895D9
:107800000F931F93CF93DF934CD053D0C8EDD0E0AC
:1078100088818F77888388818068888388818F7D3D
:107820008883E7EDF0E080818068808319BC109246
:107830002F0610922C0610922D0600EE10E0F80193
:1078400080818B7F808388818160888342E060E0D3
:1078500080E0F0DEE1EEF0E080818E7F8083E2EE7A
:10786000F0E0808181608083808188608083F8017E
:1078700080818E7F8083888180618883DF91CF9132
:107880001F910F910895E8EDF0E080818F7E808355
:10789000E7EDF0E080818160808381E080932E06B7
:1078A000AFCFE8EDF0E080818C7F80831092E20022
:1078B00008951092DA001092E10008951F920F923D
:1078C0000FB60F9211240BB60F922F933F934F9345
:1078D0005F936F937F938F939F93AF93BF93EF9338
:1078E000FF938091E10082FF0AC08091E20082FF55
:1078F00006C08091E1008B7F8093E10012DC8091D3
:10790000DA0080FF1DC08091D80080FF19C08091EF
:10791000DA008E7F8093DA008091D90080FF0CC05E
:1079200084E189BD86E189BD09B400FEFDCF81E017
:1079300080932F06C2DB04C019BC10922F06C0DB57
:107940008091E10080FF18C08091E20080FF14C0A8
:107950008091E2008E7F8093E2008091E20080615E
:107960008093E2008091D80080628093D80019BC97
:1079700085E080932F06FEDB8091E10084FF2FC01D
:107980008091E20084FF2BC084E189BD86E189BD3E
:1079900009B400FEFDCF8091D8008F7D8093D80080
:1079A0008091E1008F7E8093E1008091E2008F7EE4
:1079B0008093E2008091E20081608093E2008091F8
:1079C0002C06882311F084E007C08091E30087FD36
:1079D00002C081E001C083E080932F06CEDB80915E
:1079E000E10083FF22C08091E20083FF1EC08091EE
:1079F000E100877F8093E10082E080932F06109260
:107A00002C068091E1008E7F8093E1008091E2005E
:107A10008E7F8093E2008091E20080618093E2009B
:107A200042E060E080E006DEA2DBFF91EF91BF91D3
:107A3000AF919F918F917F916F915F914F913F9106
:107A40002F910F900BBE0F900FBE0F901F901895A7
:107A50001F93CF93DF93CDB7DEB7AA970FB6F894F5
:107A6000DEBF0FBECDBFE0E3F6E088E08E0F909161
:107A7000F10091938E13FBCF46DB8091E80083FFEA
:107A800018C18091300690913106492F50E04A305C
:107A9000510508F00EC1FA01EA59FF4FC9C38038F9
:107AA00081F0823809F005C1809134068F7080938F
:107AB000E9008091EB0085FB882780F91092E900AE
:107AC00007C080912D06882311F082E001C080E07C
:107AD0009091E800977F9093E8008093F1001092D6
:107AE000F100C4C0282F2D7F09F0E3C0882319F0CE
:107AF000823061F0DEC080913206813009F0D9C059
:107B0000933009F080E080932D062BC080913206DF
:107B1000811127C0809134068F7009F4CAC0809308
:107B2000E9002091EB0020FF1CC0933021F48091EC
:107B3000EB00806214C09091EB0090619093EB0099
:107B400021E030E0A90102C0440F551F8A95E2F7F9
:107B50004093EA001092EA008091EB0088608093E5
:107B6000EB001092E9008091E800877F82C08111CC
:107B7000A0C0109132061F778091E3008078812B9E
:107B80008093E3008091E800877F8093E800CFDD59
:107B90008091E80080FFFCCF8091E30080688093B3
:107BA000E300111102C082E001C083E080932F0640
:107BB00080C08058823008F07CC08091320690915D
:107BC00033068C3D53E0950771F583E08A838AE2A2
:107BD00089834FB7F894DE01139620E03EE051E22E
:107BE000E32FF0E050935700E49120FF03C0E295AB
:107BF000EF703F5FEF708E2F90E0EA3010F0C79685
:107C000001C0C0968D939D932F5F243149F74FBFDC
:107C10008091E800877F8093E8006AE270E0CE01FF
:107C200001960ADC12C0AE014F5F5F4F60913406CF
:107C3000BAD9BC01892B09F43CC09091E800977F28
:107C40009093E80089819A8196DC8091E8008B7797
:107C50008093E8002EC0803861F58091E800877F2E
:107C60008093E80080912C068093F1008091E800D9
:107C70008E778093E8005BDD1CC081111AC0909163
:107C800032069230B0F48091E800877F8093E8005C
:107C900090932C064CDD80912C06811106C08091BA
:107CA000E30087FD02C081E001C084E080932F06DD
:107CB00008DA8091E80083FF0AC08091E800877F9E
:107CC0008093E8008091EB0080628093EB00AA969D
:107CD0000FB6F894DEBF0FBECDBFDF91CF911F91DD
:107CE0000895CF9380912F06882399F0C091E900E1
:107CF000CF709091EC00892F817090FD80E8C82BA7
:107D00001092E9008091E80083FDA2DECF70C0935D
:107D1000E900CF9108956F927F928F929F92AF92D8
:107D2000BF92CF92DF92EF92FF920F931F93CF9368
:107D3000DF9300D01F92CDB7DEB77C01CDB6DEB6A3
:107D40008091E80083FF08C1F701808190E02091D5
:107D50003406309135062817390709F0FDC08091A7
:107D60003106833009F49FC030F4813071F08230E5
:107D700009F4D6C0F1C08A3009F4BAC08B3009F4D6
:107D8000A3C0893009F0E8C051C080913006813A23
:107D900009F0E2C08DB69EB61A8219828091320631
:107DA000109133068B83F7018085482F50E08DB703
:107DB0009EB7841B950B0FB6F8949EBF0FBE8DBF68
:107DC000EDB7FEB731965F0160E070E0CF014FD2B2
:107DD0004FEF410F8E010F5F1F4F9501BE016D5F89
:107DE0007F4FC701CDD9F70186819781009721F098
:107DF000408550E0B50132D21092E9008091E80050
:107E0000877F8093E8008B8181118093F1006981E5
:107E10007A81C50111DB8091E8008B778093E800BF
:107E20000FB6F8949EBE0FBE8DBE96C080913006F0
:107E3000813209F091C0ADB6BEB600913606109100
:107E4000370670903206609033068DB79EB7801B60
:107E5000910B0FB6F8949EBF0FBE8DBFEDB7FEB766
:107E600031964F018091E800877F8093E800B80148
:107E7000CF0143DB8091E8008E778093E80021E01A
:107E8000711001C020E030E0021B130B280D391DDA
:107E90004FEF460D672DC701C5D90FB6F894BEBE8A
:107EA0000FBEADBE59C080913006813A09F054C072
:107EB0008091E800877F8093E8008091E80080FF50
:107EC000FCCFF701818540C080913006813209F0F6
:107ED00043C08091E800877F8093E80028DC909180
:107EE000320681E0911101C080E0F701818734C042
:107EF00080913006813281F58091E800877F809300
:107F0000E80015DC8091320690913306882736E030
:107F1000969587953A95E1F7F701958784871CC078
:107F200080913006813AC1F48091E800877F809388
:107F3000E8008091E80080FFFCCFF70184859585FB
:107F400096958795969587958093F1008091E800A6
:107F50008E778093E800EBDB0FB6F894DEBE0FBEA1
:107F6000CDBE0F900F900F90DF91CF911F910F9189
:107F7000FF90EF90DF90CF90BF90AF909F908F9049
:107F80007F906F900895FC01399627E0DF011D92E4
:107F90002A95E9F721E0FC01218724EF31E03587BC
:107FA000248723E0248361E0019679CB4F925F928E
:107FB0006F927F928F929F92AF92BF92CF92DF92F9
:107FC000EF92FF920F931F93CF93DF9300D01F92F6
:107FD000CDB7DEB77C01ADB6BEB680912F0684303A
:107FE00009F08DC08091E4009091E500F7012285B1
:107FF00033852817390709F482C081818F708093F7
:10800000E9008091E80085FF7AC08DB69EB6408574
:1080100050E08DB79EB7841B950B0FB6F8949EBFAA
:108020000FBE8DBFEDB7FEB731966F011B821A826E
:10803000198260E070E0CF011AD18E010F5F1F4FEF
:10804000960140E0BE016D5F7F4FC70199D8482E71
:10805000F70184859585892B51F091E080E0268594
:108060003785232B09F090E0092F182F02C000E07C
:1080700010E0F701668077806114710489F049810E
:108080005A81B301C601DDD055245394892B09F4DC
:10809000512CF701408550E0B601C301DFD001C08B
:1080A000512C89819A81892BF1F0411004C0511023
:1080B00002C0012BC1F0F7018485958597878687DB
:1080C00081818F708093E9008B8181118093F10011
:1080D00069817A8140E050E0C60164D98091E8006E
:1080E0008E778093E8008091E4009091E500F7019D
:1080F000938782870FB6F8949EBE0FBE8DBE0FB6D3
:10810000F894BEBE0FBEADBE0F900F900F90DF91E2
:10811000CF911F910F91FF90EF90DF90CF90BF9084
:10812000AF909F908F907F906F905F904F90089549
:1081300008950E9400320E94C0230E948A340E9447
:108140001E320E94CD2F0E94642A0E94C7330E94D3
:108150008E210E94E6340E94E136ECD80E948936D6
:108160000E9466230E946F328ECB0E94ED36809172
:10817000CB018823E1F30C940A372ADBF8942FEF24
:1081800087EA91E6215080409040E1F700C000006E
:108190008091CB01823011F40E9401328091CB0199
:1081A000882359F09CE088E10FB6F894A895809355
:1081B00060000FBE90936000FFCF0895B9DFB9DF74
:1081C000D4DFDBDF80E090E00895991B79E004C004
:1081D000991F961708F0961B881F7A95C9F7809506
:1081E0000895AA1BBB1B51E107C0AA1FBB1FA617FE
:1081F000B70710F0A61BB70B881F991F5A95A9F750
:1082000080959095BC01CD01089597FB072E16F43B
:10821000009406D077FD08D0E4DF07FC05D03EF4DB
:10822000909581959F4F0895709561957F4F089522
:10823000EE0FFF1F0024001C0BBE0790F691E02DEF
:108240000994FB01DC0104C08D910190801921F497
:1082500041505040C8F7881B990B0895FB01DC0181
:1082600002C001900D9241505040D8F70895DC01B2
:1082700001C06D9341505040E0F70895F999FECF49
:1082800092BD81BDF89A992780B50895A8E1B0E024
:1082900042E050E01CC0DC01CB0102C02D9105D0B2
:1082A00041505040D8F70895262FF999FECF1FBAB4
:1082B00092BD81BD20BD0FB6F894FA9AF99A0FBE0F
:1082C00001960895F1DF272FF0CFDC01CB01FC01EF
:1082D000F999FECF06C0F2BDE1BDF89A319600B41F
:0E82E0000D9241505040B8F70895F894FFCF2A
:1082EE00028302000001560102000000000000009F
:1082FE00018203000001580103000000000000008D
:10830E000081120000015B0112000000000000005D
:10831E002400250023002700280026002A002B0019
:10832E0029002D002E002C00300031002F002100DE
:04833E0022002000F9
:00000001FF
