:100000000C9467130C94AA130C94AA130C94AA13BF
:100010000C94AA130C94AA130C94AA130C94AA136C
:100020000C94AA130C94AA130C94962E0C94AA1355
:100030000C9414240C94AA130C94AA130C94AA13D1
:100040000C94AA130C94CE290C94AA130C94AA1302
:100050000C94AA130C94AA130C94AA130C94AA132C
:100060000C94AA130C94AA130C94AA130C94AA131C
:100070000C94AA130C94AA130C94AA130C94AA130C
:100080000C94AA130C94AA130C94AA130C94AA13FC
:100090000C94AA130C94AA130C94AA130C94AA13EC
:1000A0000C94AA130C94AA130C94AA132D1BE616F5
:1000B000EC160A171017A418AA18C617CC17D318CD
:1000C000F5180F1929193E199419D119E71A0C1BA3
:1000D000EE190A1A291A4E1A671A8C1AAC1AC51A7E
:1000E000832FA62F8D30A62F8D30EB2F0D308D3026
:1000F0005F307130000000000000000000000000D0
:10010000000000002A002B0028000000000028004A
:1001100000000000000000000000000000000000DF
:1001200000000000000000000000290000000000A6
:10013000000000002C001E023402200221022202D4
:10014000240234002602270225022E0236002D004A
:100150003700380027001E001F0020002100220069
:1001600023002400250026003302330036022E002F
:10017000370238021F0204020502060207020802C3
:1001800009020A020B020C020D020E020F021002FB
:1001900011021202130214021502160217021802AB
:1001A00019021A021B021C021D022F00310030002E
:1001B00023022D0235000400050006000700080098
:1001C00009000A000B000C000D000E000F001000CB
:1001D000110012001300140015001600170018007B
:1001E00019001A001B001C001D002F0231023002F2
:1001F00035024C004000000000000000000000003C
:1002000000000000000000000000000000000000EE
:1002100000000000000000000000000000000000DE
:1002200000000000000000000000000000000000CE
:1002300000000000000000000000000000000000BE
:1019200000000000FF00FF00FF00FF00FF00FF00BD
:10193000FF00FF00FF00FF00FF00FF00FF00FF00AF
:10194000FF00FF00FF00FF00FF00FF00FF0000009E
:101950000000000000000000000000000000000087
:101960000000000000000000000000000000000077
:101970000000000000000000000000000000080C53
:101980000000000000000000000000000000000057
:101990000000000000000000000000000000000047
:1019A0000000000000000000000000000000000037
:1019B0000000000000000000000000000000000027
:1019C0000000000000000000000000000000000017
:1019D0000000000000000000000000000000000007
:1019E00000010101011400000000000000000000DF
:1019F00000000000000000000000000000000000E7
:101A000000000000000000000000000000000001D5
:101A100001010114000000000000000000000000AF
:101A200000000000000000000000000000000000B6
:101A300000000000000000000000000000010101A3
:101A40000114000000000000000000000000000081
:101A50000000000000000000000000000000000086
:101A6000000000000000000000000001010101145E
:101A7000DD2BEE25B4281A26DC23DD2BF3254015BB
:101A8000CD16DC234F7574206F662072616E67651A
:101A90002E0A00456E746572206E65772064656657
:101AA00061756C742064696D6D6572206C65766516
:101AB0006C2028312D3136293E2000456E74657228
:101AC000206E65772064656661756C742062616361
:101AD0006B6C6967687420656E61626C6520283183
:101AE0002D3136293E2000456E746572206E657773
:101AF000206D6174726978207365747570207761E8
:101B0000697420696E206379636C65732028312DB8
:101B1000323535293E2000456E746572206E65773A
:101B2000207265706561742074696D6520696E202E
:101B30006D732028312D3939293E2000456E74659A
:101B400072206E657720686F6C642074696D652003
:101B5000696E206D732028312D393939293E2000D6
:101B6000456E746572206E6577206D6F75736520A4
:101B70006D6F76656D656E74206D756C7469706CD3
:101B80006965722028312D3939293E2000456E744F
:101B90006572206E65772062617365206D6F757365
:101BA00065206D6F76656D656E742028312D39392D
:101BB000293E2000456E746572206E657720646F43
:101BC00075626C657461702064656C6179207469FC
:101BD0006D6520696E206D732028312D39393929C2
:101BE0003E2000456E746572206E657720746170CA
:101BF0002074696D6520696E206D732028312D3940
:101C00003939293E2000456E746572206E65772053
:101C10006465626F756E63652074696D6520696EB9
:101C2000206D732028312D3939293E2000536574E9
:101C30003A00456E746572206E6577206465666152
:101C4000756C74206C617965722028302D39293EBD
:101C5000200042797465732028686578293E200049
:101C6000416464726573732028686578293E20009A
:101C700020532D3078005D20432D3078000A5B0022
:101C80004E756D206C6F636B206973206C696E6B91
:101C9000656420746F207468652073797374656D52
:101CA000206E756D206C6F636B2E0A004E756D2073
:101CB0006C6F636B2077696C6C2066756E637469FA
:101CC0006F6E20696E646570656E64656E746C79A4
:101CD000206F66207468652073797374656D206E5B
:101CE000756D206C6F636B2E0A004B6579626F61B6
:101CF0007264206163747320617320657874656E0B
:101D0000646564204E4B524F206B6579626F61723F
:101D1000642077697468206D6F75736520616E64E7
:101D2000206D65646961206B6579732E0A004B65CF
:101D300079626F617264206163747320617320360D
:101D40004B524F206B6579626F61726420706C75C5
:101D500073206D6F75736520616E64206D656469B5
:101D600061206B6579732E0A004B6579626F617231
:101D700064206973206C696D6974656420746F20D8
:101D80007374616E6461726420364B524F20626FCF
:101D90006F742D636F6D70617469626C65206B6523
:101DA00079626F6172642E0A005363726F6C6C20EB
:101DB0006C6F636B2077696C6C206E6F742061664A
:101DC000666563742077696E206C6F636B2E0A0002
:101DD00057696E646F7773206B65792077696C6CD7
:101DE0002062652064697361626C65642077686550
:101DF0006E207363726F6C6C206C6F636B20697301
:101E000020656E61626C65642E0A004E756D206CF3
:101E10006F636B2077696C6C206E6F7420616666EF
:101E2000656374206E756D62657220726F772E0A1D
:101E3000004E756D62657220726F772077696C6CE9
:101E4000206265207377617070656420666F722010
:101E50006E756D706164206B657973207768656E4F
:101E6000206E756D206C6F636B20697320656E61E9
:101E7000626C65642E0A00496E707574206E6F7412
:101E8000207265636F676E697A65642E0A000A5472
:101E9000696D696E67204D656E753A0A3129205368
:101EA0006574206465626F756E63652074696D6525
:101EB0000A322920536574206D617820686F6C6444
:101EC0002074696D6520666F72207461700A332911
:101ED00020536574206D61782064656C617920748D
:101EE000696D6520666F7220646F75626C65207421
:101EF00061700A3429205365742062617365206D16
:101F00006F757365206D6F76656D656E740A352922
:101F100020536574206D6F757365206D6F76656DE8
:101F2000656E74206D756C7469706C6965720A36C3
:101F30002920536574206D696E20686F6C6420746D
:101F4000696D6520666F72207265706561740A370D
:101F50002920536574207265706561742070657204
:101F6000696F640A382920536574206D6174726941
:101F70007820736574757020776169740A39292037
:101F80004261636B0A3E20000A436F6E66696720F8
:101F90004D656E753A0A312920546F67676C65206C
:101FA0007669727475616C206E756D207061640A5B
:101FB000322920546F67676C652077696E206C6FDB
:101FC000636B206F6E207363726F6C6C206C6F6339
:101FD0006B0A3329205365742064656661756C74DF
:101FE000206C617965720A342920546F67676C65CB
:101FF000206261736963206B6579626F6172640A44
:10200000352920546F67676C6520756E6C696E6B3F
:10201000206E756D206C6F636B0A362920536574D2
:102020002064656661756C742064696D6D657220ED
:102030006C6576656C0A3729205365742064656683
:1020400061756C74206261636B6C6967687420658C
:102050006E61626C650A3929204261636B0A3E2019
:10206000000A4465627567204D656E753A0A31292C
:10207000205072696E74206576656E74730A322919
:1020800020436C656172206576656E74730A33292E
:10209000204578616D696E65206D656D6F72790A96
:1020A0003429205072696E742F636C6561722063ED
:1020B0006C6F636B2D696E730A3929204261636B03
:1020C0000A3E20000A4D61696E204D656E753A0A20
:1020D000312920436F6E666967206D656E750A321F
:1020E000292054696D696E67206D656E750A332904
:1020F000204465627567206D656E750A342920522B
:10210000657365740A392920517569740A3E200087
:102110001E4D1F51204E21502200234F244A25528C
:10212000264B2749374CE200E900EA00E500B500FC
:10213000B600B700CD002402250283018A01920176
:10214000940121022302C101C202C304C408C510C4
:10215000E001E102E204E308E410E520E640E78064
:102160000105080A0C0F101414181800386F03002A
:1021700001780301017C0302016D03030173030471
:10218000017B0305017D030601700307016A030853
:10219000017503090271030B026E030D0174030E36
:1021A0000179030F026C031101770312016141628F
:1021B0004263436444654566466747684869496ABF
:1021C0004A6B4B6C4C6D4D6E4E6F4F70507151722F
:1021D0005273537454755576567757785879597A9F
:1021E0005A31213240332334243525365E372638A0
:1021F0002A39283029000000000000000020202D8E
:102200005F3D2B5B7B5D7D5C7C237E3B3A272260C0
:102210007E2C3C2E3E2F3F000000000000000000FE
:1022200000000000000000000000000000000000AE
:10223000000000000000000000000000000000009E
:10224000000000000000000000000000002F2F2A06
:102250002A2D2D2B2B0000310032003300340035A5
:1022600000360037003800390030002E005C7C005A
:10227000000000000000000000000000000000005E
:102280000000000000000000000000000061626328
:102290006465666768696A6B6C6D6E6F7071727386
:1022A0007475767778797A41424344454647484980
:1022B0004A4B4C4D4E4F5051525354555657585906
:1022C0005A303132333435363738392122232425F8
:1022D000262728292A2B2C2D2E2F3A3B3C3D3E3FEA
:1022E000405B5C5D5E5F607B7C7D7E00800000000B
:1022F00000000000000000000000000000000000DE
:1023000000000000000000000000000000000000CD
:1023100000000000000000000000000000000000BD
:1023200000000000000000000000000000000000AD
:10233000000000000000000000000000000000009D
:10234000000000000000000000000000000000008D
:10235000000000000000000000000000000000007D
:10236000000000000000000000000000000000006D
:10237000000000000000000000000000000000005D
:10238000000000000000000000000000000000004D
:10239000000000000000000000000000000000003D
:1023A000000000000000000000000000000000002D
:1023B000000000000000000000000000000000001D
:1023C000000000000000000000000000000000000D
:1023D00000000000000000000000000000000000FD
:1023E00000000000000000000000000000000000ED
:1023F00000000000000000000000000000000000DD
:1024000000000000000000000000000000000000CC
:1024100000000000000000000000000000000000BC
:1024200000000000000000000000000000000000AC
:10243000000000000000000000000000000000009C
:10244000000000000000000000000000000000008C
:10245000000000000000000000000000000000007C
:10246000000000000000000000000000000000006C
:10247000000000000000000000000000000000005C
:10248000000000000000000000000000000000004C
:10249000000000000000000000000000000000003C
:1024A000000000000000000000000000000000002C
:1024B000000000000000000000000000000000001C
:1024C00000000000000000000000000000004A03BF
:1024D0004500610073007900410056005200200061
:1024E0004D0075006C00740069006D0065006400AB
:1024F0006900610020004B006500790062006F00F8
:102500006100720064002000760023002E0023008A
:1025100023002E0023002300000004030904090205
:102520002200010100A032090400000103010100A2
:102530000921B0010001223F0007058103080001C5
:1025400009025400030100A0320904000001030144
:1025500001000921B0010001223F000705810308A5
:1025600000010904010001030102000921B001007A
:1025700001223A0007058203030005090402000155
:10258000030000000921B0010001221B00070583A0
:102590000302000809025400030100A032090400EC
:1025A0000001030101000921B0010001223F0007E1
:1025B0000581031200010904010001030102000961
:1025C00021B0010001223A0007058203030005093A
:1025D00004020001030000000921B0010001221BD8
:1025E0000007058303020008120100020000000832
:1025F000EB03FF20100000010001050C0901A101FF
:10260000050C160100269C021A01002A9C02751076
:1026100095018100C005010902A1010901A1000580
:1026200009190129031500250195037501810295FA
:1026300001750581010501093009311681FF267FE9
:1026400000360000460000950275088106C0C005EE
:10265000010906A101050719E029E7150025017503
:102660000195088102950175088101050819012964
:1026700005950575019102950175039101150025D8
:102680000105071900297F958075018102C00501A8
:102690000906A101050719E029E7150025017501C3
:1026A0009508810295017508810105081901290520
:1026B000950575019102950175039101150025FF9E
:1026C0000507190029FF950675088100C00011242F
:1026D0001FBECFEFDAE0DEBFCDBF84B714BE0FB6AA
:1026E000F894A89590916000986190936000109282
:1026F00060000FBE83FF11C08091A5039091A603D7
:102700008D3A9E4D51F41092A6031092A503EBE66C
:10271000F1E225913491F901099585B7806885BF6B
:1027200085B7806885BF11E0A0E0B1E0E0E5F7E69D
:1027300002C005900D92AE34B107D9F723E0AEE4A4
:10274000B1E001C01D92A53AB207E1F70E94123331
:102750000C94A6330C940000109272011092710137
:1027600010926D0110926C0110927C0110927B010D
:10277000089590916E0180917901992399F18111C9
:102780003AC080917001811129C080918D01811121
:1027900021C0E0916701E91305C010926E0110920B
:1027A000670129C081E08E0F80936701F0E0EE0F92
:1027B000FF1FE358FE4F80819181813019F490937F
:1027C000700119C09093680180938D01882399F05E
:1027D000B6D711C0E9D710928D010DC081508093FA
:1027E000700109C0811107C01092680180916F01CA
:1027F0008D7F80936F0180917901811103C081E009
:10280000809379010895809126029091690198172B
:1028100031F180936901882311F1883211F08835F4
:1028200031F480916F018B7F80936F010895E09167
:102830006B018A3251F4EE2391F0E150E0936B0189
:10284000F0E0ED58FE4F10820895E63040F4AE2FD0
:10285000B0E0AD58BE4F8C93EF5FE0936B010895ED
:1028600080912602811102C010926F010895BC016F
:1028700080916E01DB01982F292F281B983058F08A
:1028800090936E01620F711D27FD7A9570937C0104
:1028900060937B0122C0FD0125913491211109C073
:1028A00090936E0110927C0110927B019923D1F0DC
:1028B00014C0492F50E0F901FF27EE0FFF1FEC5025
:1028C000FF4F25913491440F551FFA01E358FE4FF5
:1028D000318320839F5F1196CFCF80916F018360FA
:1028E00080936F0181E0089540916E0128E030E00F
:1028F000241B31092617370758F1B0E04B2F0B2E58
:10290000000C550B46175707D8F4A0916E012A2FDB
:1029100030E0FC01E40FF51FE081F0E0EE0FFF1F57
:10292000EC50FF4F45915491220F331FF901E358AA
:10293000FE4F51834083AF5FA0936E01BF5FDECF38
:10294000672B41F080916F01836080936F0102C01B
:1029500080E0089581E0089590916E01983090F4A0
:10296000E92FF0E0EE0FFF1FE358FE4F80836183F5
:102970009F5F90936E0180916F01836080936F01E0
:1029800081E0089580E008959C0190916E0191117D
:102990002EC0A901983049F490936E01205F3F4FFB
:1029A00030937201209371011BC0FA0165917491FB
:1029B0004E5F5F4F6115710549F490936E0110925F
:1029C000720110927101992381F00AC0E92FF0E0A1
:1029D000EE0FFF1FE358FE4F718360839F5FDACFD6
:1029E00080916F01836080936F0181E0089580E0A2
:1029F0000895AC0180916E0181113EC060937A010F
:102A0000282F082E000C330B2617370758F5909106
:102A10006E01220F331F983038F0240F351F30938A
:102A20006D0120936C011EC0FA01E20FF31F20819B
:102A30003181E92FF0E0EE0FFF1FE358FE4F3183A5
:102A400020839F5F90936E0190917A0191509093B3
:102A50007A01911105C010926D0110926C0102C0B3
:102A60008F5FCECF80916E01882341F080916F01FE
:102A7000836080936F0102C080E0089581E0089533
:102A800090916F0191FD75CE20917101309172018D
:102A90002115310511F0C90177CF20916C013091DA
:102AA0006D012115310539F060917A01062E000C77
:102AB000770BC9019ECF20917B0130917C012115BC
:102AC000310511F0C901D3CE92FD9DCEC9CEE3E709
:102AD000F1E0108211821282138214821582109208
:102AE0006B01809126028093690180916F0185605E
:102AF00080936F010895E82FF0E0EE0FFF1FEC5078
:102B0000FF4F859194910895CF92DF92EF92FF92BB
:102B10000F931F93CF93DF93CDB7DEB7EDB6FEB61D
:102B2000E4EFF1E01491E5EFF1E0E4916E2F70E055
:102B30008DB79EB7F3E0EF9F8019910911240FB66E
:102B4000F8949EBF0FBE8DBF01966C0126EF31E059
:102B5000ADB7BEB7139640E050E046175707B4F440
:102B6000F90131960491CD010197FC010083F9012F
:102B70008491FD0132978083F9013296E491EC93C0
:102B80004F5F5F4F2D5F3F4F1396E7CF412FC60139
:102B90000E940724412F61E070E0C6010E940724D3
:102BA0000FB6F894FEBE0FBEEDBEDF91CF911F9120
:102BB0000F91FF90EF90DF90CF900895089590913E
:102BC000C401903178F4E92FF0E09F01220F331F08
:102BD000E20FF31FE157FE4F8083728361839F5F93
:102BE0009093C401089541111BC04091C40150E06D
:102BF00090E0292F092E000C330B2417350784F49D
:102C0000F901EE0FFF1F2E0F3F1FF901E157FE4F95
:102C10002081281303C07283618308959F5FE9CFE9
:102C2000CECF8A3010F4805D0895895C08951F939B
:102C3000CF93DF93182FEB0182958F70F2DF88839B
:102C4000812F8F70EEDF8983DF91CF911F910895DF
:102C50001F93CF93DF93182FEB01892FE8DFBE017D
:102C60006E5F7F4F812FDF91CF911F91E0CF8F92C9
:102C70009F92AF92BF92CF92DF92EF92FF920F930B
:102C80001F93CF93DF931F92CDB7DEB79C018B01CB
:102C900080E3FB01808380E28183828383E0E82EEE
:102CA000F12C94E6892E912C4AE0B42E682D70E028
:102CB000911003C02617370790F06801C90CD11C8A
:102CC00097FCDA94C9010E942533A82E862F998398
:102CD000A8DFF60180832A2D9981392F9394882DBE
:102CE0006B2D0E941933882EF1E0EF1AF108F1F6EE
:102CF0000F90DF91CF911F910F91FF90EF90DF9098
:102D0000CF90BF90AF909F908F90089597EA980FC3
:102D1000993010F48855089592EE980F993010F478
:102D20008D5108959CEF980F963010F48A5F0895A6
:102D300080E00895BF92CF92DF92EF92FF920F93BF
:102D40001F93CF93DF937C018B0180E090E0B12C47
:102D5000C42FD0E02B2D0B2C000C330B2017310788
:102D600090F48C9F60018D9FD00C9C9FD00C1124FF
:102D7000F701E20FF31F8081C9DF9601280F311D93
:102D8000C901B394E7CFDF91CF911F910F91FF90CD
:102D9000EF90DF90CF90BF9008950F931F93CF9344
:102DA000DF9300D000D0CDB7DEB780916F018111E5
:102DB00054C4E0918E018E2F90E08A31910508F085
:102DC0004AC4FC01EA5AFF4F0C944C3384EC90E265
:102DD0004EDD7DDE82E011C011E010938E01809106
:102DE000730194DF893009F436C4843019F41093E8
:102DF000C50133C4813021F483E080938E012DC45A
:102E0000823011F487E0F9CF833009F4D9C187E724
:102E10009EE120C088E89FE12ADD59DE84E0EDCF05
:102E200013E010938E018091730170DF893011F4EB
:102E300081E0E3CF813099F490917C0389278093DE
:102E40007C0382E00E94F52680917C03882321F098
:102E500081E39EE10CDD01C48BE09EE1FBCF82307B
:102E600099F49091780381E089278093780381E039
:102E70000E94F52680917803882319F080ED9DE16A
:102E8000E9CF89EA9DE1E6CF8330B1F48DE29CE1A0
:102E9000EEDCBE016F5F7F4F80916D03C8DE8AE07C
:102EA0008B8363E070E0CE0101961EDD82E39CE13E
:102EB000DEDC0DDE8FE0A1CF8430F9F480917B035E
:102EC000811109C081E080937B0385E00E94F52693
:102ED0008EE29DE1BFCF813041F410937B0385E00A
:102EE0000E94F52689E69DE1B5CF10927B0385E02F
:102EF0000E94F5268AEE9CE1ADCF853099F4909141
:102F0000700381E089278093700387E00E94F52693
:102F100080917003882319F08CEA9CE19BCF80E8B4
:102F20009CE198CF8630B9F48DE29CE1A0DC8091E1
:102F30007303BE016F5F7F4F90E099DE8AE08B8361
:102F400063E070E0CE010196CFDC83E99AE18FDC8B
:102F5000BEDD80E152CF873009F059CF8DE29CE190
:102F600086DC80916A0390E0BE016F5F7F4F01961F
:102F70007EDE8AE08B8363E070E0CE010196B4DCF4
:102F80008BEB9AE174DCA3DD81E137CF8EE89EE123
:102F90006EDC9DDD88E031CF87E080938E018091EB
:102FA0007301B4DE893009F443CF8130B9F48DE286
:102FB0009CE15DDC80917D03BE016F5F7F4F90E0FF
:102FC00056DE8AE08B8363E070E0CE0101968CDCF4
:102FD00086E09CE14CDC7BDD82E10FCF8230C1F4E6
:102FE0008DE29CE144DCBE016F5F7F4F80917503F1
:102FF000909176033CDE8AE08C8364E070E0CE0141
:10300000019672DC83EE9BE132DC61DD83E1F5CE7B
:103010008330D9F48DE29CE12ADC80917103909198
:103020007203BE016F5F7F4F9195819591091FDEFD
:103030008AE08C8364E070E0CE01019655DC84EB7D
:103040009BE115DC44DD84E1D8CE8430B9F48DE217
:103050009CE10DDC80916E03BE016F5F7F4F90E0BD
:1030600006DE8AE08B8363E070E0CE0101963CDCF3
:103070008DE89BE1FCDB2BDD85E1BFCE8530B9F42B
:103080008DE29CE1F4DB80917403BE016F5F7F4FA2
:1030900090E0EDDD8AE08B8363E070E0CE01019685
:1030A00023DC80E69BE1E3DB12DD86E1A6CE863001
:1030B000C1F48DE29CE1DBDBBE016F5F7F4F80914D
:1030C000790390917A03D3DD8AE08C8364E070E029
:1030D000CE01019609DC8CE39BE1C9DBF8DC87E1DA
:1030E0008CCE8730B9F48DE29CE1C1DB80916C031A
:1030F000BE016F5F7F4F90E0BADD8AE08B8363E0B3
:1031000070E0CE010196F0DB87E19BE1B0DBDFDC14
:1031100088E173CE883009F0A0C28DE29CE1A7DB84
:1031200080917703BE016F5F7F4F90E0A0DD8AE062
:103130008C8364E070E0CE010196D6DB87EE9AE1E5
:1031400096DBC5DC89E159CE81E690E290DBBFDCFD
:1031500086E053CE85E080938E0180917301D6DDA9
:10316000893009F465CE813011F489E046CE823091
:1031700069F4EFE8F1E0108212821182339641E0A7
:10318000EF3BF407C1F71092C40167C2833031F4FA
:1031900080E69CE16CDB9BDC8CE02FCE843009F078
:1031A00036CE8EE02ACE8091C301803158F0109245
:1031B000C3018AE0898361E070E0CE01019694DB6F
:1031C00085E01BCE8DE79CE152DBBE016F5F7F4F38
:1031D0008091C3012CDD62E070E0CE01019684DBBA
:1031E00086E79CE144DB8AE008CE8091C30190E051
:1031F000FC01EE0FFF1F8E0F9F1FFC01E157FE4FDA
:10320000BE016F5F7F4F808112DD62E070E0CE0112
:1032100001966ADB80E79CE12ADB8BE0EECD8091B2
:10322000C30190E0FC01EE0FFF1F8E0F9F1FFC01FA
:10323000E157FE4FBE016F5F7F4F8181928108DDB4
:1032400064E070E0CE0101964FDB89E080938E014F
:10325000A2C060916B0170E040E183E791E06ADD1C
:103260009093C0018093BF011092C2011092C101DE
:1032700082E59CE1FCDA2BDC8DE0BFCD8091C101C1
:103280009091C201892B89F40091BF011091C00176
:1032900060916B0170E040E183E791E04BDD800FCE
:1032A000911F9093C2018093C10110E20AE0E09166
:1032B000BF01F091C0018091C1019091C201E81756
:1032C000F907D8F4BE016F5F7F4F8081B0DC809139
:1032D000C1019091C20101972091BF013091C001BD
:1032E0002817390711F40B8301C01B8363E070E0DA
:1032F000CE010196F9DA81110DC02091BF01309104
:10330000C0018091C1019091C2012817390708F0CE
:1033100057CFA3C18091BF019091C00101969093B6
:10332000C0018093BF01C3CF8091C3018A3078F080
:103330001092C3018AE0898361E070E0CE010196BA
:10334000D3DA85E080938E010E94F12986C1082F8F
:103350000695182F117080FD02C08AE001C080E23E
:10336000898361E070E0CE010196BEDA85E0189FA6
:10337000F0011124E00FF11DEE0FFF1FEC57FC4F81
:10338000BE016F5F7F4F8081918162DC64E070E0FD
:10339000CE010196A9DA8091C3018F5F8093C301AA
:1033A0005CC160916B0170E04AE083E791E0C2DCB0
:1033B0008A30910578F480936D0383E00E94F526AE
:1033C0008DE29CE154DABE016F5F7F4F80916D0307
:1033D0002EDC1AC184E89AE14ADA0ECD60916B01C5
:1033E00070E04AE083E791E0A5DC9C0121503109BF
:1033F0002336310558F480937D0386E00E94F5263C
:103400008DE29CE134DA80917D0379C084E89AE111
:103410002EDAF8CC60916B0170E04AE083E791E02E
:1034200089DC9C0121503109273E334078F7909385
:1034300076038093750389E00E94F5268DE29CE176
:1034400016DABE016F5F7F4F80917503909176030E
:10345000B8C060916B0170E04AE083E791E06ADCFC
:103460009C0121503109273E334080F6919581958A
:10347000910990937203809371038AE00E94F5266C
:103480008DE29CE1F4D98091710390917203BE01A9
:103490006F5F7F4F91958195910993C060916B010A
:1034A00070E04AE083E791E045DC9C01215031095E
:1034B0002336310508F0AACF80936E038BE00E947B
:1034C000F5268DE29CE1D3D980916E0318C06091FE
:1034D0006B0170E04AE083E791E02CDC9C01215015
:1034E00031092336310508F091CF809374038CE0C5
:1034F0000E94F5268DE29CE1BAD980917403BE0149
:103500006F5F7F4F90E0B3DB8AE08B8363E070E016
:10351000CE010196E9D976CC60916B0170E04AE06A
:1035200083E791E007DC9C0121503109273E3340BD
:1035300008F06CCF90937A03809379038DE00E941A
:10354000F5268DE29CE193D9BE016F5F7F4F80919C
:10355000790390917A0335C060916B0170E04AE085
:1035600083E791E0E7DB9C012150310923363105E7
:1035700008F04CCF80936C038EE00E94F5268DE21C
:103580009CE175D980916C03BACF60916B0170E0BA
:103590004AE083E791E0CEDB9C01215031092F3FC7
:1035A000310508F033CF809377038FE00E94F52632
:1035B0008DE29CE15CD980917703BE016F5F7F4F04
:1035C00090E055DB8AE08C8364E070E0A1CF6091ED
:1035D0006B0170E04AE083E791E0ACDB9C01215095
:1035E00031092031310508F0F5CE8093730384E072
:1035F0000E94F5268DE29CE13AD980917303BE01C9
:103600006F5F7F4F90E033DB8AE08B8363E070E095
:10361000CE01019669D9F0CB60916B0170E04AE070
:1036200083E791E087DB9C0121503109203131058E
:1036300008F0D0CE815080936A0388E00E94F5267E
:103640008DE29CE114D980916A0390E0BE016F5F26
:103650007F4F0196D8CF10928E010F900F900F9050
:103660000F90DF91CF911F910F91089526E0829FD7
:10367000C0011124FC01E05DFE4F0190F081E02DBE
:10368000208181E090E001C0880F6A95EAF7822BE3
:103690008083089526E0829FC0011124FC01E05D33
:1036A000FE4F0190F081E02D808160956823462BCC
:1036B0004083089526E0829FC0011124FC01E05D53
:1036C000FE4F0280F381E02D208181E090E001C077
:1036D000880F6A95EAF7822B8083089526E0829FFF
:1036E000C0011124FC01E05DFE4F0280F381E02D5A
:1036F000208181E090E001C0880F6A95EAF780950B
:1037000082238083089526E0829FC0011124FC015A
:10371000E05DFE4F0280F381E02D80816823462B1F
:103720004083089526E0829FC0011124FC01E05DE2
:10373000FE4F0480F581E02D808186230895E82FD7
:10374000E695E695E695F0E0E75EFD4F982F9770D9
:1037500021E030E001C0220F9A95EAF79081292BF1
:1037600020839091130220E029175CF4E22F022EAF
:10377000000CFF0BEA5DFD4F30813817A1F02F5F81
:10378000F3CF96305CF4E92F092E000CFF0BEA5DB5
:10379000FD4F80839F5F90931302089510922C0237
:1037A00081E08093F8020895E82FE695E695E69586
:1037B000F0E0E75EFD4F982F977021E030E001C008
:1037C000220F9A95EAF720959081292320839091E2
:1037D000130246E252E0FA012E2F241B291724F48B
:1037E00031913813F9CF01C00895E22F022E000C59
:1037F000FF0BEA5DFD4F818180832F5F2917ACF3BA
:103800009150909313021092F8020895E82FE695D4
:10381000E695E695F0E0E75EFD4F982F977021E082
:1038200030E001C0220F9A95EAF790812927208382
:103830009091130246E252E0FA012E2F241B291721
:1038400024F431913813F9CF13C096305CF4E92F8A
:10385000092E000CFF0BEA5DFD4F80839F5F909364
:103860001302089510922C0281E08093F8020895CB
:10387000E22F022E000CFF0BEA5DFD4F8181808359
:103880002F5F2917ACF39150909313021092F80216
:1038900008959091CE0294305CF4E92F092E000C2B
:1038A000FF0BEC5EFD4F80839F5F9093CE020895E7
:1038B00040E060E070E082E496D91092180208952A
:1038C0002091CE0244E152E0FA019E2F941B921700
:1038D0009CF431913813F9CF921751F0E92F092E4A
:1038E000000CFF0BEC5EFD4F818180839F5FF4CF66
:1038F00091509093CE020895682F70E040E083E4E9
:1039000072C980916D038093FB020895982F990FDF
:10391000890F880F860F90910E0289130DC0809138
:103920007103909172038417950734F48091FA0221
:103930008F5F8093FA02089510920E021092FA029D
:103940000895E0917503F09176034E175F075CF4DC
:1039500091E0F9019083982F990F890F880F860FB6
:1039600080930E020895F901108210920E021092B7
:10397000FA02089590917A01E92FEE0FFF0BE25DB4
:10398000FD4F2091100230E0322F2227282B318367
:10399000208381E0890F80937A01803534F0109282
:1039A000F70280936A0180E17DC508959091FC0241
:1039B000911111C0805D8E3070F4E82FF0E0EE0FB1
:1039C000FF1FED5EF74F85919491880F991F8D5ED3
:1039D000974F0C94C4140895CF93DF93C82FD62F1C
:1039E00058DF8091FB0290916D03891711F08B5F76
:1039F00059D580E18C0F8093FB0285E18C0F32D585
:103A00008FE030D58091FB0290910F02D0FF02C071
:103A1000981308C0981308C08091FA02811104C05D
:103A200080916D0380930F02DF91CF910895E82F6D
:103A3000F0E0EA52FC4F8491882311F060E0CCCF93
:103A400008951F93CF93DF9300D01F92CDB7DEB7B9
:103A5000182F2B834A83698333DF2B814A81698145
:103A6000222399F12091FB02E22FF0E0812F90E0D8
:103A7000805F9109E817F90741F58091FA028823E0
:103A800019F061FD20930F028091120281131DC075
:103A900062FF1BC0141624F460911002842F13C01F
:103AA000842F807E803E89F4E42FF0E0EE0FFF1F2C
:103AB000EF56F04E84918095909110028923809367
:103AC0001002649180E00E94AC148091FB028B5F35
:103AD000E9D4E091CE02E11103C080910F0207C04A
:103AE0000E2E000CFF0BED5EFD4F8081805F8093FA
:103AF000FB028091FB0290916D03891741F08B5F6F
:103B00000F900F900F90DF91CF911F91ABC48FE07A
:103B10000F900F900F90DF91CF911F91C3C4E82FAA
:103B2000F0E0EA52FC4F8491882321F020E040E04D
:103B300060E087CF08956F70623051F028F46623FB
:103B400039F0613081F00895643011F06830F1F49B
:103B5000E82FF0E0EE0FFF1FEF56F04EE49180915A
:103B60001002E82B0AC0E82FF0E0EE0FFF1FEF561F
:103B7000F04EE49180911002E827E09310028091CA
:103B8000F902882319F0E777E093100208956F7027
:103B9000623009F43FC018F4662381F1089564305F
:103BA00019F0683059F10895E82FF0E0EE0FFF1F8B
:103BB000EF56F04EE491E095609110026E23609311
:103BC0001002222309F444C090911202981340C0BD
:103BD000842F14168CF0807E803E09F039C0E42FCB
:103BE000F0E0EE0FFF1FEF56F04E849180956823B2
:103BF00060931002649180E00C94AC14E82FF0E024
:103C0000EE0FFF1FEF56F04EE491E0958091100209
:103C1000E8231CC0E82FF0E090911002EE0FFF1F88
:103C2000EF56F04E222379F08091FA02882359F062
:103C30008491E82FE92BE09310028091F902882308
:103C400039F0E77703C0E491E095E923E0931002AF
:103C500008956F70623051F028F4662339F06130B6
:103C600031F00895643011F0683011F468CDCECD94
:103C700008956F70623049F018F461110DC00BC0E7
:103C8000643049F0683041F406C0222321F090915D
:103C9000FA02911101C088CD08951F93CF93DF934D
:103CA0001F92CDB7DEB7182F862F807F11F080933B
:103CB0006801103C78F5103B08F0C1C0133A09F4D4
:103CC0008CC0B8F4133809F472C050F4143008F4FE
:103CD0000FC1143708F458C0123809F460C008C185
:103CE000113A09F476C008F076C0143809F469C0B6
:103CF000FFC0193A09F48AC020F4183A08F07FC0CE
:103D00006EC01E3A09F48FC008F091C01A3A09F447
:103D1000F5C0EEC01E3D20F5103D08F0C1C0163CB8
:103D200009F4A2C088F4113C08F4E2C0EFE3E10F0B
:103D3000F0E0EE0FFF1FE95BFE4DE4918091F5028C
:103D4000E82BE093F502DAC0183C09F497C008F4B8
:103D50008FC0193C09F0CCC080912D028F5F91C0BB
:103D6000183E50F4103E08F0C0C01E3D09F49BC040
:103D70001F3D09F4ACC0BCC08FE0810F893008F052
:103D8000B7C0812F29DEBAC08091F702882321F0C5
:103D9000812F6983EFDD6981812F5BDFAFC0809167
:103DA000110281FDABC06091100289E307C08091D0
:103DB000110280FDA3C06091100283E50E94AC1443
:103DC0009DC08091110282FD99C06091100287E42C
:103DD000F5CF4BD493C023D491C013D48FC080911E
:103DE000F70281118BC081E08093F70210927A0173
:103DF0008093FC028CE5810F809380035EC09091DC
:103E0000FC0281E089278093FC0278C09091F9023E
:103E100081E089278093F902811102C085E055C0B5
:103E200085E020D36BC082E08093C50167C080919C
:103E30008E01811163C081E080938E015FC080910B
:103E4000CF029091D002892B09F058C0E0E5E10F34
:103E5000F0E0EE0FFF1FEA5DFE4D85919491909387
:103E6000D0028093CF024AC08091F6028F5F03C0D8
:103E70008091F60281508093F60205C080912D0258
:103E8000815080932D02909169038091FA029923C9
:103E900021F090916703981788F5809367032EC0EF
:103EA000812F84DD2BC09091F70281E089278093D8
:103EB000F702882321F010927A0180E1B2CF80913D
:103EC0007A01811180936A0180E1ECD217C0809160
:103ED000F702811113C060916A01062E000C770B66
:103EE0008EE292E00E94F91409C0812F24DE06C000
:103EF000612F70E040E084E40E94F31510931202F9
:103F00000F90DF91CF911F9108951F93CF93DF936F
:103F100000D01F92CDB7DEB7182F862F807F11F00B
:103F200010926801163C10F5113C08F0A0C01B3A35
:103F300098F4113A08F0DFC0123809F462C028F48E
:103F40008CEF810F8037B0F1CAC0133809F461C01B
:103F5000143809F46DC0C3C01E3A08F4C0C0103B49
:103F600008F4C9C0103C08F46BC0B9C0103E90F40E
:103F7000103D08F0C0C0173C09F48DC008F487C09C
:103F8000183C09F48EC0193C09F0A9C080912D029B
:103F900081508AC0183E08F48AC08FE0810F8930B2
:103FA00008F09DC0812F0F900F900F90DF91CF915F
:103FB0001F9147CD8091F7028823D9F08091FC02B0
:103FC0008823B9F0183211F01B3299F41092FC02D8
:103FD0001092F70280917A01815080936A011092C9
:103FE000810380E12B834A8369835CD269814A81A2
:103FF0002B81812F0F900F900F90DF91CF911F9108
:1040000038CE8091110281FF76C06091100289E361
:1040100007C08091110280FF6EC06091100283E59D
:104020000F900F900F90DF91CF911F910C94AC14D3
:104030008091110282FF5FC06091100287E4F0CF8F
:1040400060E5610FE62FF0E0EE0FFF1FEA5DFE4D29
:10405000859194912091CF023091D0022817390791
:1040600009F049C01092D0021092CF0244C06FE311
:10407000610FE62FF0E0EE0FFF1FE95BFE4DE491CC
:10408000E0958091F502E823E093F50234C0809139
:10409000F602815003C08091F6028F5F8093F60292
:1040A0002AC080912D028F5F80932D0224C08091C1
:1040B000F702882361F080911202811308C080E02A
:1040C0002B834A83698356DC69814A812B81812F46
:1040D0000F900F900F90DF91CF911F9158CD612FCE
:1040E00070E040E085E40F900F900F90DF91CF914A
:1040F0001F910C94F3150F900F900F90DF91CF91BB
:104100001F91089520911002227291E009F090E031
:1041100020917C03222359F0992349F02091110228
:1041200020FF05C022EE280F2A3008F4855C20917C
:104130007003222321F1833571F49091110281E003
:1041400089278093110280FF03C080E08BD11FC0BC
:1041500080E0A8D11CC027EA280F2B3080F42091E2
:104160001102E82FF0E0EE0FFF1F20FF05C099239A
:1041700019F0E25AFF4D02C0E15AFF4D84918A3A8C
:1041800039F4911102C085E3089589E2089580E031
:104190000895AF92BF92CF92DF92EF92FF920F936A
:1041A0001F93CF93DF9300D01F92CDB7DEB7D82EE9
:1041B000062F10E08091FB0294E2C92E96E0D99E72
:1041C00070011124F701C89EE00DF11D1124E00FCC
:1041D000F11FE555F94F84914A835B83698392DF30
:1041E000B82E8091FB029701C89E200D311D11242D
:1041F000200F311FF901ED5BFA4FC490F901E55230
:10420000FC4FA4900E0D1F1DF801E651FE4FB08229
:10421000F801EF52FD4FC082F801EA53FE4FA08231
:104220004A815B8169818D2D71DB4A2D6C2D8B2D2F
:1042300034DD25D20F900F900F90DF91CF911F9119
:104240000F91FF90EF90DF90CF90BF90AF900C94C4
:10425000FD2B9F92AF92BF92CF92DF92EF92FF928F
:104260000F931F93CF93DF931F92CDB7DEB796E0E6
:10427000899F90011124260F311DF901E651FE4F4F
:104280006F01B080F901EF52FD4F7F01A0808901DD
:104290000A531E4FF80190809E012F5F3F4F51DB64
:1042A0002981492D6A2D8B2D30DEF6011082F70110
:1042B0001082F80110820F90DF91CF911F910F9122
:1042C000FF90EF90DF90CF90BF90AF909F900895B8
:1042D00026E0829FC00111249C01260F311DF901A7
:1042E000E651FE4F8081F901EF52FD4F908193FF1F
:1042F0001AC018161CF46091100213C0982F907EFB
:10430000903E89F4E82FF0E0EE0FFF1FEF56F04EDD
:10431000849180959091100289238093100264917A
:1043200080E00C94AC1408952091FC02211112C07D
:10433000FC01A6E2B2E0069621E03091F8023323B8
:1043400011F0208302C03C91308331961196E8171A
:10435000F90799F708952091FC02211109C0DC01A9
:10436000E9E1F2E08DE08E0F91919D938E13FCCFE9
:104370000895FC018091FC02811106C080916801C2
:1043800090911002982B9083089526E0829FC0019F
:104390001124FC01E60FF11DE555F94FE491E832D7
:1043A00011F0E83539F441E060E070E081E50E9409
:1043B000F3157DC4089590E09C01220F331F820FF6
:1043C000931FFC01E05BF64E2491FC013196825B69
:1043D000964EE25BF64E621721F06491FC018491E7
:1043E00069C96491FC01849179C90F931F93CF939C
:1043F000DF93EFE7F9E1D4910EE419E1C0E0CD17C6
:1044000069F0F80131966491F80184912FD960E048
:104410008C2FD1DFCF5F0D5F1F4FF1CF80917303E2
:1044200080930C038093090380916A0380930703B0
:10443000DF91CF911F910F91089580910503893FDE
:1044400069F4809111038F3E19F41092110303C097
:104450008F5F809311031092050308958F5F8093FF
:104460000503089590E0880F991FFC01EC5DF64E5E
:10447000A491FC01EB5DF64E8491EEE7F9E1E49145
:10448000AE1778F4B0E0A350BD4F811103C08C91FA
:10449000816006C09C919170E82FEE0F892F8E0FDE
:1044A0008C93089590E0880F991FFC01EC5DF64E07
:1044B000A491FC01EB5DF64E8491EEE7F9E1E49105
:1044C000AE1780F4B0E0A350BD4F811104C08C91B1
:1044D0008E7F8C9308959C91292F2695281302C0D6
:1044E00091709C930895823049F0833079F0813047
:1044F000A1F481E1B7DF82E1D5DF0CC081E1D2DF39
:1045000082E1D0DF83E1AEDF84E1CCCF81E1CADF9D
:1045100082E1A8DF83E1C6DFF7CF81E1C3DF82E17B
:10452000C1DF83E1BFDF84E19DCF0F931F93CF9362
:10453000EEE7F9E1E491C0E00E2F10E08C2F0C2E95
:10454000000C990B8017910714F520910803222382
:10455000C9F0FC01E350FD4F2081223018F42111F5
:104560000FC010C0E22FE695F0E0E05AFE4D6491D6
:10457000809111030E941933921720F490FF02C01A
:1045800061E001C060E08C2F16DFCF5FD7CFCF9105
:104590001F910F91089580910C03803110F081E0FC
:1045A00002C08C5F8C7F80930C03089580910D0373
:1045B0008F5F813118F480930D03089581E080931B
:1045C0000D0310920B0310921003089590910C03A9
:1045D000903120F081E080930803089580910B03CF
:1045E00020910D03929F902D1124891738F491E0AA
:1045F00090930803805F80930B0308951092080343
:104600000895E3E2F9E1E491809107038F5F8E174B
:1046100018F480930703089510920703089580917A
:104620000E038F5F843018F480930E0302C0109243
:104630000E0380910E03811103C080910C0303C00F
:10464000813021F484E0809309030895823031F4AD
:1046500084E08093090310920A03089580E1809317
:10466000090381E080930A03089595DF80910E038A
:10467000811104C080910C038093090308958091F7
:104680000E03823011F488E10BC0833071F4809105
:104690000903853010F0845003C0882321F0815035
:1046A00080930903089510920903089580910F03E0
:1046B0008F5F803318F480930F03089510920F03D7
:1046C00090910E039130B1F420910A038091090377
:1046D000222341F08F5F809309038831E0F010922C
:1046E0000A0308958150809309038530A0F49093C4
:1046F0000A030895923031F480910903853058F00F
:10470000815007C0933039F480910903803118F447
:104710008F5F80930903089580910903803120F011
:1047200081E080930603089590910D03899F802D69
:10473000112490910A039111807F90911003981792
:1047400038F481E080930603905F909310030895FE
:104750001092060308951F93CF93DF93EFE7F9E1DB
:10476000E49110E0CE2FD0E0212F012E000C330B6E
:104770002C173D07ECF4F901ED5EF64EE491EE23C3
:10478000A9F080910603882371F080910703F90155
:1047900090E1899FE00DF11D1124ED5EF74EE4914B
:1047A00061E0E11101C060E0812F05DE1F5FDCCF19
:1047B000DF91CF911F910895F9DE08DF3EDEB5DE6F
:1047C00075DFAADFC8CF27B1242B27B928B1342F32
:1047D0003095232338B1432B3FB7F894FC01680F81
:1047E000791FE617F70789F0819198E048B9000032
:1047F00000C087FF28B9880F000000C000C000C0BB
:1048000028B900C09A9591F7ECCF3FBF08959B015E
:10481000220F331F620F731FD6DF87EC90E00197E2
:10482000F1F700C0000008951F920F920FB60F928B
:1048300011240F900FBE0F901F901895E4E6F0E042
:10484000808180718083A5E6B0E08C9186778C931F
:1048500080818160808380818460808380818062A8
:1048600080838081806480838C9188608C93808138
:10487000806880838081826080838C9181608C934A
:104880008C918F778C9390E080E80FB6F8948093AA
:104890006100909361000FBE0895D0CF8DEA9EED28
:1048A0009093A6038093A503089580E189BD82E1DA
:1048B00089BD09B400FEFDCF8091D8008F7D809323
:1048C000D8008091E00082608093E0008091E00059
:1048D00081FDFCCF0895CF92DF92EF92FF921F935C
:1048E000CF93DF93E7EBF9E1E491E0931203E6EB7A
:1048F000F9E1E491E0931803E5EBF9E1E491E09349
:104900001903E4EBF9E1E491E0931A038AEAE82E53
:1049100089E1F82E93E1C92E93E0D92ED0E0F7017A
:1049200014918091180381111FEFF7013196C49102
:104930004C2F612F8D2F0E944A1B2C2F2095F601A2
:1049400021936F01422F412380911803642F6095BA
:10495000811101C040E08D2F0E94831BDF5FF2E0D8
:10496000EF0EF11CD530D9F6DF91CF911F91FF905A
:10497000EF90DF90CF900895CF92DF92EF92FF9269
:104980000F931F93CF93C0E08091190390E02C2FD9
:104990000C2E000C330B281739070CF054C083E1A0
:1049A000E82E83E0F82EF5E0CF026001112400E04C
:1049B00010E0F801EC0DFD1DE457F64E4491F701AF
:1049C00061917F01802F0E94831B0F5F1F4F053075
:1049D000110579F7809177038A95F1F710E0212F7F
:1049E000012E000C330B80911A0390E02817390731
:1049F00044F580911803220F331FF901EF57F64E4B
:104A0000882351F06491F901E058F64E84910E9498
:104A1000921B882351F013C06491F901E058F64EBF
:104A200084910E94921B882351F080911203882365
:104A300019F06C2F812F02C0612F8C2FA6DC1F5F15
:104A4000CECFCF5FA1CFCF911F910F91FF90EF906D
:104A5000DF90CF900895CF93DF93962F642F26E0B9
:104A6000929FE0011124C40FD11DCC0FDD1FC55E44
:104A7000DC4F48815981882301F157FF0EC02091F6
:104A80007D0330E0319521953109241735077CF1FC
:104A9000892F7FDB82E090E020C020917903309164
:104AA0007A034217530794F0892F12DC20916C038C
:104AB00088819981821B910910C01416150684F40F
:104AC00020917D0330E0421753071CF44E5F5F4F87
:104AD00010C0892FBEDB8EEF9FEF998388830BC0B8
:104AE00080917103909172038417950724F44250CA
:104AF000510959834883DF91CF910895CF92DF9276
:104B0000EF92FF920F931F93CF93DF93D62FC82F6F
:104B1000CD170CF05AC083E1E82E83E0F82EF5E0C3
:104B2000CF026001112400E010E0F70161917F01E4
:104B30006F3F49F0F801EC0DFD1DE457F64E44912E
:104B4000802F0E94831B0F5F1F4F0530110569F7EF
:104B5000809177038A95F1F710E0212F012E000C48
:104B6000330B80911A0390E02817390764F5809180
:104B70001803220F331FF901EF57F64E882359F01F
:104B80006491F901E058F64E84910E94921B91E0E5
:104B9000882361F00AC06491F901E058F64E8491CF
:104BA0000E94921B91E0811101C090E0809112035C
:104BB000882319F04C2F612F02C0412F6C2F892FB1
:104BC0004ADF1F5FCACFCF5FA3CFDF91CF911F9185
:104BD0000F91FF90EF90DF90CF90089560911903AF
:104BE000669580E08BCF80911903682F869586CFDC
:104BF00081E080936603089520916603AC01249FB1
:104C0000C001259F900D11246AE070E00E942533B9
:104C100080916503562F581B852F609365032F5F86
:104C2000209366032B3028F01092650391E0909357
:104C3000660308958091F602811104C080912D02CF
:104C4000882311F181E08093690320916E038091A4
:104C500067039091740330916803311120C0899FDC
:104C6000C0011124820F911DC7DF9091F602899F28
:104C7000902D11249093640390912D02899F802D93
:104C80001124809363030BC0109269031092650393
:104C900010926403109263038AE08093660380910C
:104CA0006803811103C081E0809368030895CF9366
:104CB000DF93CDB7DEB763970FB6F894DEBF0FBEB4
:104CC000CDBF59E150936F031092780310927C038B
:104CD00010926D0340E14093730310927B0336E022
:104CE00030937D031092700310926A0380EF90E07E
:104CF000909376038093750388E89FEF90937203F7
:104D00008093710385E080936E032FE020937403FA
:104D100060E273E070937A036093790390E290937A
:104D20006C038093770359831A821B821C824D8304
:104D30001E823F831886198630EF3A871B8638E833
:104D40003C873FEF3D878E872F87988B23E0298B09
:104D50009A8B8B8B43E150E060E070E0CE010196CE
:104D60000E947C3363960FB6F894DEBF0FBECDBFB2
:104D7000DF91CF9108950F931F93CF93DF93CDE6EB
:104D8000D1E2FE01329684913196E49190E0E230D6
:104D900059F4FE0105911491805090400E947733A0
:104DA000F8019183808309C0FE0105911491805020
:104DB00090400E946F33F80180832496F1E2CD3A4F
:104DC000DF07F9F660916F03693131F070E041E07F
:104DD00080E50E94F3156BDF80917B0380936B036A
:104DE000DF91CF911F910F91089524E0829FC00120
:104DF0001124FC01E159FE4D2491FC01E059FE4DC6
:104E00003491FC01E359FE4D822F90E0323041F4A1
:104E1000A591B4916D917C91805090400C94933306
:104E2000A591B4916C91805090400C94853385E0AD
:104E3000809381030895809180032EE28202C00155
:104E40001124FC01EF51F64E4491FC01EE51F64E57
:104E50003491FC01ED51F64E2491FC01EC51F64EDB
:104E6000949150917A0180917E03513079F01CF435
:104E7000552331F01FC0523081F05330A9F01AC0D1
:104E8000442321F06AE10E9419332EC0332329F014
:104E90006AE10E941933965E27C0222329F06AE056
:104EA0000E9419339C5C20C0992321F0982F9F7198
:104EB000925C1AC0442311F06AE101C060E0311134
:104EC000665E2111665F9111605E0E941933411187
:104ED00001C0965E311103C09A3134F0965E211103
:104EE00003C094330CF0965FE92F990FFF0BE35743
:104EF000FD4D8491089584509272E82FF0E0EE0FFA
:104F0000FF1F911103C0E355FE4D02C0E255FE4D57
:104F1000849108950F931F93CF93DF93E0918003C3
:104F200020917A01022E000C330BCE2F0E2E000C96
:104F3000DD0B8EE2E802F0011124E052F64E64919E
:104F400070E0C9010E943933082F10917E036091EF
:104F50006A01062E000C770BC9010E943933FC014F
:104F6000FF27EE0FFF1FE25DFD4F80819181C3DFC0
:104F7000810F982F990F87FD9F5F90937E038EE29C
:104F80008C9FF0018D9FF00D1124E00FF11DE8546E
:104F9000F64EE49180917E03E827E0937E03DF9153
:104FA000CF911F910F910895EF92FF920F931F934E
:104FB000CF93DF931F92CDB7DEB7809180032EE2AF
:104FC0008202C0011124FC01EB51F64E6491062FC0
:104FD00010E020E530E0201B310B220F331FA90128
:104FE000425D5D4F7A0120918103223009F444C073
:104FF00028F4222351F02130C9F0AEC0233009F447
:105000005BC0243009F47FC0A7C010927E0321E06A
:105010002093810310927A01FC01E052F64EE49154
:10502000E1119AC085E08093810396C020917A01B6
:10503000FC01E20FF11D27FDFA95E854F64EE491CC
:1050400040917E034E0F40937E032F5F20937A01A1
:10505000FC01E052F64E8491022E000C330B90E0DE
:10506000281739070CF478C082E0809381031092EE
:105070007A0140937F0370C010917F03E0917A0121
:10508000EE0FFF0BE25DFD4F80819181698333DF7D
:10509000810F80937F0390917A019F5F90937A01B3
:1050A00020916A01698192170CF456C00E9419334D
:1050B00090937F0383E022C02DDF80917F03E80E71
:1050C000F11CE80EF11CB7DE0E947B15F7019183FD
:1050D000808380917F0390E00196B8010E9439336C
:1050E00080937F0380917A018F5F80937A01082EED
:1050F000000C990B801791077CF184E08093810369
:1051000010927A0129C080917A01282F220F330B47
:10511000FA01E20FF31F40815181F901E25DFD4F79
:10512000518340838F5F80937A01082E000C990B86
:10513000801791078CF085E08093810360936A016A
:10514000B8018EE292E00F90DF91CF911F910F9105
:10515000FF90EF900C94F9140F90DF91CF911F9175
:105160000F91FF90EF90089580918103853009F0B1
:105170001BCF0895CF92DF92EF92FF920F931F9370
:10518000CF93DF93CDB7DEB7EDB6FEB6ECEEF2E22D
:105190001491EDEEF2E2E4916E2F70E08DB79EB7C0
:1051A000F3E0EF9F8019910911240FB6F8949EBF88
:1051B0000FBE8DBF01966C012EEE32E2ADB7BEB7C9
:1051C000139640E050E046175707B4F4F9013196C2
:1051D0000491CD010197FC010083F9018491FD0147
:1051E00032978083F9013296E491EC934F5F5F4FE1
:1051F0002D5F3F4F1396E7CF412FC60108DB412FAC
:1052000061E070E0C60103DB0FB6F894FEBE0FBE8E
:10521000EDBEDF91CF911F910F91FF90EF90DF9046
:10522000CF90089513BC109280001092820080E805
:105230009EE39093890080938800089510928203E2
:105240007894109285001092840081E08093810010
:1052500082E080936F009AE088E10FB6F894A895F9
:10526000809360000FBE90936000E0E6F0E08081E4
:10527000806C808308950FB6F894A89580916000A3
:10528000886180936000109260000FBEE0E6F0E05D
:1052900080818F7B808310926F001092810008952F
:1052A0002091840030918500E091820390919803D1
:1052B00085E08E9FF0011124E90FF11DEE0FFF1F15
:1052C000EC57FC4F408151814217530778F4E0912D
:1052D0008203909198038E9FF0011124E90FF11D34
:1052E000EE0FFF1FEC57FC4F3183208308951F936F
:1052F000CF93DF93C0E0D0E015E080918203FE0100
:10530000189FE00DF11D1124EE0FFF1FE059F54E1F
:1053100085919491009729F0C0939803FC01099519
:10532000BFDF2196C530D10541F7DF91CF911F91A5
:105330000895109285001092840080918303882341
:1053400081F0809182036091980370E0782B40E0B7
:1053500081E10E94F315809183038F5F8093830323
:10536000089581E0809383037894C1DF8091820364
:105370008F5F80938203823010F0109282038091BD
:105380008303823038F06091830370E040E084E171
:105390000E94F315A8951092830308951F920F920F
:1053A0000FB60F9211242F933F934F935F936F93F8
:1053B0007F938F939F93AF93BF93EF93FF93B9DF47
:1053C000FF91EF91BF91AF919F918F917F916F91DD
:1053D0005F914F913F912F910F900FBE0F901F90B3
:1053E0001895E4E8F3E0118210821382128215828C
:1053F00014821782168211861086138612861586ED
:10540000148617861686118A108A138A128A0895BE
:10541000292F33272330310511F13CF42130310598
:1054200061F02230310571F070C02132310531F167
:105430002232310509F43DC068C082E190E028EED7
:1054400035E26CC080916B03833009F44AC081302F
:1054500009F44CC084E590E024E935E25FC0992767
:10546000009731F0019709F050C0EEECF4E202C071
:10547000EAE1F5E2849190E09F0150C0613049F08B
:1054800068F0623009F041C089E090E028ED35E233
:1054900045C089E090E02FEB35E240C080916B037E
:1054A000833049F1813061F189E090E026EA35E20C
:1054B00035C0613041F060F0623039F58BE190E049
:1054C0002AEF35E22BC08AE390E025E136E226C0E0
:1054D00080916B0380FD1EC08FE390E02FE436E2E5
:1054E0001DC082E290E02EE135E218C084E590E034
:1054F00020E435E213C089E090E020E335E20EC0FD
:1055000089E090E022E535E209C080E090E020E00B
:1055100030E004C08FE390E02EE836E2FA013183F8
:105520002083089581E00C9473220895CF93DF9334
:1055300080E291E05CD7C82F80916B0381FD09C0A8
:1055400080E191E054D7D82F80E091E050D78D23AF
:10555000C823CC2311F080E001C083E00E947322B5
:105560008091E20084608093E200DF91CF91089502
:1055700080E291E004D680916B0381FD06C080E15A
:1055800091E0FDD580E091E0FAC5089580912E016B
:1055900090912F01009729F0019790932F0180930C
:1055A0002E0180916B0381FD16C080911E019091A8
:1055B0001F01009729F0019790931F0180931E010E
:1055C00080910E0190910F01009729F0019790931F
:1055D0000F0180930E01089580E00C94732282E005
:1055E0000C94732280E00C9473220F931F93CF933B
:1055F000DF93F90121E080329207F9F4EF01109274
:10560000790120916B03CF01029620FD07C0209104
:105610002901222319F00E94AB2102C00E9494218B
:10562000CE010E94B92180916B0380FF03C088E006
:1056300090E024C082E190E021C080519140B1F41B
:10564000109268038091F5028083809164038183C6
:1056500080916303828383E090E0F80191838083EB
:1056600081E09091690391110DC00BC08091CF0230
:105670009091D0029183808382E090E0F801918341
:10568000808380E0DF91CF911F910F910895CF9398
:105690008052914009F081C0F9018081809311020C
:1056A000C0914F01C82780934F01CC2309F475C0E6
:1056B00090917003911111C0C0FF0FC080FF07C00F
:1056C00080E00E94322280E00E94171D06C080E028
:1056D0000E94522280E00E948F1DC1FF11C0809164
:1056E000110281FF07C081E00E94322281E00E9406
:1056F000171D06C081E00E94522281E00E948F1D8A
:10570000C2FF24C08091110282FF11C082E00E947A
:10571000322282E00E94171D809178038823B1F025
:1057200081E08093F90285E00E9432220FC082E07E
:105730000E94522282E00E948F1D8091780388236C
:1057400029F01092F90285E00E945222C3FF11C095
:105750008091110283FF07C083E00E94322283E020
:105760000E94171D06C083E00E94522283E00E941F
:105770008F1DC4FF12C08091110284FF07C084E016
:105780000E94322284E0CF910C94171D84E00E9485
:10579000522284E0CF910C948F1DCF910895809177
:1057A0006B0380FF09C088E08093280188E090E0C7
:1057B0009093230180932201089580E291E02AD6FC
:1057C00080916B0381FD06C080E191E023D680E0EB
:1057D00091E020D6BAD480919C0390914E01981705
:1057E00059F060919C0370E041E086EA0E94F31555
:1057F00080919C0380934E01089580919A038823A1
:1058000029F080919C03853009F44FC80895CF9208
:10581000DF92EF92FF920F931F93CF93DF93EC01F0
:105820008B017A01DED1811133C0E114F10439F02A
:10583000F70180819181081B190BC80FD91FC12C5A
:10584000D12C0115110519F18091E80085FD16C0D4
:105850008091E8008E778093E80077D4E114F1041A
:1058600049F0F70180819181C80ED91ED182C08292
:1058700085E00EC0B6D1882321F30AC089918093B8
:10588000F10001501109FFEFCF1ADF0ADACF80E0F3
:10589000DF91CF911F910F91FF90EF90DF90CF900C
:1058A00008952091A3033091A4032617370748F0E9
:1058B0006115710539F42091E8002E772093E800F6
:1058C00001C0B90140E061157105A9F120919C0367
:1058D000222309F443C0253009F442C02091E80096
:1058E00023FD40C02091E80022FD32C02091E80055
:1058F00020FFE9CF4091F3002091F20030E0342BFB
:10590000FC01CF016115710559F02830310540F4D3
:1059100081918093F100615071092F5F3F4FF1CF6A
:1059200041E02830310509F040E02091E8002E7771
:105930002093E800C8CF4111C9CF0AC080919C03D1
:10594000882361F0853061F08091E80083FD0AC012
:105950008091E80082FFF2CF80E0089582E0089510
:1059600083E0089581E008956115710529F420917F
:10597000E8002B772093E800FC016115710541F1E7
:1059800080919C03882361F1853061F18091E8006A
:1059900083FD24C08091E80082FFEFCF2091F300C7
:1059A0008091F20090E0922B892B31F08091F100F0
:1059B00081936150710991F78091E8008B77809312
:1059C000E800DBCF80919C03882351F0853051F0B3
:1059D0008091E80080FFF6CF80E0089581E008958F
:1059E00082E0089583E008952091A3033091A403F9
:1059F0002617370748F06115710539F42091E80042
:105A00002E772093E80001C0B901FC0120E0611568
:105A1000710591F180919C03882309F440C0853081
:105A200009F43FC08091E80083FD3DC08091E8000B
:105A300082FD2FC08091E80080FFE9CF2091F30024
:105A40008091F20090E0922B6115710559F0883039
:105A5000910540F424912093F10031966150710931
:105A60000196F2CF21E0089709F020E08091E8004C
:105A70008E778093E800CBCF2111CCCF0AC08091E4
:105A80009C03882361F0853061F08091E80083FDFC
:105A90000AC08091E80082FFF2CF80E0089582E0A2
:105AA000089583E0089581E00895982F973058F580
:105AB0009093E900981739F07091EC002091ED0077
:105AC0005091F00003C0242F762F50E021FF19C021
:105AD0003091EB003E7F3093EB003091ED003D7F45
:105AE0003093ED003091EB0031603093EB00709318
:105AF000EC002093ED005093F0002091EE0027FF82
:105B000007C09F5FD3CF8F708093E90081E0089535
:105B100080E00895EF92FF920F931F93CF93DF934E
:105B2000E62EEC018C010C5F1F4FF12CFE1491F15D
:105B30005881552351F1F801208169817A8131978B
:105B40009081852F8F70873010F080E024C0223044
:105B500010F442E001C046E0E8E0F0E020E0E617A3
:105B6000F70720F42F5FEE0FFF1FF9CF2295207F5C
:105B7000422BF0E49F9F90011124551F5527551F7C
:105B8000652F622B92DF882301F3F39425960B5F38
:105B90001F4FCCCF81E0DF91CF911F910F91FF90EC
:105BA000EF90089580919D0387FF11C08091E800D8
:105BB00082FD05C080919C038111F8CF11C08091B6
:105BC000E8008B770BC080919C03882349F080917B
:105BD000E80080FFF8CF8091E8008E778093E8009E
:105BE00008952091E4003091E50095E64091EC00A5
:105BF000842F817040FF22C08091E80080FD1CC08E
:105C000080919C03882391F0853091F08091EB0086
:105C100085FD10C04091E4005091E5004217530704
:105C200029F39A01915011F784E0089582E00895D4
:105C300083E0089581E0089580E008954091E800B0
:105C400042FFDECF089565D06CD0E0EEF0E08081B9
:105C500081608083E8EDF0E080818F77808319BCDC
:105C6000A7EDB0E08C918E7F8C9380818F7E8083B6
:105C700010929B0308950F931F93CF93DF9349D006
:105C800050D0C8EDD0E088818F7788838881806884
:105C9000888388818F7D888319BC10929C03109221
:105CA000990310929A0300EE10E0F80180818B7F37
:105CB000808388818160888342E060E080E0F5DE57
:105CC000E1EEF0E080818E7F8083E2EEF0E0808183
:105CD00081608083808188608083F80180818E7FED
:105CE0008083888180618883DF91CF911F910F919C
:105CF0000895E8EDF0E080818F7E8083E7EDF0E0AD
:105D000080818160808384E082BF81E080939B03F7
:105D1000B2CFE8EDF0E080818E7F80831092E200C8
:105D200008951092DA001092E10008951F920F92E8
:105D30000FB60F9211242F933F934F935F936F935E
:105D40007F938F939F93AF93BF93EF93FF93809134
:105D5000E10082FF0AC08091E20082FF06C08091CC
:105D6000E1008B7F8093E10011DC8091DA0080FFFD
:105D70001DC08091D80080FF19C08091DA008E7F0D
:105D80008093DA008091D90080FF0CC080E189BD4A
:105D900082E189BD09B400FEFDCF81E080939C03C0
:105DA000C1DB04C019BC10929C03BFDB8091E100F1
:105DB00080FF18C08091E20080FF14C08091E20053
:105DC0008E7F8093E2008091E20080618093E20008
:105DD0008091D80080628093D80019BC85E08093C0
:105DE0009C03FDDB8091E10084FF2FC08091E200E5
:105DF00084FF2BC080E189BD82E189BD09B400FE2A
:105E0000FDCF8091D8008F7D8093D8008091E100F4
:105E10008F7E8093E1008091E2008F7E8093E2008C
:105E20008091E20081608093E20080919903882351
:105E300011F084E007C08091E30087FD02C081E09B
:105E400001C083E080939C03CDDB8091E10083FF60
:105E500022C08091E20083FF1EC08091E100877F15
:105E60008093E10082E080939C03109299038091DB
:105E7000E1008E7F8093E1008091E2008E7F80932D
:105E8000E2008091E20080618093E20042E060E005
:105E900080E00BDEA1DBFF91EF91BF91AF919F916D
:105EA0008F917F916F915F914F913F912F910F90C3
:105EB0000FBE0F901F9018951F93CF93DF93CDB710
:105EC000DEB7AA970FB6F894DEBF0FBECDBFEDE9DF
:105ED000F3E088E08E0F9091F10091938E13FBCF49
:105EE00047DB8091E80083FF18C180919D0390916A
:105EF0009E03492F50E04A30510508F00EC1FA01C7
:105F0000E059FF4FC9C3803881F0823809F005C1DC
:105F10008091A1038F708093E9008091EB0085FB55
:105F2000882780F91092E90007C080919A0388239E
:105F300011F082E001C080E09091E800977F90939B
:105F4000E8008093F1001092F100C4C0282F2D7F4B
:105F500009F0E3C0882319F0823061F0DEC080913F
:105F60009F03813009F0D9C0933009F080E080931D
:105F70009A032BC080919F03811127C08091A103B8
:105F80008F7009F4CAC08093E9002091EB0020FFD4
:105F90001CC0933021F48091EB00806214C090917A
:105FA000EB0090619093EB0021E030E0A90102C08A
:105FB000440F551F8A95E2F74093EA001092EA00D9
:105FC0008091EB0088608093EB001092E900809153
:105FD000E800877F82C08111A0C010919F031F77C6
:105FE0008091E3008078812B8093E3008091E8002A
:105FF000877F8093E800D6DD8091E80080FFFCCFAA
:106000008091E30080688093E300111102C082E078
:1060100001C083E080939C0380C08058823008F0E8
:106020007CC080919F039091A0038C3D53E0950725
:1060300071F583E08A838AE289834FB7F894DE01A1
:10604000139620E03EE051E2E32FF0E0509357003A
:10605000E49120FF03C0E295EF703F5FEF708E2F59
:1060600090E0EA3010F0C79601C0C0968D939D93E2
:106070002F5F243149F74FBF8091E800877F8093DD
:10608000E8006AE270E0CE0101960BDC12C0AE01BE
:106090004F5F5F4F6091A103BBD9BC01892B09F40D
:1060A0003CC09091E800977F9093E80089819A81A5
:1060B0009BDC8091E8008B778093E8002EC08038CD
:1060C00061F58091E800877F8093E80080919903D3
:1060D0008093F1008091E8008E778093E80062DD84
:1060E0001CC081111AC090919F039230B0F480912E
:1060F000E800877F8093E8009093990353DD8091B7
:106100009903811106C08091E30087FD02C081E000
:1061100001C084E080939C0309DA8091E80083FF4A
:106120000AC08091E800877F8093E8008091EB00AF
:1061300080628093EB00AA960FB6F894DEBF0FBE84
:10614000CDBFDF91CF911F910895CF9380919C0394
:10615000882399F0C091E900CF709091EC00892FCD
:10616000817090FD80E8C82B1092E9008091E800D2
:1061700083FDA2DECF70C093E900CF9108956F92A6
:106180007F928F929F92AF92BF92CF92DF92EF92C7
:10619000FF920F931F93CF93DF9300D01F92CDB741
:1061A000DEB77C01CDB6DEB68091E80083FF08C182
:1061B000F701808190E02091A1033091A20328177C
:1061C000390709F0FDC080919E03833009F49FC018
:1061D00030F4813071F0823009F4D6C0F1C08A30D9
:1061E00009F4BAC08B3009F4A3C0893009F0E8C0C3
:1061F00051C080919D03813A09F0E2C08DB69EB6F0
:106200001A82198280919F031091A0038B83F7015A
:106210008085482F50E08DB79EB7841B950B0FB635
:10622000F8949EBF0FBE8DBFEDB7FEB731965F01EC
:1062300060E070E0CF014CD24FEF410F8E010F5F55
:106240001F4F9501BE016D5F7F4FC701CED9F7018A
:1062500086819781009721F0408550E0B5012FD2CB
:106260001092E9008091E800877F8093E8008B819D
:1062700081118093F10069817A81C50112DB8091DF
:10628000E8008B778093E8000FB6F8949EBE0FBEAF
:106290008DBE96C080919D03813209F091C0ADB64C
:1062A000BEB60091A3031091A40370909F03609069
:1062B000A0038DB79EB7801B910B0FB6F8949EBFBD
:1062C0000FBE8DBFEDB7FEB731964F018091E8004C
:1062D000877F8093E800B801CF0146DB8091E8001A
:1062E0008E778093E80021E0711001C020E030E05B
:1062F000021B130B280D391D4FEF460D672DC701EB
:10630000C6D90FB6F894BEBE0FBEADBE59C08091BF
:106310009D03813A09F054C08091E800877F809303
:10632000E8008091E80080FFFCCFF701818540C044
:1063300080919D03813209F043C08091E800877FFE
:106340008093E8002FDC90919F0381E0911101C0C0
:1063500080E0F701818734C080919D03813281F50F
:106360008091E800877F8093E8001CDC80919F0388
:106370009091A003882736E0969587953A95E1F7A6
:10638000F701958784871CC080919D03813AC1F4F1
:106390008091E800877F8093E8008091E80080FF8B
:1063A000FCCFF70184859585969587959695879579
:1063B0008093F1008091E8008E778093E800F2DB13
:1063C0000FB6F894DEBE0FBECDBE0F900F900F90AB
:1063D000DF91CF911F910F91FF90EF90DF90CF90C1
:1063E000BF90AF909F908F907F906F900895FC0129
:1063F000399627E0DF011D922A95E9F721E0FC019B
:10640000218724EF31E03587248723E0248361E06E
:10641000019680CB4F925F926F927F928F929F9264
:10642000AF92BF92CF92DF92EF92FF920F931F93A2
:10643000CF93DF9300D01F92CDB7DEB77C01ADB60E
:10644000BEB680919C03843009F08DC08091E40039
:106450009091E500F701228533852817390709F463
:1064600082C081818F708093E9008091E80085FF70
:106470007AC08DB69EB6408550E08DB79EB7841B1E
:10648000950B0FB6F8949EBF0FBE8DBFEDB7FEB74C
:1064900031966F011B821A82198260E070E0CF0191
:1064A00017D18E010F5F1F4F960140E0BE016D5F57
:1064B0007F4FC7019AD8482EF70184859585892B8F
:1064C00051F091E080E026853785232B09F090E09C
:1064D000092F182F02C000E010E0F70166807780D6
:1064E0006114710489F049815A81B301C601DAD07F
:1064F00055245394892B09F4512CF701408550E021
:10650000B601C301DCD001C0512C89819A81892B4D
:10651000F1F0411004C0511002C0012BC1F0F7018D
:10652000848595859787868781818F708093E90020
:106530008B8181118093F10069817A8140E050E084
:10654000C60165D98091E8008E778093E80080913C
:10655000E4009091E500F701938782870FB6F894E5
:106560009EBE0FBE8DBE0FB6F894BEBE0FBEADBEB2
:106570000F900F900F90DF91CF911F910F91FF908F
:10658000EF90DF90CF90BF90AF909F908F907F90D3
:106590006F905F904F90089508950E944D240E943F
:1065A000DE150E94BB260E946B240E94F5210E94EA
:1065B000811C0E94F8250E94AC130E9417270E949C
:1065C0001229EDD80E94BA280E9484150E94BC248A
:1065D00090CB0E941E298091C5018823E1F30C9481
:1065E0003B2931DBF8942FEF87EA91E62150804078
:1065F0009040E1F700C000008091C501823011F4A5
:106600000E944E248091C501882359F09CE088E1C6
:106610000FB6F894A895809360000FBE9093600029
:10662000FFCF0895B9DFB9DFD4DFDBDF80E090E092
:106630000895991B79E004C0991F961708F0961BDE
:10664000881F7A95C9F780950895AA1BBB1B51E155
:1066500007C0AA1FBB1FA617B70710F0A61BB70BD2
:10666000881F991F5A95A9F780959095BC01CD0177
:10667000089597FB072E16F4009406D077FD08D0F6
:10668000E4DF07FC05D03EF4909581959F4F089577
:10669000709561957F4F0895EE0FFF1F0590F4915F
:1066A000E02D0994FB01DC0104C08D91019080195B
:1066B00021F441505040C8F7881B990B0895FB0105
:1066C000DC0102C001900D9241505040D8F708956E
:1066D000DC0101C06D9341505040E0F70895F999F5
:1066E000FECF92BD81BDF89A992780B50895A8E1A3
:1066F000B0E042E050E01CC0DC01CB0102C02D91B3
:1067000005D041505040D8F70895262FF999FECF73
:106710001FBA92BD81BD20BD0FB6F894FA9AF99ABE
:106720000FBE01960895F1DF272FF0CFDC01CB01DA
:10673000FC01F999FECF06C0F2BDE1BDF89A319691
:1067400000B40D9241505040B8F70895F894FFCF2F
:10675000028302000001500102000000000000005E
:10676000018203000001520103000000000000004C
:10677000008112000001550112000000000000001D
:106780002400250023002700280026002A002B00D3
:0E67900029002D002E002C00300031002F00BB
:00000001FF
