:100000000C94CF150C9412160C9412160C94121614
:100010000C9412160C9412160C9412160C941216C0
:100020000C9412160C9412160C94FC300C941216AC
:100030000C947A260C9412160C9412160C94121628
:100040000C9412160C94342C0C9412160C94121658
:100050000C9412160C9412160C9412160C94121680
:100060000C9412160C9412160C9412160C94121670
:100070000C9412160C9412160C9412160C94121660
:100080000C9412160C9412160C9412160C94121650
:100090000C9412160C9412160C9412160C94121640
:1000A0000C9412160C9412160C941216951D4E19DF
:1000B0005419721978190C1B121B2E1A341A3B1B77
:1000C0005D1B771B911BA61BFC1B391C4F1D741D50
:1000D000561C721C911CB61CCF1CF41C141D2D1D2B
:1000E000E9310C32F3320C32F33251327332F332E3
:1000F000C532D73200000000000000000000000000
:10010000000000002A002B0028000000000028004A
:1001100000000000000000000000000000000000DF
:1001200000000000000000000000290000000000A6
:10013000000000002C001E023402200221022202D4
:10014000240234002602270225022E0236002D004A
:100150003700380027001E001F0020002100220069
:1001600023002400250026003302330036022E002F
:10017000370238021F0204020502060207020802C3
:1001800009020A020B020C020D020E020F021002FB
:1001900011021202130214021502160217021802AB
:1001A00019021A021B021C021D022F00310030002E
:1001B00023022D0235000400050006000700080098
:1001C00009000A000B000C000D000E000F001000CB
:1001D000110012001300140015001600170018007B
:1001E00019001A001B001C001D002F0231023002F2
:1001F00035024C004000000000000000000000003C
:1002000000000000000000000000000000000000EE
:1002100000000000000000000000000000000000DE
:1002200000000000000000000000000000000000CE
:1002300000000000000000000000000000000000BE
:101DB000000000000000FF00FF00FF00FF00FF0028
:101DC000FF00FF00FF00FF00FF00FF00FF00FF001B
:101DD000FF00FF00FF00FF00FF00FF00FF00FF000B
:101DE00000000000000000000000000000000000F3
:101DF00000000000000000000000000000000000E3
:101E000000000000000000000000000000000000D2
:101E1000080C0000000000000000000000000000AE
:101E200000000000000000000000000000000000B2
:101E300000000000000000000000000000000000A2
:101E40000000000000000000000000000000000092
:101E50000000000000000000000000000000000082
:101E60000000000000000000000000000000000072
:101E70000000000000000000000000000000000062
:101E80000000000000000000000000000000000052
:101E90000000000000000000000000000000000042
:101EA0000000000000000000000000000000000032
:101EB000000001010101140000000000000000000A
:101EC0000000000000000000000000000000000012
:101ED0000000000000000000000000000000000002
:101EE00001010101140000000000000000000000DA
:101EF00000000000000000000000000000000000E2
:101F000000000000000000000000000000000101CF
:101F100001011400000000000000000000000000AB
:101F200000000000000000000000000000000000B1
:101F3000000000000000000000000000010101019D
:101F400014432E54281A2B80284226432E5928A8A1
:101F500017351942264F7574206F662072616E67BF
:101F6000652E0A00456E746572206E657720646583
:101F70006661756C742064696D6D6572206C657640
:101F8000656C2028312D3136293E2000456E746560
:101F900072206E65772064656661756C742062617D
:101FA000636B6C6967687420656E61626C6520287C
:101FB000312D3136293E2000456E746572206E65E4
:101FC00077206D61747269782073657475702077FD
:101FD00061697420696E206379636C6573202831B0
:101FE0002D323535293E2000456E746572206E65B0
:101FF00077207265706561742074696D6520696E03
:10200000206D732028312D3939293E2000456E740A
:102010006572206E657720686F6C642074696D65E9
:1020200020696E206D732028312D393939293E20E1
:1020300000456E746572206E6577206D6F757365EF
:10204000206D6F76656D656E74206D756C7469704A
:102050006C6965722028312D3939293E2000456E82
:10206000746572206E65772062617365206D6F758F
:102070007365206D6F76656D656E742028312D391E
:1020800039293E2000456E746572206E65772064A4
:102090006F75626C657461702064656C6179207421
:1020A000696D6520696E206D732028312D393939AD
:1020B000293E2000456E746572206E65772074613C
:1020C000702074696D6520696E206D732028312D34
:1020D000393939293E2000456E746572206E657766
:1020E000206465626F756E63652074696D65206933
:1020F0006E206D732028312D3939293E200053651B
:10210000743A00456E746572206E6577206465666A
:1021100061756C74206C617965722028302D3929C5
:102120003E200042797465732028686578293E2036
:1021300000416464726573732028686578293E20C5
:102140000020532D3078005D20432D3078000A5B4D
:10215000004E756D206C6F636B206973206C696E27
:102160006B656420746F207468652073797374657F
:102170006D206E756D206C6F636B2E0A004E756D51
:10218000206C6F636B2077696C6C2066756E63746E
:10219000696F6E20696E646570656E64656E746CDF
:1021A00079206F66207468652073797374656D207B
:1021B0006E756D206C6F636B2E0A004B6579626FD4
:1021C0006172642061637473206173206578746543
:1021D0006E646564204E4B524F206B6579626F616F
:1021E00072642077697468206D6F75736520616E05
:1021F00064206D65646961206B6579732E0A004BFC
:102200006579626F61726420616374732061732009
:10221000364B524F206B6579626F61726420706C2F
:102220007573206D6F75736520616E64206D6564D4
:102230006961206B6579732E0A004B6579626F6165
:102240007264206973206C696D6974656420746FB1
:10225000207374616E6461726420364B524F206249
:102260006F6F742D636F6D70617469626C65206B44
:102270006579626F6172642E0A005363726F6C6CD1
:10228000206C6F636B2077696C6C206E6F742061BB
:1022900066666563742077696E206C6F636B2E0AC7
:1022A0000057696E646F7773206B65792077696C6E
:1022B0006C2062652064697361626C656420776874
:1022C000656E207363726F6C6C206C6F636B20693A
:1022D0007320656E61626C65642E0A004E756D2018
:1022E0006C6F636B2077696C6C206E6F7420616615
:1022F00066656374206E756D62657220726F772EED
:102300000A004E756D62657220726F772077696C76
:102310006C206265207377617070656420666F72EF
:10232000206E756D706164206B65797320776865C8
:102330006E206E756D206C6F636B20697320656E07
:1023400061626C65642E0A00496E707574206E6F50
:1023500074207265636F676E697A65642E0A000A7D
:1023600054696D696E67204D656E753A0A31292092
:10237000536574206465626F756E63652074696D62
:10238000650A322920536574206D617820686F6C6E
:10239000642074696D6520666F72207461700A3301
:1023A0002920536574206D61782064656C61792003
:1023B00074696D6520666F7220646F75626C65204C
:1023C0007461700A3429205365742062617365203A
:1023D0006D6F757365206D6F76656D656E740A350A
:1023E0002920536574206D6F757365206D6F766558
:1023F0006D656E74206D756C7469706C6965720AB8
:10240000362920536574206D696E20686F6C6420D6
:1024100074696D6520666F72207265706561740AFB
:10242000372920536574207265706561742070656A
:1024300072696F640A382920536574206D61747263
:10244000697820736574757020776169740A392919
:10245000204261636B0A3E20000A436F6E66696723
:10246000204D656E753A0A312920546F67676C6597
:10247000207669727475616C206E756D2070616470
:102480000A322920546F67676C652077696E206C6B
:102490006F636B206F6E207363726F6C6C206C6F58
:1024A000636B0A3329205365742064656661756C1B
:1024B00074206C617965720A342920546F67676CE7
:1024C00065206261736963206B6579626F61726414
:1024D0000A352920546F67676C6520756E6C696ECC
:1024E0006B206E756D206C6F636B0A362920536507
:1024F000742064656661756C742064696D6D6572C5
:10250000206C6576656C0A372920536574206465F4
:102510006661756C74206261636B6C6967687420B6
:10252000656E61626C650A3929204261636B0A3EFF
:1025300020000A4465627567204D656E753A0A3160
:1025400029205072696E74206576656E74730A3244
:102550002920436C656172206576656E74730A3359
:1025600029204578616D696E65206D656D6F7279A2
:102570000A3429205072696E742F636C6561722071
:10258000636C6F636B2D696E730A39292042616336
:102590006B0A3E20000A4D61696E204D656E753AEA
:1025A0000A312920436F6E666967206D656E750A72
:1025B00032292054696D696E67206D656E750A3326
:1025C00029204465627567206D656E750A3429207F
:1025D00052657365740A392920517569740A3E2061
:1025E000001E4D1F51204E21502200234F244A250A
:1025F00052264B2749374CE200E900EA00E500B5D6
:1026000000B600B700CD002402250283018A0192A2
:1026100001940121022302C101C202C304C408C5FE
:1026200010E001E102E204E308E410E520E640E7FF
:10263000800105080A0C0F10141418180038320411
:1026400000013B0401013F04020130040301360490
:1026500004013E04050140040601330407012D0472
:1026600008013804090234040B0231040D01370457
:102670000E013C040F022F0411013A0412016141C2
:1026800062426343644465456646674768486949F2
:102690006A4A6B4B6C4C6D4D6E4E6F4F7050715162
:1026A00072527353745475557656775778587959D2
:1026B0007A5A31213240332334243525365E372689
:1026C000382A3928302900000000000000002020AE
:1026D0002D5F3D2B5B7B5D7D5C7C237E3B3A27221F
:1026E000607E2C3C2E3E2F3F0000000000000000CA
:1026F00000000000000000000000000000000000DA
:1027000000000000000000000000000000000000C9
:1027100000000000000000000000000000002F2F5B
:102720002A2A2D2D2B2B00003100320033003400DB
:102730003500360037003800390030002E005C7C50
:102740000000000000000000000000000000000089
:1027500000000000000000000000000000006162B6
:10276000636465666768696A6B6C6D6E6F707172C1
:10277000737475767778797A414243444546474881
:10278000494A4B4C4D4E4F50515253545556575841
:10279000595A3031323334353637383921222324EF
:1027A00025262728292A2B2C2D2E2F3A3B3C3D3E2F
:1027B0003F405B5C5D5E5F607B7C7D7E00800000F7
:1027C0000000000000000000000000000000000009
:1027D00000000000000000000000000000000000F9
:1027E00000000000000000000000000000000000E9
:1027F00000000000000000000000000000000000D9
:1028000000000000000000000000000000000000C8
:1028100000000000000000000000000000000000B8
:1028200000000000000000000000000000000000A8
:102830000000000000000000000000000000000098
:102840000000000000000000000000000000000088
:102850000000000000000000000000000000000078
:102860000000000000000000000000000000000068
:102870000000000000000000000000000000000058
:102880000000000000000000000000000000000048
:102890000000000000000000000000000000000038
:1028A0000000000000000000000000000000000028
:1028B0000000000000000000000000000000000018
:1028C0000000000000000000000000000000000008
:1028D00000000000000000000000000000000000F8
:1028E00000000000000000000000000000000000E8
:1028F00000000000000000000000000000000000D8
:1029000000000000000000000000000000000000C7
:1029100000000000000000000000000000000000B7
:1029200000000000000000000000000000000000A7
:102930000000000000000000000000000000000097
:102940000000000000000000000000000000000087
:102950000000000000000000000000000000000077
:102960000000000000000000000000000000000067
:102970000000000000000000000000000000000057
:102980000000000000000000000000000000000047
:102990000000000000000000000000000000004AED
:1029A0000345006100730079004100560052002089
:1029B000004D0075006C00740069006D00650064D6
:1029C000006900610020004B006500790062006F23
:1029D000006100720064002000760023002E0023B6
:1029E0000023002E00230023000000040309040933
:1029F000022200010100A0320904000001030101CC
:102A0000000921B0010001223F00070581030800F1
:102A10000109025400030100A0320904000001036F
:102A20000101000921B0010001223F0007058103D7
:102A30000800010904010001030102000921B0019D
:102A40000001223A00070582030300050904020081
:102A500001030000000921B0010001221B0007054D
:102A6000830302000809025400030100A032090494
:102A7000000001030101000921B0010001223F0013
:102A8000070581031200010904010001030102008E
:102A90000921B0010001223A000705820303000565
:102AA0000904020001030000000921B00100012215
:102AB0001B0007058303020008120100020000004A
:102AC00008EB03FF20100000010001050C0901A123
:102AD00001050C160100269C021A01002A9C0275B1
:102AE0001095018100C005010902A1010901A100A1
:102AF00005091901290315002501950375018102B6
:102B00009501750581010501093009311681FF26FE
:102B10007F00360000460000950275088106C0C09F
:102B200005010906A101050719E029E7150025019E
:102B30007501950881029501750881010508190143
:102B400029059505750191029501750391011500FF
:102B5000250105071900297F958075018102C005AF
:102B6000010906A101050719E029E71500250175EE
:102B7000019508810295017508810105081901294F
:102B800005950575019102950175039101150025C3
:102B9000FF0507190029FF950675088100C011245B
:102BA0001FBECFEFDAE0DEBFCDBF84B714BE0FB6D5
:102BB000F894A895909160009861909360001092AD
:102BC00060000FBE83FF11C080916804909169047A
:102BD0008D3A9E4D51F41092690410926804ECE312
:102BE000F6E225913491F901099585B7806885BF92
:102BF00085B7806885BF11E0A0E0B1E0ECE1FCE6BC
:102C000002C005900D92AE34B107D9F724E0AEE4CE
:102C1000B1E001C01D92A836B207E1F70E947835F5
:102C20000C940C360C9400001092720110927101F9
:102C300010926D0110926C0110927C0110927B0138
:102C4000089590916E0180917901992399F18111F4
:102C50003AC080917001811129C080918D0181114C
:102C600021C0E0916701E91305C010926E01109236
:102C7000670129C081E08E0F80936701F0E0EE0FBD
:102C8000FF1FE358FE4F80819181813019F49093AA
:102C9000700119C09093680180938D01882399F089
:102CA000B6D711C0E9D710928D010DC08150809325
:102CB000700109C0811107C01092680180916F01F5
:102CC0008D7F80936F0180917901811103C081E034
:102CD0008093790108958091740290916901981709
:102CE00031F180936901882311F1883211F0883520
:102CF00031F480916F018B7F80936F010895E09193
:102D00006B018A3251F4EE2391F0E150E0936B01B4
:102D1000F0E0ED58FE4F10820895E63040F4AE2FFB
:102D2000B0E0AD58BE4F8C93EF5FE0936B01089518
:102D300080917402811102C010926F010895BC014C
:102D400080916E01DB01982F292F281B983058F0B5
:102D500090936E01620F711D27FD7A9570937C012F
:102D600060937B0122C0FD0125913491211109C09E
:102D700090936E0110927C0110927B019923D1F007
:102D800014C0492F50E0F901FF27EE0FFF1FEC5050
:102D9000FF4F25913491440F551FFA01E358FE4F20
:102DA000318320839F5F1196CFCF80916F01836025
:102DB00080936F0181E0089540916E0128E030E03A
:102DC000241B31092617370758F1B0E04B2F0B2E83
:102DD000000C550B46175707D8F4A0916E012A2F07
:102DE00030E0FC01E40FF51FE081F0E0EE0FFF1F83
:102DF000EC50FF4F45915491220F331FF901E358D6
:102E0000FE4F51834083AF5FA0936E01BF5FDECF63
:102E1000672B41F080916F01836080936F0102C046
:102E200080E0089581E0089590916E01983090F4CB
:102E3000E92FF0E0EE0FFF1FE358FE4F8083618320
:102E40009F5F90936E0180916F01836080936F010B
:102E500081E0089580E008959C0190916E019111A8
:102E60002EC0A901983049F490936E01205F3F4F26
:102E700030937201209371011BC0FA016591749126
:102E80004E5F5F4F6115710549F490936E0110928A
:102E9000720110927101992381F00AC0E92FF0E0CC
:102EA000EE0FFF1FE358FE4F718360839F5FDACF01
:102EB00080916F01836080936F0181E0089580E0CD
:102EC0000895AC0180916E0181113EC060937A013A
:102ED000282F082E000C330B2617370758F5909132
:102EE0006E01220F331F983038F0240F351F3093B6
:102EF0006D0120936C011EC0FA01E20FF31F2081C7
:102F00003181E92FF0E0EE0FFF1FE358FE4F3183D0
:102F100020839F5F90936E0190917A0191509093DE
:102F20007A01911105C010926D0110926C0102C0DE
:102F30008F5FCECF80916E01882341F080916F0129
:102F4000836080936F0102C080E0089581E008955E
:102F500090916F0191FD75CE2091710130917201B8
:102F60002115310511F0C90177CF20916C01309105
:102F70006D012115310539F060917A01062E000CA2
:102F8000770BC9019ECF20917B0130917C012115E7
:102F9000310511F0C901D3CE92FD9DCEC9CEE3E734
:102FA000F1E0108211821282138214821582109233
:102FB0006B01809174028093690180916F0185603B
:102FC00080936F010895E82FF0E0EE0FFF1FEC50A3
:102FD000FF4F859194910895CF92DF92EF92FF92E7
:102FE0000F931F93CF93DF93CDB7DEB7EDB6FEB649
:102FF000E4EFF1E01491E5EFF1E0E4916E2F70E081
:103000008DB79EB7F3E0EF9F8019910911240FB699
:10301000F8949EBF0FBE8DBF01966C0126EF31E084
:10302000ADB7BEB7139640E050E046175707B4F46B
:10303000F90131960491CD010197FC010083F9015A
:103040008491FD0132978083F9013296E491EC93EB
:103050004F5F5F4F2D5F3F4F1396E7CF412FC60164
:103060000E946D26412F61E070E0C6010E946D262E
:103070000FB6F894FEBE0FBEEDBEDF91CF911F914B
:103080000F91FF90EF90DF90CF9008950895909169
:10309000C401903178F4E92FF0E09F01220F331F33
:1030A000E20FF31FE157FE4F8083728361839F5FBE
:1030B0009093C401089541111BC04091C40150E098
:1030C00090E0292F092E000C330B2417350784F4C8
:1030D000F901EE0FFF1F2E0F3F1FF901E157FE4FC1
:1030E0002081281303C07283618308959F5FE9CF15
:1030F000CECF8A3010F4805D0895895C08951F93C7
:10310000CF93DF93182FEB0182958F70F2DF8883C6
:10311000812F8F70EEDF8983DF91CF911F9108950A
:103120001F93CF93DF93182FEB01892FE8DFBE01A8
:103130006E5F7F4F812FDF91CF911F91E0CF8F92F4
:103140009F92AF92BF92CF92DF92EF92FF920F9336
:103150001F93CF93DF931F92CDB7DEB79C018B01F6
:1031600080E3FB01808380E28183828383E0E82E19
:10317000F12C94E6892E912C4AE0B42E682D70E053
:10318000911003C02617370790F06801C90CD11CB5
:1031900097FCDA94C9010E948B35A82E862F99835B
:1031A000A8DFF60180832A2D9981392F9394882DE9
:1031B0006B2D0E947F35882EF1E0EF1AF108F1F6B1
:1031C0000F90DF91CF911F910F91FF90EF90DF90C3
:1031D000CF90BF90AF909F908F90089597EA980FEF
:1031E000993010F48855089592EE980F993010F4A4
:1031F0008D5108959CEF980F963010F48A5F0895D2
:1032000080E00895BF92CF92DF92EF92FF920F93EA
:103210001F93CF93DF937C018B0180E090E0B12C72
:10322000C42FD0E02B2D0B2C000C330B20173107B3
:1032300090F48C9F60018D9FD00C9C9FD00C11242A
:10324000F701E20FF31F8081C9DF9601280F311DBE
:10325000C901B394E7CFDF91CF911F910F91FF90F8
:10326000EF90DF90CF90BF9008950F931F93CF936F
:10327000DF9300D000D0CDB7DEB780916F01811110
:1032800054C4E0918E018E2F90E08A31910508F0B0
:103290004AC4FC01EA5AFF4F0C94B23585E995E225
:1032A0004EDD7DDE82E011C011E010938E01809131
:1032B000730194DF893009F436C4843019F4109313
:1032C000C50133C4813021F483E080938E012DC485
:1032D000823011F487E0F9CF833009F4D9C188E452
:1032E00093E220C089E594E22ADD59DE84E0EDCF47
:1032F00013E010938E018091730170DF893011F417
:1033000081E0E3CF813099F490913F048927809345
:103310003F0482E00E945B2980913F04882321F0D2
:1033200082E093E20CDD01C48CED92E2FBCF8230AF
:1033300099F490913B0481E0892780933B0481E0DC
:103340000E945B2980913B04882319F081EA92E274
:10335000E9CF8AE792E2E6CF8330B1F48EEF90E2D4
:10336000EEDCBE016F5F7F4F80913004C8DE8AE0E3
:103370008B8363E070E0CE0101961EDD83E091E275
:10338000DEDC0DDE8FE0A1CF8430F9F480913E04C5
:10339000811109C081E080933E0485E00E945B2991
:1033A0008FEF91E2BFCF813041F410933E0485E06E
:1033B0000E945B298AE392E2B5CF10923E0485E039
:1033C0000E945B298BEB91E2ADCF853099F490910F
:1033D000330481E089278093330487E00E945B29CE
:1033E00080913304882319F08DE791E29BCF81E52A
:1033F00091E298CF8630B9F48EEF90E2A0DC809114
:103400003604BE016F5F7F4F90E099DE8AE08B83C8
:1034100063E070E0CE010196CFDC84E69FE18FDCB3
:10342000BEDD80E152CF873009F059CF8EEF90E2B8
:1034300086DC80912D0490E0BE016F5F7F4F019686
:103440007EDE8AE08B8363E070E0CE010196B4DC1F
:103450008CE89FE174DCA3DD81E137CF8FE593E257
:103460006EDC9DDD88E031CF87E080938E01809116
:103470007301B4DE893009F443CF8130B9F48EEFA3
:1034800090E25DDC80914004BE016F5F7F4F90E071
:1034900056DE8AE08B8363E070E0CE0101968CDC1F
:1034A00087ED90E24CDC7BDD82E10FCF8230C1F40E
:1034B0008EEF90E244DCBE016F5F7F4F8091380455
:1034C000909139043CDE8AE08C8364E070E0CE01A8
:1034D000019672DC84EB90E232DC61DD83E1F5CEB3
:1034E0008330D9F48EEF90E22ADC809134049091FD
:1034F0003504BE016F5F7F4F9195819591091FDE65
:103500008AE08C8364E070E0CE01019655DC85E8AA
:1035100090E215DC44DD84E1D8CE8430B9F48EEF3E
:1035200090E20DDC80913104BE016F5F7F4F90E02F
:1035300006DE8AE08B8363E070E0CE0101963CDC1E
:103540008EE590E2FCDB2BDD85E1BFCE8530B9F462
:103550008EEF90E2F4DB80913704BE016F5F7F4F06
:1035600090E0EDDD8AE08B8363E070E0CE010196B0
:1035700023DC81E390E2E3DB12DD86E1A6CE863038
:10358000C1F48EEF90E2DBDBBE016F5F7F4F809175
:103590003C0490913D04D3DD8AE08C8364E070E0CC
:1035A000CE01019609DC8DE090E2C9DBF8DC87E111
:1035B0008CCE8730B9F48EEF90E2C1DB80912F047E
:1035C000BE016F5F7F4F90E0BADD8AE08B8363E0DE
:1035D00070E0CE010196F0DB88EE9FE1B0DBDFDC2E
:1035E00088E173CE883009F0A0C28EEF90E2A7DBAD
:1035F00080913A04BE016F5F7F4F90E0A0DD8AE0CA
:103600008C8364E070E0CE010196D6DB88EB9FE10D
:1036100096DBC5DC89E159CE82E395E290DBBFDC25
:1036200086E053CE85E080938E0180917301D6DDD4
:10363000893009F465CE813011F489E046CE8230BC
:1036400069F4EFE8F1E0108212821182339641E0D2
:10365000EF3BF407C1F71092C40167C2833031F425
:1036600081E391E26CDB9BDC8CE02FCE843009F0AF
:1036700036CE8EE02ACE8091C301803158F0109270
:10368000C3018AE0898361E070E0CE01019694DB9A
:1036900085E01BCE8EE491E252DBBE016F5F7F4F6F
:1036A0008091C3012CDD62E070E0CE01019684DBE5
:1036B00087E491E244DB8AE008CE8091C30190E088
:1036C000FC01EE0FFF1F8E0F9F1FFC01E157FE4F05
:1036D000BE016F5F7F4F808112DD62E070E0CE013E
:1036E00001966ADB81E491E22ADB8BE0EECD8091EA
:1036F000C30190E0FC01EE0FFF1F8E0F9F1FFC0126
:10370000E157FE4FBE016F5F7F4F8181928108DDDF
:1037100064E070E0CE0101964FDB89E080938E017A
:10372000A2C060916B0170E040E183E791E06ADD47
:103730009093C0018093BF011092C2011092C10109
:1037400083E291E2FCDA2BDC8DE0BFCD8091C101F8
:103750009091C201892B89F40091BF011091C001A1
:1037600060916B0170E040E183E791E04BDD800FF9
:10377000911F9093C2018093C10110E20AE0E09191
:10378000BF01F091C0018091C1019091C201E81781
:10379000F907D8F4BE016F5F7F4F8081B0DC809164
:1037A000C1019091C20101972091BF013091C001E8
:1037B0002817390711F40B8301C01B8363E070E005
:1037C000CE010196F9DA81110DC02091BF0130912F
:1037D000C0018091C1019091C2012817390708F0FA
:1037E00057CFA3C18091BF019091C00101969093E2
:1037F000C0018093BF01C3CF8091C3018A3078F0AC
:103800001092C3018AE0898361E070E0CE010196E5
:10381000D3DA85E080938E010E94572C86C1082F51
:103820000695182F117080FD02C08AE001C080E269
:10383000898361E070E0CE010196BEDA85E0189FD1
:10384000F0011124E00FF11DEE0FFF1FE95BFB4FAC
:10385000BE016F5F7F4F8081918162DC64E070E028
:10386000CE010196A9DA8091C3018F5F8093C301D5
:103870005CC160916B0170E04AE083E791E0C2DCDB
:103880008A30910578F48093300483E00E945B29AC
:103890008EEF90E254DABE016F5F7F4F809130046B
:1038A0002EDC1AC185E59FE14ADA0ECD60916B01ED
:1038B00070E04AE083E791E0A5DC9C0121503109EA
:1038C0002336310558F48093400486E00E945B293A
:1038D0008EEF90E234DA8091400479C085E59FE173
:1038E0002EDAF8CC60916B0170E04AE083E791E05A
:1038F00089DC9C0121503109273E334078F79093B1
:1039000039048093380489E00E945B298EEF90E2AD
:1039100016DABE016F5F7F4F8091380490913904B1
:10392000B8C060916B0170E04AE083E791E06ADC27
:103930009C0121503109273E334080F691958195B5
:10394000910990933504809334048AE00E945B29A6
:103950008EEF90E2F4D98091340490913504BE0149
:103960006F5F7F4F91958195910993C060916B0135
:1039700070E04AE083E791E045DC9C012150310989
:103980002336310508F0AACF809331048BE00E94E2
:103990005B298EEF90E2D3D98091310418C06091F9
:1039A0006B0170E04AE083E791E02CDC9C01215040
:1039B00031092336310508F091CF809337048CE02C
:1039C0000E945B298EEF90E2BAD980913704BE0144
:1039D0006F5F7F4F90E0B3DB8AE08B8363E070E042
:1039E000CE010196E9D976CC60916B0170E04AE096
:1039F00083E791E007DC9C0121503109273E3340E9
:103A000008F06CCF90933D0480933C048DE00E94BD
:103A10005B298EEF90E293D9BE016F5F7F4F80915B
:103A20003C0490913D0435C060916B0170E04AE028
:103A300083E791E0E7DB9C01215031092336310512
:103A400008F04CCF80932F048EE00E945B298EEF0C
:103A500090E275D980912F04BACF60916B0170E02C
:103A60004AE083E791E0CEDB9C01215031092F3FF2
:103A7000310508F033CF80933A048FE00E945B2930
:103A80008EEF90E25CD980913A04BE016F5F7F4F68
:103A900090E055DB8AE08C8364E070E0A1CF609118
:103AA0006B0170E04AE083E791E0ACDB9C012150C0
:103AB00031092031310508F0F5CE8093360484E0D9
:103AC0000E945B298EEF90E23AD980913604BE01C4
:103AD0006F5F7F4F90E033DB8AE08B8363E070E0C1
:103AE000CE01019669D9F0CB60916B0170E04AE09C
:103AF00083E791E087DB9C012150310920313105BA
:103B000008F0D0CE815080932D0488E00E945B297C
:103B10008EEF90E214D980912D0490E0BE016F5F8A
:103B20007F4F0196D8CF10928E010F900F900F907B
:103B30000F90DF91CF911F910F91089526E0829F02
:103B4000C0011124FC01E05DFE4F0190F081E02DE9
:103B5000208181E090E001C0880F6A95EAF7822B0E
:103B60008083089526E0829FC0011124FC01E05D5E
:103B7000FE4F0190F081E02D808160956823462BF7
:103B80004083089526E0829FC0011124FC01E05D7E
:103B9000FE4F0280F381E02D208181E090E001C0A2
:103BA000880F6A95EAF7822B8083089526E0829F2A
:103BB000C0011124FC01E05DFE4F0280F381E02D85
:103BC000208181E090E001C0880F6A95EAF7809536
:103BD00082238083089526E0829FC0011124FC0186
:103BE000E05DFE4F0280F381E02D80816823462B4B
:103BF0004083089526E0829FC0011124FC01E05D0E
:103C0000FE4F0480F581E02D808186230895E82F02
:103C1000E695E695E695F0E0E959FD4F982F977007
:103C200021E030E001C0220F9A95EAF79081292B1C
:103C300020839091610220E029175CF4E22F022E8C
:103C4000000CFF0BEC58FD4F30813817A1F02F5FAF
:103C5000F3CF96305CF4E92F092E000CFF0BEC58E3
:103C6000FD4F80839F5F90936102089510927A02C6
:103C700081E080936D030895E82FE695E695E6953B
:103C8000F0E0E959FD4F982F977021E030E001C036
:103C9000220F9A95EAF7209590812923208390910D
:103CA000610244E752E0FA012E2F241B291724F465
:103CB00031913813F9CF01C00895E22F022E000C84
:103CC000FF0BEC58FD4F818180832F5F2917ACF3E8
:103CD00091509093610210926D030895E82FE6953C
:103CE000E695E695F0E0E959FD4F982F977021E0B1
:103CF00030E001C0220F9A95EAF7908129272083AE
:103D00009091610244E752E0FA012E2F241B2917FB
:103D100024F431913813F9CF13C096305CF4E92FB5
:103D2000092E000CFF0BEC58FD4F80839F5F909392
:103D30006102089510927A0281E080936D030895E4
:103D4000E22F022E000CFF0BEC58FD4F8181808387
:103D50002F5F2917ACF391509093610210926D037D
:103D6000089590911C0394305CF4E92F092E000C07
:103D7000FF0BEE59FD4F80839F5F90931C030895C6
:103D800040E060E070E082E496D910926602089507
:103D900020911C0342E652E0FA019E2F941B9217D9
:103DA0009CF431913813F9CF921751F0E92F092E75
:103DB000000CFF0BEE59FD4F818180839F5FF4CF94
:103DC000915090931C030895682F70E040E083E4C5
:103DD00072C9809130048093700308959FE0899F99
:103DE000600D112480915C0268130DC08091340431
:103DF000909135048417950734F480916F038F5F99
:103E000080936F03089510925C0210926F030895DF
:103E1000E0913804F09139044E175F0754F491E0B3
:103E2000F9019083FFE08F9F600D112460935C0285
:103E30000895F901108210925C0210926F030895A8
:103E400090917A01E92FEE0FFF0BE458FD4F20917E
:103E50005E0230E0322F2227282B3183208381E03D
:103E6000890F80937A01803534F010926C0380932F
:103E70006A0180E17DC5089590917103911111C08F
:103E8000805D8E3070F4E82FF0E0EE0FFF1FEB55F1
:103E9000F34F85919491880F991F8B55934F0C94F4
:103EA0002C170895CF93DF93C82FD62F5ADF809118
:103EB000700390913004891711F08B5F59D580E120
:103EC0008C0F8093700385E18C0F32D58FE030D555
:103ED0008091700390915D02D0FF02C0981308C0DA
:103EE000981308C080916F03811104C08091300441
:103EF00080935D02DF91CF910895E82FF0E0EA52C0
:103F0000FC4F8491882311F060E0CCCF08951F937B
:103F1000CF93DF9300D01F92CDB7DEB7182F2B833E
:103F20004A83698335DF2B814A816981222399F194
:103F300020917003E22FF0E0812F90E0805F9109E3
:103F4000E817F90741F580916F03882319F061FDA7
:103F500020935D028091600281131DC062FF1BC02F
:103F6000141624F460915E02842F13C0842F807E87
:103F7000803E89F4E42FF0E0EE0FFF1FEE59FB4D79
:103F80008491809590915E02892380935E02649172
:103F900080E00E941417809170038B5FE9D4E09158
:103FA0001C03E11103C080915D0207C00E2E000CBE
:103FB000FF0BEF59FD4F8081805F809370038091EC
:103FC000700390913004891741F08B5F0F900F9030
:103FD0000F90DF91CF911F91ABC48FE00F900F90A6
:103FE0000F90DF91CF911F91C3C4E82FF0E0EA5208
:103FF000FC4F8491882321F020E040E060E087CFEF
:1040000008956F70623051F028F4662339F0613002
:1040100081F00895643011F06830F1F4E82FF0E099
:10402000EE0FFF1FEE59FB4DE49180915E02E82BED
:104030000AC0E82FF0E0EE0FFF1FEE59FB4DE491B0
:1040400080915E02E827E0935E0280916E038823F0
:1040500019F0E777E0935E0208956F70623009F41B
:104060003FC018F4662381F10895643019F0683078
:1040700059F10895E82FF0E0EE0FFF1FEE59FB4DC8
:10408000E491E09560915E026E2360935E022223CC
:1040900009F444C090916002981340C0842F141614
:1040A0008CF0807E803E09F039C0E42FF0E0EE0F06
:1040B000FF1FEE59FB4D84918095682360935E024B
:1040C000649180E00C941417E82FF0E0EE0FFF1FCE
:1040D000EE59FB4DE491E09580915E02E8231CC00F
:1040E000E82FF0E090915E02EE0FFF1FEE59FB4DBE
:1040F000222379F080916F03882359F08491E82F6F
:10410000E92BE0935E0280916E03882339F0E77714
:1041100003C0E491E095E923E0935E0208956F7097
:10412000623051F028F4662339F0613031F008959F
:10413000643011F0683011F46ACDD0CD08956F70FD
:10414000623049F018F461110DC00BC0643049F0C1
:10415000683041F406C0222321F090916F03911141
:1041600001C08ACD08951F93CF93DF931F92CDB7DF
:10417000DEB7182F862F807F11F080936801103CE6
:1041800078F5103B08F0C1C0133A09F48CC0B8F4BC
:10419000133809F472C050F4143008F40FC1143706
:1041A00008F458C0123809F460C008C1113A09F483
:1041B00076C008F076C0143809F469C0FFC0193A17
:1041C00009F48AC020F4183A08F07FC06EC01E3A85
:1041D00009F48FC008F091C01A3A09F4F5C0EEC096
:1041E0001E3D20F5103D08F0C1C0163C09F4A2C0E8
:1041F00088F4113C08F4E2C0EFE3E10FF0E0EE0FC9
:10420000FF1FE85EF94DE49180916A03E82BE0938B
:104210006A03DAC0183C09F497C008F48FC0193C4F
:1042200009F0CCC080917B028F5F91C0183E50F4A2
:10423000103E08F0C0C01E3D09F49BC01F3D09F4AC
:10424000ACC0BCC08FE0810F893008F0B7C0812FAF
:1042500029DEBAC080916C03882321F0812F698305
:10426000EFDD6981812F5BDFAFC080915F0281FD4F
:10427000ABC060915E0289E307C080915F0280FD60
:10428000A3C060915E0283E50E9414179DC08091D7
:104290005F0282FD99C060915E0287E4F5CF4BD446
:1042A00093C023D491C013D48FC080916C0381112B
:1042B0008BC081E080936C0310927A01809371032C
:1042C0008CE5810F809343045EC09091710381E07F
:1042D00089278093710378C090916E0381E08927CC
:1042E00080936E03811102C085E055C085E020D324
:1042F0006BC082E08093C50167C080918E018111FF
:1043000063C081E080938E015FC080911D03909116
:104310001E03892B09F058C0E0E5E10FF0E0EE0F35
:10432000FF1FE950FA4D8591949190931E0380935D
:104330001D034AC080916B038F5F03C080916B03A4
:10434000815080936B0305C080917B0281508093E4
:104350007B0290912C0480916F03992321F090911E
:104360002A04981788F580932A042EC0812F84DDB3
:104370002BC090916C0381E0892780936C03882384
:1043800021F010927A0180E1B2CF80917A018111FF
:1043900080936A0180E1ECD217C080916C03811197
:1043A00013C060916A01062E000C770B8CE792E037
:1043B0000E94611709C0812F24DE06C0612F70E0C2
:1043C00040E084E40E945B18109360020F90DF913C
:1043D000CF911F9108951F93CF93DF9300D01F9229
:1043E000CDB7DEB7182F862F807F11F010926801AD
:1043F000163C10F5113C08F0A0C01B3A98F4113A95
:1044000008F0DFC0123809F462C028F48CEF810F85
:104410008037B0F1CAC0133809F461C0143809F408
:104420006DC0C3C01E3A08F4C0C0103B08F4C9C038
:10443000103C08F46BC0B9C0103E90F4103D08F079
:10444000C0C0173C09F48DC008F487C0183C09F4BB
:104450008EC0193C09F0A9C080917B0281508AC0AE
:10446000183E08F48AC08FE0810F893008F09DC0A3
:10447000812F0F900F900F90DF91CF911F9147CD1B
:1044800080916C038823D9F0809171038823B9F05F
:10449000183211F01B3299F41092710310926C03D0
:1044A00080917A01815080936A011092440480E1E6
:1044B0002B834A8369835CD269814A812B81812F56
:1044C0000F900F900F90DF91CF911F9138CE809178
:1044D0005F0281FF76C060915E0289E307C0809130
:1044E0005F0280FF6EC060915E0283E50F900F90C7
:1044F0000F90DF91CF911F910C94141780915F0260
:1045000082FF5FC060915E0287E4F0CF60E5610FDB
:10451000E62FF0E0EE0FFF1FE950FA4D85919491E0
:1045200020911D0330911E032817390709F049C057
:1045300010921E0310921D0344C06FE3610FE62F1B
:10454000F0E0EE0FFF1FE85EF94DE491E0958091F9
:104550006A03E823E0936A0334C080916B038150BF
:1045600003C080916B038F5F80936B032AC080919F
:104570007B028F5F80937B0224C080916C03882331
:1045800061F080916002811308C080E02B834A8330
:10459000698356DC69814A812B81812F0F900F90AE
:1045A0000F90DF91CF911F9158CD612F70E040E0C7
:1045B00085E40F900F900F90DF91CF911F910C9495
:1045C0005B180F900F900F90DF91CF911F9108957E
:1045D00020915E02227291E009F090E020913F0468
:1045E000222359F0992349F020915F0220FF05C052
:1045F00022EE280F2A3008F4855C20913304222310
:1046000021F1833571F490915F0281E089278093D5
:104610005F0280FF03C080E08BD11FC080E0A8D183
:104620001CC027EA280F2B3080F420915F02E82F6E
:10463000F0E0EE0FFF1F20FF05C0992319F0E15DA8
:10464000FA4D02C0E05DFA4D84918A3A39F4911135
:1046500002C085E3089589E2089580E00895AF924D
:10466000BF92CF92DF92EF92FF920F931F93CF935F
:10467000DF9300D01F92CDB7DEB7D82E062F10E003
:10468000809170039BE4C92E9FE0D99E7001112494
:10469000F701C89EE00DF11D1124E00FF11FE95450
:1046A000F64F84914A835B83698392DFB82E8091B1
:1046B00070039701C89E200D311D1124200F311F5A
:1046C000F901E753F94FC490F901E552FC4FA4906A
:1046D0000E0D1F1DF801EF5EFD4FB082F801E15E87
:1046E000FC4FC082F801EA53FE4FA0824A815B81F1
:1046F00069818D2D73DB4A2D6C2D8B2D34DD25D2F8
:104700000F900F900F90DF91CF911F910F91FF901D
:10471000EF90DF90CF90BF90AF900C94632E9F925C
:10472000AF92BF92CF92DF92EF92FF920F931F93BF
:10473000CF93DF931F92CDB7DEB79FE0899F9001A3
:104740001124260F311DF901EF5EFD4F6F01B0807E
:10475000F901E15EFC4F7F01A08089010A531E4FE1
:10476000F80190809E012F5F3F4F52DB2981492D38
:104770006A2D8B2D30DEF6011082F7011082F801D0
:1047800010820F90DF91CF911F910F91FF90EF90CA
:10479000DF90CF90BF90AF909F9008952FE0829FC1
:1047A000C00111249C01260F311DF901EF5EFD4F60
:1047B0008081F901E15EFC4F908193FF1AC01816C9
:1047C0001CF460915E0213C0982F907E903E89F495
:1047D000E82FF0E0EE0FFF1FEE59FB4D849180951E
:1047E00090915E02892380935E02649180E00C9434
:1047F0001417089520917103211112C0FC01A4E740
:10480000B2E0069621E030916D03332311F020834E
:1048100002C03C91308331961196E817F90799F759
:10482000089520917103211109C0DC01E7E6F2E04F
:104830008DE08E0F91919D938E13FCCF0895FC0116
:1048400080917103811106C08091680190915E0290
:10485000982B908308952FE0829FC0011124FC01C2
:10486000E60FF11DE954F64FE491E83211F0E83516
:1048700039F441E060E070E081E50E945B187DC49E
:10488000089590E09C01220F331F820F931FFC01BB
:10489000EE51F24E2491FC0131968052924EE0523C
:1048A000F24E621721F06491FC0184916BC964910E
:1048B000FC0184917BC90F931F93CF93DF93E1E1B8
:1048C000FEE1D49100EE1DE1C0E0CD1769F0F801E2
:1048D00031966491F801849131D960E08C2FD1DF59
:1048E000CF5F0D5F1F4FF1CF80913604809381031E
:1048F00080937E0380912D0480937C03DF91CF9180
:104900001F910F91089580917A03893F69F48091F6
:1049100086038F3E19F41092860303C08F5F809345
:10492000860310927A0308958F5F80937A03089527
:1049300090E0880F991FFC01EA54F24EA491FC010B
:10494000E954F24E8491E0E1FEE1E491AE1778F48F
:10495000B0E0AE58BC4F811103C08C91816006C09D
:104960009C919170E82FEE0F892F8E0F8C930895F4
:1049700090E0880F991FFC01EA54F24EA491FC01CB
:10498000E954F24E8491E0E1FEE1E491AE1780F447
:10499000B0E0AE58BC4F811104C08C918E7F8C93D7
:1049A00008959C91292F2695281302C091709C93FD
:1049B0000895823049F0833079F08130A1F481E1AB
:1049C000B7DF82E1D5DF0CC081E1D2DF82E1D0DF49
:1049D00083E1AEDF84E1CCCF81E1CADF82E1A8DFF1
:1049E00083E1C6DFF7CF81E1C3DF82E1C1DF83E18D
:1049F000BFDF84E19DCF0F931F93CF93E0E1FEE1F2
:104A0000E491C0E00E2F10E08C2F0C2E000C990BBF
:104A10008017910714F520917D032223C9F0FC0132
:104A2000EE58FC4F2081223018F421110FC010C025
:104A3000E22FE695F0E0EF5CF94D649180918603FA
:104A40000E947F35921720F490FF02C061E001C000
:104A500060E08C2F16DFCF5FD7CFCF911F910F91E2
:104A6000089580918103803110F081E002C08C5F55
:104A70008C7F809381030895809182038F5F8131C1
:104A800018F480938203089581E08093820310924A
:104A9000800310928503089590918103903120F056
:104AA00081E080937D0308958091800320918203AB
:104AB000929F902D1124891738F491E090937D03F3
:104AC000805F80938003089510927D030895E5EB45
:104AD000FDE1E49180917C038F5F8E1718F4809341
:104AE0007C03089510927C030895809183038F5F67
:104AF000843018F48093830302C010928303809162
:104B00008303811103C08091810303C0813021F4AC
:104B100084E080937E030895823031F484E08093B2
:104B20007E0310927F03089580E180937E0381E0ED
:104B300080937F03089595DF80918303811104C0E2
:104B40008091810380937E03089580918303823056
:104B500011F488E10BC0833071F480917E038530BD
:104B600010F0845003C0882321F0815080937E038D
:104B7000089510927E030895809184038F5F80339F
:104B800018F4809384030895109284039091830312
:104B90009130B1F420917F0380917E03222341F074
:104BA0008F5F80937E038831E0F010927F03089539
:104BB000815080937E038530A0F490937F03089505
:104BC000923031F480917E03853058F0815007C0D7
:104BD000933039F480917E03803118F48F5F809395
:104BE0007E03089580917E03803120F081E08093E0
:104BF0007B03089590918203899F802D11249091C9
:104C00007F039111807F90918503981738F481E09C
:104C100080937B03905F90938503089510927B03AC
:104C200008951F93CF93DF93E1E1FEE1E49110E05B
:104C3000CE2FD0E0212F012E000C330B2C173D0777
:104C4000ECF4F901EB55F24EE491EE23A9F08091DA
:104C50007B03882371F080917C03F90190E1899FA7
:104C6000E00DF11D1124EB55F34EE49161E0E111EB
:104C700001C060E0812F05DE1F5FDCCFDF91CF91A7
:104C80001F910895F9DE08DF3EDEB5DE75DFAADF8D
:104C9000C8CF27B1242B27B928B1342F309523232F
:104CA00038B1432B3FB7F894FC01680F791FE61722
:104CB000F70789F0819198E048B9000000C087FFAC
:104CC00028B9880F000000C000C000C028B900C08B
:104CD0009A9591F7ECCF3FBF08959B01220F331FA8
:104CE000620F731FD6DF87EC90E00197F1F700C0E9
:104CF000000008951F920F920FB60F9211240F908B
:104D00000FBE0F901F901895E4E6F0E0808180714F
:104D10008083A5E6B0E08C9186778C93808181605A
:104D200080838081846080838081806280838081B1
:104D3000806480838C9188608C938081806880837C
:104D40008081826080838C9181608C938C918F773D
:104D50008C9390E080E80FB6F89480936100909374
:104D600061000FBE0895D0CF8DEA9EED9093690447
:104D700080936804089580E189BD82E189BD09B40A
:104D800000FEFDCF8091D8008F7D8093D800809168
:104D9000E00082608093E0008091E00081FDFCCF24
:104DA0000895CF92DF92EF92FF921F93CF93DF93FC
:104DB000E8E8FEE1E491E0938703E7E8FEE1E491AF
:104DC000E0938D03E6E8FEE1E491E0938E03E5E8ED
:104DD000FEE1E491E0938F038BE7E82E8EE1F82E5D
:104DE00098E8C92E93E0D92ED0E0F7011491809174
:104DF0008D0381111FEFF7013196C4914C2F612F64
:104E00008D2F0E94B21D2C2F2095F60121936F014A
:104E1000422F412380918D03642F6095811101C041
:104E200040E08D2F0E94EB1DDF5FF2E0EF0EF11CE2
:104E3000D530D9F6DF91CF911F91FF90EF90DF90A1
:104E4000CF900895CF92DF92EF92FF920F931F932E
:104E5000CF93C0E080918E0390E02C2F0C2E000C9D
:104E6000330B281739070CF054C088E8E82E83E08C
:104E7000F82EF5E0CF026001112400E010E0F80107
:104E8000EC0DFD1DE05DF14E4491F70161917F0154
:104E9000802F0E94EB1D0F5F1F4F0530110579F722
:104EA00080913A048A95F1F710E0212F012E000C31
:104EB000330B80918F0390E02817390744F58091D8
:104EC0008D03220F331FF901ED5EF14E882351F05F
:104ED0006491F901EE5EF14E84910E94FA1D8823DF
:104EE00051F013C06491F901EE5EF14E84910E947D
:104EF000FA1D882351F080918703882319F06C2FC5
:104F0000812F02C0612F8C2FA6DC1F5FCECFCF5F19
:104F1000A1CFCF911F910F91FF90EF90DF90CF9095
:104F20000895CF93DF93962F642F2FE0929FE00197
:104F30001124C40FD11DCC0FDD1FC057DC4F488199
:104F40005981882301F157FF0EC02091400430E0C1
:104F5000319521953109241735077CF1892F7FDBA5
:104F600082E090E020C020913C0430913D04421743
:104F7000530794F0892F12DC20912F0488819981A6
:104F8000821B910910C01416150684F42091400468
:104F900030E0421753071CF44E5F5F4F10C0892F5B
:104FA000BEDB8EEF9FEF998388830BC08091340422
:104FB000909135048417950724F442505109598380
:104FC0004883DF91CF910895CF92DF92EF92FF92C5
:104FD0000F931F93CF93DF93D62FC82FCD170CF0CD
:104FE0005AC088E8E82E83E0F82EF5E0CF02600191
:104FF000112400E010E0F70161917F016F3F49F05B
:10500000F801EC0DFD1DE05DF14E4491802F0E94F2
:10501000EB1D0F5F1F4F0530110569F780913A04B2
:105020008A95F1F710E0212F012E000C330B8091AF
:105030008F0390E02817390764F580918D03220FC4
:10504000331FF901ED5EF14E882359F06491F901A7
:10505000EE5EF14E84910E94FA1D91E0882361F08A
:105060000AC06491F901EE5EF14E84910E94FA1D2E
:1050700091E0811101C090E080918703882319F0AD
:105080004C2F612F02C0412F6C2F892F4ADF1F5FE9
:10509000CACFCF5FA3CFDF91CF911F910F91FF9028
:1050A000EF90DF90CF90089560918E03669580E039
:1050B0008BCF80918E03682F869586CF81E0809379
:1050C0002904089520912904AC01249FC001259F43
:1050D000900D11246AE070E00E948B3580912804C5
:1050E000562F581B852F609328042F5F2093290487
:1050F0002B3028F01092280491E090932904089511
:1051000080916B03811104C080917B02882311F18F
:1051100081E080932C042091310480912A049091A5
:10512000370430912B04311120C0899FC001112414
:10513000820F911DC7DF90916B03899F902D1124E1
:105140009093270490917B02899F802D1124809356
:1051500026040BC010922C041092280410922704ED
:10516000109226048AE08093290480912B048111F7
:1051700003C081E080932B040895CF93DF93CDB7D4
:10518000DEB763970FB6F894DEBF0FBECDBF59E10F
:105190005093320410923B0410923F04109230045A
:1051A00040E14093360410923E0436E030934004D0
:1051B0001092330410922D0480EF90E09093390404
:1051C0008093380488E89FEF9093350480933404EB
:1051D00085E0809331042FE02093370460E273E090
:1051E00070933D0460933C0490E290932F0480936D
:1051F0003A0459831A821B821C824D831E823F838C
:105200001886198630EF3A871B8638E83C873FEFCF
:105210003D878E872F87988B23E0298B9A8B8B8BEA
:1052200043E150E060E070E0CE0101960E94E2357B
:1052300063960FB6F894DEBF0FBECDBFDF91CF915E
:1052400008950F931F93CF93DF93CEE3D6E2FE0131
:10525000329684913196E49190E0E23059F4FE0167
:1052600005911491805090400E94DD35F8019183A2
:10527000808309C0FE0105911491805090400E94E6
:10528000D535F80180832496F6E2CE37DF07F9F6AC
:1052900060913204693131F070E041E080E50E94B4
:1052A0005B186BDF80913E0480932E04DF91CF91D9
:1052B0001F910F91089524E0829FC0011124FC01E9
:1052C000E05CF94D2491FC01EF5BF94D3491FC0158
:1052D000E25CF94D822F90E0323041F4A591B49117
:1052E0006D917C91805090400C94F935A591B491CA
:1052F0006C91805090400C94EB3585E08093440491
:105300000895809143042EE28202C0011124FC0121
:10531000EE54F14E4491FC01ED54F14E3491FC01F8
:10532000EC54F14E2491FC01EB54F14E94915091C8
:105330007A0180914104513079F01CF4552331F009
:105340001FC0523081F05330A9F01AC0442321F01D
:105350006AE10E947F352EC0332329F06AE10E9462
:105360007F35965E27C0222329F06AE00E947F35B0
:105370009C5C20C0992321F0982F9F71925C1AC0E9
:10538000442311F06AE101C060E03111665E211131
:10539000665F9111605E0E947F35411101C0965E8B
:1053A000311103C09A3134F0965E211103C0943359
:1053B0000CF0965FE92F990FFF0BE25AF84D84919C
:1053C000089584509272E82FF0E0EE0FFF1F9111C4
:1053D00003C0E258F94D02C0E158F94D8491089597
:1053E0000F931F93CF93DF93E091430420917A01B1
:1053F000022E000C330BCE2F0E2E000CDD0B8EE296
:10540000E802F0011124EF54F14E649170E0C901FB
:105410000E949F35082F1091410460916A01062E69
:10542000000C770BC9010E949F35FC01FF27EE0F8E
:10543000FF1FE458FD4F80819181C3DF810F982FBA
:10544000990F87FD9F5F909341048EE28C9FF0013E
:105450008D9FF00D1124E00FF11DE757F14EE491FF
:1054600080914104E827E0934104DF91CF911F919F
:105470000F910895EF92FF920F931F93CF93DF93B5
:105480001F92CDB7DEB7809143042EE28202C001A5
:105490001124FC01EA54F14E6491062F10E020E53E
:1054A00030E0201B310B220F331FA90144585D4F00
:1054B0007A0120914404223009F444C028F42223C4
:1054C00051F02130C9F0AEC0233009F45BC0243064
:1054D00009F47FC0A7C01092410421E02093440446
:1054E00010927A01FC01EF54F14EE491E1119AC05F
:1054F00085E08093440496C020917A01FC01E20F7C
:10550000F11D27FDFA95E757F14EE49140914104D2
:105510004E0F409341042F5F20937A01FC01EF541A
:10552000F14E8491022E000C330B90E028173907BE
:105530000CF478C082E08093440410927A01409386
:10554000420470C010914204E0917A01EE0FFF0B0B
:10555000E458FD4F80819181698333DF810F80930F
:10556000420490917A019F5F90937A0120916A01A1
:10557000698192170CF456C00E947F3590934204C3
:1055800083E022C02DDF80914204E80EF11CE80E7A
:10559000F11CB7DE0E94E317F701918380838091AD
:1055A000420490E00196B8010E949F358093420426
:1055B00080917A018F5F80937A01082E000C990BFD
:1055C000801791077CF184E08093440410927A0163
:1055D00029C080917A01282F220F330BFA01E20FA4
:1055E000F31F40815181F901E458FD4F51834083FD
:1055F0008F5F80937A01082E000C990B801791071A
:105600008CF085E08093440460936A01B8018CE7D4
:1056100092E00F90DF91CF911F910F91FF90EF904B
:105620000C9461170F90DF91CF911F910F91FF9014
:10563000EF90089580914404853009F01BCF0895C0
:10564000CF92DF92EF92FF920F931F93CF93DF934E
:10565000CDB7DEB7EDB6FEB6EDEBF7E21491EEEBAB
:10566000F7E2E4916E2F70E08DB79EB7F3E0EF9F05
:105670008019910911240FB6F8949EBF0FBE8DBFFB
:1056800001966C012FEB37E2ADB7BEB7139640E041
:1056900050E046175707B4F4F90131960491CD0153
:1056A0000197FC010083F9018491FD013297808309
:1056B000F9013296E491EC934F5F5F4F2D5F3F4FBE
:1056C0001396E7CF412FC60108DB412F61E070E060
:1056D000C60103DB0FB6F894FEBE0FBEEDBEDF9130
:1056E000CF911F910F91FF90EF90DF90CF90089591
:1056F00013BC109280001092820080E89EE3909389
:10570000890080938800089510924504789410923F
:1057100085001092840081E08093810082E0809374
:105720006F009AE088E10FB6F894A8958093600026
:105730000FBE90936000E0E6F0E08081806C808393
:1057400008950FB6F894A8958091600088618093C1
:105750006000109260000FBEE0E6F0E080818F7B79
:10576000808310926F001092810008952091840030
:1057700030918500E091450490915B0485E08E9F17
:10578000F0011124E90FF11DEE0FFF1FE95BFB4F44
:10579000408151814217530778F4E091450490917C
:1057A0005B048E9FF0011124E90FF11DEE0FFF1F26
:1057B000E95BFB4F3183208308951F93CF93DF93E1
:1057C000C0E0D0E015E080914504FE01189FE00D97
:1057D000F11D1124EE0FFF1FEF5BF04E85919491A8
:1057E000009729F0C0935B04FC010995BFDF219667
:1057F000C530D10541F7DF91CF911F9108951092E7
:1058000085001092840080914604882381F0809165
:10581000450460915B0470E0782B40E081E10E94D8
:105820005B18809146048F5F80934604089581E061
:10583000809346047894C1DF809145048F5F809304
:105840004504823010F01092450480914604823065
:1058500038F06091460470E040E084E10E945B18FB
:10586000A8951092460408951F920F920FB60F92BA
:1058700011242F933F934F935F936F937F938F9355
:105880009F93AF93BF93EF93FF93B9DFFF91EF9196
:10589000BF91AF919F918F917F916F915F914F9148
:1058A0003F912F910F900FBE0F901F901895E7E436
:1058B000F4E0118210821382128215821482178200
:1058C0001682118610861386128615861486178610
:1058D0001686118A108A138A128A0895292F33276F
:1058E0002330310511F13CF42130310561F02230D3
:1058F000310571F070C02132310531F122323105AC
:1059000009F43DC068C082E190E029EB3AE26CC046
:1059100080912E04833009F44AC0813009F44CC0D0
:1059200084E590E025E63AE25FC09927009731F0E0
:10593000019709F050C0EFE9F9E202C0EBEEF9E29D
:10594000849190E09F0150C0613049F068F062306E
:1059500009F041C089E090E029EA3AE245C089E0D7
:1059600090E020E93AE240C080912E04833049F172
:10597000813061F189E090E027E73AE235C061309B
:1059800041F060F0623039F58BE190E02BEC3AE2C7
:105990002BC08AE390E026EE3AE226C080912E04E6
:1059A00080FD1EC08FE390E020E23BE21DC082E25A
:1059B00090E02FEE39E218C084E590E021E13AE270
:1059C00013C089E090E021E03AE20EC089E090E067
:1059D00023E23AE209C080E090E020E030E004C039
:1059E0008FE390E02FE53BE2FA01318320830895B5
:1059F00081E00C94D9240895CF93DF9380E291E065
:105A00005CD7C82F80912E0481FD09C080E191E010
:105A100054D7D82F80E091E050D78D23C823CC23D2
:105A200011F080E001C083E00E94D9248091E2005F
:105A300084608093E200DF91CF91089580E291E04D
:105A400004D680912E0481FD06C080E191E0FDD551
:105A500080E091E0FAC5089580912E0190912F0188
:105A6000009729F0019790932F0180932E01809148
:105A70002E0481FD16C080911E0190911F01009798
:105A800029F0019790931F0180931E0180910E01D0
:105A900090910F01009729F0019790930F01809347
:105AA0000E01089580E00C94D92482E00C94D9244E
:105AB00080E00C94D9240F931F93CF93DF93F901C7
:105AC00021E080329207F9F4EF01109279012091E0
:105AD0002E04CF01029620FD07C020912901222328
:105AE00019F00E94112402C00E94FA23CE010E94E4
:105AF0001F2480912E0480FF03C088E090E024C022
:105B000082E190E021C080519140B1F410922B04C9
:105B100080916A0380838091270481838091260489
:105B2000828383E090E0F8019183808381E090910B
:105B30002C0491110DC00BC080911D0390911E0388
:105B40009183808382E090E0F8019183808380E0FC
:105B5000DF91CF911F910F910895CF938052914083
:105B600009F081C0F901808180935F02C0914F01EB
:105B7000C82780934F01CC2309F475C0909133045A
:105B8000911111C0C0FF0FC080FF07C080E00E94CC
:105B9000982480E00E947D1F06C080E00E94B82407
:105BA00080E00E94F51FC1FF11C080915F0281FF5C
:105BB00007C081E00E94982481E00E947D1F06C0FA
:105BC00081E00E94B82481E00E94F51FC2FF24C03A
:105BD00080915F0282FF11C082E00E94982482E0DF
:105BE0000E947D1F80913B048823B1F081E0809367
:105BF0006E0385E00E9498240FC082E00E94B824C2
:105C000082E00E94F51F80913B04882329F01092C6
:105C10006E0385E00E94B824C3FF11C080915F022B
:105C200083FF07C083E00E94982483E00E947D1FC9
:105C300006C083E00E94B82483E00E94F51FC4FFE1
:105C400012C080915F0284FF07C084E00E94982404
:105C500084E0CF910C947D1F84E00E94B82484E0FE
:105C6000CF910C94F51FCF91089580912E0480FF61
:105C700009C088E08093280188E090E09093230198
:105C800080932201089580E291E02AD680912E042B
:105C900081FD06C080E191E023D680E091E020D62E
:105CA000BAD480915F0490914E01981759F0609199
:105CB0005F0470E041E086EA0E945B1880915F0417
:105CC00080934E01089580915D04882329F080918E
:105CD0005F04853009F44FC80895CF92DF92EF92A8
:105CE000FF920F931F93CF93DF93EC018B017A0107
:105CF000DED1811133C0E114F10439F0F701808164
:105D00009181081B190BC80FD91FC12CD12C01156B
:105D1000110519F18091E80085FD16C08091E80019
:105D20008E778093E80077D4E114F10449F0F7010D
:105D300080819181C80ED91ED182C08285E00EC0BB
:105D4000B6D1882321F30AC089918093F1000150D4
:105D50001109FFEFCF1ADF0ADACF80E0DF91CF9190
:105D60001F910F91FF90EF90DF90CF9008952091B9
:105D70006604309167042617370748F061157105EE
:105D800039F42091E8002E772093E80001C0B90192
:105D900040E061157105A9F120915F04222309F407
:105DA00043C0253009F442C02091E80023FD40C0E3
:105DB0002091E80022FD32C02091E80020FFE9CFC9
:105DC0004091F3002091F20030E0342BFC01CF0130
:105DD0006115710559F02830310540F481918093A7
:105DE000F100615071092F5F3F4FF1CF41E0283042
:105DF000310509F040E02091E8002E772093E8007B
:105E0000C8CF4111C9CF0AC080915F04882361F0D7
:105E1000853061F08091E80083FD0AC08091E80040
:105E200082FFF2CF80E0089582E0089583E0089534
:105E300081E008956115710529F42091E8002B7720
:105E40002093E800FC016115710541F180915F0428
:105E5000882361F1853061F18091E80083FD24C0E1
:105E60008091E80082FFEFCF2091F3008091F20053
:105E700090E0922B892B31F08091F1008193615059
:105E8000710991F78091E8008B778093E800DBCF70
:105E900080915F04882351F0853051F08091E800B3
:105EA00080FFF6CF80E0089581E0089582E00895B4
:105EB00083E0089520916604309167042617370720
:105EC00048F06115710539F42091E8002E77209390
:105ED000E80001C0B901FC0120E06115710591F1F4
:105EE00080915F04882309F440C0853009F43FC0E5
:105EF0008091E80083FD3DC08091E80082FD2FC0C5
:105F00008091E80080FFE9CF2091F3008091F200BA
:105F100090E0922B6115710559F08830910540F49D
:105F200024912093F1003196615071090196F2CFCE
:105F300021E0089709F020E08091E8008E778093B7
:105F4000E800CBCF2111CCCF0AC080915F04882319
:105F500061F0853061F08091E80083FD0AC0809196
:105F6000E80082FFF2CF80E0089582E0089583E0A8
:105F7000089581E00895982F973058F59093E9009F
:105F8000981739F07091EC002091ED005091F000DD
:105F900003C0242F762F50E021FF19C03091EB0071
:105FA0003E7F3093EB003091ED003D7F3093ED006C
:105FB0003091EB0031603093EB007093EC00209354
:105FC000ED005093F0002091EE0027FF07C09F5F87
:105FD000D3CF8F708093E90081E0089580E0089529
:105FE000EF92FF920F931F93CF93DF93E62EEC0176
:105FF0008C010C5F1F4FF12CFE1491F15881552339
:1060000051F1F801208169817A8131979081852F42
:106010008F70873010F080E024C0223010F442E00E
:1060200001C046E0E8E0F0E020E0E617F70720F4E2
:106030002F5FEE0FFF1FF9CF2295207F422BF0E458
:106040009F9F90011124551F5527551F652F622BC7
:1060500092DF882301F3F39425960B5F1F4FCCCF7B
:1060600081E0DF91CF911F910F91FF90EF90089504
:106070008091600487FF11C08091E80082FD05C017
:1060800080915F048111F8CF11C08091E8008B7777
:106090000BC080915F04882349F08091E80080FF65
:1060A000F8CF8091E8008E778093E80008952091E2
:1060B000E4003091E50095E64091EC00842F81707A
:1060C00040FF22C08091E80080FD1CC080915F04E9
:1060D000882391F0853091F08091EB0085FD10C010
:1060E0004091E4005091E5004217530729F39A01CB
:1060F000915011F784E0089582E0089583E00895B7
:1061000081E0089580E008954091E80042FFDECFED
:10611000089565D06CD0E0EEF0E0808181608083EE
:10612000E8EDF0E080818F77808319BCA7EDB0E0C7
:106130008C918E7F8C9380818F7E808310925E0401
:1061400008950F931F93CF93DF9349D050D0C8ED9C
:10615000D0E088818F778883888180688883888170
:106160008F7D888319BC10925F0410925C0410929A
:106170005D0400EE10E0F80180818B7F80838881D0
:106180008160888342E060E080E0F5DEE1EEF0E0EF
:1061900080818E7F8083E2EEF0E080818160808369
:1061A000808188608083F80180818E7F80838881F0
:1061B00080618883DF91CF911F910F910895E8ED61
:1061C000F0E080818F7E8083E7EDF0E08081816068
:1061D000808384E082BF81E080935E04B2CFE8EDEB
:1061E000F0E080818E7F80831092E200089510920B
:1061F000DA001092E10008951F920F920FB60F92ED
:1062000011242F933F934F935F936F937F938F93BB
:106210009F93AF93BF93EF93FF938091E10082FF31
:106220000AC08091E20082FF06C08091E1008B7F6E
:106230008093E10011DC8091DA0080FF1DC0809125
:10624000D80080FF19C08091DA008E7F8093DA0039
:106250008091D90080FF0CC080E189BD82E189BDB9
:1062600009B400FEFDCF81E080935F04C1DB04C070
:1062700019BC10925F04BFDB8091E10080FF18C061
:106280008091E20080FF14C08091E2008E7F8093B5
:10629000E2008091E20080618093E2008091D8006A
:1062A00080628093D80019BC85E080935F04FDDB99
:1062B0008091E10084FF2FC08091E20084FF2BC019
:1062C00080E189BD82E189BD09B400FEFDCF8091E6
:1062D000D8008F7D8093D8008091E1008F7E8093DD
:1062E000E1008091E2008F7E8093E2008091E200E5
:1062F00081608093E20080915C04882311F084E047
:1063000007C08091E30087FD02C081E001C083E007
:1063100080935F04CDDB8091E10083FF22C08091F8
:10632000E20083FF1EC08091E100877F8093E1003F
:1063300082E080935F0410925C048091E1008E7F84
:106340008093E1008091E2008E7F8093E200809153
:10635000E20080618093E20042E060E080E00BDEDA
:10636000A1DBFF91EF91BF91AF919F918F917F91B1
:106370006F915F914F913F912F910F900FBE0F90B2
:106380001F9018951F93CF93DF93CDB7DEB7AA97D1
:106390000FB6F894DEBF0FBECDBFE0E6F4E088E0B4
:1063A0008E0F9091F10091938E13FBCF47DB80917C
:1063B000E80083FF18C18091600490916104492F27
:1063C00050E04A30510508F00EC1FA01E059FF4F84
:1063D000C9C3803881F0823809F005C18091640416
:1063E0008F708093E9008091EB0085FB882780F90E
:1063F0001092E90007C080915D04882311F082E0CB
:1064000001C080E09091E800977F9093E80080932E
:10641000F1001092F100C4C0282F2D7F09F0E3C0D5
:10642000882319F0823061F0DEC0809162048130EF
:1064300009F0D9C0933009F080E080935D042BC04F
:1064400080916204811127C0809164048F7009F4E7
:10645000CAC08093E9002091EB0020FF1CC093305C
:1064600021F48091EB00806214C09091EB00906168
:106470009093EB0021E030E0A90102C0440F551FCA
:106480008A95E2F74093EA001092EA008091EB00CF
:1064900088608093EB001092E9008091E800877F8C
:1064A00082C08111A0C0109162041F778091E30027
:1064B0008078812B8093E3008091E800877F809330
:1064C000E800D6DD8091E80080FFFCCF8091E300FA
:1064D00080688093E300111102C082E001C083E074
:1064E00080935F0480C08058823008F07CC0809127
:1064F0006204909163048C3D53E0950771F583E04D
:106500008A838AE289834FB7F894DE01139620E0EC
:106510003EE051E2E32FF0E050935700E49120FF7A
:1065200003C0E295EF703F5FEF708E2F90E0EA308E
:1065300010F0C79601C0C0968D939D932F5F2431B4
:1065400049F74FBF8091E800877F8093E8006AE2B7
:1065500070E0CE0101960BDC12C0AE014F5F5F4FC1
:1065600060916404BBD9BC01892B09F43CC09091B3
:10657000E800977F9093E80089819A819BDC809165
:10658000E8008B778093E8002EC0803861F5809119
:10659000E800877F8093E80080915C048093F1009D
:1065A0008091E8008E778093E80062DD1CC0811145
:1065B0001AC0909162049230B0F48091E800877F15
:1065C0008093E80090935C0453DD80915C0481111A
:1065D00006C08091E30087FD02C081E001C084E035
:1065E00080935F0409DA8091E80083FF0AC08091FC
:1065F000E800877F8093E8008091EB0080628093C1
:10660000EB00AA960FB6F894DEBF0FBECDBFDF91A8
:10661000CF911F910895CF9380915F04882399F0C3
:10662000C091E900CF709091EC00892F817090FDAE
:1066300080E8C82B1092E9008091E80083FDA2DE7B
:10664000CF70C093E900CF9108956F927F928F929F
:106650009F92AF92BF92CF92DF92EF92FF920F93F1
:106660001F93CF93DF9300D01F92CDB7DEB77C018D
:10667000CDB6DEB68091E80083FF08C1F7018081C6
:1066800090E020916404309165042817390709F0DF
:10669000FDC080916104833009F49FC030F48130E3
:1066A00071F0823009F4D6C0F1C08A3009F4BAC062
:1066B0008B3009F4A3C0893009F0E8C051C0809143
:1066C0006004813A09F0E2C08DB69EB61A82198242
:1066D00080916204109163048B83F7018085482FB9
:1066E00050E08DB79EB7841B950B0FB6F8949EBFF4
:1066F0000FBE8DBFEDB7FEB731965F0160E070E071
:10670000CF014CD24FEF410F8E010F5F1F4F95010C
:10671000BE016D5F7F4FC701CED9F701868197819A
:10672000009721F0408550E0B5012FD21092E9008A
:106730008091E800877F8093E8008B8181118093AE
:10674000F10069817A81C50112DB8091E8008B77C5
:106750008093E8000FB6F8949EBE0FBE8DBE96C023
:1067600080916004813209F091C0ADB6BEB600914F
:1067700066041091670470906204609063048DB7A2
:106780009EB7801B910B0FB6F8949EBF0FBE8DBFB6
:10679000EDB7FEB731964F018091E800877F809377
:1067A000E800B801CF0146DB8091E8008E77809346
:1067B000E80021E0711001C020E030E0021B130B63
:1067C000280D391D4FEF460D672DC701C6D90FB6ED
:1067D000F894BEBE0FBEADBE59C080916004813A30
:1067E00009F054C08091E800877F8093E800809191
:1067F000E80080FFFCCFF701818540C080916004F4
:10680000813209F043C08091E800877F8093E800DF
:106810002FDC9091620481E0911101C080E0F701CA
:10682000818734C080916004813281F58091E800D5
:10683000877F8093E8001CDC809162049091630460
:10684000882736E0969587953A95E1F7F701958781
:1068500084871CC080916004813AC1F48091E80073
:10686000877F8093E8008091E80080FFFCCFF701EC
:106870008485958596958795969587958093F10063
:106880008091E8008E778093E800F2DB0FB6F894F1
:10689000DEBE0FBECDBE0F900F900F90DF91CF9157
:1068A0001F910F91FF90EF90DF90CF90BF90AF902E
:1068B0009F908F907F906F900895FC01399627E00C
:1068C000DF011D922A95E9F721E0FC01218724EFE1
:1068D00031E03587248723E0248361E0019680CB73
:1068E0004F925F926F927F928F929F92AF92BF92E0
:1068F000CF92DF92EF92FF920F931F93CF93DF938C
:1069000000D01F92CDB7DEB77C01ADB6BEB6809188
:106910005F04843009F08DC08091E4009091E5001F
:10692000F701228533852817390709F482C0818150
:106930008F708093E9008091E80085FF7AC08DB662
:106940009EB6408550E08DB79EB7841B950B0FB661
:10695000F8949EBF0FBE8DBFEDB7FEB731966F01A5
:106960001B821A82198260E070E0CF0117D18E017C
:106970000F5F1F4F960140E0BE016D5F7F4FC70163
:106980009AD8482EF70184859585892B51F091E09E
:1069900080E026853785232B09F090E0092F182FFA
:1069A00002C000E010E0F701668077806114710496
:1069B00089F049815A81B301C601DAD05524539434
:1069C000892B09F4512CF701408550E0B601C30131
:1069D000DCD001C0512C89819A81892BF1F04110C2
:1069E00004C0511002C0012BC1F0F70184859585C8
:1069F0009787868781818F708093E9008B818111D1
:106A00008093F10069817A8140E050E0C60165D948
:106A10008091E8008E778093E8008091E400909167
:106A2000E500F701938782870FB6F8949EBE0FBEEC
:106A30008DBE0FB6F894BEBE0FBEADBE0F900F90C8
:106A40000F90DF91CF911F910F91FF90EF90DF900A
:106A5000CF90BF90AF909F908F907F906F905F90FE
:106A60004F90089508950E94B3260E9446180E94F0
:106A700021290E94D1260E945B240E94E91E0E94C7
:106A80005E280E9414160E947D290E94782BEDD862
:106A90000E94202B0E94EC170E94222790CB0E947C
:106AA000842B8091C5018823E1F30C94A12B31DB69
:106AB000F8942FEF87EA91E6215080409040E1F76B
:106AC00000C000008091C501823011F40E94B426FC
:106AD0008091C501882359F09CE088E10FB6F894B5
:106AE000A895809360000FBE90936000FFCF08953B
:106AF000B9DFB9DFD4DFDBDF80E090E00895991BD8
:106B000079E004C0991F961708F0961B881F7A95A4
:106B1000C9F780950895AA1BBB1B51E107C0AA1FA6
:106B2000BB1FA617B70710F0A61BB70B881F991F2E
:106B30005A95A9F780959095BC01CD01089597FBD2
:106B4000072E16F4009406D077FD08D0E4DF07FC8A
:106B500005D03EF4909581959F4F0895709561956D
:106B60007F4F0895EE0FFF1F0590F491E02D0994DB
:106B7000FB01DC0104C08D910190801921F441508A
:106B80005040C8F7881B990B0895FB01DC0102C037
:106B900001900D9241505040D8F70895DC0101C09A
:106BA0006D9341505040E0F70895F999FECF92BDA2
:106BB00081BDF89A992780B50895A8E1B0E042E038
:106BC00050E01CC0DC01CB0102C02D9105D041502A
:106BD0005040D8F70895262FF999FECF1FBA92BDDD
:106BE00081BD20BD0FB6F894FA9AF99A0FBE0196AE
:106BF0000895F1DF272FF0CFDC01CB01FC01F999DB
:106C0000FECF06C0F2BDE1BDF89A319600B40D92F8
:0C6C100041505040B8F70895F894FFCFB1
:106C1C00028302000001500102000000000000008D
:106C2C00018203000001520103000000000000007B
:106C3C00008112000001550112000000000000004C
:106C4C002400250023002700280026002A002B0002
:0E6C5C0029002D002E002C00300031002F00EA
:00000001FF
