:1000000062C500009DC500009BC5000099C50000A9
:1000100097C5000095C5000093C5000091C500007C
:100020008FC500008DC500008BC500000C944914DD
:1000300087C500000C94720D83C500000C943E101F
:100040007FC500007DC500007BC5000079C50000AC
:1000500077C5000075C5000073C5000071C50000BC
:100060006FC500006DC500006BC5000069C50000CC
:1000700067C50000141537151E1637151E167C159A
:100080009E151E16F015021640000000000000002C
:100090000000000000000000000000000000000060
:1000A0000000000000000000000000000000000050
:1000B0000000000000000000000000000000000040
:1000C0000000000000000000000000000000000030
:10072000000000FF00FF00FF00FF00FF00FF00FFD0
:1007300000FF00FF00FF00FF00FF00FF00FF00FFC1
:1007400000FF00FF00FF00FF00FF00FF00000000AF
:100750000000000000000000000000000000000099
:100760000000000000000000000000000000000089
:1007700000000000000000000000000000080C0065
:100780000000000000000000000000000000000069
:100790000000000000000000000000000000000059
:1007A00000000000000000B411140F79063D0DE2B6
:1007B00000E900EA00E500B500B600B700CD00246E
:1007C00002250283018A019201940121022302E0A1
:1007D00001E102E204E308E410E520E640E78001DD
:1007E00005080A0C0F1014141818001880000000D7
:1007F00000000000000000000000000000000000F9
:1008000000000000000000000000000000000000E8
:1008100000000000000000000000000000000000D8
:1008200000000000000000000000000000000000C8
:1008300000000000000000000000000000000000B8
:1008400000000000000000000000000000000000A8
:100850000000000000000000000000000000000098
:100860000000000000000000000000000000000088
:100870000000000000000000000000000000000078
:100880000000000000000000000000000000000068
:100890000000000000000000000000000000000058
:1008A0000000000000000000000000000000000048
:1008B0000000000000000000000000000000000038
:1008C0000000000000000000000000000000000028
:1008D0000000000000000000000000000000000018
:1008E0000000000000000000000000000000000008
:1008F00000000000000000000000000000000000F8
:1009000000000000000000000000000000000000E7
:1009100000000000000000000000000000000000D7
:1009200000000000000000000000000000000000C7
:1009300000000000000000000000000000000000B7
:1009400000000000000000000000000000000000A7
:100950000000000000000000000000000000000097
:100960000000000000000000000000000000000087
:100970000000000000000000000000000000000077
:100980000000000000000000000000000000000067
:100990000000000000000000000000000000000057
:1009A0000000000000000000000000000000000047
:1009B0000000000000000000000000000000000037
:1009C00000000000000000000000000000004A03DA
:1009D000450061007300790041005600520020007C
:1009E0004D0075006C00740069006D0065006400C6
:1009F0006900610020004B006500790062006F0013
:100A00006100720064002000760023002E002300A5
:100A100023002E0023002300000004030904090220
:100A20003B00020100A032090400000103010100A3
:100A30000921B0010001223F0007058103120001D6
:100A40000904010001030000000921B00100012296
:100A50001B000705820302000812010002000000CB
:100A600008EB03FF20100000010001050C0901A1A3
:100A700001050C160100269C021A01002A9C027531
:100A80001095018100C005010906A101050719E0C3
:100A900029E7150025017501950881029501750862
:100AA0008101050819012905950575019102950136
:100AB000750391011500250105071900297F95800F
:100AC00075018102C00011241FBECFEFD2E0DEBF4E
:100AD000CDBF84B714BE0FB6F894A895909160006E
:100AE000986190936000109260000FBE83FF11C068
:100AF0008091F6019091F7018D3A9E4D51F410923C
:100B0000F7011092F601EAEEF7E025913491F90130
:100B1000099511E0A0E0B1E0EAEEF1E302C0059032
:100B20000D92A233B107D9F721E0A2E3B1E001C0F1
:100B30001D92A63FB207E1F70E94A3180C94F31888
:100B40005FCA109252011092510110924D01109201
:100B50004C0110925B0110925A01089590914E0140
:100B600080915901992399F181113AC080915001E6
:100B7000811129C080916C01811121C0E09148014F
:100B8000E91305C010924E011092480129C081E07E
:100B90008E0F80934801F0E0EE0FFF1FE45AFE4FE6
:100BA00080819181813019F49093500119C0909304
:100BB000490180936C01882399F082D111C0B5D18D
:100BC00010926C010DC081508093500109C08111B9
:100BD00007C01092490180914F018D7F80934F0192
:100BE00080915901811103C081E0809359010895DA
:100BF0008091930190914A01981731F180934A01B5
:100C0000882311F1883211F0883531F480914F0139
:100C10008B7F80934F010895E0914B018A3251F40C
:100C2000EE2391F0E150E0934B01F0E0ED5AFE4FDE
:100C300010820895E63040F4AE2FB0E0AD5ABE4FBA
:100C40008C93EF5FE0934B010895809193018111A4
:100C500002C010924F01089590914E01983090F487
:100C6000E92FF0E0EE0FFF1FE45AFE4F808361830F
:100C70009F5F90934E0180914F01836080934F015D
:100C800081E0089580E008959C0190914E019111BA
:100C90002EC0A901983049F490934E01205F3F4F38
:100CA00030935201209351011BC0FA016591749158
:100CB0004E5F5F4F6115710549F490934E0110929C
:100CC000520110925101992381F00AC0E92FF0E0FE
:100CD000EE0FFF1FE45AFE4F718360839F5FDACFF0
:100CE00080914F01836080934F0181E0089580E0FF
:100CF000089590914F0191FD31CF20915101309194
:100D000052012115310511F0C901BECF92FD70CFFE
:100D10009CCFCF92DF92EF92FF920F931F93CF93CE
:100D2000DF93CDB7DEB7CDB6DEB6E8E8F0E01491DC
:100D3000E9E8F0E0E4912E2F30E0C90163E070E0D3
:100D40000E94B3184DB75EB7481B590B0FB6F89405
:100D50005EBF0FBE4DBFEDB7FEB731967F016AE8AB
:100D600070E0ADB7BEB7139686579F4F68177907E7
:100D7000A9F0FB0131960491AD0141505109FA01EE
:100D80000083FB014491FD0132974083FB013296C1
:100D9000E491EC936D5F7F4F1396E8CF412FB9013B
:100DA000C70193D6412F61E070E0C7018ED60FB620
:100DB000F894DEBE0FBECDBEDF91CF911F910F9193
:100DC000FF90EF90DF90CF90089508950895362F0B
:100DD00090E066E070E00E94B318805E9E4FDC01F8
:100DE000ED91FC91208181E090E001C0880F3A955F
:100DF000EAF7822B80830895262F90E066E070E06A
:100E00000E94B318805E9E4FDC01ED91FC918081C1
:100E1000622F60956823462B40830895362F90E01B
:100E200066E070E00E94B318805E9E4FDC0112966F
:100E3000ED91FC911397208181E090E001C0880F33
:100E40003A95EAF7822B80830895362F90E066E08A
:100E500070E00E94B318805E9E4FDC011296ED9107
:100E6000FC911397208181E090E001C0880F3A95B2
:100E7000EAF78095822380830895262F90E066E02C
:100E800070E00E94B318805E9E4FDC011296ED91D7
:100E9000FC9113978081622F6823462B408308952D
:100EA000262F90E066E070E00E94B318805E9E4FAF
:100EB000DC011496ED91FC911597808182230895B1
:100EC000E82FE695E695E695F0E0EA57FE4F982F75
:100ED000977021E030E001C0220F9A95EAF79081E7
:100EE000292B20839091800120E029175CF4E22FC8
:100EF000022E000CFF0BED56FE4F30813817A1F08B
:100F00002F5FF3CF96305CF4E92F092E000CFF0B16
:100F1000ED56FE4F80839F5F90938001089510925D
:100F2000990181E08093A6010895E82FE695E69562
:100F3000E695F0E0EA57FE4F982F977021E030E0F9
:100F400001C0220F9A95EAF72095908129232083EA
:100F50009091800143E951E0FA012E2F241B2917BB
:100F600024F431913813F9CF01C00895E22F022EF5
:100F7000000CFF0BED56FE4F818180832F5F2917F8
:100F8000ACF39150909380011092A6010895E82F40
:100F9000E695E695E695F0E0EA57FE4F982F9770B4
:100FA00021E030E001C0220F9A95EAF790812927CD
:100FB00020839091800143E951E0FA012E2F241BF8
:100FC000291724F431913813F9CF13C096305CF40B
:100FD000E92F092E000CFF0BED56FE4F80839F5F1B
:100FE0009093800108951092990181E08093A60169
:100FF0000895E22F022E000CFF0BED56FE4F81816B
:1010000080832F5F2917ACF3915090938001109249
:10101000A601089590919B0194305CF4E92F092E6C
:10102000000CFF0BEF57FE4F80839F5F90939B0157
:10103000089540E060E070E082E4C8DE109285012F
:10104000089520919B0141E851E0FA019E2F941BE5
:1010500092179CF431913813F9CF921751F0E92F80
:10106000092E000CFF0BEF57FE4F818180839F5F9D
:10107000F4CF915090939B010895682F70E040E069
:1010800083E4A4CE8091D6018093A9010895962F80
:1010900066E00E94AA18890F90917B0189130DC008
:1010A0008091DA019091DB018417950734F48091E7
:1010B000A8018F5F8093A801089510927B01109280
:1010C000A8010895962F6091DE017091DF01461707
:1010D000570754F441E0F901408366E00E94AA18E2
:1010E000890F80937B010895F901108210927B0192
:1010F0001092A80108959091AA01911110C0805DED
:101100008E3068F4E82FF0E0EE0FFF1FED5DFC4F2E
:1011100085919491880F991F8D5D9C4FB5CD089551
:10112000CF93DF93C82FD62F75DF8091A9019091BF
:10113000D601891711F08B5FF4D380E18C0F809377
:10114000A90185E18C0FCDD38FE0CBD38091A9018C
:1011500090917C01D0FF02C0981308C0981308C07A
:101160008091A801811104C08091D60180937C01F7
:10117000DF91CF910895E82FF0E0E659FD4F84917B
:10118000882311F060E0CCCF08951F93CF93DF93B5
:1011900000D01F92CDB7DEB7182F2B834A83698307
:1011A00050DF2B814A816981222391F12091A9018D
:1011B000E22FF0E0812F90E0805F9109E817F907B6
:1011C00039F58091A801882319F061FD20937C01F5
:1011D00080917F0181131CC062FF1AC0141624F491
:1011E00060917D01842F13C0842F807E803E81F426
:1011F000E42FF0E0EE0FFF1FE05FF94F8491809540
:1012000090917D01892380937D01649180E024DDAC
:101210008091A9018B5F85D3E0919B01E11103C00F
:1012200080917C0107C00E2E000CFF0BE058FE4F92
:101230008081805F8093A9018091A9019091D6015E
:10124000891741F08B5F0F900F900F90DF91CF9136
:101250001F9147C38FE00F900F900F90DF91CF91B8
:101260001F915FC3E82FF0E0E659FD4F849188237A
:1012700021F020E040E060E088CF08956F70623098
:1012800051F028F4662339F0613081F0089564301C
:1012900011F06830F1F4E82FF0E0EE0FFF1FE05F8F
:1012A000F94FE49180917D01E82B0AC0E82FF0E02E
:1012B000EE0FFF1FE05FF94FE49180917D01E82779
:1012C000E0937D018091A701882319F0E777E093EF
:1012D0007D0108956F70623009F43EC018F46623F2
:1012E00079F10895643019F0683051F10895E82FCC
:1012F000F0E0EE0FFF1FE05FF94FE491E0956091A1
:101300007D016E2360937D01222309F443C09091F7
:101310007F0198133FC0842F14168CF0807E803E8E
:1013200009F038C0E42FF0E0EE0FFF1FE05FF94F47
:1013300084918095682360937D01649180E08CCCDA
:10134000E82FF0E0EE0FFF1FE05FF94FE491E0952A
:1013500080917D01E8231CC0E82FF0E090917D0191
:10136000EE0FFF1FE05FF94F222379F08091A80173
:10137000882359F08491E82FE92BE0937D01809137
:10138000A701882339F0E77703C0E491E095E923CA
:10139000E0937D0108956F70623051F028F4662368
:1013A00039F0613031F00895643011F0683011F493
:1013B00087CDEDCD08956F70623049F018F461115A
:1013C0000DC00BC0643049F0683041F406C02223E0
:1013D00021F09091A801911101C0A7CD0895CF935C
:1013E000C82F862F807F11F080934901CE3A09F4EF
:1013F00068C0F8F4C43809F447C058F4C23899F109
:10140000D0F58CEF8C0F803708F081C08C2FC3DFB4
:1014100083C0C83A09F440C028F4C13A09F077C043
:10142000F9D27AC0C93A09F43EC0CA3A09F474C084
:101430006EC0CE3D50F4C03D08F063C0CF3A09F411
:1014400044C0C03C08F449C062C0C03E08F45FC05C
:10145000C83E08F459C08FE08C0F893008F057C09F
:101460008C2F5EDE59C080917E0181FD55C0609158
:101470007D0189E307C080917E0180FD4DC06091B0
:101480007D0183E5E9DB48C080917E0182FD44C097
:1014900060917D0187E4F6CF9091AA0181E08927D0
:1014A0008093AA0139C09091A70181E08927809398
:1014B000A701811103C085E034D22EC085E011D28E
:1014C0002BC082E080936E0127C080916D01811155
:1014D00023C081E080936D011FC080919C01909199
:1014E0009D01892BC9F4E0E5EC0FF0E0EE0FFF1F42
:1014F000E155F84F8591949190939D0180939C01C3
:101500000BC08C2FF8DD08C08C2FB8DE05C06C2F07
:1015100070E040E084E45ADCC0937F01CF910895ED
:10152000962F907F11F010924901803BB0F48E3AD3
:1015300008F057C0833849F140F4843008F44CC0B7
:101540008437D0F08238C9F047C0843831F19FE544
:10155000980F9A3008F445C03FC0803E30F4803D7B
:1015600008F03FC0803C08F137C0883EA0F19FE002
:10157000980F993088F509CE1ECF80917E0181FFAA
:1015800030C060917D0189E307C080917E0180FFBA
:1015900028C060917D0183E55FCB80917E0182FF51
:1015A00020C060917D0187E4F7CF60E5680FE62FEA
:1015B000F0E0EE0FFF1FE155F84F859194912091D7
:1015C0009C0130919D012817390759F410929D0113
:1015D00010929C0108957ECE682F70E040E085E473
:1015E000F5CB0895BF92CF92DF92EF92FF920F93C7
:1015F0001F93CF93DF93D82EC62E8A018091A90125
:10160000ED2CF12C262F30E0D701A80FB11DCD0114
:1016100066E070E00E94B318820F931FFC01E9514D
:10162000FD4FC491CD0166E070E00E94B318820FB7
:10163000931FFC01E555FD4FD491CD0166E070E0AC
:101640000E94B318820F931FFC01E159FD4FB49023
:10165000C70166E070E00E94B318820F931FFC017F
:10166000EB58FE4FC083DC01A256BE4FDC93C7018E
:1016700066E070E00E94B318820F931FDC01A1594D
:10168000BE4FBC92A8016C2D8D2D01DD4B2D6D2F11
:101690008C2FA5DEDF91CF911F910F91FF90EF90DE
:1016A000DF90CF90BF907DC64F925F927F928F92D6
:1016B0009F92AF92BF92CF92DF92EF92FF920F93E1
:1016C0001F93CF93DF931F92CDB7DEB7A82FB62F0E
:1016D0002A01E82EF12C062F10E0C70166E070E029
:1016E0000E94B318800F911F9C012B583E4F590147
:1016F000F90190809C0122563E4F6901F9018080DA
:101700009C0121593E4FF90170809E012F5F3F4F90
:10171000A2016B2F8A2FD6DC2981472D682D892DB8
:10172000FFDEF5011082F6011082C70166E070E06D
:101730000E94B318800F911FFC01E159FE4F1082E7
:101740000F90DF91CF911F910F91FF90EF90DF905D
:10175000CF90BF90AF909F908F907F905F904F9071
:101760000895262F90E066E070E00E94B318820F83
:10177000911D9C01FC01EB58FE4F8081F901E2565E
:10178000FE4F908193FF19C018161CF460917D01E3
:1017900013C0982F907E903E81F4E82FF0E0EE0F7A
:1017A000FF1FE05FF94F8491809590917D0189231F
:1017B00080937D01649180E04FCA08952091AA0131
:1017C000211112C0FC01A3E9B1E0069621E030919D
:1017D000A601332311F0208302C03C91308331965F
:1017E0001196E817F90799F708952091AA01211198
:1017F00009C0DC01E6E8F1E08DE08E0F91919D9348
:101800008E13FCCF0895FC018091AA01811106C0BE
:101810008091490190917D01982B90830895462FE6
:10182000A82FB0E0CD0163E070E00E94B3189C01E6
:10183000FC01E15BF84F8491F9013196E35BF84FCD
:10184000481761F02491CD0163E070E00E94B31865
:10185000835B984FFC018491622FE0CA2491CD01F3
:1018600063E070E00E94B318835B984FFC018491A1
:10187000622FEBCA0F931F93CF93DF93EEE7F7E04E
:10188000D4910DE417E0C0E0CD1769F0F80131966E
:101890006491F80184919BDA60E08C2FC0DFCF5F08
:1018A0000D5F1F4FF1CF8091DC018093B601DF9176
:1018B000CF911F910F9108958091B301893F69F4F1
:1018C0008091B8018F3E19F41092B80103C08F5F68
:1018D0008093B8011092B30108958F5F8093B30194
:1018E000089590E0880F991FFC01ED5DF84FA491D9
:1018F000FC01EC5DF84F8491EDE7F7E0E491AE1761
:1019000078F4B0E0A555BE4F811103C08C91816081
:1019100006C09C919170E82FEE0F892F8E0F8C934B
:10192000089590E0880F991FFC01ED5DF84FA49198
:10193000FC01EC5DF84F8491EDE7F7E0E491AE1720
:1019400080F4B0E0A555BE4F811104C08C918E7F0C
:101950008C9308959C91292F2695281302C091708D
:101960009C930895823049F0833079F08130A1F45E
:1019700081E1B7DF82E1D5DF0CC081E1D2DF82E116
:10198000D0DF83E1AEDF84E1CCCF81E1CADF82E149
:10199000A8DF83E1C6DFF7CF81E1C3DF82E1C1DFEA
:1019A00083E1BFDF84E19DCF0F931F93CF93EDE7DA
:1019B000F7E0E491C0E00E2F10E08C2F0C2E000C0D
:1019C000990B8017910714F52091B4012223C9F0D7
:1019D000FC01E555FE4F2081223018F421110FC083
:1019E00010C0E22FE695F0E0E152F84F649180914B
:1019F000B8010E94C418921720F490FF02C061E061
:101A000001C060E08C2F0BDFCF5FD7CFCF911F914C
:101A10000F9108958091B601803110F081E002C0ED
:101A20008C5F8C7F8093B60108958091B7018F5FA2
:101A3000813118F48093B701089581E08093B70154
:101A40001092B50108958091B601803120F081E0B7
:101A50008093B40108959091B5016091B7010E94FF
:101A6000AA18981738F481E08093B401905F90939E
:101A7000B50108951092B4010895D7DFE4DF1CDFAB
:101A800093CF27B1242B27B928B1342F30952323A6
:101A900038B1432B3FB7F894FC01680F791FE61764
:101AA000F70789F0819198E048B9000000C087FFEE
:101AB00028B9880F000000C000C000C028B900C0CD
:101AC0009A9591F7ECCF3FBF08959B01220F331FEA
:101AD000620F731FD6DF87EC90E00197F1F700C02B
:101AE000000008951F920F920FB60F9211240F90CD
:101AF0000FBE0F901F90189590E080E80FB6F894F5
:101B000080936100909361000FBE0895F5CF8DEA38
:101B10009EED9093F7018093F601089584E089BDCE
:101B200086E089BD09B400FEFDCF8091D8008F7D8D
:101B30008093D8008091E00082608093E0008091E3
:101B4000E00081FDFCCF0895CF92DF92EF92FF92EB
:101B50001F93CF93DF93E6EAF7E0E491E093B901B6
:101B6000E5EAF7E0E491E093BD01E4EAF7E0E4910F
:101B7000E093BE01E3EAF7E0E491E093BF018DE971
:101B8000E82E87E0F82E9AEBC92E91E0D92ED0E00E
:101B9000F70114918091BD0181111FEFF70131967A
:101BA000C4914C2F612F8D2F27D92C2F2095F60112
:101BB00021936F01422F41238091BD01642F6095D5
:101BC000811101C040E08D2F58D9DF5FF2E0EF0EA8
:101BD000F11CD330E9F6DF91CF911F91FF90EF9088
:101BE000DF90CF9008950895DF92EF92FF920F93C8
:101BF0001F93CF93DF93D82EA62FB42FE62EF12C70
:101C0000C42FD0E0C70166E070E00E94B3188C0FCB
:101C10009D1F8C01000F111F00541E4FF8012081E1
:101C20003181DD2009F440C037FF1EC0E091E6019C
:101C3000F0E0F195E195F109E217F30714F4E801FA
:101C400074C0A9016B2F8A2FCDDCC70166E070E05C
:101C50000E94B3188C0F9D1FEC01CC0FDD1FC054E8
:101C6000DE4F81E090E04BC08091E2019091E30172
:101C70002817390714F1642F8A2F73DDC70166E036
:101C800070E00E94B3188C0F9D1FEC01CC0FDD1F7C
:101C9000C054DE4F2091D50188819981821B910922
:101CA000F8019183808346C0121613065CF580917B
:101CB000E60190E02817390784F4C70166E070E078
:101CC0000E94B3188C0F9D1FEC01CC0FDD1FC05478
:101CD000DE4FA9014F5F5F4F2BC0A9016B2F8A2FE9
:101CE000E3DCC70166E070E00E94B3188C0F9D1F13
:101CF000EC01CC0FDD1FC054DE4F8FEF9FEF9983B7
:101D0000888318C08091DA019091DB0182179307D4
:101D10008CF4C70166E070E00E94B3188C0F9D1F21
:101D2000EC01CC0FDD1FC054DE4FA9014150510919
:101D300059834883DF91CF911F910F91FF90EF90CE
:101D4000DF900895CF92DF92EF92FF920F931F934F
:101D5000CF93DF93D62FC82FCD170CF05CC08AEB42
:101D6000E82E81E0F82E8C2F0C2E000C990B63E0EE
:101D700070E00E94B3186C0100E010E0F70161917F
:101D80007F016F3F41F0F801EC0DFD1DE557F84F65
:101D90004491802F72D80F5F1F4F0330110571F7E8
:101DA0008091E0018A95F1F710E0212F012E000CBF
:101DB000330B8091BF0190E02817390754F58091CB
:101DC000BD01220F331FF901E058F84F882351F06D
:101DD0006491F901E158F84F849162D891E0882329
:101DE00059F009C06491F901E158F84F849158D82D
:101DF00091E0811101C090E08091B901882319F030
:101E00004C2F612F02C0412F6C2F892FEDDE1F5FF9
:101E1000CCCFCF5FA1CFDF91CF911F910F91FF90DA
:101E2000EF90DF90CF9008956091BE0180E08ACF5F
:101E300081E08093CF01089589E18093D8011092C9
:101E4000E1011092E5011092D60180E18093DC015E
:101E50001092E40186E08093E6011092D90110927D
:101E6000D30180EF90E09093DF018093DE0188E85A
:101E70009FEF9093DB018093DA0185E08093D70197
:101E80009FE09093DD0120E233E03093E301209363
:101E9000E20190E29093D5018093E00108950895C6
:101EA000CF92DF92EF92FF920F931F93CF93DF9326
:101EB000CDB7DEB7CDB6DEB6ECEEF7E01491EDEEC1
:101EC000F7E0E4912E2F30E0C90163E070E00E945A
:101ED000B3184DB75EB7481B590B0FB6F8945EBFE9
:101EE0000FBE4DBFEDB7FEB731967F016EEE77E0C6
:101EF000ADB7BEB713968251984F68177907A9F00E
:101F0000FB0131960491AD0141505109FA01008362
:101F1000FB014491FD0132974083FB013296E4912D
:101F2000EC936D5F7F4F1396E8CF412FB901C70146
:101F3000CCDD412F61E070E0C701C7DD0FB6F8943A
:101F4000DEBE0FBECDBEDF91CF911F910F91FF90EE
:101F5000EF90DF90CF90089513BC10928000109204
:101F6000820080E89EE39093890080938800089522
:101F70001092E7017894109285001092840081E01D
:101F80008093810082E080936F009AE088E10FB631
:101F9000F894A895809360000FBE90936000E0E6EF
:101FA000F0E08081806C808308950FB6F894A89546
:101FB00080916000886180936000109260000FBE85
:101FC000E0E6F0E080818F7B808310926F001092BA
:101FD00081000895CF93DF93C0E0D0E0E091E70166
:101FE000F0E0EE0FFF1FEE0FFF1FEC0FFD1FEE0FD7
:101FF000FF1FE955F84F85919491009721F0C09308
:10200000E901FC0109952196C430D10539F7DF912A
:10201000CF91089510928500109284008091E8017C
:10202000882381F08091E7016091E90170E0782BCD
:1020300040E081E10E94E6068091E8018F5F809395
:10204000E801089581E08093E8017894C3DF8091EE
:10205000E7018F5F8093E70181111092E701809182
:10206000E801823038F06091E80170E040E084E1FE
:102070000E94E606A8951092E80108951F920F921B
:102080000FB60F9211242F933F934F935F936F934B
:102090007F938F939F93AF93BF93EF93FF93BADF99
:1020A000FF91EF91BF91AF919F918F917F916F9130
:1020B0005F914F913F912F910F900FBE0F901F9006
:1020C0001895292F332723303105C1F05CF42130D6
:1020D000310579F022303105D9F58BE390E02EE11E
:1020E0003AE03AC021323105B9F02232310511F11E
:1020F0002FC082E190E029E53AE02EC099270097B1
:1021000029F0019729F5EEECF9E002C0EAE1FAE0E6
:10211000849190E09F0120C0662339F06130C1F4C2
:1021200089E090E029E43AE017C089E090E020E3FC
:102130003AE012C0662339F0613051F48BE190E04F
:102140002BE63AE009C08FE390E026E83AE004C0CD
:1021500080E090E020E030E0FA01318320830895B0
:1021600081E000CC0895CF9380E191E0D1D6C82FD3
:102170008091D40181FD04C080E091E0C9D6C823DC
:10218000CC2311F080E001C083E0ECDB8091E20021
:1021900084608093E200CF91089580E191E080D542
:1021A0008091D40181FD03C080E091E079C508955C
:1021B00080911E0190911F01009729F00197909343
:1021C0001F0180931E018091D40181FD0BC080917D
:1021D0000E0190910F01009729F0019790930F0144
:1021E00080930E01089580E0BDCB0F931F93CF9392
:1021F000DF9380519140E1F4E9011092590120915F
:10220000D401CE01029620FD06C02091190122239F
:1022100011F0EBDA01C0D2DACE01F5DA8091D40107
:1022200080FF03C088E090E00CC082E190E009C02C
:1022300080919C0190919D01F9019183808382E0BE
:1022400090E0F8019183808380E0DF91CF911F912E
:102250000F910895CF938051914009F075C0F90115
:10226000808180937E01C0913301C8278093330120
:10227000CC2309F469C09091D90191110FC0C0FF1E
:102280000DC080FF06C080E02CDB80E00E94BB0810
:1022900005C080E046DB80E00E943209C1FF0FC02C
:1022A00080917E0181FF06C081E01BDB81E00E94FE
:1022B000BB0805C081E035DB81E00E943209C2FF26
:1022C00020C080917E0182FF0FC082E00ADB82E0A5
:1022D0000E94BB088091E101882399F081E08093FE
:1022E000A70185E0FEDA0DC082E01BDB82E00E94E0
:1022F00032098091E101882321F01092A70185E045
:1023000010DBC3FF0FC080917E0183FF06C083E016
:10231000E8DA83E00E94BB0805C083E002DB83E0CB
:102320000E943209C4FF10C080917E0184FF06C064
:1023300084E0D7DA84E0CF910C94BB0884E0F1DA32
:1023400084E0CF910C943209CF9108958091D4010B
:1023500080FF09C088E08093180188E090E09093A6
:10236000130180931201089580E191E0E4D58091FA
:10237000D40181FD03C080E091E0DDD577D4809168
:10238000ED0190913201981759F06091ED0170E0E4
:1023900041E086EA0E94E6068091ED0180933201D9
:1023A00008958091EB01882329F08091ED0185301B
:1023B00009F4B4CB0895CF92DF92EF92FF920F937E
:1023C0001F93CF93DF93EC018B017A01D5D181115B
:1023D00033C0E114F10439F0F70180819181081BC9
:1023E000190BC80FD91FC12CD12C0115110519F1DA
:1023F0008091E80085FD16C08091E8008E7780937B
:10240000E80034D4E114F10449F0F70180819181AE
:10241000C80ED91ED182C08285E00EC0ADD18823FE
:1024200021F30AC089918093F10001501109FFEF57
:10243000CF1ADF0ADACF80E0DF91CF911F910F91A1
:10244000FF90EF90DF90CF9008952091F4013091AC
:10245000F5012617370748F06115710539F4209109
:10246000E8002E772093E80001C0B90140E0611533
:10247000710591F12091ED01222309F440C025302E
:1024800009F43FC02091E80023FD3DC02091E80001
:1024900022FD2FC02091E80020FFE9CF2091F2001B
:1024A00030E0FC01CF016115710559F0283031058C
:1024B00040F481918093F100615071092F5F3F4F8B
:1024C000F1CF41E02830310509F040E02091E800EB
:1024D0002E772093E800CBCF4111CCCF0AC080915A
:1024E000ED01882361F0853061F08091E80083FD83
:1024F0000AC08091E80082FFF2CF80E0089582E078
:10250000089583E0089581E008956115710529F427
:102510002091E8002B772093E800FC0161157105FC
:1025200021F18091ED01882341F1853041F18091C5
:10253000E80083FD20C08091E80082FFEFCF80910A
:10254000F200882331F08091F1008193615071098C
:10255000B1F78091E8008B778093E800DFCF80911E
:10256000ED01882351F0853051F08091E80080FF23
:10257000F6CF80E0089581E0089582E0089583E039
:1025800008952091F4013091F5012617370748F09E
:102590006115710539F42091E8002E772093E80049
:1025A00001C0B901FC0120E06115710579F180914C
:1025B000ED01882309F43DC0853009F43CC08091C9
:1025C000E80083FD3AC08091E80082FD2CC0809134
:1025D000E80080FFE9CF8091F20090E0611571057D
:1025E00059F08830910540F424912093F100319600
:1025F000615071090196F2CF21E0089709F020E0BF
:102600008091E8008E778093E800CECF2111CFCF64
:102610000AC08091ED01882361F0853061F08091DE
:10262000E80083FD0AC08091E80082FFF2CF80E0DD
:10263000089582E0089583E0089581E00895982F39
:10264000953058F59093E900981739F07091EC00A7
:102650002091ED005091F00003C0242F762F50E020
:1026600021FF19C03091EB003E7F3093EB00309199
:10267000ED003D7F3093ED003091EB003160309301
:10268000EB007093EC002093ED005093F00020914C
:10269000EE0027FF07C09F5FD3CF8F708093E900C4
:1026A00081E0089580E00895EF92FF920F931F93C9
:1026B000CF93DF93E62EEC018C010C5F1F4FF12CC2
:1026C000FE1499F19881992359F1F80120816981CB
:1026D0007A8131973081892F8F70853010F080E0BA
:1026E00025C0223010F442E001C046E0E8E0F0E00E
:1026F00020E0E617F70720F42F5FEE0FFF1FF9CF5A
:102700002295207F422B232F2295220F220F207CFF
:10271000991F9927991F622F692B91DF8823F9F25E
:10272000F39425960B5F1F4FCBCF81E0DF91CF91C4
:102730001F910F91FF90EF9008958091EE0187FF18
:1027400011C08091E80082FD05C08091ED018111EA
:10275000F8CF11C08091E8008B770BC08091ED011C
:10276000882349F08091E80080FFF8CF8091E8004D
:102770008E778093E80008952091E4003091E50081
:1027800095E64091EC00842F817040FF22C080913B
:10279000E80080FD1CC08091ED01882391F0853018
:1027A00091F08091EB0085FD10C04091E4005091C4
:1027B000E5004217530729F39A01915011F784E07D
:1027C000089582E0089583E0089581E0089580E00F
:1027D00008954091E80042FFDECF089554D056D0CE
:1027E000E0EEF0E0808181608083E8EDF0E08081C0
:1027F0008F77808319BCE3E6F0E08081816080837D
:102800001092EC0108953FD041D08091D8008F778D
:102810008093D8008091D80080688093D800809100
:10282000D8008F7D8093D80084E089BD86E089BD83
:1028300009B400FEFDCF1092ED011092EA01109252
:10284000EB0142E060E080E0FADE8091E1008E7F03
:102850008093E1008091E20081608093E2008091AA
:10286000E20088608093E2008091E0008E7F809398
:10287000E0000895E3E6F0E080818E7F808381E0D0
:102880008093EC01C0CF1092E20008951092E10015
:1028900008951F920F920FB60F9211242F933F931A
:1028A0004F935F936F937F938F939F93AF93BF9358
:1028B000EF93FF938091E10082FF0AC08091E200D4
:1028C00082FF06C08091E1008B7F8093E10070DC85
:1028D0008091E10080FF17C08091E20080FF13C06B
:1028E0008091E2008E7F8093E2008091E20080611F
:1028F0008093E2008091D80080628093D80019BC58
:102900001092ED012FDC8091E10084FF2FC08091B7
:10291000E20084FF2BC084E089BD86E089BD09B454
:1029200000FEFDCF8091D8008F7D8093D8008091EC
:10293000E1008F7E8093E1008091E2008F7E8093A2
:10294000E2008091E20081608093E2008091EA01E0
:10295000882311F084E007C08091E30087FD02C066
:1029600081E001C083E08093ED01FADB8091E1001A
:1029700083FF22C08091E20083FF1EC08091E100AE
:10298000877F8093E10082E08093ED011092EA015D
:102990008091E1008E7F8093E1008091E2008E7F44
:1029A0008093E2008091E20080618093E20042E047
:1029B00060E080E044DE17DCFF91EF91BF91AF91C2
:1029C0009F918F917F916F915F914F913F912F9147
:1029D0000F900FBE0F901F9018951F93CF93DF930A
:1029E000CDB7DEB7AA970FB6F894DEBF0FBECDBF46
:1029F000EEEEF1E088E08E0F9091F10091938E134E
:102A0000FBCFCBDB8091E80083FF18C18091EE0102
:102A10009091EF01492F50E04A30510508F00EC166
:102A2000FA01E65CFF4FBCC3803881F0823809F0C0
:102A300005C18091F2018F708093E9008091EB00D5
:102A400085FB882780F91092E90007C08091EB018F
:102A5000882311F082E001C080E09091E800977F28
:102A60009093E8008093F1001092F100C4C0282FE9
:102A70002D7F09F0E3C0882319F0823061F0DEC0B9
:102A80008091F001813009F0D9C0933009F080E0E5
:102A90008093EB012BC08091F001811127C08091C0
:102AA000F2018F7009F4CAC08093E9002091EB0015
:102AB00020FF1CC0933021F48091EB00806214C091
:102AC0009091EB0090619093EB0021E030E0A90140
:102AD00002C0440F551F8A95E2F74093EA00109216
:102AE000EA008091EB0088608093EB001092E9008F
:102AF0008091E800877F82C08111A0C01091F00111
:102B00001F778091E3008078812B8093E300809190
:102B1000E800877F8093E80010DE8091E80080FF66
:102B2000FCCF8091E30080688093E300111102C024
:102B300082E001C083E08093ED0180C08058823044
:102B400008F07CC08091F0019091F1018C3D53E040
:102B5000950771F583E08A838AE289834FB7F894F9
:102B6000DE01139620E03EE051E2E32FF0E05093C7
:102B70005700E49120FF03C0E295EF703F5FEF70D4
:102B80008E2F90E0EA3010F0C79601C0C0968D936A
:102B90009D932F5F243149F74FBF8091E800877FD5
:102BA0008093E8006AE270E0CE0101964EDC12C02C
:102BB000AE014F5F5F4F6091F20183DABC01892B58
:102BC00009F43CC09091E800977F9093E8008981D8
:102BD0009A81D7DC8091E8008B778093E8002EC043
:102BE000803861F58091E800877F8093E8008091CC
:102BF000EA018093F1008091E8008E778093E800ED
:102C00009CDD1CC081111AC09091F0019230B0F48B
:102C10008091E800877F8093E8009093EA018DDD42
:102C20008091EA01811106C08091E30087FD02C016
:102C300081E001C084E08093ED0195DA8091E800A5
:102C400083FF0AC08091E800877F8093E80080912D
:102C5000EB0080628093EB00AA960FB6F894DEBF7B
:102C60000FBECDBFDF91CF911F910895CF9380917B
:102C7000ED01882399F0C091E900CF709091EC00AC
:102C8000892F817090FD80E8C82B1092E900809117
:102C9000E80083FDA2DECF70C093E900CF910895D4
:102CA0006F927F928F929F92AF92BF92CF92DF925C
:102CB000EF92FF920F931F93CF93DF9300D01F9259
:102CC000CDB7DEB77C01CDB6DEB68091E80083FFDC
:102CD00008C1F701808190E02091F2013091F30169
:102CE0002817390709F0FDC08091EF01833009F4FE
:102CF0009FC030F4813071F0823009F4D6C0F1C049
:102D00008A3009F4BAC08B3009F4A3C0893009F0C5
:102D1000E8C051C08091EE01813A09F0E2C08DB661
:102D20009EB61A8219828091F0011091F1018B8375
:102D3000F7018085482F50E08DB79EB7841B950B17
:102D40000FB6F8949EBF0FBE8DBFEDB7FEB731969C
:102D50005F0160E070E0CF013FD24FEF410F8E0185
:102D60000F5F1F4F9501BE016D5F7F4FC7013DDAB9
:102D7000F70186819781009721F0408550E0B501E9
:102D800022D21092E9008091E800877F8093E800CA
:102D90008B8181118093F10069817A81C50155DBB6
:102DA0008091E8008B778093E8000FB6F8949EBE80
:102DB0000FBE8DBE96C08091EE01813209F091C0A8
:102DC000ADB6BEB60091F4011091F5017090F0011E
:102DD0006090F1018DB79EB7801B910B0FB6F894F0
:102DE0009EBF0FBE8DBFEDB7FEB731964F018091EC
:102DF000E800877F8093E800B801CF0186DB8091EF
:102E0000E8008E778093E80021E0711001C020E097
:102E100030E0021B130B280D391D4FEF460D672DB7
:102E2000C70118DA0FB6F894BEBE0FBEADBE59C0CA
:102E30008091EE01813A09F054C08091E800877FCB
:102E40008093E8008091E80080FFFCCFF701818546
:102E500040C08091EE01813209F043C08091E800CA
:102E6000877F8093E80069DC9091F00181E0911107
:102E700001C080E0F701818734C08091EE0181328A
:102E800081F58091E800877F8093E80056DC80918F
:102E9000F0019091F101882736E0969587953A9553
:102EA000E1F7F701958784871CC08091EE01813A94
:102EB000C1F48091E800877F8093E8008091E8006A
:102EC00080FFFCCFF701848595859695879596952B
:102ED00087958093F1008091E8008E778093E800D9
:102EE0002CDC0FB6F894DEBE0FBECDBE0F900F9057
:102EF0000F90DF91CF911F910F91FF90EF90DF9096
:102F0000CF90BF90AF909F908F907F906F900895DB
:102F1000FC01399627E0DF011D922A95E9F721E0AF
:102F2000FC01218724EF31E03587248723E02483C7
:102F300061E00196B9CB4F925F926F927F928F9230
:102F40009F92AF92BF92CF92DF92EF92FF920F9338
:102F50001F93CF93DF9300D01F92CDB7DEB77C01D4
:102F6000ADB6BEB68091ED01843009F08DC0809180
:102F7000E4009091E500F701228533852817390791
:102F800009F482C081818F708093E9008091E8000C
:102F900085FF7AC08DB69EB6408550E08DB79EB74E
:102FA000841B950B0FB6F8949EBF0FBE8DBFEDB777
:102FB000FEB731966F011B821A82198260E070E0C1
:102FC000CF010AD18E010F5F1F4F960140E0BE0175
:102FD0006D5F7F4FC70109D9482EF701848595851C
:102FE000892B51F091E080E026853785232B09F06D
:102FF00090E0092F182F02C000E010E0F701668072
:1030000077806114710489F049815A81B301C60146
:10301000CDD055245394892B09F4512CF7014085C8
:1030200050E0B601C301CFD001C0512C89819A81F3
:10303000892BF1F0411004C0511002C0012BC1F0E6
:10304000F701848595859787868781818F70809326
:10305000E9008B8181118093F10069817A8140E0E0
:1030600050E0C601A8D98091E8008E778093E800EF
:103070008091E4009091E500F701938782870FB675
:10308000F8949EBE0FBE8DBE0FB6F894BEBE0FBEA6
:10309000ADBE0F900F900F90DF91CF911F910F91C8
:1030A000FF90EF90DF90CF90BF90AF909F908F9068
:1030B0007F906F905F904F90089508950E94860DC5
:1030C0000E94E5060E941C0F0E94A40D0E943A0C6B
:1030D0000E9442080E94180F0E94A1050E944F0FF3
:1030E0000E94AC0F33D90E94500F0E9489060E94A3
:1030F000F30DC0CB0E94B80F80916E018823E1F3DD
:103100000C94D50F6BDBF8942FEF87EA91E62150F2
:1031100080409040E1F700C0000080916E01823055
:1031200011F40E94870D80916E01882359F09CE074
:1031300088E10FB6F894A895809360000FBE909335
:103140006000FFCF0895B9DFB9DFD4DFDBDF80E0B7
:1031500090E00895002480FD060E660F11F086951C
:10316000D1F7802D08950024552704C0080E591F5B
:10317000880F991F009729F076956795B8F3710528
:10318000B9F7802D952F0895991B79E004C0991FF8
:10319000961708F0961B881F7A95C9F780950895B1
:1031A000EE0FFF1F0590F491E02D0994FB01DC0167
:1031B00004C08D910190801921F441505040C8F70E
:1031C000881B990B0895FB01DC0102C001900D9250
:1031D00041505040D8F70895DC0101C06D93415033
:0A31E0005040E0F70895F894FFCF87
:1031EA000182020000013401020000000000000018
:1031FA0000811200000136011200000000000000E8
:10320A002400250023002700280026002A002B007E
:02321A00290089
:00000001FF
