:100000000C9472170C94B5170C94B5170C94B51783
:100010000C94B5170C94B5170C94B5170C94B51730
:100020000C94B5170C94B5170C9409330C94B517B0
:100030000C943F280C94B5170C94B5170C94B51775
:100040000C94B5170C94482E0C94B5170C94B51756
:100050000C94B5170C94B5170C94B5170C94B517F0
:100060000C94B5170C94B5170C94B5170C94B517E0
:100070000C94B5170C94B5170C94B5170C94B517D0
:100080000C94B5170C94B5170C94B5170C94B517C0
:100090000C94B5170C94B5170C94B5170C94B517B0
:1000A0000C94B5170C94B5170C94B5173A1FF21AA7
:1000B000F81A161B1C1BB01CB61CD21BD81BDF1C4D
:1000C000011D1B1D351D4A1DA01DDE1DF41E191F1F
:1000D000FB1D171E361E5B1E741E991EB91ED21EF6
:1000E000F3331634FD341634FD345B347D34FD3483
:1000F000CF34E134000000000000000000000000E8
:10010000000000002A002B0028000000000028004A
:1001100000000000000000000000000000000000DF
:1001200000000000000000000000290000000000A6
:10013000000000002C001E023402200221022202D4
:10014000240234002602270225022E0236002D004A
:100150003700380027001E001F0020002100220069
:1001600023002400250026003302330036022E002F
:10017000370238021F0204020502060207020802C3
:1001800009020A020B020C020D020E020F021002FB
:1001900011021202130214021502160217021802AB
:1001A00019021A021B021C021D022F00310030002E
:1001B00023022D0235000400050006000700080098
:1001C00009000A000B000C000D000E000F001000CB
:1001D000110012001300140015001600170018007B
:1001E00019001A001B001C001D002F0231023002F2
:1001F00035024C004000000000000000000000003C
:1002000000000000000000000000000000000000EE
:1002100000000000000000000000000000000000DE
:1002200000000000000000000000000000000000CE
:1002300000000000000000000000000000000000BE
:10210000FF00FF00FF00FF00FF00000000000000D4
:1021100000000000000000000000000000000000BF
:1021200000000000000000000000000000000000AF
:1021300000000000000000000000080C000000008B
:10214000000000000000000000000000000000008F
:10215000000000000000000000000000000000007F
:10216000000000000000000000000000000000006F
:10217000000000000000000000000000000000005F
:10218000000000000000000000000000000000004F
:10219000000000000000000000000000000000003F
:1021A000000000000000000000000000000000002F
:1021B000000000000000000000000000000000001F
:1021C000000000000000000000000000000000000F
:1021D00000000000000000000000000000000000FF
:1021E00000000000000000000000000001010101EB
:1021F00014000000000000000000000000000000CB
:1022000000000000000000000000000000000000CE
:1022100000000000000000000000010101011400A6
:1022200000000000000000000000000000000000AE
:10223000000000000000000000000000000000009E
:102240000000000000000000010101011400000076
:10225000000000000000000000000000000000007E
:10226000000000000000000000000000000000006E
:10227000000000000000010101011450304C2AFE52
:10228000270000522A2F2D942AFE2750305B2AFE69
:10229000270000672A4C19D91AFE274F7574206F42
:1022A000662072616E67652E0A00456E7465722045
:1022B0006E65772064656661756C742064696D6D08
:1022C0006572206C6576656C2028312D3136293E8B
:1022D0002000456E746572206E65772064656661C6
:1022E000756C74206261636B6C6967687420656EDD
:1022F00061626C652028312D3136293E2000456E03
:10230000746572206E6577206D61747269782073D0
:1023100065747570207761697420696E20637963D4
:102320006C65732028312D323535293E2000456EED
:10233000746572206E6577207265706561742074B3
:10234000696D6520696E206D732028312D3939291A
:102350003E2000456E746572206E657720686F6C54
:10236000642074696D6520696E206D732028312D9D
:10237000393939293E2000456E746572206E6577C3
:10238000206D6F757365206D6F76656D656E742059
:102390006D756C7469706C6965722028312D3939DE
:1023A000293E2000456E746572206E65772062615B
:1023B0007365206D6F757365206D6F76656D656EE5
:1023C000742028312D3939293E2000456E746572FC
:1023D000206E657720646F75626C6574617020642F
:1023E000656C61792074696D6520696E206D73205C
:1023F00028312D393939293E2000456E7465722007
:102400006E6577207461702074696D6520696E2037
:102410006D732028312D393939293E2000456E74DD
:102420006572206E6577206465626F756E636520E6
:1024300074696D6520696E206D732028312D3939DE
:10244000293E20005365743A00456E746572206E13
:1024500065772064656661756C74206C617965725E
:102460002028302D39293E200042797465732028B8
:10247000686578293E200041646472657373202882
:10248000686578293E200020532D3078005D204378
:102490002D3078000A5B004E756D206C6F636B20E9
:1024A0006973206C696E6B656420746F2074686555
:1024B0002073797374656D206E756D206C6F636B1E
:1024C0002E0A004E756D206C6F636B2077696C6C03
:1024D0002066756E6374696F6E20696E64657065E1
:1024E0006E64656E746C79206F6620746865207305
:1024F000797374656D206E756D206C6F636B2E0A39
:10250000004B6579626F617264206163747320614E
:102510007320657874656E646564204E4B524F205D
:102520006B6579626F6172642077697468206D6F82
:1025300075736520616E64206D65646961206B65EB
:1025400079732E0A004B6579626F61726420616352
:10255000747320617320364B524F206B6579626F24
:1025600061726420706C7573206D6F757365206186
:102570006E64206D65646961206B6579732E0A0055
:102580004B6579626F617264206973206C696D6953
:1025900074656420746F207374616E64617264206A
:1025A000364B524F20626F6F742D636F6D70617484
:1025B00069626C65206B6579626F6172642E0A00D6
:1025C0005363726F6C6C206C6F636B2077696C6CFB
:1025D000206E6F74206166666563742077696E2073
:1025E0006C6F636B2E0A0057696E646F7773206B94
:1025F00065792077696C6C2062652064697361621B
:102600006C6564207768656E207363726F6C6C20F4
:102610006C6F636B20697320656E61626C65642EFC
:102620000A004E756D206C6F636B2077696C6C20AF
:102630006E6F7420616666656374206E756D626589
:102640007220726F772E0A004E756D62657220726D
:102650006F772077696C6C2062652073776170708A
:10266000656420666F72206E756D706164206B65A5
:102670007973207768656E206E756D206C6F636B63
:1026800020697320656E61626C65642E0A00496E74
:10269000707574206E6F74207265636F676E697AEF
:1026A00065642E0A000A54696D696E67204D656E77
:1026B000753A0A312920536574206465626F756E1E
:1026C00063652074696D650A322920536574206D35
:1026D000617820686F6C642074696D6520666F7224
:1026E000207461700A332920536574206D6178204D
:1026F00064656C61792074696D6520666F72206411
:102700006F75626C65207461700A3429205365749A
:102710002062617365206D6F757365206D6F7665DE
:102720006D656E740A352920536574206D6F75735D
:1027300065206D6F76656D656E74206D756C74695E
:10274000706C6965720A362920536574206D696E54
:1027500020686F6C642074696D6520666F722072EA
:1027600065706561740A372920536574207265703D
:1027700065617420706572696F640A382920536539
:1027800074206D6174726978207365747570207738
:102790006169740A3929204261636B0A3E20000A8C
:1027A000436F6E666967204D656E753A0A31292060
:1027B000546F67676C65207669727475616C206E02
:1027C000756D207061640A322920546F67676C65EB
:1027D0002077696E206C6F636B206F6E207363725D
:1027E0006F6C6C206C6F636B0A3329205365742007
:1027F00064656661756C74206C617965720A342950
:1028000020546F67676C65206261736963206B6534
:1028100079626F6172640A352920546F67676C654D
:1028200020756E6C696E6B206E756D206C6F636BBE
:102830000A3629205365742064656661756C7420BE
:1028400064696D6D6572206C6576656C0A37292048
:102850005365742064656661756C74206261636B96
:102860006C6967687420656E61626C650A3929203D
:102870004261636B0A3E20000A4465627567204D21
:10288000656E753A0A3129205072696E742065763A
:10289000656E74730A322920436C65617220657617
:1028A000656E74730A3329204578616D696E652001
:1028B0006D656D6F72790A3429205072696E742FBC
:1028C000636C65617220636C6F636B2D696E730A54
:1028D0003929204261636B0A3E20000A4D61696E0E
:1028E000204D656E753A0A312920436F6E6669671F
:1028F000206D656E750A32292054696D696E6720F6
:102900006D656E750A3329204465627567206D65B3
:102910006E750A34292052657365740A392920516D
:102920007569740A3E20001E4D1F51204E21502211
:1029300000234F244A2552264B2749374CE200E911
:1029400000EA00E500B500B600B700CD002402257E
:102950000283018A019201940121022302C101C272
:1029600002C304C408C510E001E102E204E308E484
:1029700010E520E640E7800105080A0C0F1014144A
:1029800018180038BB040001C4040101C804020186
:10299000B9040301BF040401C7040501C904060109
:1029A000BC040701B6040801C1040902BD040B02FE
:1029B000BA040D01C0040E01C5040F02B8041101D0
:1029C000C304120161416242634364446545664643
:1029D0006747684869496A4A6B4B6C4C6D4D6E4E4F
:1029E0006F4F7050715172527353745475557656BF
:1029F0007757785879597A5A312132403323342421
:102A00003525365E3726382A39283029000000005F
:102A10000000000020202D5F3D2B5B7B5D7D5C7CFA
:102A2000237E3B3A2722607E2C3C2E3E2F3F000027
:102A30000000000000000000000000000000000096
:102A40000000000000000000000000000000000086
:102A50000000000000000000000000000000000076
:102A6000000000002F2F2A2A2D2D2B2B00003100D3
:102A700032003300340035003600370038003900AA
:102A800030002E005C7C0000000000000000000010
:102A90000000000000000000000000000000000036
:102AA000000000006162636465666768696A6B6C58
:102AB0006D6E6F707172737475767778797A414242
:102AC000434445464748494A4B4C4D4E4F5051525E
:102AD000535455565758595A3031323334353637A6
:102AE00038392122232425262728292A2B2C2D2E4C
:102AF0002F3A3B3C3D3E3F405B5C5D5E5F607B7CD4
:102B00007D7E00800000000000000000000000004A
:102B100000000000000000000000000000000000B5
:102B200000000000000000000000000000000000A5
:102B30000000000000000000000000000000000095
:102B40000000000000000000000000000000000085
:102B50000000000000000000000000000000000075
:102B60000000000000000000000000000000000065
:102B70000000000000000000000000000000000055
:102B80000000000000000000000000000000000045
:102B90000000000000000000000000000000000035
:102BA0000000000000000000000000000000000025
:102BB0000000000000000000000000000000000015
:102BC0000000000000000000000000000000000005
:102BD00000000000000000000000000000000000F5
:102BE00000000000000000000000000000000000E5
:102BF00000000000000000000000000000000000D5
:102C000000000000000000000000000000000000C4
:102C100000000000000000000000000000000000B4
:102C200000000000000000000000000000000000A4
:102C30000000000000000000000000000000000094
:102C40000000000000000000000000000000000084
:102C50000000000000000000000000000000000074
:102C60000000000000000000000000000000000064
:102C70000000000000000000000000000000000054
:102C80000000000000000000000000000000000044
:102C90000000000000000000000000000000000034
:102CA0000000000000000000000000000000000024
:102CB0000000000000000000000000000000000014
:102CC0000000000000000000000000000000000004
:102CD00000000000000000000000000000000000F4
:102CE00000000000004A03450061007300790041C4
:102CF000005600520020004D0075006C0074006901
:102D0000006D00650064006900610020004B0065F3
:102D100000790062006F006100720064002000769C
:102D20000023002E00230023002E00230023000098
:102D3000000403090409022200010100A032090471
:102D4000000001030101000921B0010001223F0040
:102D50000705810308000109025400030100A032A5
:102D60000904000001030101000921B00100012252
:102D70003F00070581030800010904010001030168
:102D800002000921B0010001223A00070582030375
:102D900000050904020001030000000921B0010040
:102DA00001221B00070583030200080902540003E7
:102DB0000100A0320904000001030101000921B053
:102DC000010001223F0007058103120001090401EF
:102DD0000001030102000921B0010001223A0007AD
:102DE0000582030300050904020001030000000935
:102DF00021B0010001221B00070583030200081215
:102E000001000200000008EB03FF20100000010099
:102E100001050C0901A101050C160100269C021AEE
:102E200001002A9C02751095018100C0050109026C
:102E3000A1010901A10005091901290315002501B6
:102E40009503750181029501750581010501093020
:102E500009311681FF267F003600004600009502EA
:102E600075088106C0C005010906A101050719E022
:102E700029E715002501750195088102950175085E
:102E80008101050819012905950575019102950132
:102E9000750391011500250105071900297F95800B
:102EA00075018102C005010906A101050719E02984
:102EB000E7150025017501950881029501750881C6
:102EC00001050819012905950575019102950175FE
:102ED000039101150025FF0507190029FF950675C7
:102EE000088100C011241FBECFEFDAE0DEBFCDBFE6
:102EF00084B714BE0FB6F894A895909160009861BD
:102F000090936000109260000FBE83FF11C080910B
:102F1000FD049091FE048D3A9E4D51F41092FE04F2
:102F20001092FD04E2E8F9E225913491F901099546
:102F300085B7806885BF85B7806885BF11E0A0E050
:102F4000B1E0E0E3F0E702C005900D92AE34B107C6
:102F5000D9F724E0AEE4B1E001C01D92AD3FB20765
:102F6000E1F70E9482370C9416380C9400001092FE
:102F700072011092710110926D0110926C01109209
:102F80007C0110927B01089590916E0180917901EE
:102F90009923A1F181113BC08091700181112AC058
:102FA00080918D01811121C0E0916701E91305C075
:102FB00010926E01109267012AC081E08E0F8093FB
:102FC0006701F0E0EE0FFF1FE358FE4F8081918113
:102FD000813019F4909370011AC090936801809326
:102FE0008D018823A1F0CFD712C00E94F81F109244
:102FF0008D010DC081508093700109C0811107C0FF
:103000001092680180916F018D7F80936F01809194
:103010007901811103C081E0809379010895809145
:10302000AA0290916901981731F180936901882370
:1030300011F1883211F0883531F480916F018B7F66
:1030400080936F010895E0916B018A3251F4EE2371
:1030500091F0E150E0936B01F0E0ED58FE4F1082EB
:103060000895E63040F4AE2FB0E0AD58BE4F8C93DB
:10307000EF5FE0936B0108958091AA02811102C075
:1030800010926F010895BC0180916E01DB01982FB1
:10309000292F281B983058F090936E01620F711DF4
:1030A00027FD7A9570937C0160937B0122C0FD011E
:1030B00025913491211109C090936E0110927C01E9
:1030C00010927B019923D1F014C0492F50E0F901EF
:1030D000FF27EE0FFF1FEC50FF4F25913491440F57
:1030E000551FFA01E358FE4F318320839F5F1196ED
:1030F000CFCF80916F01836080936F0181E008954D
:1031000040916E0128E030E0241B31092617370773
:1031100058F1B0E04B2F0B2E000C550B46175707FC
:10312000D8F4A0916E012A2F30E0FC01E40FF51FC6
:10313000E081F0E0EE0FFF1FEC50FF4F45915491FE
:10314000220F331FF901E358FE4F51834083AF5FD5
:10315000A0936E01BF5FDECF672B41F080916F01BE
:10316000836080936F0102C080E0089581E008953C
:1031700090916E01983090F4E92FF0E0EE0FFF1F70
:10318000E358FE4F808361839F5F90936E0180912F
:103190006F01836080936F0181E0089580E008955E
:1031A0009C0190916E0191112EC0A901983049F4B3
:1031B00090936E01205F3F4F309372012093710115
:1031C0001BC0FA01659174914E5F5F4F61157105E7
:1031D00049F490936E01109272011092710199233B
:1031E00081F00AC0E92FF0E0EE0FFF1FE358FE4F19
:1031F000718360839F5FDACF80916F0183608093DA
:103200006F0181E0089580E00895AC0180916E0126
:1032100081113EC060937A01282F082E000C330BD9
:103220002617370758F590916E01220F331F9830FB
:1032300038F0240F351F30936D0120936C011EC0B0
:10324000FA01E20FF31F20813181E92FF0E0EE0F48
:10325000FF1FE358FE4F318320839F5F90936E01E1
:1032600090917A01915090937A01911105C010923A
:103270006D0110926C0102C08F5FCECF80916E0104
:10328000882341F080916F01836080936F0102C0B9
:1032900080E0089581E0089590916F0191FD74CED2
:1032A00020917101309172012115310511F0C90190
:1032B00077CF20916C0130916D012115310539F0E6
:1032C00060917A01062E000C770BC9019ECF2091E8
:1032D0007B0130917C012115310511F0C901D3CE5C
:1032E00092FD9DCEC9CEE3E7F1E0108211821282F9
:1032F00013821482158210926B018091AA0280932E
:10330000690180916F01856080936F010895E82FB6
:10331000F0E0EE0FFF1FEC50FF4F85919491089560
:10332000CF92DF92EF92FF920F931F93CF93DF9391
:10333000CDB7DEB7EDB6FEB6E4EFF1E01491E5EF00
:10334000F1E0E4916E2F70E08DB79EB7F3E0EF9F50
:103350008019910911240FB6F8949EBF0FBE8DBF3E
:1033600001966C0126EF31E0ADB7BEB7139640E091
:1033700050E046175707B4F4F90131960491CD0196
:103380000197FC010083F9018491FD01329780834C
:10339000F9013296E491EC934F5F5F4F2D5F3F4F01
:1033A0001396E7CF412FC6010E943428412F61E0D8
:1033B00070E0C6010E9434280FB6F894FEBE0FBE1E
:1033C000EDBEDF91CF911F910F91FF90EF90DF90B5
:1033D000CF90089508959091C401903178F4E92F29
:1033E000F0E09F01220F331FE20FF31FE157FE4F62
:1033F0008083728361839F5F9093C401089541111C
:103400001BC04091C40150E090E0292F092E000C10
:10341000330B2417350784F4F901EE0FFF1F2E0F2D
:103420003F1FF901E157FE4F2081281303C072832B
:10343000618308959F5FE9CFCECF8A3010F4805D1D
:103440000895895C08951F93CF93DF93182FEB01A4
:1034500082958F70F2DF8883812F8F70EEDF8983F2
:10346000DF91CF911F9108951F93CF93DF93182F72
:10347000EB01892FE8DFBE016E5F7F4F812FDF9167
:10348000CF911F91E0CF8F929F92AF92BF92CF9238
:10349000DF92EF92FF920F931F93CF93DF931F92D0
:1034A000CDB7DEB79C018B0180E3FB01808380E216
:1034B0008183828383E0E82EF12C94E6892E912C7F
:1034C0004AE0B42E682D70E0911003C0261737072C
:1034D00090F06801C90CD11C97FCDA94C9010E94D4
:1034E0009537A82E862F9983A8DFF60180832A2D91
:1034F0009981392F9394882D6B2D0E948937882EBE
:10350000F1E0EF1AF108F1F60F90DF91CF911F91E2
:103510000F91FF90EF90DF90CF90BF90AF909F9072
:103520008F90089597EA980F993010F48855089570
:1035300092EE980F993010F48D5108959CEF980FEA
:10354000963010F48A5F089580E00895BF92CF927C
:10355000DF92EF92FF920F931F93CF93DF937C0143
:103560008B0180E090E0B12CC42FD0E02B2D0B2CF0
:10357000000C330B2017310790F48C9F60018D9F56
:10358000D00C9C9FD00C1124F701E20FF31F808117
:10359000C9DF9601280F311DC901B394E7CFDF9130
:1035A000CF911F910F91FF90EF90DF90CF90BF9040
:1035B00008950F931F93CF93DF9300D000D0CDB722
:1035C000DEB780916F01811155C4E0918E018E2F7D
:1035D00090E08A31910508F04BC4FC01EA5AFF4F94
:1035E0000C94BC378BED98E24EDD7DDE82E011C09D
:1035F00011E010938E018091730194DF893009F4FA
:1036000037C4843019F41093C50134C4813021F4D7
:1036100083E080938E012EC4823011F487E0F9CFCD
:10362000833009F4D9C18EE896E220C08FE997E291
:103630002ADD59DE84E0EDCF13E010938E018091F6
:10364000730170DF893011F481E0E3CF813099F4A8
:103650009091C80489278093C80482E00E94702B4F
:103660008091C804882321F088E496E20CDD02C42E
:1036700082E296E2FBCF823099F49091C40481E01B
:1036800089278093C40481E00E94702B8091C40438
:10369000882319F087EE95E2E9CF80EC95E2E6CF3A
:1036A0008330B1F484E494E2EEDCBE016F5F7F4FBF
:1036B0008091B904C8DE8AE08B8363E070E0CE01BC
:1036C00001961EDD89E494E2DEDC0DDE8FE0A1CF01
:1036D0008430F9F48091C704811109C081E080939E
:1036E000C70485E00E94702B85E495E2BFCF81304E
:1036F00041F41093C70485E00E94702B80E895E2A6
:10370000B5CF1092C70485E00E94702B81E095E24E
:10371000ADCF853099F49091BC0481E089278093E6
:10372000BC0487E00E94702B8091BC04882319F0B0
:1037300083EC94E29BCF87E994E298CF8630B9F48A
:1037400084E494E2A0DC8091BF04BE016F5F7F4FF0
:1037500090E099DE8AE08B8363E070E0CE01019611
:10376000CFDC8AEA92E28FDCBEDD80E152CF873087
:1037700009F059CF84E494E286DC8091B60490E0AD
:10378000BE016F5F7F4F01967EDE8AE08B8363E030
:1037900070E0CE010196B4DC82ED92E274DCA3DD30
:1037A00081E137CF85EA96E26EDC9DDD88E031CF9E
:1037B00087E080938E0180917301B4DE893009F433
:1037C00043CF8130B9F484E494E25DDC8091C90494
:1037D000BE016F5F7F4F90E056DE8AE08B8363E02F
:1037E00070E0CE0101968CDC8DE194E24CDC7BDD57
:1037F00082E10FCF8230C1F484E494E244DCBE0164
:103800006F5F7F4F8091C1049091C2043CDE8AE0DB
:103810008C8364E070E0CE01019672DC8AEF93E263
:1038200032DC61DD83E1F5CE8330D9F484E494E2C7
:103830002ADC8091BD049091BE04BE016F5F7F4F72
:103840009195819591091FDE8AE08C8364E070E098
:10385000CE01019655DC8BEC93E215DC44DD84E16E
:10386000D8CE8430B9F484E494E20DDC8091BA04BB
:10387000BE016F5F7F4F90E006DE8AE08B8363E0DE
:1038800070E0CE0101963CDC84EA93E2FCDB2BDDA8
:1038900085E1BFCE8530B9F484E494E2F4DB809115
:1038A000C004BE016F5F7F4F90E0EDDD8AE08B8347
:1038B00063E070E0CE01019623DC87E793E2E3DB6F
:1038C00012DD86E1A6CE8630C1F484E494E2DBDB2F
:1038D000BE016F5F7F4F8091C5049091C604D3DD18
:1038E0008AE08C8364E070E0CE01019609DC83E518
:1038F00093E2C9DBF8DC87E18CCE8730B9F484E44D
:1039000094E2C1DB8091B804BE016F5F7F4F90E00D
:10391000BADD8AE08B8363E070E0CE010196F0DBD4
:103920008EE293E2B0DBDFDC88E173CE883009F011
:10393000A1C284E494E2A7DB8091C304BE016F5F5F
:103940007F4F90E0A0DD8AE08C8364E070E0CE01E0
:103950000196D6DB8EEF92E296DBC5DC89E159CE8B
:1039600088E798E290DBBFDC86E053CE85E0809369
:103970008E0180917301D6DD893009F465CE8130E6
:1039800011F489E046CE823069F4EFE8F1E010826C
:1039900012821182339641E0EF3BF407C1F7109297
:1039A000C40168C2833031F487E794E26CDB9BDCAE
:1039B0008CE02FCE843009F036CE8EE02ACE809176
:1039C000C301803158F01092C3018AE0898361E01D
:1039D00070E0CE01019694DB85E01BCE84E994E291
:1039E00052DBBE016F5F7F4F8091C3012CDD62E02F
:1039F00070E0CE01019684DB8DE894E244DB8AE03E
:103A000008CE8091C30190E0FC01EE0FFF1F8E0FE6
:103A10009F1FFC01E157FE4FBE016F5F7F4F80810A
:103A200012DD62E070E0CE0101966ADB87E894E285
:103A30002ADB8BE0EECD8091C30190E0FC01EE0F1C
:103A4000FF1F8E0F9F1FFC01E157FE4FBE016F5FEE
:103A50007F4F8181928108DD64E070E0CE010196A4
:103A60004FDB89E080938E01A3C060916B0170E011
:103A700040E183E791E06ADD9093C0018093BF014C
:103A80001092C2011092C10189E694E2FCDA2BDCAB
:103A90008DE0BFCD8091C1019091C201892B89F445
:103AA0000091BF011091C00160916B0170E040E195
:103AB00083E791E04BDD800F911F9093C2018093CB
:103AC000C10110E20AE0E091BF01F091C0018091D4
:103AD000C1019091C201E817F907D8F4BE016F5FE8
:103AE0007F4F8081B0DC8091C1019091C20101972C
:103AF0002091BF013091C0012817390711F40B83C1
:103B000001C01B8363E070E0CE010196F9DA8111F8
:103B10000DC02091BF013091C0018091C1019091F1
:103B2000C2012817390708F057CFA4C18091BF01FF
:103B30009091C00101969093C0018093BF01C3CFC3
:103B40008091C301803178F01092C3018AE08983AB
:103B500061E070E0CE010196D3DA85E080938E01BA
:103B60000E946B2E87C1182F1370082F069506959B
:103B7000111102C08AE001C080E2898361E070E037
:103B8000CE010196BDDA84E0189FF0011124E00F08
:103B9000F11DEE0FFF1FE053FB4FBE016F5F7F4F24
:103BA0008081918161DC64E070E0CE010196A8DA49
:103BB0008091C3018F5F8093C3015CC160916B01F1
:103BC00070E04AE083E791E0C1DC8A30910578F447
:103BD0008093B90483E00E94702B84E494E253DA6A
:103BE000BE016F5F7F4F8091B9042DDC1AC18BE954
:103BF00092E249DA0DCD60916B0170E04AE083E713
:103C000091E0A4DC9C01215031092336310558F4A0
:103C10008093C90486E00E94702B84E494E233DA36
:103C20008091C90479C08BE992E22DDAF7CC6091DA
:103C30006B0170E04AE083E791E088DC9C01215051
:103C40003109273E334078F79093C2048093C10432
:103C500089E00E94702B84E494E215DABE016F5F64
:103C60007F4F8091C1049091C204B8C060916B01F4
:103C700070E04AE083E791E069DC9C012150310962
:103C8000273E334080F69195819591099093BE042B
:103C90008093BD048AE00E94702B84E494E2F3D9FF
:103CA0008091BD049091BE04BE016F5F7F4F9195DE
:103CB0008195910993C060916B0170E04AE083E7C0
:103CC00091E044DC9C01215031092336310508F094
:103CD000AACF8093BA048BE00E94702B84E494E214
:103CE000D2D98091BA0418C060916B0170E04AE0AB
:103CF00083E791E02BDC9C0121503109233631050B
:103D000008F091CF8093C0048CE00E94702B84E473
:103D100094E2B9D98091C004BE016F5F7F4F90E0FB
:103D2000B2DB8AE08B8363E070E0CE010196E8D9D4
:103D300075CC60916B0170E04AE083E791E006DCAE
:103D40009C0121503109273E334008F06CCF9093FD
:103D5000C6048093C5048DE00E94702B84E494E235
:103D600092D9BE016F5F7F4F8091C5049091C604C8
:103D700035C060916B0170E04AE083E791E0E6DBDB
:103D80009C01215031092336310508F04CCF809336
:103D9000B8048EE00E94702B84E494E274D9809180
:103DA000B804BACF60916B0170E04AE083E791E01C
:103DB000CDDB9C01215031092F3F310508F033CF75
:103DC0008093C3048FE00E94702B84E494E25BD95B
:103DD0008091C304BE016F5F7F4F90E054DB8AE0A7
:103DE0008C8364E070E0A1CF60916B0170E04AE0E9
:103DF00083E791E0ABDB9C01215031092031310593
:103E000008F0F5CE8093BF0484E00E94702B84E418
:103E100094E239D98091BF04BE016F5F7F4F90E07B
:103E200032DB8AE08B8363E070E0CE01019668D9D3
:103E3000EFCB60916B0170E04AE083E791E086DBB5
:103E40009C01215031092031310508F0D0CE81503C
:103E50008093B60488E00E94702B84E494E213D926
:103E60008091B60490E0BE016F5F7F4F0196D8CF7E
:103E700010928E010F900F900F900F90DF91CF91C5
:103E80001F910F91089526E0829FC0011124FC012B
:103E9000E05DFE4F0190F081E02D208181E090E017
:103EA00001C0880F6A95EAF7822B8083089526E087
:103EB000829FC0011124FC01E05DFE4F0190F08162
:103EC000E02D808160956823462B4083089526E08D
:103ED000829FC0011124FC01E05DFE4F0280F3814E
:103EE000E02D208181E090E001C0880F6A95EAF71B
:103EF000822B8083089526E0829FC0011124FC015B
:103F0000E05DFE4F0280F381E02D208181E090E0B2
:103F100001C0880F6A95EAF780958223808308950F
:103F200026E0829FC0011124FC01E05DFE4F02806B
:103F3000F381E02D80816823462B4083089526E09D
:103F4000829FC0011124FC01E05DFE4F0480F581D9
:103F5000E02D208181E090E001C0880F6A95EAF7AA
:103F6000922F982381E009F480E0089526E0829F53
:103F7000C0011124FC01E05DFE4F0480F581E02DBD
:103F8000808186230895E82FE695E695E695F0E092
:103F9000E356FD4F982F977021E030E001C0220FCB
:103FA0009A95EAF79081292B20839091970220E03F
:103FB00029175CF4E22F022E000CFF0BE655FD4F93
:103FC00030813817A1F02F5FF3CF96305CF4E92FE2
:103FD000092E000CFF0BE655FD4F80839F5F9093E9
:103FE000970208951092B00281E08093BE03089575
:103FF000E82FE695E695E695F0E0E356FD4F982F1D
:10400000977021E030E001C0220F9A95EAF72095E1
:10401000908129232083909197024AEA52E0FA0185
:104020002E2F241B291724F431913813F9CF01C006
:104030000895E22F022E000CFF0BE655FD4F818103
:1040400080832F5F2917ACF39150909397021092C1
:10405000BE030895E82FE695E695E695F0E0E35671
:10406000FD4F982F977021E030E001C0220F9A9504
:10407000EAF7908129272083909197024AEA52E03B
:10408000FA012E2F241B291724F431913813F9CF6C
:1040900013C096305CF4E92F092E000CFF0BE65597
:1040A000FD4F80839F5F9093970208951092B00216
:1040B00081E08093BE030895E22F022E000CFF0BD7
:1040C000E655FD4F818180832F5F2917ACF3915016
:1040D000909397021092BE030895909152039430EA
:1040E0005CF4E92F092E000CFF0BE856FD4F80838E
:1040F0009F5F90935203089540E060E070E082E497
:104100007ED910929C0208952091520348E952E012
:10411000FA019E2F941B92179CF431913813F9CF1A
:10412000921751F0E92F092E000CFF0BE856FD4FB6
:10413000818180839F5FF4CF9150909352030895C3
:10414000682F70E040E083E45AC98091B9048093FD
:10415000C103089591E1899F600D1124809192021D
:1041600068130DC08091BD049091BE04841795071B
:1041700034F48091C0038F5F8093C0030895109240
:1041800092021092C0030895E091C104F091C2041C
:104190004E175F0754F491E0F9019083F1E18F9F8E
:1041A000600D1124609392020895F901108210921B
:1041B00092021092C003089590917A01E92FEE0FB8
:1041C000FF0BEE54FD4F2091940230E0322F222756
:1041D000282B3183208381E0890F80937A018035F9
:1041E00034F01092BD0380936A0180E17DC508958B
:1041F0009091C203911111C0805D8E3070F4E82F50
:10420000F0E0EE0FFF1FE153F04F85919491880F7E
:10421000991F8153904F0C94D0180895CF93DF933A
:10422000C82FD62F5ADF8091C1039091B904891706
:1042300011F08B5F59D580E18C0F8093C10385E12C
:104240008C0F32D58FE030D58091C10390919302CD
:10425000D0FF02C0981308C0981308C08091C00313
:10426000811104C08091B90480939302DF91CF91B2
:104270000895E82FF0E0EA52FC4F8491882311F072
:1042800060E0CCCF08951F93CF93DF9300D01F92AF
:10429000CDB7DEB7182F2B834A83698335DF2B8197
:1042A0004A816981222399F12091C103E22FF0E034
:1042B000812F90E0805F9109E817F90741F580911F
:1042C000C003882319F061FD209393028091960228
:1042D00081131DC062FF1BC0141624F46091940268
:1042E000842F13C0842F807E803E89F4E42FF0E079
:1042F000EE0FFF1FE855F84D849180959091940240
:10430000892380939402649180E00E94B818809180
:10431000C1038B5FE9D4E0915203E11103C08091A6
:10432000930207C00E2E000CFF0BE956FD4F808153
:10433000805F8093C1038091C1039091B904891774
:1043400041F08B5F0F900F900F90DF91CF911F91F5
:10435000ABC48FE00F900F900F90DF91CF911F9122
:10436000C3C4E82FF0E0EA52FC4F8491882321F087
:1043700020E040E060E087CF08956F70623051F038
:1043800028F4662339F0613081F00895643011F02B
:104390006830F1F4E82FF0E0EE0FFF1FE855F84D1C
:1043A000E49180919402E82B0AC0E82FF0E0EE0F30
:1043B000FF1FE855F84DE49180919402E827E093BF
:1043C00094028091BF03882319F0E777E093940269
:1043D00008956F70623009F43FC018F4662381F1CC
:1043E0000895643019F0683059F10895E82FF0E02D
:1043F000EE0FFF1FE855F84DE491E09560919402AF
:104400006E2360939402222309F444C09091960293
:10441000981340C0842F14168CF0807E803E09F0E3
:1044200039C0E42FF0E0EE0FFF1FE855F84D8491FE
:104430008095682360939402649180E00C94B8188E
:10444000E82FF0E0EE0FFF1FE855F84DE491E095FE
:1044500080919402E8231CC0E82FF0E09091940230
:10446000EE0FFF1FE855F84D222379F08091C0032D
:10447000882359F08491E82FE92BE09394028091EE
:10448000BF03882339F0E77703C0E491E095E9237F
:10449000E093940208956F70623051F028F466231F
:1044A00039F0613031F00895643011F0683011F462
:1044B0006ACDD0CD08956F70623049F018F4611163
:1044C0000DC00BC0643049F0683041F406C02223AF
:1044D00021F09091C003911101C08ACD08951F93DE
:1044E000CF93DF931F92CDB7DEB7182F862F807F33
:1044F00011F080936801103C78F5103B08F0C1C0C2
:10450000133A09F48CC0B8F4133809F472C050F4AB
:10451000143008F40FC1143708F458C0123809F4E5
:1045200060C008C1113A09F476C008F076C01438AA
:1045300009F469C0FFC0193A09F48AC020F4183A96
:1045400008F07FC06EC01E3A09F48FC008F091C019
:104550001A3A09F4F5C0EEC01E3D20F5103D08F0F2
:10456000C1C0163C09F4A2C088F4113C08F4E2C0B2
:10457000EFE3E10FF0E0EE0FFF1FE25AF64DE4919A
:104580008091BB03E82BE093BB03DAC0183C09F42D
:1045900097C008F48FC0193C09F0CCC08091B102DB
:1045A0008F5F91C0183E50F4103E08F0C0C01E3D11
:1045B00009F49BC01F3D09F4ACC0BCC08FE0810F63
:1045C000893008F0B7C0812F29DEBAC08091BD03C1
:1045D000882321F0812F6983EFDD6981812F5BDFE3
:1045E000AFC08091950281FDABC06091940289E3D8
:1045F00007C08091950280FDA3C06091940283E57D
:104600000E94B8189DC08091950282FD99C060916A
:10461000940287E4F5CF4BD493C023D491C013D434
:104620008FC08091BD0381118BC081E08093BD0359
:1046300010927A018093C2038CE5810F8093CC04A1
:104640005EC09091C20381E089278093C20378C045
:104650009091BF0381E089278093BF03811102C03D
:1046600085E055C085E020D36BC082E08093C50112
:1046700067C080918E01811163C081E080938E01BB
:104680005FC08091530390915403892B09F058C067
:10469000E0E5E10FF0E0EE0FFF1FE35CF64D8591E2
:1046A000949190935403809353034AC08091BC0328
:1046B0008F5F03C08091BC0381508093BC0305C011
:1046C0008091B10281508093B1029091B5048091A4
:1046D000C003992321F09091B304981788F5809333
:1046E000B3042EC0812F84DD2BC09091BD0381E0E7
:1046F00089278093BD03882321F010927A0180E1FD
:10470000B2CF80917A01811180936A0180E1ECD26D
:1047100017C08091BD03811113C060916A01062EFC
:10472000000C770B82EB92E00E94051909C0812FE3
:1047300024DE06C0612F70E040E084E40E94FF198F
:10474000109396020F90DF91CF911F9108951F93C0
:10475000CF93DF9300D01F92CDB7DEB7182F862FEF
:10476000807F11F010926801163C10F5113C08F0A2
:10477000A0C01B3A98F4113A08F0DFC0123809F4CF
:1047800062C028F48CEF810F8037B0F1CAC01338B3
:1047900009F461C0143809F46DC0C3C01E3A08F4AE
:1047A000C0C0103B08F4C9C0103C08F46BC0B9C0CD
:1047B000103E90F4103D08F0C0C0173C09F48DC0C5
:1047C00008F487C0183C09F48EC0193C09F0A9C050
:1047D0008091B10281508AC0183E08F48AC08FE0EF
:1047E000810F893008F09DC0812F0F900F900F909E
:1047F000DF91CF911F9147CD8091BD038823D9F0E0
:104800008091C2038823B9F0183211F01B3299F459
:104810001092C2031092BD0380917A01815080935F
:104820006A011092CD0480E12B834A8369835CD2B4
:1048300069814A812B81812F0F900F900F90DF911A
:10484000CF911F9138CE8091950281FF76C0609103
:10485000940289E307C08091950280FF6EC0609149
:10486000940283E50F900F900F90DF91CF911F91ED
:104870000C94B8188091950282FF5FC060919402F9
:1048800087E4F0CF60E5610FE62FF0E0EE0FFF1F49
:10489000E35CF64D8591949120915303309154033C
:1048A0002817390709F049C0109254031092530396
:1048B00044C06FE3610FE62FF0E0EE0FFF1FE25AF6
:1048C000F64DE491E0958091BB03E823E093BB03B0
:1048D00034C08091BC03815003C08091BC038F5FC2
:1048E0008093BC032AC08091B1028F5F8093B10294
:1048F00024C08091BD03882361F0809196028113CA
:1049000008C080E02B834A83698356DC69814A8131
:104910002B81812F0F900F900F90DF91CF911F91DE
:1049200058CD612F70E040E085E40F900F900F901C
:10493000DF91CF911F910C94FF190F900F900F9062
:10494000DF91CF911F91089520919402227291E0FE
:1049500009F090E02091C804222359F0992349F0EE
:104960002091950220FF05C022EE280F2A3008F47E
:10497000855C2091BC04222321F1833571F4909150
:10498000950281E089278093950280FF03C080E033
:104990008BD11FC080E0A8D11CC027EA280F2B3084
:1049A00080F420919502E82FF0E0EE0FFF1F20FF2A
:1049B00005C0992319F0EB58F74D02C0EA58F74D9E
:1049C00084918A3A39F4911102C085E3089589E20D
:1049D000089580E00895AF92BF92CF92DF92EF9258
:1049E000FF920F931F93CF93DF9300D01F92CDB709
:1049F000DEB7D82E062F10E08091C10396E6C92EAF
:104A000091E1D99E70011124F701C89EE00DF11DBE
:104A10001124E00FF11FED52F44F84914A835B8320
:104A2000698392DFB82E8091C1039701C89E200D43
:104A3000311D1124200F311FF901E952F84FC490A4
:104A4000F901E552FC4FA4900E0D1F1DF801E45D25
:104A5000FD4FB082F801EB5AFC4FC082F801EA53D7
:104A6000FE4FA0824A815B8169818D2D73DB4A2DC7
:104A70006C2D8B2D34DD25D20F900F900F90DF9190
:104A8000CF911F910F91FF90EF90DF90CF90BF904B
:104A9000AF900C9470309F92AF92BF92CF92DF9202
:104AA000EF92FF920F931F93CF93DF931F92CDB797
:104AB000DEB791E1899F90011124260F311DF90184
:104AC000E45DFD4F6F01B080F901EB5AFC4F7F01AF
:104AD000A08089010A531E4FF80190809E012F5F2C
:104AE0003F4F52DB2981492D6A2D8B2D30DEF60197
:104AF0001082F7011082F80110820F90DF91CF91A0
:104B00001F910F91FF90EF90DF90CF90BF90AF90EB
:104B10009F90089521E1829FC00111249C01260FDE
:104B2000311DF901E45DFD4F8081F901EB5AFC4F25
:104B3000908193FF1AC018161CF46091940213C060
:104B4000982F907E903E89F4E82FF0E0EE0FFF1F43
:104B5000E855F84D84918095909194028923809333
:104B60009402649180E00C94B81808952091C203D7
:104B7000211112C0FC01AAEAB2E0069621E03091B0
:104B8000BE03332311F0208302C03C913083319661
:104B90001196E817F90799F708952091C20321119A
:104BA00009C0DC01EDE9F2E08DE08E0F91919D935B
:104BB0008E13FCCF0895FC018091C203811106C0C1
:104BC0008091680190919402982B9083089521E13F
:104BD000829FC0011124FC01E60FF11DED52F44F3C
:104BE000E491E83211F0E83539F441E060E070E03A
:104BF00081E50E94FF19D5C4089590E09C01220F21
:104C0000331F820F931FFC01E45FFE4D2491FC01D2
:104C10003196865F9E4DE65FFE4D621721F06491EE
:104C2000FC01849154C96491FC01849164C90F937F
:104C30001F93CF93DF93EBE3F1E2D4910AE011E20B
:104C4000C0E0CD1769F0F80131966491F8018491C4
:104C50001AD960E08C2FD1DFCF5F0D5F1F4FF1CFEE
:104C60008091BF048093D2038093CF038091B604D8
:104C70008093CD03DF91CF911F910F910895809183
:104C8000CB03893F69F48091D7038F3E19F41092CA
:104C9000D70303C08F5F8093D7031092CB0308958F
:104CA0008F5F8093CB03089590E0880F991FFC01DC
:104CB000E052FF4DA491FC01EF51FF4D8491EAE3D6
:104CC000F1E2E491AE1778F4B0E0AD53BC4F81113E
:104CD00003C08C91816006C09C919170E82FEE0F0B
:104CE000892F8E0F8C93089590E0880F991FFC01F7
:104CF000E052FF4DA491FC01EF51FF4D8491EAE396
:104D0000F1E2E491AE1780F4B0E0AD53BC4F8111F5
:104D100004C08C918E7F8C9308959C91292F2695A9
:104D2000281302C091709C930895823049F083301B
:104D300079F08130A1F481E1B7DF82E1D5DF0CC0E9
:104D400081E1D2DF82E1D0DF83E1AEDF84E1CCCF4D
:104D500081E1CADF82E1A8DF83E1C6DFF7CF81E12D
:104D6000C3DF82E1C1DF83E1BFDF84E19DCF0F9329
:104D70001F93CF93EAE3F1E2E491C0E00E2F10E03D
:104D80008C2F0C2E000C990B8017910714F5209195
:104D9000CE032223C9F0FC01ED53FC4F20812230C9
:104DA00018F421110FC010C0E22FE695F0E0E95889
:104DB000F64D64918091D7030E948937921720F4B1
:104DC00090FF02C061E001C060E08C2F16DFCF5F72
:104DD000D7CFCF911F910F9108958091D203803149
:104DE00010F081E002C08C5F8C7F8093D203089525
:104DF0008091D3038F5F813118F48093D30308959A
:104E000081E08093D3031092D1031092D6030895CA
:104E10009091D203903120F081E08093CE030895E9
:104E20008091D1032091D303929F902D1124891753
:104E300038F491E09093CE03805F8093D10308957E
:104E40001092CE030895EFEDF0E2E4918091CD034E
:104E50008F5F8E1718F48093CD0308951092CD03C1
:104E600008958091D4038F5F843018F48093D40325
:104E700002C01092D4038091D403811103C08091A9
:104E8000D20303C0813021F484E08093CF030895DE
:104E9000823031F484E08093CF031092D0030895E0
:104EA00080E18093CF0381E08093D003089595DF64
:104EB0008091D403811104C08091D2038093CF03E9
:104EC00008958091D403823011F488E10BC08330BF
:104ED00071F48091CF03853010F0845003C0882393
:104EE00021F081508093CF0308951092CF0308954D
:104EF0008091D5038F5F803318F48093D503089594
:104F00001092D5039091D4039130B1F42091D00345
:104F10008091CF03222341F08F5F8093CF038831AC
:104F2000E0F01092D003089581508093CF03853034
:104F3000A0F49093D0030895923031F48091CF0380
:104F4000853058F0815007C0933039F48091CF03F9
:104F5000803118F48F5F8093CF0308958091CF0341
:104F6000803120F081E08093CC0308959091D303A9
:104F7000899F802D11249091D0039111807F909171
:104F8000D603981738F481E08093CC03905F909318
:104F9000D60308951092CC0308951F93CF93DF9307
:104FA000EBE3F1E2E49110E0CE2FD0E0212F012ECF
:104FB000000C330B2C173D07ECF4F901E153FF4DC6
:104FC000E491EE23A9F08091CC03882371F08091C5
:104FD000CD03F90190E1899FE00DF11D1124E1530A
:104FE000F04EE49161E0E11101C060E0812F05DE47
:104FF0001F5FDCCFDF91CF911F910895F9DE08DFAD
:105000003EDEB5DE75DFAADFC8CF27B1242B27B976
:1050100028B1342F3095232338B1432B3FB7F89470
:10502000FC01680F791FE617F707E1F0819198E01E
:1050300048B987FF28B9880F000000C028B90000D0
:1050400000C000C000C000C000C000C000C000C060
:1050500000C000C000C000C000C000C000C09A95E1
:1050600039F7E1CF3FBF08959B01220F331F620F35
:10507000731FCBDF85E88A95F1F7000008951F9232
:105080000F920FB60F9211240F900FBE0F901F902A
:105090001895E4E6F0E0808180718083A5E6B0E0B9
:1050A0008C9186778C9380818160808380818460FD
:1050B00080838081806280838081806480838C9102
:1050C00088608C9380818068808380818260808307
:1050D0008C9181608C938C918F778C9390E080E899
:1050E0000FB6F89480936100909361000FBE08950D
:1050F000D0CF8DEA9EED9093FE048093FD04089539
:1051000019BC82E089BD09B400FEFDCF8091D800B2
:105110008F7D8093D8008091E00082608093E000D2
:105120008091E00081FDFCCF0895CF92DF92EF9255
:10513000FF921F93CF93DF93E2ECF1E2E491E093CF
:10514000D903E1ECF1E2E491E093DF03E0ECF1E27A
:10515000E491E093E003EFEBF1E2E491E093E2030A
:1051600085EBE82E81E2F82E9AEDC92E93E0D92E38
:10517000D0E0F70114918091DF0381111FEFF70157
:105180003196C4914C2F612F8D2F0E94571F2C2FC9
:105190002095F60121936F01422F41238091DF0377
:1051A000642F6095811101C040E08D2F0E94901FF7
:1051B000DF5FF2E0EF0EF11CD530D9F6ECE3F1E25F
:1051C000E491E093D803EDE3F1E2E491E093E103AD
:1051D00062E083E0DF91CF911F91FF90EF90DF902D
:1051E000CF900C94671FCF92DF92EF92FF920F93B4
:1051F0001F93CF93C0E08091E00390E02C2F0C2E02
:10520000000C330B281739070CF054C08AEDE82E38
:1052100083E0F82EF5E0CF026001112400E010E0F9
:10522000F801EC0DFD1DE05AFE4D4491F70161912E
:105230007F01802F0E94901F0F5F1F4F05301105C7
:1052400079F78091C3048A95F1F710E0212F012EA0
:10525000000C330B8091E20390E02817390744F5E6
:105260008091DF03220F331FF901E15CFE4D88239B
:1052700051F06491F901E25CFE4D84910E94B61FE9
:10528000882351F013C06491F901E25CFE4D8491D2
:105290000E94B61F882351F08091D903882319F00A
:1052A0006C2F812F02C0612F8C2F91DC1F5FCECF1E
:1052B000CF5FA1CFCF911F910F91FF90EF90DF9023
:1052C000CF900895CF93DF93962F642F21E1929F83
:1052D000E0011124C40FD11DCC0FDD1FCD51DC4FD7
:1052E00048815981882301F157FF0EC02091C904DC
:1052F00030E0319521953109241735077CF1892F4C
:105300006ADB84E090E020C02091C5043091C6049F
:105310004217530794F0892FFDDB2091B804888150
:105320009981821B910910C01416150684F42091EE
:10533000C90430E0421753071CF44C5F5F4F10C0A4
:10534000892FA9DB8CEF9FEF998388830BC0809115
:10535000BD049091BE048417950724F4445051096C
:1053600059834883DF91CF910895AF92BF92CF9236
:10537000DF92EF92FF920F931F93CF93DF931F92D1
:10538000CDB7DEB7F62EE82EEF140CF079C08AED1B
:10539000C82E83E0D82EFE2D85E0F802500111249E
:1053A00000E010E0F60161916F016F3F49F0F801F4
:1053B000EA0DFB1DE05AFE4D4491802F0E94901F84
:1053C0000F5F1F4F0530110569F78091C3048A955F
:1053D000F1F7C12C0E2D0E2C000C110B2C2D0C2CCA
:1053E000000C330B8091E20390E0281739070CF092
:1053F00045C0D090D8038D2D90E02817390791F43F
:105400004091E103842F90E00817190759F462E0F6
:1054100083E049830E949F1F91E04981811190E0C0
:105420006D2D28C08091DF03220F331FF901E15C4D
:10543000FE4D882359F06491F901E25CFE4D8491A0
:105440000E94B61F91E0882361F00AC06491F901BF
:10545000E25CFE4D84910E94B61F91E0811101C073
:1054600090E08091D903882319F04E2D6C2D02C055
:105470004C2D6E2D892F26DFC394B0CFE39484CFBB
:105480000F90DF91CF911F910F91FF90EF90DF90E0
:10549000CF90BF90AF9008956091E00366956695B8
:1054A00080E063CF8091E003682F70E07595679589
:1054B000869586955ACF8091E00393E0899FB0014D
:1054C0001124759567957595679586954ECF609172
:1054D000E00323E0629FC00111249595879595957F
:1054E000879543CF81E08093B20408952091B20460
:1054F000AC01249FC001259F900D11246AE070E04B
:105500000E9495378091B104562F581B852F6093C8
:10551000B1042F5F2093B2042B3028F01092B10415
:1055200091E09093B20408958091BC03811104C06E
:105530008091B102882311F181E08093B50420911C
:10554000BA048091B3049091C0043091B404311135
:1055500020C0899FC0011124820F911DC7DF909147
:10556000BC03899F902D11249093B0049091B102B7
:10557000899F802D11248093AF040BC01092B50435
:105580001092B1041092B0041092AF048AE080939C
:10559000B2048091B404811103C081E08093B4040B
:1055A0000895CF93DF93CDB7DEB763970FB6F89426
:1055B000DEBF0FBECDBF69E16093BB041092C4048F
:1055C0001092C8041092B90450E15093BF04109295
:1055D000C70446E04093C9041092BC041092B6047C
:1055E00080EF90E09093C2048093C10488E89FEF1D
:1055F0009093BE048093BD0435E03093BA042FE04D
:105600002093C00480E293E09093C6048093C50485
:1056100080E28093B80491E09093C30469831A8276
:105620001B821C825D831E824F831886198640EF81
:105630004A871B8648E84C874FEF4D873E872F8768
:10564000888B23E0298B8A8B9B8B43E150E060E0C1
:1056500070E0CE0101960E94EC3763960FB6F89485
:10566000DEBF0FBECDBFDF91CF9108950F931F9383
:10567000CF93DF93C4E8D9E2FE013296849131964C
:10568000E49190E0E23059F4FE01059114918050CC
:1056900090400E94E737F8019183808309C0FE01A2
:1056A00005911491805090400E94DF37F80180836B
:1056B0002496F9E2C43CDF07F9F66091BB04693136
:1056C00031F070E041E080E50E94FF196ADF8091CF
:1056D000C7048093B704DF91CF911F910F91089574
:1056E00024E0829FC0011124FC01EA57F64D249169
:1056F000FC01E957F64D3491FC01EC57F64D822F31
:1057000090E0323041F4A591B4916D917C9180503C
:1057100090400C940338A591B4916C9180509040C6
:105720000C94F53785E08093CD0408958091CC04E6
:105730002EE28202C0011124FC01E451FE4D44918D
:10574000FC01E351FE4D3491FC01E251FE4D2491E8
:10575000FC01E151FE4D949150917A018091CA046F
:10576000513079F01CF4552331F01FC0523081F0D4
:105770005330A9F01AC0442321F06AE10E9489370E
:105780002EC0332329F06AE10E948937965E27C034
:10579000222329F06AE00E9489379C5C20C099236B
:1057A00021F0982F9F71925C1AC0442311F06AE196
:1057B00001C060E03111665E2111665F9111605E8B
:1057C0000E948937411101C0965E311103C09A31A0
:1057D00034F0965E211103C094330CF0965FE92FEC
:1057E000990FFF0BEC55F54D8491089584509272FA
:1057F000E82FF0E0EE0FFF1F911103C0EC53F64DC0
:1058000002C0EB53F64D849108950F931F93CF93ED
:10581000DF93E091CC0420917A01022E000C330B2F
:10582000CE2F0E2E000CDD0B8EE2E802F0011124CB
:10583000E551FE4D649170E0C9010E94A937082F1F
:105840001091CA0460916A01062E000C770BC90101
:105850000E94A937FC01FF27EE0FFF1FEE54FD4FFA
:1058600080819181C3DF810F982F990F87FD9F5F02
:105870009093CA048EE28C9FF0018D9FF00D11244D
:10588000E00FF11DED53FE4DE4918091CA04E8272D
:10589000E093CA04DF91CF911F910F910895EF9289
:1058A000FF920F931F93CF93DF931F92CDB7DEB775
:1058B0008091CC042EE28202C0011124FC01E0514F
:1058C000FE4D6491062F10E020E530E0201B310BE7
:1058D000220F331FA9014E545D4F7A012091CD0450
:1058E000223009F444C028F4222351F02130C9F0B9
:1058F000AEC0233009F45BC0243009F47FC0A7C0D8
:105900001092CA0421E02093CD0410927A01FC0188
:10591000E551FE4DE491E1119AC085E08093CD04FC
:1059200096C020917A01FC01E20FF11D27FDFA9546
:10593000ED53FE4DE4914091CA044E0F4093CA04CA
:105940002F5F20937A01FC01E551FE4D8491022ED8
:10595000000C330B90E0281739070CF478C082E074
:105960008093CD0410927A014093CB0470C01091C3
:10597000CB04E0917A01EE0FFF0BEE54FD4F8081D6
:105980009181698333DF810F8093CB0490917A01F9
:105990009F5F90937A0120916A01698192170CF4BC
:1059A00056C00E9489379093CB0483E022C02DDF3C
:1059B0008091CB04E80EF11CE80EF11CB7DE0E94CA
:1059C0008719F701918380838091CB0490E0019641
:1059D000B8010E94A9378093CB0480917A018F5F30
:1059E00080937A01082E000C990B801791077CF1A7
:1059F00084E08093CD0410927A0129C080917A01CD
:105A0000282F220F330BFA01E20FF31F408151813F
:105A1000F901EE54FD4F518340838F5F80937A01EB
:105A2000082E000C990B801791078CF085E080936D
:105A3000CD0460936A01B80182EB92E00F90DF9190
:105A4000CF911F910F91FF90EF900C9405190F903B
:105A5000DF91CF911F910F91FF90EF90089580916A
:105A6000CD04853009F01BCF0895CF92DF92EF92DD
:105A7000FF920F931F93CF93DF93CDB7DEB7EDB6B1
:105A8000FEB6E3E0FBE21491E4E0FBE2E4916E2F6A
:105A900070E08DB79EB7F3E0EF9F80199109112454
:105AA0000FB6F8949EBF0FBE8DBF01966C0125E026
:105AB0003BE2ADB7BEB7139640E050E0461757073C
:105AC000B4F4F90131960491CD010197FC010083F2
:105AD000F9018491FD0132978083F9013296E491B6
:105AE000EC934F5F5F4F2D5F3F4F1396E7CF412FF2
:105AF000C601BADA412F61E070E0C601B5DA0FB62F
:105B0000F894FEBE0FBEEDBEDF91CF911F910F91B5
:105B1000FF90EF90DF90CF90089513BC109280001B
:105B20001092820080E49FE1909389008093880026
:105B300008951092CE0478941092850010928400FB
:105B400081E08093810082E080936F009AE088E199
:105B50000FB6F894A895809360000FBE90936000F4
:105B6000E0E6F0E08081806C808308950FB6F894C1
:105B7000A895809160008861809360001092600019
:105B80000FBEE0E6F0E080818F7B808310926F0093
:105B90001092810008958091840090918500E09199
:105BA000CE042091F00434E0E39FF0011124E20FD1
:105BB000F11DEE0FFF1FE053FB4F208131812817AD
:105BC000390780F4E091CE042091F00434E0E39FA3
:105BD000F0011124E20FF11DEE0FFF1FE053FB4F08
:105BE000918380830895CF93DF93C0E0D0E08091CC
:105BF000CE04FE0124E0829FE00DF11D1124EE0F82
:105C0000FF1FE558FD4D85919491009729F0C093B1
:105C1000F004FC010995BFDF2196C430D10539F7A6
:105C2000DF91CF91089510928500109284008091A9
:105C3000CF04882381F08091CE046091F00470E05D
:105C4000782B40E081E10E94FF198091CF048F5FA3
:105C50008093CF04089581E08093CF047894C3DFCC
:105C60008091CE048F5F8093CE04843010F0109228
:105C7000CE048091CF04823038F06091CF0470E080
:105C800040E084E10E94FF19A8951092CF04089586
:105C90001F920F920FB60F9211242F933F934F93A1
:105CA0005F936F937F938F939F93AF93BF93EF9384
:105CB000FF93B9DFFF91EF91BF91AF919F918F91CA
:105CC0007F916F915F914F913F912F910F900FBEF8
:105CD0000F901F901895E0EDF4E01182108213826E
:105CE00012821582148217821682389684E0E03F71
:105CF000F80799F70895292F33272330310511F13B
:105D00003CF42130310561F02230310571F070C072
:105D10002132310531F12232310509F43DC068C02C
:105D200082E190E02FEF3DE26CC08091B7048330B8
:105D300009F44AC0813009F44CC084E590E02BEAB4
:105D40003DE25FC09927009731F0019709F050C0FC
:105D5000E5EEFCE202C0E1E3FDE2849190E09F0108
:105D600050C0613049F068F0623009F041C089E00C
:105D700090E02FEE3DE245C089E090E026ED3DE267
:105D800040C08091B704833049F1813061F189E0EE
:105D900090E02DEB3DE235C0613041F060F06230C3
:105DA00039F58BE190E021E13EE22BC08AE390E0FF
:105DB0002CE23EE226C08091B70480FD1EC08FE336
:105DC00090E026E63EE21DC082E290E025E33DE25F
:105DD00018C084E590E027E53DE213C089E090E03B
:105DE00027E43DE20EC089E090E029E63DE209C0EB
:105DF00080E090E020E030E004C08FE390E025EA0E
:105E00003EE2FA0131832083089581E00C949526C7
:105E10000895CF93DF9380E291E059D7C82F809106
:105E2000B70481FD09C080E191E051D7D82F80E00F
:105E300091E04DD78D23C823CC2311F080E001C021
:105E400083E00E9495268091E20084608093E200C6
:105E5000DF91CF91089580E291E001D68091B7045F
:105E600081FD06C080E191E0FAD580E091E0F7C5C0
:105E7000089580912E0190912F01009729F00197AC
:105E800090932F0180932E018091B70481FD16C05D
:105E900080911E0190911F01009729F00197909326
:105EA0001F0180931E0180910E0190910F010097B8
:105EB00029F0019790930F0180930E01089580E0DF
:105EC0000C94952682E00C94952680E00C949526FF
:105ED0000F931F93CF93DF93F90121E08032920754
:105EE000F9F4EF01109279012091B704CF010296E5
:105EF00020FD07C020912901222319F00E94CD2501
:105F000002C00E94B625CE010E94DB258091B70415
:105F100080FF03C088E090E024C082E190E021C0CF
:105F200080519140B1F41092B4048091BB038083FE
:105F30008091B00481838091AF04828383E090E0FC
:105F4000F8019183808381E09091B50491110DC097
:105F50000BC080915303909154039183808382E01E
:105F600090E0F8019183808380E0DF91CF911F91D1
:105F70000F910895CF938052914009F081C0F901AB
:105F8000808180939502C0914F01C82780934F0173
:105F9000CC2309F475C09091BC04911111C0C0FFCD
:105FA0000FC080FF07C080E00E94542680E00E945E
:105FB000392106C080E00E94742680E00E94B12151
:105FC000C1FF11C08091950281FF07C081E00E944E
:105FD000542681E00E94392106C081E00E94742687
:105FE00081E00E94B121C2FF24C08091950282FF0E
:105FF00011C082E00E94542682E00E9439218091E3
:10600000C4048823B1F081E08093BF0385E00E943F
:1060100054260FC082E00E94742682E00E94B121C3
:106020008091C404882329F01092BF0385E00E9468
:106030007426C3FF11C08091950283FF07C083E0DF
:106040000E94542683E00E94392106C083E00E940A
:10605000742683E00E94B121C4FF12C08091950292
:1060600084FF07C084E00E94542684E0CF910C9402
:10607000392184E00E94742684E0CF910C94B121F0
:10608000CF9108958091B70480FF09C088E0809384
:10609000280188E090E090932301809322010895E5
:1060A00080E291E027D68091B70481FD06C080E1AF
:1060B00091E020D680E091E01DD6B7D48091F40421
:1060C00090914E01981759F06091F40470E041E00E
:1060D00086EA0E94FF198091F40480934E0108958E
:1060E0008091F204882329F08091F404853009F42A
:1060F00007C80895CF92DF92EF92FF920F931F93FC
:10610000CF93DF93EC018B017A01DED1811133C093
:10611000E114F10439F0F70180819181081B190B1A
:10612000C80FD91FC12CD12C0115110519F180916F
:10613000E80085FD16C08091E8008E778093E80026
:1061400074D4E114F10449F0F70180819181C80E03
:10615000D91ED182C08285E00EC0B6D1882321F33A
:106160000AC089918093F10001501109FFEFCF1A05
:10617000DF0ADACF80E0DF91CF911F910F91FF907E
:10618000EF90DF90CF9008952091FB043091FC04B4
:106190002617370748F06115710539F42091E8009A
:1061A0002E772093E80001C0B90140E06115710528
:1061B000A9F12091F404222309F443C0253009F405
:1061C00042C02091E80023FD40C02091E80022FD5C
:1061D00032C02091E80020FFE9CF4091F3002091E8
:1061E000F20030E0342BFC01CF016115710559F04C
:1061F0002830310540F481918093F100615071099C
:106200002F5F3F4FF1CF41E02830310509F040E0EA
:106210002091E8002E772093E800C8CF4111C9CF24
:106220000AC08091F404882361F0853061F0809188
:10623000E80083FD0AC08091E80082FFF2CF80E091
:10624000089582E0089583E0089581E0089561153E
:10625000710529F42091E8002B772093E800FC01D8
:106260006115710541F18091F404882361F1853055
:1062700061F18091E80083FD24C08091E80082FFF5
:10628000EFCF2091F3008091F20090E0922B892BC8
:1062900031F08091F10081936150710991F7809103
:1062A000E8008B778093E800DBCF8091F4048823AB
:1062B00051F0853051F08091E80080FFF6CF80E00A
:1062C000089581E0089582E0089583E00895209183
:1062D000FB043091FC042617370748F0611571055F
:1062E00039F42091E8002E772093E80001C0B9012D
:1062F000FC0120E06115710591F18091F40488237F
:1063000009F440C0853009F43FC08091E80083FD66
:106310003DC08091E80082FD2FC08091E80080FFA1
:10632000E9CF2091F3008091F20090E0922B61156B
:10633000710559F08830910540F424912093F100C3
:106340003196615071090196F2CF21E0089709F06A
:1063500020E08091E8008E778093E800CBCF211178
:10636000CCCF0AC08091F404882361F0853061F0BD
:106370008091E80083FD0AC08091E80082FFF2CF9F
:1063800080E0089582E0089583E0089581E0089513
:10639000982F973058F59093E900981739F070913D
:1063A000EC002091ED005091F00003C0242F762FD7
:1063B00050E021FF19C03091EB003E7F3093EB009D
:1063C0003091ED003D7F3093ED003091EB00316076
:1063D0003093EB007093EC002093ED005093F000AD
:1063E0002091EE0027FF07C09F5FD3CF8F7080936F
:1063F000E90081E0089580E00895EF92FF920F9305
:106400001F93CF93DF93E62EEC018C010C5F1F4F9F
:10641000F12CFE1491F15881552351F1F80120819E
:1064200069817A8131979081852F8F70873010F044
:1064300080E024C0223010F442E001C046E0E8E0F1
:10644000F0E020E0E617F70720F42F5FEE0FFF1FC4
:10645000F9CF2295207F422BF0E49F9F90011124D9
:10646000551F5527551F652F622B92DF882301F397
:10647000F39425960B5F1F4FCCCF81E0DF91CF9136
:106480001F910F91FF90EF9008958091F50487FF81
:1064900011C08091E80082FD05C08091F404811153
:1064A000F8CF11C08091E8008B770BC08091F40485
:1064B000882349F08091E80080FFF8CF8091E800C0
:1064C0008E778093E80008952091E4003091E500F4
:1064D00095E64091EC00842F817040FF22C08091AE
:1064E000E80080FD1CC08091F404882391F0853081
:1064F00091F08091EB0085FD10C04091E400509137
:10650000E5004217530729F39A01915011F784E0EF
:10651000089582E0089583E0089581E0089580E081
:1065200008954091E80042FFDECF089565D06CD019
:10653000E0EEF0E0808181608083E8EDF0E0808132
:106540008F77808319BCA7EDB0E08C918E7F8C9300
:1065500080818F7E80831092F30408950F931F93A0
:10656000CF93DF9349D050D0C8EDD0E088818F77AA
:10657000888388818068888388818F7D888319BC1F
:106580001092F4041092F1041092F20400EE10E064
:10659000F80180818B7F808388818160888342E0DD
:1065A00060E080E0F5DEE1EEF0E080818E7F8083C8
:1065B000E2EEF0E08081816080838081886080836A
:1065C000F80180818E7F8083888180618883DF915C
:1065D000CF911F910F910895E8EDF0E080818F7EBB
:1065E0008083E7EDF0E080818160808384E082BF7A
:1065F00081E08093F304B2CFE8EDF0E080818E7FFC
:1066000080831092E20008951092DA001092E10067
:1066100008951F920F920FB60F9211242F933F935C
:106620004F935F936F937F938F939F93AF93BF939A
:10663000EF93FF938091E10082FF0AC08091E20016
:1066400082FF06C08091E1008B7F8093E10011DC26
:106650008091DA0080FF1BC08091D80080FF17C0B6
:106660008091DA008E7F8093DA008091D90019BC86
:1066700080FF0AC082E089BD09B400FEFDCF81E041
:106680008093F404C2DB03C01092F404C1DB809158
:10669000E10080FF18C08091E20080FF14C080916B
:1066A000E2008E7F8093E2008091E200806180931F
:1066B000E2008091D80080628093D80019BC85E008
:1066C0008093F404FFDB8091E10084FF2EC0809171
:1066D000E20084FF2AC019BC82E089BD09B400FE33
:1066E000FDCF8091D8008F7D8093D8008091E1000C
:1066F0008F7E8093E1008091E2008F7E8093E200A4
:106700008091E20081608093E2008091F10488230F
:1067100011F084E007C08091E30087FD02C081E0B2
:1067200001C083E08093F404D0DB8091E10083FF1B
:1067300022C08091E20083FF1EC08091E100877F2C
:106740008093E10082E08093F4041092F104809140
:10675000E1008E7F8093E1008091E2008E7F809344
:10676000E2008091E20080618093E20042E060E01C
:1067700080E00EDEA4DBFF91EF91BF91AF919F917E
:106780008F917F916F915F914F913F912F910F90DA
:106790000FBE0F901F9018951F93CF93DF93CDB727
:1067A000DEB7AA970FB6F894DEBF0FBECDBFE5EFF8
:1067B000F4E088E08E0F9091F10091938E13FBCF5F
:1067C0004ADB8091E80083FF18C18091F504909125
:1067D000F604492F50E04A30510508F00EC1FA0185
:1067E000E059FF4FC9C3803881F0823809F005C1F4
:1067F0008091F9048F708093E9008091EB0085FB14
:10680000882780F91092E90007C08091F20488235C
:1068100011F082E001C080E09091E800977F9093B2
:10682000E8008093F1001092F100C4C0282F2D7F62
:1068300009F0E3C0882319F0823061F0DEC0809156
:10684000F704813009F0D9C0933009F080E08093DB
:10685000F2042BC08091F704811127C08091F904C4
:106860008F7009F4CAC08093E9002091EB0020FFEB
:106870001CC0933021F48091EB00806214C0909191
:10688000EB0090619093EB0021E030E0A90102C0A1
:10689000440F551F8A95E2F74093EA001092EA00F0
:1068A0008091EB0088608093EB001092E90080916A
:1068B000E800877F82C08111A0C01091F7041F7784
:1068C0008091E3008078812B8093E3008091E80041
:1068D000877F8093E800D9DD8091E80080FFFCCFBE
:1068E0008091E30080688093E300111102C082E090
:1068F00001C083E08093F40480C08058823008F0A7
:106900007CC08091F7049091F8048C3D53E095078A
:1069100071F583E08A838AE289834FB7F894DE01B8
:10692000139620E03EE051E2E32FF0E05093570051
:10693000E49120FF03C0E295EF703F5FEF708E2F70
:1069400090E0EA3010F0C79601C0C0968D939D93F9
:106950002F5F243149F74FBF8091E800877F8093F4
:10696000E8006AE270E0CE0101960EDC12C0AE01D2
:106970004F5F5F4F6091F904BED9BC01892B09F4C8
:106980003CC09091E800977F9093E80089819A81BC
:106990009EDC8091E8008B778093E8002EC08038E1
:1069A00061F58091E800877F8093E8008091F10491
:1069B0008093F1008091E8008E778093E80065DD98
:1069C0001CC081111AC09091F7049230B0F48091EC
:1069D000E800877F8093E8009093F10456DD809172
:1069E000F104811106C08091E30087FD02C081E0BF
:1069F00001C084E08093F4040CDA8091E80083FF06
:106A00000AC08091E800877F8093E8008091EB00C6
:106A100080628093EB00AA960FB6F894DEBF0FBE9B
:106A2000CDBFDF91CF911F910895CF938091F40452
:106A3000882399F0C091E900CF709091EC00892FE4
:106A4000817090FD80E8C82B1092E9008091E800E9
:106A500083FDA2DECF70C093E900CF9108956F92BD
:106A60007F928F929F92AF92BF92CF92DF92EF92DE
:106A7000FF920F931F93CF93DF9300D01F92CDB758
:106A8000DEB77C01CDB6DEB68091E80083FF08C199
:106A9000F701808190E02091F9043091FA042817E1
:106AA000390709F0FDC08091F604833009F49FC0D6
:106AB00030F4813071F0823009F4D6C0F1C08A30F0
:106AC00009F4BAC08B3009F4A3C0893009F0E8C0DA
:106AD00051C08091F504813A09F0E2C08DB69EB6AE
:106AE0001A8219828091F7041091F8048B83F701C0
:106AF0008085482F50E08DB79EB7841B950B0FB64D
:106B0000F8949EBF0FBE8DBFEDB7FEB731965F0103
:106B100060E070E0CF014CD24FEF410F8E010F5F6C
:106B20001F4F9501BE016D5F7F4FC701D1D9F7019E
:106B300086819781009721F0408550E0B5012FD2E2
:106B40001092E9008091E800877F8093E8008B81B4
:106B500081118093F10069817A81C50115DB8091F3
:106B6000E8008B778093E8000FB6F8949EBE0FBEC6
:106B70008DBE96C08091F504813209F091C0ADB60A
:106B8000BEB60091FB041091FC047090F704609075
:106B9000F8048DB79EB7801B910B0FB6F8949EBF7B
:106BA0000FBE8DBFEDB7FEB731964F018091E80063
:106BB000877F8093E800B801CF0149DB8091E8002E
:106BC0008E778093E80021E0711001C020E030E072
:106BD000021B130B280D391D4FEF460D672DC70102
:106BE000C9D90FB6F894BEBE0FBEADBE59C08091D4
:106BF000F504813A09F054C08091E800877F8093C2
:106C0000E8008091E80080FFFCCFF701818540C05B
:106C10008091F504813209F043C08091E800877FBC
:106C20008093E80032DC9091F70481E0911101C07B
:106C300080E0F701818734C08091F504813281F5CD
:106C40008091E800877F8093E8001FDC8091F70443
:106C50009091F804882736E0969587953A95E1F764
:106C6000F701958784871CC08091F504813AC1F4AF
:106C70008091E800877F8093E8008091E80080FFA2
:106C8000FCCFF70184859585969587959695879590
:106C90008093F1008091E8008E778093E800F5DB27
:106CA0000FB6F894DEBE0FBECDBE0F900F900F90C2
:106CB000DF91CF911F910F91FF90EF90DF90CF90D8
:106CC000BF90AF909F908F907F906F900895FC0140
:106CD000399627E0DF011D922A95E9F721E0FC01B2
:106CE000218724EF31E03587248723E0248361E086
:106CF000019683CB4F925F926F927F928F929F9279
:106D0000AF92BF92CF92DF92EF92FF920F931F93B9
:106D1000CF93DF9300D01F92CDB7DEB77C01ADB625
:106D2000BEB68091F404843009F08DC08091E400F7
:106D30009091E500F701228533852817390709F47A
:106D400082C081818F708093E9008091E80085FF87
:106D50007AC08DB69EB6408550E08DB79EB7841B35
:106D6000950B0FB6F8949EBF0FBE8DBFEDB7FEB763
:106D700031966F011B821A82198260E070E0CF01A8
:106D800017D18E010F5F1F4F960140E0BE016D5F6E
:106D90007F4FC7019DD8482EF70184859585892BA3
:106DA00051F091E080E026853785232B09F090E0B3
:106DB000092F182F02C000E010E0F70166807780ED
:106DC0006114710489F049815A81B301C601DAD096
:106DD00055245394892B09F4512CF701408550E038
:106DE000B601C301DCD001C0512C89819A81892B65
:106DF000F1F0411004C0511002C0012BC1F0F701A5
:106E0000848595859787868781818F708093E90037
:106E10008B8181118093F10069817A8140E050E09B
:106E2000C60168D98091E8008E778093E800809150
:106E3000E4009091E500F701938782870FB6F894FC
:106E40009EBE0FBE8DBE0FB6F894BEBE0FBEADBEC9
:106E50000F900F900F90DF91CF911F910F91FF90A6
:106E6000EF90DF90CF90BF90AF909F908F907F90EA
:106E70006F905F904F90089508950E9478280E9427
:106E8000EA190E94362B0E9495280E9417260E941C
:106E9000A5200E94722A0E94B7170E94922B0E947E
:106EA0008D2DF0D80E94352D0E9490190E94F32854
:106EB00093CB0E94992D8091C5018823E1F30C9416
:106EC000B62D34DBF8942FEF83ED90E32150804012
:106ED0009040E1F700C000008091C501823011F4BC
:106EE0000E9479288091C501882359F09CE088E1AF
:106EF0000FB6F894A895809360000FBE9093600041
:106F0000FFCF0895B9DFB9DFD4DFDBDF80E090E0A9
:106F10000895991B79E004C0991F961708F0961BF5
:106F2000881F7A95C9F780950895AA1BBB1B51E16C
:106F300007C0AA1FBB1FA617B70710F0A61BB70BE9
:106F4000881F991F5A95A9F780959095BC01CD018E
:106F5000089597FB072E16F4009406D077FD08D00D
:106F6000E4DF07FC05D03EF4909581959F4F08958E
:106F7000709561957F4F0895EE0FFF1F0590F49176
:106F8000E02D0994FB01DC0104C08D910190801972
:106F900021F441505040C8F7881B990B0895FB011C
:106FA000DC0102C001900D9241505040D8F7089585
:106FB000DC0101C06D9341505040E0F70895F9990C
:106FC000FECF92BD81BDF89A992780B50895A8E1BA
:106FD000B0E042E050E01CC0DC01CB0102C02D91CA
:106FE00005D041505040D8F70895262FF999FECF8B
:106FF0001FBA92BD81BD20BD0FB6F894FA9AF99AD6
:107000000FBE01960895F1DF272FF0CFDC01CB01F1
:10701000FC01F999FECF06C0F2BDE1BDF89A3196A8
:1070200000B40D9241505040B8F70895F894FFCF46
:107030000283020000015001020000000000000075
:107040000182030000015201030000000000000063
:107050000081120000015501120000000000000034
:107060002400250023002700280026002A002B00EA
:0E70700029002D002E002C00300031002F00D2
:00000001FF
