:100000000C940F0C0C94520C0C94520C0C94520C3B
:100010000C94520C0C94520C0C94520C0C94520CE8
:100020000C94520C0C94520C0C949B1C0C94520C7F
:100030000C94D7150C94520C0C94520C0C94520C3A
:100040000C94520C0C946B180C94520C0C94520C93
:100050000C94520C0C94520C0C94520C0C94520CA8
:100060000C94520C0C94520C0C94520C0C94520C98
:100070000C94520C0C94520C0C94520C0C94520C88
:100080000C94520C0C94520C0C94520C0C94520C78
:100090000C94520C0C94520C0C94520C0C94520C68
:1000A0000C94520C0C94520C0C94520C881DAB1DE9
:1000B000921EAB1D921EF01D121E921E641E761E15
:1000C00040000000000000000000000000000000F0
:1000D0000000000000000000000000000000000020
:1000E0000000000000000000000000000000000010
:1000F0000000000000000000000000000000000000
:1001000000000000000000000000000000000000EF
:10146000000000000000000000000000FF00FF007E
:10147000FF00FF00FF00FF00FF00FF00FF00FF0074
:10148000FF00FF00FF00FF00FF00FF00FF00FF0064
:10149000FF00FF00FF00000000000000000000004F
:1014A000000000000000000000000000000000003C
:1014B000000000000000000000000000000000002C
:1014C000000000000000080C000000000000000008
:1014D000000000000000000000000000000000000C
:1014E00000000000000000000000000000000000FC
:1014F00000000000000000000000000000000000EC
:10150000E5194317730D9F15E200E900EA00E500B5
:10151000B500B600B700CD002402250283018A0180
:101520009201940121022302E001E102E204E308B6
:10153000E410E520E640E7800105080A0C0F1014CE
:10154000141818003880000000000000000000009F
:10155000000000000000000000000000000000008B
:10156000000000000000000000000000000000007B
:10157000000000000000000000000000000000006B
:10158000000000000000000000000000000000005B
:10159000000000000000000000000000000000004B
:1015A000000000000000000000000000000000003B
:1015B000000000000000000000000000000000002B
:1015C000000000000000000000000000000000001B
:1015D000000000000000000000000000000000000B
:1015E00000000000000000000000000000000000FB
:1015F00000000000000000000000000000000000EB
:1016000000000000000000000000000000000000DA
:1016100000000000000000000000000000000000CA
:1016200000000000000000000000000000000000BA
:1016300000000000000000000000000000000000AA
:10164000000000000000000000000000000000009A
:10165000000000000000000000000000000000008A
:10166000000000000000000000000000000000007A
:10167000000000000000000000000000000000006A
:10168000000000000000000000000000000000005A
:10169000000000000000000000000000000000004A
:1016A000000000000000000000000000000000003A
:1016B000000000000000000000000000000000002A
:1016C000000000000000000000000000000000001A
:1016D000000000000000000000000000000000000A
:1016E00000000000000000000000000000000000FA
:1016F00000000000000000000000000000000000EA
:1017000000000000000000000000000000000000D9
:1017100000000000000000000000000000000000C9
:10172000000000000000004A0345006100730079DA
:101730000041005600520020004D0075006C0074FE
:101740000069006D00650064006900610020004BC5
:10175000006500790062006F006100720064002083
:1017600000760023002E00230023002E00230023F8
:101770000000000403090409023B00020100A0323A
:101780000904000001030101000921B00100012248
:101790003F00070581031200010904010001030055
:1017A00000000921B0010001221B0007058203028D
:1017B00000081201000200000008EB03FF201000E7
:1017C00000010001050C0901A101050C160100260C
:1017D0009C021A01002A9C02751095018100C00527
:1017E000010906A101050719E029E7150025017582
:1017F00001950881029501750881010508190129E3
:101800000595057501910295017503910115002556
:101810000105071900297F958075018102C01124F7
:101820001FBECFEFDAE0DEBFCDBF84B714BE0FB668
:10183000F894A89590916000986190936000109240
:1018400060000FBE83FF11C08091B2029091B3027D
:101850008D3A9E4D51F41092B3021092B202E3E41D
:10186000F5E125913491F901099585B7806885BF27
:1018700085B7806885BF11E0A0E0B1E0EEE9F2E451
:1018800002C005900D92AE33B107D9F722E0AEE366
:10189000B1E001C01D92A23BB207E1F70E941721FF
:1018A0000C944D210C94000010925F0110925E0187
:1018B00010925A0110925901109269011092680118
:1018C000089590915B0180916601992399F18111AE
:1018D0003AC080915D01811129C080917A01811106
:1018E00021C0E0915401E91305C010925B011092F0
:1018F000540129C081E08E0F80935401F0E0EE0F77
:10190000FF1FE659FE4F80819181813019F4909339
:101910005D0119C09093550180937A01882399F055
:10192000C3D111C0F6D110927A010DC081508093BD
:101930005D0109C0811107C01092550180915C01C1
:101940008D7F80935C0180916601811103C081E0ED
:101950008093660108958091A10190915601981796
:1019600031F180935601882311F1883211F08835C6
:1019700031F480915C018B7F80935C010895E0914C
:1019800058018A3251F4EE2391F0E150E09358016E
:10199000F0E0E05AFE4F10820895E63040F4AE2F9A
:1019A000B0E0A05ABE4F8C93EF5FE09358010895CA
:1019B0008091A101811102C010925C010895909163
:1019C0005B01983090F4E92FF0E0EE0FFF1FE6592D
:1019D000FE4F808361839F5F90935B0180915C01E8
:1019E000836080935C0181E0089580E008959C010C
:1019F00090915B0191112EC0A901983049F4909308
:101A00005B01205F3F4F30935F0120935E011BC05D
:101A1000FA01659174914E5F5F4F6115710549F44C
:101A200090935B0110925F0110925E01992381F007
:101A30000AC0E92FF0E0EE0FFF1FE659FE4F718359
:101A400060839F5FDACF80915C01836080935C014B
:101A500081E0089580E00895AC0180915B018111DF
:101A60003EC060936701282F082E000C330B261709
:101A7000370758F590915B01220F331F983038F0EB
:101A8000240F351F30935A01209359011EC0FA01CB
:101A9000E20FF31F20813181E92FF0E0EE0FFF1FED
:101AA000E659FE4F318320839F5F90935B019091B5
:101AB0006701915090936701911105C010925A01EE
:101AC0001092590102C08F5FCECF80915B018823B5
:101AD00041F080915C01836080935C0102C080E0F2
:101AE000089581E0089590915C0191FDEACE2091E6
:101AF0005E0130915F012115310511F0C90177CFE9
:101B00002091590130915A012115310539F0609128
:101B10006701062E000C770BC9019ECF92FD1BCFEB
:101B200047CFCF92DF92EF92FF920F931F93CF9305
:101B3000DF93CDB7DEB7EDB6FEB6E0ECF0E0149182
:101B4000E1ECF0E0E4916E2F70E08DB79EB7F3E02A
:101B5000EF9F8019910911240FB6F8949EBF0FBE14
:101B60008DBF01966C0122EC30E0ADB7BEB7139685
:101B700040E050E046175707B4F4F901319604915C
:101B8000CD010197FC010083F9018491FD01329799
:101B90008083F9013296E491EC934F5F5F4F2D5FA4
:101BA0003F4F1396E7CF412FC601F4D7412F61E095
:101BB00070E0C601EFD70FB6F894FEBE0FBEEDBEC3
:101BC000DF91CF911F910F91FF90EF90DF90CF9019
:101BD00008950895089526E0829FC0011124FC0114
:101BE000E05EFE4F0190F081E02D208181E090E0E9
:101BF00001C0880F6A95EAF7822B8083089526E05A
:101C0000829FC0011124FC01E05EFE4F0190F08133
:101C1000E02D808160956823462B4083089526E05F
:101C2000829FC0011124FC01E05EFE4F0280F3811F
:101C3000E02D208181E090E001C0880F6A95EAF7ED
:101C4000822B8083089526E0829FC0011124FC012D
:101C5000E05EFE4F0280F381E02D208181E090E084
:101C600001C0880F6A95EAF78095822380830895E2
:101C700026E0829FC0011124FC01E05EFE4F02803D
:101C8000F381E02D80816823462B4083089526E070
:101C9000829FC0011124FC01E05EFE4F0480F581AB
:101CA000E02D808186230895E82FE695E695E69558
:101CB000F0E0EC56FE4F982F977021E030E001C025
:101CC000220F9A95EAF79081292B208390918E011B
:101CD00020E029175CF4E22F022E000CFF0BEF55D9
:101CE000FE4F30813817A1F02F5FF3CF96305CF4B0
:101CF000E92F092E000CFF0BEF55FE4F80839F5FED
:101D000090938E0108951092A70181E0809355026F
:101D10000895E82FE695E695E695F0E0EC56FE4F3F
:101D2000982F977021E030E001C0220F9A95EAF7D2
:101D3000209590812923208390918E0141EA51E0E2
:101D4000FA012E2F241B291724F431913813F9CFCF
:101D500001C00895E22F022E000CFF0BEF55FE4F3D
:101D6000818180832F5F2917ACF3915090938E016E
:101D7000109255020895E82FE695E695E695F0E075
:101D8000EC56FE4F982F977021E030E001C0220FF3
:101D90009A95EAF790812927208390918E0141EA54
:101DA00051E0FA012E2F241B291724F43191381306
:101DB000F9CF13C096305CF4E92F092E000CFF0B0D
:101DC000EF55FE4F80839F5F90938E010895109290
:101DD000A70181E0809355020895E22F022E000CA6
:101DE000FF0BEF55FE4F818180832F5F2917ACF3E6
:101DF000915090938E01109255020895909149024E
:101E000094305CF4E92F092E000CFF0BE157FE4FD4
:101E100080839F5F90934902089540E060E070E006
:101E200082E4D8DE109293010895209149024FE890
:101E300051E0FA019E2F941B92179CF431913813B4
:101E4000F9CF921751F0E92F092E000CFF0BE15743
:101E5000FE4F818180839F5FF4CF91509093490220
:101E60000895682F70E040E083E4B4CE80918E0244
:101E7000809358020895982F990F890F880F860F25
:101E80009091890189130DC08091920290919302E3
:101E90008417950734F4809157028F5F809357021F
:101EA000089510928901109257020895E0919602C8
:101EB000F09197024E175F075CF491E0F90190836F
:101EC000982F990F890F880F860F809389010895A5
:101ED000F901108210928901109257020895909191
:101EE0006701E92FEE0FFF0BE755FE4F20918B01A5
:101EF00030E0322F2227282B3183208381E0890F85
:101F000080936701803534F010925402809357011A
:101F100080E18BC4089590915902911110C0805DA9
:101F20008E3068F4E82FF0E0EE0FFF1FE55AFC4F0B
:101F300085919491880F991F855A9C4F58CD08958B
:101F4000CF93DF93C82FD62F59DF809158029091FD
:101F50008E02891711F08B5F68D480E18C0F80931B
:101F6000580285E18C0F41D48FE03FD48091580214
:101F700090918A01D0FF02C0981308C0981308C03E
:101F800080915702811104C080918E0280938A0152
:101F9000DF91CF910895E82FF0E0EE55FD4F849149
:101FA000882311F060E0CCCF08951F93CF93DF9387
:101FB00000D01F92CDB7DEB7182F2B834A836983D9
:101FC00034DF2B814A816981222391F120915802CB
:101FD000E22FF0E0812F90E0805F9109E817F90788
:101FE00039F580915702882319F061FD20938A0109
:101FF00080918D0181131CC062FF1AC0141624F455
:1020000060918B01842F13C0842F807E803E81F4E9
:10201000E42FF0E0EE0FFF1FE759FC4E849180950E
:1020200090918B01892380938B01649180E0C7DCC0
:10203000809158028B5FF9D3E0914902E11103C00E
:1020400080918A0107C00E2E000CFF0BE257FE4F55
:102050008081805F809358028091580290918E0217
:10206000891741F08B5F0F900F900F90DF91CF9108
:102070001F91BBC38FE00F900F900F90DF91CF9116
:102080001F91D3C3E82FF0E0EE55FD4F84918823D4
:1020900021F020E040E060E088CF08956F7062306A
:1020A00051F028F4662339F0613081F008956430EE
:1020B00011F06830F1F4E82FF0E0EE0FFF1FE75960
:1020C000FC4EE49180918B01E82B0AC0E82FF0E0F0
:1020D000EE0FFF1FE759FC4EE49180918B01E8273A
:1020E000E0938B0180915602882319F0E777E09303
:1020F0008B0108956F70623009F43EC018F46623B6
:1021000079F10895643019F0683051F10895E82F9D
:10211000F0E0EE0FFF1FE759FC4EE491E09560916F
:102120008B016E2360938B01222309F443C09091AD
:102130008D0198133FC0842F14168CF0807E803E52
:1021400009F038C0E42FF0E0EE0FFF1FE759FC4E16
:1021500084918095682360938B01649180E02FCCFB
:10216000E82FF0E0EE0FFF1FE759FC4EE491E095F9
:1021700080918B01E8231CC0E82FF0E090918B0147
:10218000EE0FFF1FE759FC4E222379F08091570292
:10219000882359F08491E82FE92BE0938B018091FB
:1021A0005602882339F0E77703C0E491E095E923EC
:1021B000E0938B0108956F70623051F028F466232C
:1021C00039F0613031F00895643011F0683011F465
:1021D0006BCDD1CD08956F70623049F018F4611164
:1021E0000DC00BC0643049F0683041F406C02223B2
:1021F00021F090915702911101C08BCD08951F934A
:10220000CF93DF931F92CDB7DEB7182F862F807F35
:1022100011F0809355011A3A09F4E7C048F5113AD4
:1022200009F472C088F4123809F455C030F48CEF08
:10223000810F803708F444C0D3C0133809F453C069
:10224000143809F459C0CCC0183A58F4143A08F0BC
:102250005FC0123A09F45AC0133A09F0C1C094D3CE
:10226000C4C0183A09F464C0193A09F468C0B8C087
:102270001E3D90F4103D08F08CC01F3A09F46CC06C
:1022800038F41E3A09F0ACC082E080937C01ADC006
:10229000103C08F469C0A4C0183E50F4103E08F089
:1022A0009CC01E3D09F478C01F3D09F489C098C048
:1022B0008FE0810F893008F093C0812F41DE95C0F7
:1022C00080915402882321F0812F698308DE69817F
:1022D000812F71DF8AC080918C0181FD86C0609161
:1022E0008B0189E307C080918C0180FD7EC06091E5
:1022F0008B0183E564DB79C080918C0182FD75C020
:1023000060918B0187E4F6CF73D36FC04BD36DC060
:1023100080915402811169C081E08093540210922F
:102320006701809359028CE5810F8093A1023EC022
:102330009091590281E089278093590256C090916B
:10234000560281E0892780935602811102C085E000
:1023500035C085E04AD249C080917B01811145C0DA
:1023600081E080937B0141C080914A0290914B02B1
:10237000892B09F03AC0E0E5E10FF0E0EE0FFF1F16
:10238000E85FFA4E8591949190934B0280934A02B4
:102390002CC0812FC0DD29C09091540281E0892793
:1023A00080935402882321F01092670180E1D2CFFC
:1023B0008091670181118093570180E136D215C069
:1023C00080915402811111C060915701062E000CBA
:1023D000770B89EA91E040DB08C0812F5FDE05C002
:1023E000612F70E040E084E4F5DB10938D010F90E5
:1023F000DF91CF911F9108951F93CF93DF9300D06A
:102400001F92CDB7DEB7182F862F807F11F0109264
:102410005501103BC8F41E3A08F0ADC0133809F45A
:102420005BC048F4143008F49BC0143730F1123804
:1024300009F44AC095C0143809F45CC08FE5810FD7
:102440008A3008F498C08CC0103E38F4103D08F073
:1024500092C0103C08F456C083C0183E08F468C00F
:102460008FE0810F893008F07BC0812F0F900F9093
:102470000F90DF91CF911F9198CD809154028823C6
:10248000D9F0809159028823B9F0183211F01B322B
:1024900099F4109259021092540280916701815070
:1024A000809357011092A20280E12B834A836983B3
:1024B000BCD169814A812B81812F0F900F900F90A1
:1024C000DF91CF911F9187CE80918C0181FF53C006
:1024D00060918B0189E307C080918C0180FF4BC024
:1024E00060918B0183E50F900F900F90DF91CF915A
:1024F0001F9165CA80918C0182FF3DC060918B0164
:1025000087E4F1CF60E5610FE62FF0E0EE0FFF1FEB
:10251000E85FFA4E8591949120914A0230914B02E6
:102520002817390741F510924B0210924A0223C036
:1025300080915402882361F080918D01811308C03D
:1025400080E02B834A836983CADC69814A812B81BD
:10255000812F0F900F900F90DF91CF911F91CACDD7
:10256000612F70E040E085E40F900F900F90DF91B5
:10257000CF911F912FCB0F900F900F90DF91CF91A4
:102580001F910895EF92FF921F93CF93DF93909145
:102590005802E82EF12CA62FB0E0F701E90FF11D4B
:1025A00096E09E9F90019F9F300D11242A0F3B1FA4
:1025B000F901E15EFC4FD491F901ED51FD4F149109
:1025C000F901E955FD4FC4919E9D90019F9D300DED
:1025D00011242A0F3B1FF901ED57FE4FD083F9015B
:1025E000E45BFD4F1083F901E358FE4FC08343DCE9
:1025F0004C2F612F8D2F03DE05D2DF91CF911F91DC
:10260000FF90EF90FFC69F92AF92BF92CF92DF9262
:10261000EF92FF920F931F93CF93DF931F92CDB74B
:10262000DEB796E0899F90011124260F311DF90134
:10263000ED57FE4F6F01B080F901E45BFD4F7F0164
:10264000A080890103581E4FF80190809E012F5FE2
:102650003F4F2CDC2981492D6A2D8B2DCDDEF601D3
:102660001082F7011082F80110820F90DF91CF9154
:102670001F910F91FF90EF90DF90CF90BF90AF90A0
:102680009F90089526E0829FC00111249C01260F8F
:10269000311DF901ED57FE4F8081F901E45BFD4FDB
:1026A000908193FF19C018161CF460918B0113C020
:1026B000982F907E903E81F4E82FF0E0EE0FFF1F00
:1026C000E759FC4E8491809590918B0189238093EA
:1026D0008B01649180E073C9089520915902211102
:1026E00012C0FC01A1EAB1E0069621E0309155024A
:1026F000332311F0208302C03C9130833196119630
:10270000E817F90799F7089520915902211109C096
:10271000DC01E4E9F1E08DE08E0F91919D938E1341
:10272000FCCF0895FC0180915902811106C080916F
:10273000550190918B01982B9083089590E09C0116
:10274000220F331F820F931FFC01E856FB4E24918A
:10275000FC0131968A569B4EEA56FB4E621721F0D9
:102760006491FC0184915BCA6491FC0184916BCA01
:102770000F931F93CF93DF93E7ECF4E1D49106E935
:1027800014E1C0E0CD1769F0F80131966491F801C9
:10279000849121DA60E08C2FD1DFCF5F0D5F1F4F76
:1027A000F1CF8091940280936902809366028091B8
:1027B0008B0280936402DF91CF911F910F91089556
:1027C00080916202893F69F480916E028F3E19F414
:1027D00010926E0203C08F5F80936E0210926202AD
:1027E00008958F5F80936202089590E0880F991F8B
:1027F000FC01E459FB4EA491FC01E359FB4E84918A
:10280000E6ECF4E1E491AE1778F4B0E0A65ABD4FDF
:10281000811103C08C91816006C09C919170E82F5A
:10282000EE0F892F8E0F8C93089590E0880F991FDB
:10283000FC01E459FB4EA491FC01E359FB4E849149
:10284000E6ECF4E1E491AE1780F4B0E0A65ABD4F97
:10285000811104C08C918E7F8C9308959C91292FB7
:102860002695281302C091709C930895823049F0F8
:10287000833079F08130A1F481E1B7DF82E1D5DFE7
:102880000CC081E1D2DF82E1D0DF83E1AEDF84E101
:10289000CCCF81E1CADF82E1A8DF83E1C6DFF7CFD9
:1028A00081E1C3DF82E1C1DF83E1BFDF84E19DCF4E
:1028B0000F931F93CF93E6ECF4E1E491C0E00E2F69
:1028C00010E08C2F0C2E000C990B8017910714F53B
:1028D000209165022223C9F0FC01E65AFD4F2081B8
:1028E000223018F421110FC010C0E22FE695F0E05D
:1028F000E85CFA4E649180916E020E941E2192174C
:1029000020F490FF02C061E001C060E08C2F16DF70
:10291000CF5FD7CFCF911F910F910895809169021A
:10292000803110F081E002C08C5F8C7F809369025F
:10293000089580916A028F5F813118F480936A0252
:10294000089581E080936A021092680210926D02ED
:10295000089590916902903120F081E080936502A2
:1029600008958091680220916A02929F902D11240F
:10297000891738F491E090936502805F8093680234
:102980000895109265020895EBE6F4E1E4918091D8
:1029900064028F5F8E1718F480936402089510927A
:1029A0006402089580916B028F5F843018F48093E5
:1029B0006B0202C010926B0280916B02811103C006
:1029C0008091690203C0813021F484E08093660223
:1029D0000895823031F484E0809366021092670299
:1029E000089580E18093660281E0809367020895F4
:1029F00095DF80916B02811104C080916902809300
:102A00006602089580916B02823011F488E10BC058
:102A1000833071F480916602853010F0845003C0D9
:102A2000882321F0815080936602089510926602F7
:102A3000089580916C028F5F803318F480936C024C
:102A4000089510926C0290916B029130B1F4209134
:102A5000670280916602222341F08F5F80936602B5
:102A60008831E0F0109267020895815080936602E9
:102A70008530A0F4909367020895923031F48091EC
:102A80006602853058F0815007C0933039F4809148
:102A90006602803118F48F5F8093660208958091FA
:102AA0006602803120F081E0809363020895909166
:102AB0006A02899F802D1124909167029111807F75
:102AC00090916D02981738F481E080936302905FD3
:102AD00090936D0208951092630208951F93CF930F
:102AE000DF93E7ECF4E1E49110E0CE2FD0E0212F6A
:102AF000012E000C330B2C173D07ECF4F901E55ABD
:102B0000FB4EE491EE23A9F080916302882371F0DB
:102B100080916402F90190E1899FE00DF11D11247B
:102B2000E55AFC4EE49161E0E11101C060E0812FC3
:102B300005DE1F5FDCCFDF91CF911F910895F9DE95
:102B400008DF3EDEB5DE75DFAADFC8CF27B1242B54
:102B500027B928B1342F3095232338B1432B3FB701
:102B6000F894FC01680F791FE617F70789F0819147
:102B700098E048B9000000C087FF28B9880F00001E
:102B800000C000C000C028B900C09A9591F7ECCFF2
:102B90003FBF08959B01220F331F620F731FD6DFC3
:102BA00087EC90E00197F1F700C0000008951F92B4
:102BB0000F920FB60F9211240F900FBE0F901F901F
:102BC0001895E4E6F0E0808180718083A5E6B0E0AE
:102BD0008C9186778C9380818160808380818460F2
:102BE00080838081806280838081806480838C91F7
:102BF00088608C93808180688083808182608083FC
:102C00008C9181608C938C918F778C9390E080E88D
:102C10000FB6F89480936100909361000FBE089501
:102C2000D0CF8DEA9EED9093B3028093B2020895C7
:102C300080E189BD82E189BD09B400FEFDCF8091AC
:102C4000D8008F7D8093D8008091E00082608093CF
:102C5000E0008091E00081FDFCCF0895CF92DF92EB
:102C6000EF92FF921F93CF93DF93EFEFF4E1E491A4
:102C7000E0936F02EEEFF4E1E491E0937502EDEF83
:102C8000F4E1E491E0937602ECEFF4E1E491E09377
:102C9000770282EFE82E84E1F82E90E7C92E92E0C9
:102CA000D92ED0E0F70114918091750281111FEFA8
:102CB000F7013196C4914C2F612F8D2F0E94FF0D8B
:102CC0002C2F2095F60121936F01422F41238091F3
:102CD0007502642F6095811101C040E08D2F0E9424
:102CE000380EDF5FF2E0EF0EF11CD530D9F6DF9140
:102CF000CF911F91FF90EF90DF90CF9008950895AE
:102D0000CF93DF93962F642F26E0929FE00111244A
:102D1000C40FD11DCC0FDD1FC858DD4F488159812C
:102D2000882301F157FF0EC020919E0230E03195BB
:102D300021953109241735077CF1892F23DC81E0A7
:102D400090E020C020919A0230919B0242175307D5
:102D500094F0892F97DC20918D0288819981821BC4
:102D6000910910C01416150684F420919E0230E0DB
:102D7000421753071CF44F5F5F4F10C0892F43DC8D
:102D80008FEF9FEF998388830BC08091920290917F
:102D900093028417950724F44150510959834883BD
:102DA000DF91CF910895CF92DF92EF92FF920F9330
:102DB0001F93CF93DF93D62FC82FCD170CF05AC097
:102DC00080E7E82E82E0F82EF5E0CF0260011124C2
:102DD00000E010E0F70161917F016F3F49F0F801D9
:102DE000EC0DFD1DEC52FB4E4491802F0E94380EDD
:102DF0000F5F1F4F0530110569F7809198028A9582
:102E0000F1F710E0212F012E000C330B8091770297
:102E100090E02817390764F580917502220F331F5F
:102E2000F901E753FB4E882359F06491F901E85307
:102E3000FB4E84910E94470E91E0882361F00AC006
:102E40006491F901E853FB4E84910E94470E91E092
:102E5000811101C090E080916F02882319F04C2FFE
:102E6000612F02C0412F6C2F892F4ADF1F5FCACF0D
:102E7000CF5FA3CFDF91CF911F910F91FF90EF9084
:102E8000DF90CF9008956091760280E08CCF81E052
:102E900080938702089589E18093900210929902AD
:102EA00010929D0210928E0280E180939402109203
:102EB0009C0286E080939E021092910210928B02F7
:102EC00080EF90E0909397028093960288E89FEFBE
:102ED000909393028093920285E080938F029FE00B
:102EE0009093950220E233E030939B0220939A0264
:102EF00090E290938D0280939802089585E08093EC
:102F0000A2020895CF92DF92EF92FF920F931F9348
:102F1000CF93DF93CDB7DEB7EDB6FEB6E5E4F5E1CE
:102F20001491E6E4F5E1E4916E2F70E08DB79EB761
:102F3000F3E0EF9F8019910911240FB6F8949EBF1A
:102F40000FBE8DBF01966C0127E435E1ADB7BEB76A
:102F5000139640E050E046175707B4F4F901319654
:102F60000491CD010197FC010083F9018491FD01D9
:102F700032978083F9013296E491EC934F5F5F4F73
:102F80002D5F3F4F1396E7CF412FC60103DE412F40
:102F900061E070E0C601FEDD0FB6F894FEBE0FBE24
:102FA000EDBEDF91CF911F910F91FF90EF90DF90D9
:102FB000CF90089513BC109280001092820080E898
:102FC0009EE3909389008093880008951092A30255
:102FD0007894109285001092840081E080938100A3
:102FE00082E080936F009AE088E10FB6F894A8958C
:102FF000809360000FBE90936000E0E6F0E0808177
:10300000806C808308950FB6F894A8958091600035
:10301000886180936000109260000FBEE0E6F0E0EF
:1030200080818F7B808310926F00109281000895C1
:10303000CF93DF93C0E0D0E08091A302FE0124E0B3
:10304000829FE00DF11D1124EE0FFF1FE050FB4E9B
:1030500085919491009721F0C093A502FC010995F8
:103060002196C430D10541F7DF91CF910895109298
:103070008500109284008091A402882381F08091C1
:10308000A3026091A50270E0782B40E081E10E94EC
:10309000EA0D8091A4028F5F8093A402089581E0DD
:1030A0008093A4027894C4DF8091A3028F5F809301
:1030B000A30281111092A3028091A402823038F001
:1030C0006091A40270E040E084E10E94EA0DA895BE
:1030D0001092A40208951F920F920FB60F9211241E
:1030E0002F933F934F935F936F937F938F939F9310
:1030F000AF93BF93EF93FF93BADFFF91EF91BF912F
:10310000AF919F918F917F916F915F914F913F917F
:103110002F910F900FBE0F901F901895292F3327D6
:1031200023303105C1F05CF42130310579F02230D3
:103130003105D9F58BE390E027E737E13AC021323A
:103140003105B9F02232310511F12FC082E190E052
:1031500022EB37E12EC09927009729F0019729F536
:10316000E7E2F7E102C0E3E7F7E1849190E09F0135
:1031700020C0662339F06130C1F489E090E022EA92
:1031800037E117C089E090E029E837E112C06623F3
:1031900039F0613051F48BE190E024EC37E109C063
:1031A0008FE390E02FED37E104C080E090E020E075
:1031B00030E0FA0131832083089581E057CB0895F0
:1031C000CF9380E191E018D7C82F80918C0281FDC8
:1031D00004C080E091E010D7C823CC2311F080E038
:1031E00001C083E043DB8091E20084608093E200D1
:1031F000CF91089580E191E0C7D580918C0281FD47
:1032000003C080E091E0C0C5089580911E019091B7
:103210001F01009729F0019790931F0180931E01D1
:1032200080918C0281FD0BC080910E0190910F0165
:10323000009729F0019790930F0180930E01089554
:1032400080E014CB82E012CB80E010CB0F931F9371
:10325000CF93DF9380519140E1F4E9011092660130
:1032600020918C02CE01029620FD06C0209119010A
:10327000222311F049DA01C030DACE0153DA80910D
:103280008C0280FF03C088E090E00CC082E190E0F7
:1032900009C080914A0290914B02F9019183808389
:1032A00082E090E0F8019183808380E0DF91CF910C
:1032B0001F910F910895CF938051914009F075C0EF
:1032C000F901808180938C01C0913F01C8278093D0
:1032D0003F01CC2309F469C09091910291110FC074
:1032E000C0FF0DC080FF06C080E07FDA80E00E9452
:1032F000CB0F05C080E099DA80E00E944210C1FF48
:103300000FC080918C0181FF06C081E06EDA81E000
:103310000E94CB0F05C081E088DA81E00E94421054
:10332000C2FF20C080918C0182FF0FC082E05DDA75
:1033300082E00E94CB0F80919902882399F081E06E
:103340008093560285E051DA0DC082E06EDA82E0A9
:103350000E94421080919902882321F01092560217
:1033600085E063DAC3FF0FC080918C0183FF06C044
:1033700083E03BDA83E00E94CB0F05C083E055DA9F
:1033800083E00E944210C4FF10C080918C0184FF32
:1033900006C084E02ADA84E0CF910C94CB0F84E05D
:1033A00044DA84E0CF910C944210CF91089580913B
:1033B0008C0280FF09C088E08093180188E090E0CB
:1033C0009093130180931201089580E191E027D634
:1033D00080918C0281FD03C080E091E020D6BAD4B8
:1033E0008091A90290913E01981759F06091A9022D
:1033F00070E041E086EA0E94EA0D8091A902809384
:103400003E0108958091A702882329F08091A902A6
:10341000853009F40DCC0895CF92DF92EF92FF92A0
:103420000F931F93CF93DF93EC018B017A01DED1D1
:10343000811133C0E114F10439F0F70180819181E9
:10344000081B190BC80FD91FC12CD12C0115110550
:1034500019F18091E80085FD16C08091E8008E7713
:103460008093E80077D4E114F10449F0F7018081FA
:103470009181C80ED91ED182C08285E00EC0B6D11E
:10348000882321F30AC089918093F100015011092A
:10349000FFEFCF1ADF0ADACF80E0DF91CF911F91E3
:1034A0000F91FF90EF90DF90CF9008952091B002A0
:1034B0003091B1022617370748F06115710539F4CC
:1034C0002091E8002E772093E80001C0B90140E088
:1034D00061157105A9F12091A902222309F443C0C5
:1034E000253009F442C02091E80023FD40C020911E
:1034F000E80022FD32C02091E80020FFE9CF409192
:10350000F3002091F20030E0342BFC01CF01611573
:10351000710559F02830310540F481918093F10014
:10352000615071092F5F3F4FF1CF41E028303105E5
:1035300009F040E02091E8002E772093E800C8CF02
:103540004111C9CF0AC08091A902882361F085305A
:1035500061F08091E80083FD0AC08091E80082FF5D
:10356000F2CF80E0089582E0089583E0089581E03D
:1035700008956115710529F42091E8002B772093B7
:10358000E800FC016115710541F18091A9028823D1
:1035900061F1853061F18091E80083FD24C0809164
:1035A000E80082FFEFCF2091F3008091F20090E0DD
:1035B000922B892B31F08091F10081936150710938
:1035C00091F78091E8008B778093E800DBCF8091C2
:1035D000A902882351F0853051F08091E80080FFE6
:1035E000F6CF80E0089581E0089582E0089583E0B9
:1035F00008952091B0023091B1022617370748F0A4
:103600006115710539F42091E8002E772093E800C8
:1036100001C0B901FC0120E06115710591F18091B3
:10362000A902882309F440C0853009F43FC0809185
:10363000E80083FD3DC08091E80082FD2FC08091AD
:10364000E80080FFE9CF2091F3008091F20090E044
:10365000922B6115710559F08830910540F4249141
:103660002093F1003196615071090196F2CF21E06B
:10367000089709F020E08091E8008E778093E800B9
:10368000CBCF2111CCCF0AC08091A902882361F051
:10369000853061F08091E80083FD0AC08091E800E8
:1036A00082FFF2CF80E0089582E0089583E00895DC
:1036B00081E00895982F973058F59093E900981776
:1036C00039F07091EC002091ED005091F00003C0B2
:1036D000242F762F50E021FF19C03091EB003E7F60
:1036E0003093EB003091ED003D7F3093ED00309151
:1036F000EB0031603093EB007093EC002093ED0011
:103700005093F0002091EE0027FF07C09F5FD3CFBA
:103710008F708093E90081E0089580E00895EF9232
:10372000FF920F931F93CF93DF93E62EEC018C0152
:103730000C5F1F4FF12CFE1491F15881552351F16C
:10374000F801208169817A8131979081852F8F706E
:10375000873010F080E024C0223010F442E001C035
:1037600046E0E8E0F0E020E0E617F70720F42F5FFE
:10377000EE0FFF1FF9CF2295207F422BF0E49F9F91
:1037800090011124551F5527551F652F622B92DF7D
:10379000882301F3F39425960B5F1F4FCCCF81E074
:1037A000DF91CF911F910F91FF90EF90089580913D
:1037B000AA0287FF11C08091E80082FD05C08091B8
:1037C000A9028111F8CF11C08091E8008B770BC05E
:1037D0008091A902882349F08091E80080FFF8CF0A
:1037E0008091E8008E778093E80008952091E400AE
:1037F0003091E50095E64091EC00842F817040FF08
:1038000022C08091E80080FD1CC08091A90288231D
:1038100091F0853091F08091EB0085FD10C04091D2
:10382000E4005091E5004217530729F39A019150A3
:1038300011F784E0089582E0089583E0089581E01F
:10384000089580E008954091E80042FFDECF08959A
:1038500065D06CD0E0EEF0E0808181608083E8ED9F
:10386000F0E080818F77808319BCA7EDB0E08C9168
:103870008E7F8C9380818F7E80831092A802089522
:103880000F931F93CF93DF9349D050D0C8EDD0E072
:1038900088818F77888388818068888388818F7DFD
:1038A000888319BC1092A9021092A6021092A70256
:1038B00000EE10E0F80180818B7F80838881816039
:1038C000888342E060E080E0F5DEE1EEF0E08081B8
:1038D0008E7F8083E2EEF0E0808181608083808152
:1038E00088608083F80180818E7F808388818061F9
:1038F0008883DF91CF911F910F910895E8EDF0E05B
:1039000080818F7E8083E7EDF0E08081816080831D
:1039100084E082BF81E08093A802B2CFE8EDF0E0BE
:1039200080818E7F80831092E20008951092DA00E9
:103930001092E10008951F920F920FB60F9211247A
:103940002F933F934F935F936F937F938F939F93A7
:10395000AF93BF93EF93FF938091E10082FF0AC082
:103960008091E20082FF06C08091E1008B7F80930E
:10397000E1004BDC8091DA0080FF1DC08091D8000F
:1039800080FF19C08091DA008E7F8093DA008091E9
:10399000D90080FF0CC080E189BD82E189BD09B4F6
:1039A00000FEFDCF81E08093A90207DC04C019BCB2
:1039B0001092A90204DC8091E10080FF18C0809180
:1039C000E20080FF14C08091E2008E7F8093E200CD
:1039D0008091E20080618093E2008091D800806253
:1039E0008093D80019BC85E08093A9022BDC8091DC
:1039F000E10084FF2FC08091E20084FF2BC080E1B2
:103A000089BD82E189BD09B400FEFDCF8091D80057
:103A10008F7D8093D8008091E1008F7E8093E100BC
:103A20008091E2008F7E8093E2008091E2008160CD
:103A30008093E2008091A602882311F084E007C001
:103A40008091E30087FD02C081E001C083E08093A4
:103A5000A902FADB8091E10083FF22C08091E2009D
:103A600083FF1EC08091E100877F8093E10082E0A8
:103A70008093A9021092A6028091E1008E7F80932C
:103A8000E1008091E2008E7F8093E2008091E2006D
:103A900080618093E20042E060E080E00BDED0DBFA
:103AA000FF91EF91BF91AF919F918F917F916F9116
:103AB0005F914F913F912F910F900FBE0F901F90EC
:103AC00018951F93CF93DF93CDB7DEB7AA970FB6A4
:103AD000F894DEBF0FBECDBFEAEAF2E088E08E0FB9
:103AE0009091F10091938E13FBCF84DB8091E800DD
:103AF00083FF18C18091AA029091AB02492F50E038
:103B00004A30510508F00EC1FA01EA5AFF4FA2C32C
:103B1000803881F0823809F005C18091AE028F7043
:103B20008093E9008091EB0085FB882780F9109253
:103B3000E90007C08091A702882311F082E001C04C
:103B400080E09091E800977F9093E8008093F100E7
:103B50001092F100C4C0282F2D7F09F0E3C0882304
:103B600019F0823061F0DEC08091AC02813009F042
:103B7000D9C0933009F080E08093A7022BC08091D8
:103B8000AC02811127C08091AE028F7009F4CAC0C7
:103B90008093E9002091EB0020FF1CC0933021F4BA
:103BA0008091EB00806214C09091EB009061909343
:103BB000EB0021E030E0A90102C0440F551F8A95B7
:103BC000E2F74093EA001092EA008091EB008860EF
:103BD0008093EB001092E9008091E800877F82C01B
:103BE0008111A0C01091AC021F778091E300807812
:103BF000812B8093E3008091E800877F8093E80029
:103C0000D6DD8091E80080FFFCCF8091E3008068E2
:103C10008093E300111102C082E001C083E0809331
:103C2000A90280C08058823008F07CC08091AC022C
:103C30009091AD028C3D53E0950771F583E08A8346
:103C40008AE289834FB7F894DE01139620E03EE0C4
:103C500051E2E32FF0E050935700E49120FF03C0BE
:103C6000E295EF703F5FEF708E2F90E0EA3010F03A
:103C7000C79601C0C0968D939D932F5F243149F75D
:103C80004FBF8091E800877F8093E8006AE270E090
:103C9000CE0101960BDC12C0AE014F5F5F4F609109
:103CA000AE023CDABC01892B09F43CC09091E800DB
:103CB000977F9093E80089819A819BDC8091E8004E
:103CC0008B778093E8002EC0803861F58091E80002
:103CD000877F8093E8008091A6028093F100809115
:103CE000E8008E778093E80062DD1CC081111AC065
:103CF0009091AC029230B0F48091E800877F80937D
:103D0000E8009093A60253DD8091A602811106C0BF
:103D10008091E30087FD02C081E001C084E08093D0
:103D2000A9024EDA8091E80083FF0AC08091E80082
:103D3000877F8093E8008091EB0080628093EB00A6
:103D4000AA960FB6F894DEBF0FBECDBFDF91CF911C
:103D50001F910895CF938091A902882399F0C09173
:103D6000E900CF709091EC00892F817090FD80E880
:103D7000C82B1092E9008091E80083FDA2DECF708D
:103D8000C093E900CF9108956F927F928F929F9296
:103D9000AF92BF92CF92DF92EF92FF920F931F9359
:103DA000CF93DF9300D01F92CDB7DEB77C01CDB6A5
:103DB000DEB68091E80083FF08C1F701808190E0C2
:103DC0002091AE023091AF022817390709F0FDC0EB
:103DD0008091AB02833009F49FC030F4813071F0E0
:103DE000823009F4D6C0F1C08A3009F4BAC08B30F1
:103DF00009F4A3C0893009F0E8C051C08091AA023B
:103E0000813A09F0E2C08DB69EB61A82198280917D
:103E1000AC021091AD028B83F7018085482F50E0F2
:103E20008DB79EB7841B950B0FB6F8949EBF0FBE3F
:103E30008DBFEDB7FEB731965F0160E070E0CF0156
:103E400025D24FEF410F8E010F5F1F4F9501BE012D
:103E50006D5F7F4FC701FAD9F7018681978100977F
:103E600021F0408550E0B50108D21092E900809120
:103E7000E800877F8093E8008B8181118093F100B7
:103E800069817A81C50112DB8091E8008B7780938C
:103E9000E8000FB6F8949EBE0FBE8DBE96C080910E
:103EA000AA02813209F091C0ADB6BEB60091B0024F
:103EB0001091B1027090AC026090AD028DB79EB7C8
:103EC000801B910B0FB6F8949EBF0FBE8DBFEDB750
:103ED000FEB731964F018091E800877F8093E8001C
:103EE000B801CF0146DB8091E8008E778093E8002F
:103EF00021E0711001C020E030E0021B130B280DFF
:103F0000391D4FEF460D672DC701D5D90FB6F8946F
:103F1000BEBE0FBEADBE59C08091AA02813A09F063
:103F200054C08091E800877F8093E8008091E8008A
:103F300080FFFCCFF701818540C08091AA028132C9
:103F400009F043C08091E800877F8093E8002FDC70
:103F50009091AC0281E0911101C080E0F70181876E
:103F600034C08091AA02813281F58091E800877F78
:103F70008093E8001CDC8091AC029091AD02882710
:103F800036E0969587953A95E1F7F701958784870E
:103F90001CC08091AA02813AC1F48091E800877F19
:103FA0008093E8008091E80080FFFCCFF7018485D2
:103FB000958596958795969587958093F100809144
:103FC000E8008E778093E800F2DB0FB6F894DEBE4F
:103FD0000FBECDBE0F900F900F90DF91CF911F912C
:103FE0000F91FF90EF90DF90CF90BF90AF909F9098
:103FF0008F907F906F900895FC01399627E0DF0144
:104000001D922A95E9F721E0FC01218724EF31E098
:104010003587248723E0248361E0019680CB4F928B
:104020005F926F927F928F929F92AF92BF92CF9248
:10403000DF92EF92FF920F931F93CF93DF9300D005
:104040001F92CDB7DEB77C01ADB6BEB68091A90296
:10405000843009F08DC08091E4009091E500F70173
:10406000228533852817390709F482C081818F7032
:104070008093E9008091E80085FF7AC08DB69EB6F6
:10408000408550E08DB79EB7841B950B0FB6F89412
:104090009EBF0FBE8DBFEDB7FEB731966F011B827D
:1040A0001A82198260E070E0CF01F0D08E010F5FBC
:1040B0001F4F960140E0BE016D5F7F4FC701C6D81C
:1040C000482EF70184859585892B51F091E080E099
:1040D00026853785232B09F090E0092F182F02C081
:1040E00000E010E0F701668077806114710489F0C8
:1040F00049815A81B301C601B3D055245394892B09
:1041000009F4512CF701408550E0B601C301B5D048
:1041100001C0512C89819A81892BF1F0411004C092
:10412000511002C0012BC1F0F70184859585978756
:10413000868781818F708093E9008B8181118093C4
:10414000F10069817A8140E050E0C60165D9809133
:10415000E8008E778093E8008091E4009091E5007C
:10416000F701938782870FB6F8949EBE0FBE8DBE6F
:104170000FB6F894BEBE0FBEADBE0F900F900F905D
:10418000DF91CF911F910F91FF90EF90DF90CF9033
:10419000BF90AF909F908F907F906F905F904F9067
:1041A000089508950E9410160E94E90D0E944B1771
:1041B0000E942E160E94B8130E94360F0E944717C5
:1041C0000E94540C0E947E170E94DA17F0D80E94B9
:1041D00082170E94910D0E947F1690CB0E94E617D5
:1041E00080917C018823E1F30C94031831DBF8946F
:1041F0002FEF87EA91E6215080409040E1F700C020
:10420000000080917C01823011F40E94111680918F
:104210007C01882359F09CE088E10FB6F894A895BA
:10422000809360000FBE90936000FFCF0895B9DFC8
:10423000B9DFD4DFDBDF80E090E00895991B79E0FF
:1042400004C0991F961708F0961B881F7A95C9F726
:1042500080950895EE0FFF1F0590F491E02D0994CD
:10426000FB01DC0104C08D910190801921F44150C3
:104270005040C8F7881B990B0895FB01DC0102C070
:1042800001900D9241505040D8F70895DC0101C0D3
:0E4290006D9341505040E0F70895F894FFCF31
:10429E000182020000014001020000000000000047
:1042AE000081120000014201120000000000000017
:1042BE002400250023002700280026002A002B00BA
:0E42CE0029002D002E002C00300031002F00A2
:00000001FF
