:100000000C9412190C9455190C9455190C945519FB
:100010000C9455190C9455190C9455190C945519A8
:100020000C9455190C9455190C94AD310C94551928
:100030000C9455270C9455190C9455190C9455197A
:100040000C9455190C94012D0C9455190C945519B8
:100050000C9455190C9455190C9455190C94551968
:100060000C9455190C9455190C9455190C94551958
:100070000C9455190C9455190C9455190C94551948
:100080000C9455190C9455190C9455190C94551938
:100090000C9455190C9455190C9455190C94551928
:1000A0000C9455190C9455190C945519621F501C39
:1000B000561C6F1C751C601F601F2B1D311D601F9F
:1000C000601F601F601F601F601F0B1E211F461FE7
:1000D000281E441E631E881EA11EC61EE61EFF1E8D
:1000E0009A32BD32A433BD32A43302332433A43355
:1000F000763388330000000000000000000000009C
:10010000000000002A002B0028000000000028004A
:1001100000000000000000000000000000000000DF
:1001200000000000000000000000290000000000A6
:10013000000000002C001E023402200221022202D4
:10014000240234002602270225022E0236002D004A
:100150003700380027001E001F0020002100220069
:1001600023002400250026003302330036022E002F
:10017000370238021F0204020502060207020802C3
:1001800009020A020B020C020D020E020F021002FB
:1001900011021202130214021502160217021802AB
:1001A00019021A021B021C021D022F00310030002E
:1001B00023022D0235000400050006000700080098
:1001C00009000A000B000C000D000E000F001000CB
:1001D000110012001300140015001600170018007B
:1001E00019001A001B001C001D002F0231023002F2
:1001F00035024C004000000000000000000000003C
:1002000000000000000000000000000000000000EE
:1002100000000000000000000000000000000000DE
:1002200000000000000000000000000000000000CE
:1002300000000000000000000000000000000000BE
:1024B0000000000000000000000000FF00FF00FF1F
:1024C00000FF00FF00FF00FF00FF00FF00FF00FF14
:1024D00000FF00FF00FF00FF00FF00FF00FF00FF04
:1024E00000FF00FF000000000000000000000000EE
:1024F00000000000000000000000000000000000DC
:1025000000000000000000000000000000000000CB
:102510000000000000080C000000000000000000A7
:1025200000000000000000000000000000000000AB
:10253000000000000000000000000000000000009B
:10254000000000000000000000000000000000008B
:10255000000000000000000000000000000000007B
:10256000000000000000000000000000000000006B
:10257000000000000000000000000000000000005B
:10258000000000000000000000000000000000004B
:10259000000000000000000000000000000000003B
:1025A000000000000000000000000000000000002B
:1025B000000000000000000000000000000000001B
:1025C0000000000000000000000000000101010107
:1025D00014000000000000000000000000000000E7
:1025E00000000000000000000000000000000000EB
:1025F00000000000000000000000010101011400C3
:1026000000000000000000000000000000000000CA
:1026100000000000000000000000000000000000BA
:102620000000000000000000010101011400000092
:10263000000000000000000000000000000000009A
:10264000000000000000000000000000000000008A
:102650000000000000000101010114F42E2F2920C8
:102660002700003529112C77292027F42E3E292018
:102670002700004A29EB1A381C20274F7574206F59
:10268000662072616E67652E0A00456E7465722061
:102690006E65772064656661756C742064696D6D24
:1026A0006572206C6576656C2028312D3136293EA7
:1026B0002000456E746572206E65772064656661E2
:1026C000756C74206261636B6C6967687420656EF9
:1026D00061626C652028312D31293E2000456E74E1
:1026E0006572206E6577206D6174726978207365FC
:1026F000747570207761697420696E206379636CEA
:1027000065732028312D323535293E2000456E7401
:102710006572206E657720726570656174207469DA
:102720006D6520696E206D732028312D3939293E61
:102730002000456E746572206E657720686F6C644A
:102740002074696D6520696E206D732028312D39E4
:102750003939293E2000456E746572206E657720F8
:102760006D6F757365206D6F76656D656E74206D28
:10277000756C7469706C6965722028312D3939293E
:102780003E2000456E746572206E6577206261732D
:1027900065206D6F757365206D6F76656D656E7400
:1027A0002028312D3939293E2000456E746572206C
:1027B0006E657720646F75626C6574617020646506
:1027C0006C61792074696D6520696E206D732028B5
:1027D000312D393939293E2000456E746572206EDD
:1027E0006577207461702074696D6520696E206D55
:1027F000732028312D393939293E2000456E746502
:1028000072206E6577206465626F756E63652074F3
:10281000696D6520696E206D732028312D39392945
:102820003E20005365743A00456E746572206E65F3
:10283000772064656661756C74206C6179657220BF
:1028400028302D39293E20004E756D206C6F636B4A
:10285000206973206C696E6B656420746F207468E6
:10286000652073797374656D206E756D206C6F6370
:102870006B2E0A004E756D206C6F636B2077696C50
:102880006C2066756E6374696F6E20696E64657026
:10289000656E64656E746C79206F6620746865205F
:1028A00073797374656D206E756D206C6F636B2E1C
:1028B0000A004B6579626F617264206163747320F2
:1028C000617320657874656E646564204E4B524F69
:1028D000206B6579626F6172642077697468206D1E
:1028E0006F75736520616E64206D65646961206B2E
:1028F0006579732E0A004B6579626F61726420619D
:1029000063747320617320364B524F206B6579627C
:102910006F61726420706C7573206D6F75736520C4
:10292000616E64206D65646961206B6579732E0A40
:10293000004B6579626F617264206973206C696D08
:102940006974656420746F207374616E646172646D
:1029500020364B524F20626F6F742D636F6D706124
:102960007469626C65206B6579626F6172642E0AAE
:10297000005363726F6C6C206C6F636B2077696CB3
:102980006C206E6F74206166666563742077696E73
:10299000206C6F636B2E0A0057696E646F7773202B
:1029A0006B65792077696C6C20626520646973615E
:1029B000626C6564207768656E207363726F6C6CFF
:1029C000206C6F636B20697320656E61626C656457
:1029D0002E0A004E756D206C6F636B2077696C6CEE
:1029E000206E6F7420616666656374206E756D621B
:1029F000657220726F772E0A004E756D62657220C7
:102A0000726F772077696C6C2062652073776170D4
:102A100070656420666F72206E756D706164206BE6
:102A2000657973207768656E206E756D206C6F63B5
:102A30006B20697320656E61626C65642E0A0049C3
:102A40006E707574206E6F74207265636F676E6947
:102A50007A65642E0A000A54696D696E67204D65B7
:102A60006E753A0A312920536574206465626F756A
:102A70006E63652074696D650A3229205365742080
:102A80006D617820686F6C642074696D6520666F75
:102A900072207461700A332920536574206D617847
:102AA0002064656C61792074696D6520666F7220A1
:102AB000646F75626C65207461700A3429205365F7
:102AC000742062617365206D6F757365206D6F761C
:102AD000656D656E740A352920536574206D6F75B8
:102AE0007365206D6F76656D656E74206D756C74A1
:102AF00069706C6965720A362920536574206D69A6
:102B00006E20686F6C642074696D6520666F72203A
:102B10007265706561740A37292053657420726587
:102B20007065617420706572696F640A382920537A
:102B30006574206D61747269782073657475702096
:102B4000776169740A3929204261636B0A3E20006B
:102B50000A436F6E666967204D656E753A0A3129C2
:102B600020546F67676C65207669727475616C209C
:102B70006E756D207061640A322920546F67676C2E
:102B8000652077696E206C6F636B206F6E207363B6
:102B9000726F6C6C206C6F636B0A33292053657401
:102BA0002064656661756C74206C617965720A34A5
:102BB0002920546F67676C65206261736963206BBD
:102BC0006579626F6172640A352920546F67676C9A
:102BD0006520756E6C696E6B206E756D206C6F6311
:102BE0006B0A3629205365742064656661756C74C0
:102BF0002064696D6D6572206C6576656C0A372995
:102C0000205365742064656661756C74206261632D
:102C10006B6C6967687420656E61626C650A39293E
:102C2000204261636B0A3E20000A4D61696E204DAF
:102C3000656E753A0A312920436F6E666967206DAB
:102C4000656E750A32292054696D696E67206D655D
:102C50006E750A34292052657365740A392920512A
:102C60007569740A3E20001E4D1F51204E215022CE
:102C700000234F244A2552264B2749374CE200E9CE
:102C800000EA00E500B500B600B700CD002402253B
:102C90000283018A019201940121022302C101C22F
:102CA00002C304C408C510E001E102E204E308E441
:102CB00010E520E640E7800105080A0C0F10141407
:102CC000181800384E050001570501015B05020187
:102CD0004C050301520504015A0505015C05060176
:102CE0004F050701490508015405090250050B026B
:102CF0004D050D0153050E0158050F024B0511013D
:102D0000560512016141624263436444654566466B
:102D10006747684869496A4A6B4B6C4C6D4D6E4E0B
:102D20006F4F70507151725273537454755576567B
:102D30007757785879597A5A3121324033233424DD
:102D40003525365E3726382A39283029000000001C
:102D50000000000020202D5F3D2B5B7B5D7D5C7CB7
:102D6000237E3B3A2722607E2C3C2E3E2F3F0000E4
:102D70000000000000000000000000000000000053
:102D80000000000000000000000000000000000043
:102D90000000000000000000000000000000000033
:102DA000000000002F2F2A2A2D2D2B2B0000310090
:102DB0003200330034003500360037003800390067
:102DC00030002E005C7C00000000000000000000CD
:102DD00000000000000000000000000000000000F3
:102DE000000000006162636465666768696A6B6C15
:102DF0006D6E6F707172737475767778797A4142FF
:102E0000434445464748494A4B4C4D4E4F5051521A
:102E1000535455565758595A303132333435363762
:102E200038392122232425262728292A2B2C2D2E08
:102E30002F3A3B3C3D3E3F405B5C5D5E5F607B7C90
:102E40007D7E008000000000000000000000000007
:102E50000000000000000000000000000000000072
:102E60000000000000000000000000000000000062
:102E70000000000000000000000000000000000052
:102E80000000000000000000000000000000000042
:102E90000000000000000000000000000000000032
:102EA0000000000000000000000000000000000022
:102EB0000000000000000000000000000000000012
:102EC0000000000000000000000000000000000002
:102ED00000000000000000000000000000000000F2
:102EE00000000000000000000000000000000000E2
:102EF00000000000000000000000000000000000D2
:102F000000000000000000000000000000000000C1
:102F100000000000000000000000000000000000B1
:102F200000000000000000000000000000000000A1
:102F30000000000000000000000000000000000091
:102F40000000000000000000000000000000000081
:102F50000000000000000000000000000000000071
:102F60000000000000000000000000000000000061
:102F70000000000000000000000000000000000051
:102F80000000000000000000000000000000000041
:102F90000000000000000000000000000000000031
:102FA0000000000000000000000000000000000021
:102FB0000000000000000000000000000000000011
:102FC0000000000000000000000000000000000001
:102FD00000000000000000000000000000000000F1
:102FE00000000000000000000000000000000000E1
:102FF00000000000000000000000000000000000D1
:1030000000000000000000000000000000000000C0
:1030100000000000000000000000000000000000B0
:1030200000000000004A0345006100730079004180
:10303000005600520020004D0075006C00740069BD
:10304000006D00650064006900610020004B0065B0
:1030500000790062006F0061007200640020007659
:103060000023002E00230023002E00230023000055
:10307000000403090409022200010100A03209042E
:10308000000001030101000921B0010001223F00FD
:103090000705810308000109025400030100A03262
:1030A0000904000001030101000921B0010001220F
:1030B0003F00070581030800010904010001030125
:1030C00002000921B0010001223A00070582030332
:1030D00000050904020001030000000921B00100FD
:1030E00001221B00070583030200080902540003A4
:1030F0000100A0320904000001030101000921B010
:10310000010001223F0007058103120001090401AB
:103110000001030102000921B0010001223A000769
:1031200005820303000509040200010300000009F1
:1031300021B0010001221B000705830302000812D1
:1031400001000200000008EB03FF20100000010056
:1031500001050C0901A101050C160100269C021AAB
:1031600001002A9C02751095018100C00501090229
:10317000A1010901A1000509190129031500250173
:1031800095037501810295017505810105010930DD
:1031900009311681FF267F003600004600009502A7
:1031A00075088106C0C005010906A101050719E0DF
:1031B00029E715002501750195088102950175081B
:1031C00081010508190129059505750191029501EF
:1031D000750391011500250105071900297F9580C8
:1031E00075018102C005010906A101050719E02941
:1031F000E715002501750195088102950175088183
:1032000001050819012905950575019102950175BA
:10321000039101150025FF0507190029FF95067583
:10322000088100C011241FBECFEFDAE0DEBFCDBFA2
:1032300084B714BE0FB6F894A89590916000986179
:1032400090936000109260000FBE83FF11C08091C8
:103250007005909171058D3A9E4D51F41092710553
:1032600010927005E2ECFCE225913491F901099588
:1032700085B7806885BF85B7806885BF11E0A0E00D
:10328000B1E0EEE7FDE602C005900D92AE34B10765
:10329000D9F725E0AEE4B1E001C01D92A037B20736
:1032A000E1F70E9429360C94BD360C940000109270
:1032B00072011092710110926D0110926C011092C6
:1032C0007C0110927B01089590916E0180917901AB
:1032D000992399F181113AC080917001811129C01F
:1032E00080918D01811121C0E0916701E91305C032
:1032F00010926E011092670129C081E08E0F8093B9
:103300006701F0E0EE0FFF1FE358FE4F80819181CF
:10331000813019F49093700119C0909368018093E3
:103320008D01882399F03FD611C072D610928D017D
:103330000DC081508093700109C0811107C01092A7
:10334000680180916F018D7F80936F018091790179
:10335000811103C081E08093790108958091C802B2
:1033600090916901981731F180936901882311F1D7
:10337000883211F0883531F480916F018B7F809312
:103380006F010895E0916B018A3251F4EE2391F0C0
:10339000E150E0936B01F0E0ED58FE4F108208958C
:1033A000E63040F4AE2FB0E0AD58BE4F8C93EF5FE7
:1033B000E0936B0108958091C802811102C01092C0
:1033C0006F010895BC0180916E01DB01982F292FB8
:1033D000281B983058F090936E01620F711D27FDE5
:1033E0007A9570937C0160937B0122C0FD01259149
:1033F0003491211109C090936E0110927C011092BA
:103400007B019923D1F014C0492F50E0F901FF2727
:10341000EE0FFF1FEC50FF4F25913491440F551FC5
:10342000FA01E358FE4F318320839F5F1196CFCF7F
:1034300080916F01836080936F0181E008954091D6
:103440006E0128E030E0241B31092617370758F1B8
:10345000B0E04B2F0B2E000C550B46175707D8F436
:10346000A0916E012A2F30E0FC01E40FF51FE081EE
:10347000F0E0EE0FFF1FEC50FF4F45915491220FEB
:10348000331FF901E358FE4F51834083AF5FA09390
:103490006E01BF5FDECF672B41F080916F018360CB
:1034A00080936F0102C080E0089581E008959091BB
:1034B0006E01983090F4E92FF0E0EE0FFF1FE35813
:1034C000FE4F808361839F5F90936E0180916F01B7
:1034D000836080936F0181E0089580E008959C01EE
:1034E00090916E0191112EC0A901983049F49093EA
:1034F0006E01205F3F4F30937201209371011BC01A
:10350000FA01659174914E5F5F4F6115710549F441
:1035100090936E011092720110927101992381F0C3
:103520000AC0E92FF0E0EE0FFF1FE358FE4F718352
:1035300060839F5FDACF80916F01836080936F011A
:1035400081E0089580E00895AC0180916E018111C1
:103550003EC060937A01282F082E000C330B2617EB
:10356000370758F590916E01220F331F983038F0CD
:10357000240F351F30936D0120936C011EC0FA019A
:10358000E20FF31F20813181E92FF0E0EE0FFF1FE2
:10359000E358FE4F318320839F5F90936E0190919B
:1035A0007A01915090937A01911105C010926D01AA
:1035B00010926C0102C08F5FCECF80916E01882384
:1035C00041F080916F01836080936F0102C080E0C1
:1035D000089581E0089590916F0191FD75CE20913D
:1035E0007101309172012115310511F0C90177CFB8
:1035F00020916C0130916D012115310539F06091F8
:103600007A01062E000C770BC9019ECF20917B0119
:1036100030917C012115310511F0C901D3CE92FD05
:103620009DCEC9CEE3E7F1E01082118212821382AF
:103630001482158210926B018091C80280936901F7
:1036400080916F01856080936F010895E82FF0E00D
:10365000EE0FFF1FEC50FF4F859194910895CF928C
:10366000DF92EF92FF920F931F93CF93DF93CDB72B
:10367000DEB7EDB6FEB6E4EFF1E01491E5EFF1E070
:10368000E4916E2F70E08DB79EB7F3E0EF9F801945
:10369000910911240FB6F8949EBF0FBE8DBF0196FD
:1036A0006C0126EF31E0ADB7BEB7139640E050E0B5
:1036B00046175707B4F4F90131960491CD010197EB
:1036C000FC010083F9018491FD0132978083F901A7
:1036D0003296E491EC934F5F5F4F2D5F3F4F13960F
:1036E000E7CF412FC6010E944827412F61E070E0DB
:1036F000C6010E9448270FB6F894FEBE0FBEEDBE6D
:10370000DF91CF911F910F91FF90EF90DF90CF90BD
:103710000895089508958A3010F4805D0895895CB5
:1037200008951F93CF93DF93182FEB0182958F702D
:10373000F2DF8883812F8F70EEDF8983DF91CF9155
:103740001F9108958F929F92AF92BF92CF92DF9276
:10375000EF92FF920F931F93CF93DF931F92CDB7FA
:10376000DEB79C018B0180E3FB01808380E28183D3
:10377000828383E0E82EF12C94E6892E912C4AE096
:10378000B42E682D70E0911003C02617370790F013
:103790006801C90CD11C97FCDA94C9010E943C361F
:1037A000A82E862F9983B7DFF60180832A2D998171
:1037B000392F9394882D6B2D0E943036882EF1E09E
:1037C000EF1AF108F1F60F90DF91CF911F910F9151
:1037D000FF90EF90DF90CF90BF90AF909F908F9031
:1037E000089597EA980F993010F48855089592EE4D
:1037F000980F993010F48D5108959CEF980F9630E2
:1038000010F48A5F089580E00895BF92CF92DF920E
:10381000EF92FF920F931F93CF93DF937C018B0165
:1038200080E090E0B12CC42FD0E02B2D0B2C000CAD
:10383000330B2017310790F48C9F60018D9FD00CC3
:103840009C9FD00C1124F701E20FF31F8081C9DF88
:103850009601280F311DC901B394E7CFDF91CF91B5
:103860001F910F91FF90EF90DF90CF90BF90089540
:103870001F93CF93DF9300D000D0CDB7DEB78091F8
:103880006F0181111FC3E0918E018E2F90E08A316C
:10389000910508F015C3FC01EA5AFF4F0C946336FA
:1038A00089E29CE28FDDBEDE82E0B2C111E01093BE
:1038B0008E018091730195DF893009F401C3843052
:1038C00019F410938F01FEC2813011F483E0A0C17E
:1038D000823011F487E09CC18FE39AE286C080E5D4
:1038E0009BE270DD9FDE84E093C113E010938E01B4
:1038F0008091730176DF893011F481E089C18130D4
:1039000091F490915B05892780935B0582E00E948A
:10391000522A80915B05882319F089EF99E265C0EE
:1039200083ED99E262C0823099F49091570581E06D
:1039300089278093570581E00E94522A809157057C
:10394000882319F088E999E250C081E799E24DC0D7
:103950008330B1F483E298E235DDBE016F5F7F4FC3
:1039600080914C05DEDE8AE08B8363E070E0CE015F
:10397000019665DD88E298E225DD54DE8FE048C1DE
:103980008430F9F480915A05811109C081E0809357
:103990005A0585E00E94522A86EF98E226C08130BF
:1039A00041F410935A0585E00E94522A81E399E27E
:1039B0001CC010925A0585E00E94522A82EB98E2C0
:1039C00014C08530A1F490914F0581E08927809340
:1039D0004F0587E00E94522A80914F05882319F0F5
:1039E00084E798E202C088E498E2ECDC6BC286309F
:1039F000B9F483E298E2E6DC80915205BE016F5F84
:103A00007F4F90E09FDE8AE08B8363E070E0CE0121
:103A1000019615DD8AE896E2D5DC04DE80E1F8C087
:103A2000873009F059CF83E298E2CCDC80914905D8
:103A300090E0BE016F5F7F4F019684DE8AE08B834A
:103A400063E070E0CE010196FADC82EB96E2BADC2C
:103A5000E9DD81E1DDC086E59AE2B4DCE3DD88E002
:103A6000D7C087E080938E0180917301BADE8930E0
:103A700009F443CF8130B9F483E298E2A3DC80916A
:103A80005C05BE016F5F7F4F90E05CDE8AE08B8358
:103A900063E070E0CE010196D2DC8CEF97E292DC1D
:103AA000C1DD82E1B5C08230C1F483E298E28ADCF4
:103AB000BE016F5F7F4F809154059091550542DEA6
:103AC0008AE08C8364E070E0CE010196B8DC89ED79
:103AD00097E278DCA7DD83E19BC08330D9F483E2F1
:103AE00098E270DC8091500590915105BE016F5FA6
:103AF0007F4F91958195910925DE8AE08C8364E062
:103B000070E0CE0101969BDC8AEA97E25BDC8ADDFD
:103B100084E17EC08430B9F483E298E253DC809182
:103B20004D05BE016F5F7F4F90E00CDE8AE08B8316
:103B300063E070E0CE01019682DC83E897E242DC2C
:103B400071DD85E165C08530B9F483E298E23ADC45
:103B500080915305BE016F5F7F4F90E0F3DD8AE0F7
:103B60008B8363E070E0CE01019669DC86E597E225
:103B700029DC58DD86E14CC08630C1F483E298E24E
:103B800021DCBE016F5F7F4F8091580590915905F0
:103B9000D9DD8AE08C8364E070E0CE0101964FDCD1
:103BA00082E397E20FDC3EDD87E132C08730B9F473
:103BB00083E298E207DC80914B05BE016F5F7F4F87
:103BC00090E0C0DD8AE08B8363E070E0CE01019677
:103BD00036DC8DE097E2F6DB25DD88E119C0883020
:103BE00009F070C183E298E2EDDB80915605BE01D9
:103BF0006F5F7F4F90E0A6DD8AE08C8364E070E029
:103C0000CE0101961CDC8DED96E2DCDB0BDD89E15B
:103C100080938E0157C160916B0170E04AE083E7A9
:103C200091E0F3DD8A30910578F480934C0583E0D0
:103C30000E94522A83E298E2C5DBBE016F5F7F4F8C
:103C400080914C056EDD1AC18BE796E2BBDB3ECE60
:103C500060916B0170E04AE083E791E0D6DD9C0162
:103C6000215031092336310558F480935C0586E0F4
:103C70000E94522A83E298E2A5DB80915C0579C01C
:103C80008BE796E29FDB26CE60916B0170E04AE005
:103C900083E791E0BADD9C0121503109273E334092
:103CA00078F7909355058093540589E00E94522A35
:103CB00083E298E287DBBE016F5F7F4F80915405FE
:103CC00090915505B8C060916B0170E04AE083E7C0
:103CD00091E09BDD9C0121503109273E334080F665
:103CE00091958195910990935105809350058AE0B3
:103CF0000E94522A83E298E265DB80915005909100
:103D00005105BE016F5F7F4F91958195910993C0D9
:103D100060916B0170E04AE083E791E076DD9C0101
:103D2000215031092336310508F0AACF80934D0583
:103D30008BE00E94522A83E298E244DB80914D0599
:103D400018C060916B0170E04AE083E791E05DDDAF
:103D50009C01215031092336310508F091CF809321
:103D600053058CE00E94522A83E298E22BDB80917B
:103D70005305BE016F5F7F4F90E0E4DC8AE08B83E8
:103D800063E070E0CE0101965ADBA4CD60916B0137
:103D900070E04AE083E791E038DD9C012150310971
:103DA000273E334008F06CCF909359058093580517
:103DB0008DE00E94522A83E298E204DBBE016F5F2D
:103DC0007F4F809158059091590535C060916B01E6
:103DD00070E04AE083E791E018DD9C012150310951
:103DE0002336310508F04CCF80934B058EE00E94BE
:103DF000522A83E298E2E6DA80914B05BACF6091CD
:103E00006B0170E04AE083E791E0FFDC9C01215008
:103E100031092F3F310508F033CF809356058FE0ED
:103E20000E94522A83E298E2CDDA80915605BE01C3
:103E30006F5F7F4F90E086DC8AE08C8364E070E007
:103E4000A1CF60916B0170E04AE083E791E0DDDC97
:103E50009C01215031092031310508F0F5CE8093C5
:103E6000520584E00E94522A83E298E2ABDA809104
:103E70005205BE016F5F7F4F90E064DC8AE08B8368
:103E800063E070E0CE010196DADA20CD60916B013B
:103E900070E04AE083E791E0B8DC019709F0D4CE06
:103EA0001092490588E00E94522A83E298E28ADA59
:103EB0008091490590E0BE016F5F7F4F0196DDCF95
:103EC00010928E010F900F900F900F90DF91CF9175
:103ED0001F91089526E0829FC0011124FC01E05D3E
:103EE000FE4F0190F081E02D208181E090E001C043
:103EF000880F6A95EAF7822B8083089526E0829FD7
:103F0000C0011124FC01E05DFE4F0190F081E02D25
:103F1000808160956823462B4083089526E0829F28
:103F2000C0011124FC01E05DFE4F0280F381E02D11
:103F3000208181E090E001C0880F6A95EAF7822B2A
:103F40008083089526E0829FC0011124FC01E05D7A
:103F5000FE4F0280F381E02D208181E090E001C0DE
:103F6000880F6A95EAF7809582238083089526E07A
:103F7000829FC0011124FC01E05DFE4F0280F381AD
:103F8000E02D80816823462B4083089526E0829FA0
:103F9000C0011124FC01E05DFE4F0480F581E02D9D
:103FA000808186230895E82FE695E695E695F0E072
:103FB000E554FD4F982F977021E030E001C0220FAB
:103FC0009A95EAF79081292B20839091B50220E001
:103FD00029175CF4E22F022E000CFF0BE853FD4F73
:103FE00030813817A1F02F5FF3CF96305CF4E92FC2
:103FF000092E000CFF0BE853FD4F80839F5F9093C9
:10400000B50208951092CE0281E0809306040895CF
:10401000E82FE695E695E695F0E0E554FD4F982FFC
:10402000977021E030E001C0220F9A95EAF72095C1
:104030009081292320839091B50248EC52E0FA0147
:104040002E2F241B291724F431913813F9CF01C0E6
:104050000895E22F022E000CFF0BE853FD4F8181E3
:1040600080832F5F2917ACF391509093B502109283
:1040700006040895E82FE695E695E695F0E0E55408
:10408000FD4F982F977021E030E001C0220F9A95E4
:10409000EAF79081292720839091B50248EC52E0FD
:1040A000FA012E2F241B291724F431913813F9CF4C
:1040B00013C096305CF4E92F092E000CFF0BE85377
:1040C000FD4F80839F5F9093B50208951092CE02BA
:1040D00081E0809306040895E22F022E000CFF0B6E
:1040E000E853FD4F818180832F5F2917ACF39150F6
:1040F0009093B50210920604089590917003943045
:104100005CF4E92F092E000CFF0BEA54FD4F80836D
:104110009F5F90937003089540E060E070E082E458
:10412000F9DA1092BA0208952091700346EB52E03A
:10413000FA019E2F941B92179CF431913813F9CFFA
:10414000921751F0E92F092E000CFF0BEA54FD4F96
:10415000818180839F5FF4CF915090937003089585
:10416000682F70E040E083E4D5CA80914C058093CD
:104170000904089592E1899F600D11248091B00295
:1041800068130DC0809150059091510584179507D3
:1041900034F4809108048F5F80930804089510928E
:1041A000B002109208040895E0915405F09155056D
:1041B0004E175F0754F491E0F9019083F2E18F9F6D
:1041C000600D11246093B0020895F90110821092DD
:1041D000B00210920804089590917A01E92FEE0F31
:1041E000FF0BE053FD4F2091B20230E0322F222727
:1041F000282B3183208381E0890F80937A018035D9
:1042000034F01092050480936A0180E16CC5089532
:1042100090910A04911110C0805D8E3068F4E82FEF
:10422000F0E0EE0FFF1FE554FB4E85919491880F4F
:10423000991F85549B4E53C90895CF93DF93C82F80
:10424000D62F5BDF8091090490914C05891711F0FE
:104250008B5F49D580E18C0F8093090485E18C0F39
:1042600022D58FE020D5809109049091B102D0FF32
:1042700002C0981308C0981308C0809108048111E7
:1042800004C080914C058093B102DF91CF910895D5
:10429000E82FF0E0EA52FC4F8491882311F060E0AF
:1042A000CCCF08951F93CF93DF9300D01F92CDB74B
:1042B000DEB7182F2B834A83698336DF2B814A812F
:1042C0006981222391F120910904E22FF0E0812FEE
:1042D00090E0805F9109E817F90739F580910804AB
:1042E000882319F061FD2093B1028091B4028113FB
:1042F0001CC062FF1AC0141624F46091B202842F0D
:1043000013C0842F807E803E81F4E42FF0E0EE0F16
:10431000FF1FE851F54D849180959091B202892359
:104320008093B202649180E0C2D8809109048B5FCF
:10433000DAD4E0917003E11103C08091B10207C0AB
:104340000E2E000CFF0BEB54FD4F8081805F80939D
:1043500009048091090490914C05891741F08B5F05
:104360000F900F900F90DF91CF911F919CC48FE021
:104370000F900F900F90DF91CF911F91B4C4E82F51
:10438000F0E0EA52FC4F8491882321F020E040E0E5
:1043900060E088CF08956F70623051F028F4662392
:1043A00039F0613081F00895643011F06830F1F433
:1043B000E82FF0E0EE0FFF1FE851F54DE4918091FA
:1043C000B202E82B0AC0E82FF0E0EE0FFF1FE85121
:1043D000F54DE4918091B202E827E093B20280911A
:1043E0000704882319F0E777E093B20208956F700D
:1043F000623009F43EC018F4662379F10895643000
:1044000019F0683051F10895E82FF0E0EE0FFF1F2A
:10441000E851F54DE491E0956091B2026E2360930E
:10442000B202222309F443C09091B40298133FC012
:10443000842F14168CF0807E803E09F038C0E42F63
:10444000F0E0EE0FFF1FE851F54D84918095682351
:104450006093B202649180E02AC8E82FF0E0EE0F8A
:10446000FF1FE851F54DE491E0958091B202E823F9
:104470001CC0E82FF0E09091B202EE0FFF1FE85150
:10448000F54D222379F080910804882359F0849116
:10449000E82FE92BE093B20280910704882339F0DA
:1044A000E77703C0E491E095E923E093B202089531
:1044B0006F70623051F028F4662339F0613031F0CA
:1044C0000895643011F0683011F46DCDD3CD0895A6
:1044D0006F70623049F018F461110DC00BC0643088
:1044E00049F0683041F406C0222321F0909108047D
:1044F000911101C08DCD08951F93CF93DF931F922B
:10450000CDB7DEB7182F862F807F11F0809368011A
:10451000103C70F5103B08F0BAC0183AB8F4143AE1
:1045200008F085C0123809F468C030F48CEF810FB0
:10453000803708F457C004C1143809F470C008F477
:1045400064C0113A09F0FCC047D400C11A3A09F41A
:10455000FDC038F4183A09F47AC0193A09F47EC05B
:10456000EFC01E3A09F487C01F3A09F488C0E8C0BA
:104570001E3D20F5103D08F0BBC0163C09F49CC060
:1045800088F4113C08F4DCC0EFE3E10FF0E0EE0F3B
:10459000FF1FE256F34DE49180910304E82BE09372
:1045A0000304D4C0183C09F491C008F489C0193C34
:1045B00009F0C6C08091CF028F5F8BC0183E50F4C7
:1045C000103E08F0BAC01E3D09F495C01F3D09F425
:1045D000A6C0B6C08FE0810F893008F0B1C0812F2E
:1045E0002CDEB4C080910504882321F0812F6983DB
:1045F000F3DD6981812F5CDFA9C08091B30281FD69
:10460000A5C06091B20289E307C08091B30280FD2A
:104610009DC06091B20283E50E94571A97C08091B5
:10462000B30282FD93C06091B20287E4F5CF80911E
:10463000050481118BC081E08093050410927A01FA
:1046400080930A048CE5810F80935F055EC0909192
:104650000A0481E0892780930A0478C090910704B6
:1046600081E0892780930704811102C085E055C04D
:1046700085E019D36BC082E080938F0167C0809181
:104680008E01811163C081E080938E015FC08091B3
:10469000710390917203892B09F058C0E0E5E10F96
:1046A000F0E0EE0FFF1FE358F34D85919491909346
:1046B0007203809371034AC0809104048F5F03C02A
:1046C0008091040481508093040405C08091CF023E
:1046D00081508093CF0290914805809108049923DE
:1046E00021F090914605981788F5809346052EC0D5
:1046F000812F8EDD2BC09091050481E08927809366
:104700000504882321F010927A0180E1B2CF8091D4
:104710007A01811180936A0180E1E5D217C080910E
:104720000504811113C060916A01062E000C770BFD
:1047300080ED92E00E94A41A09C0812F2CDE06C0F1
:10474000612F70E040E084E40E948A1B1093B40261
:104750000F90DF91CF911F9108951F93CF93DF9317
:1047600000D01F92CDB7DEB7182F862F807F11F0B3
:1047700010926801163C10F5113C08F0A0C01B3ADD
:1047800098F4113A08F0DFC0123809F462C028F436
:104790008CEF810F8037B0F1CAC0133809F461C0C3
:1047A000143809F46DC0C3C01E3A08F4C0C0103BF1
:1047B00008F4C9C0103C08F46BC0B9C0103E90F4B6
:1047C000103D08F0C0C0173C09F48DC008F487C044
:1047D000183C09F48EC0193C09F0A9C08091CF02A1
:1047E00081508AC0183E08F48AC08FE0810F89305A
:1047F00008F09DC0812F0F900F900F90DF91CF9107
:104800001F9150CD809105048823D9F080910A042E
:104810008823B9F0183211F01B3299F410920A046F
:104820001092050480917A01815080936A01109260
:10483000600580E12B834A83698355D269814A816F
:104840002B81812F0F900F900F90DF91CF911F91AF
:104850003FCE8091B30281FF76C06091B20289E3BE
:1048600007C08091B30280FF6EC06091B20283E501
:104870000F900F900F90DF91CF911F910C94571ACA
:104880008091B30282FF5FC06091B20287E4F0CFF3
:1048900060E5610FE62FF0E0EE0FFF1FE358F34DE8
:1048A00085919491209171033091720328173907F3
:1048B00009F049C0109272031092710344C06FE373
:1048C000610FE62FF0E0EE0FFF1FE256F34DE4918B
:1048D000E09580910304E823E093030434C08091C1
:1048E0000404815003C0809104048F5F809304040A
:1048F0002AC08091CF028F5F8093CF0224C0809125
:104900000504882361F08091B402811308C080E01F
:104910002B834A83698360DC69814A812B81812FE3
:104920000F900F900F90DF91CF911F9160CD612F6D
:1049300070E040E085E40F900F900F90DF91CF91F1
:104940001F910C948A1B0F900F900F90DF91CF91C5
:104950001F9108952091B202227291E009F090E037
:1049600020915B05222359F0992349F02091B3024D
:1049700020FF05C022EE280F2A3008F4855C209124
:104980004F05222321F1833571F49091B30281E028
:1049900089278093B30280FF03C080E084D11FC0C9
:1049A00080E0A1D11CC027EA280F2B3080F4209191
:1049B000B302E82FF0E0EE0FFF1F20FF05C09923A0
:1049C00019F0EB54F44D02C0EA54F44D84918A3A44
:1049D00039F4911102C085E3089589E2089580E0D9
:1049E0000895AF92BF92CF92DF92EF92FF920F9312
:1049F0001F93CF93DF9300D01F92CDB7DEB7D82E91
:104A0000062F10E08091090490E9C92E92E1D99E09
:104A100070011124F701C89EE00DF11D1124E00F73
:104A2000F11FE55EF04F84914A835B83698392DFD7
:104A3000B82E809109049701C89E200D311D1124C4
:104A4000200F311FF901E558F64FC490F901E552E6
:104A5000FC4FA4900E0D1F1DF801E05EFD4FB082CB
:104A6000F801ED58FC4FC082F801E057FE4FA082DC
:104A70004A815B8169818D2D7DDB4A2D6C2D8B2DCB
:104A80003BDD0F900F900F90DF91CF911F910F9111
:104A9000FF90EF90DF90CF90BF90AF900C94142FC9
:104AA0009F92AF92BF92CF92DF92EF92FF920F93BD
:104AB0001F93CF93DF931F92CDB7DEB792E1899F0B
:104AC00090011124260F311DF901E05EFD4F6F01A9
:104AD000B080F901ED58FC4F7F01A080890100579B
:104AE0001E4FF80190809E012F5F3F4F5DDB2981B3
:104AF000492D6A2D8B2D31DEF6011082F7011082CF
:104B0000F80110820F90DF91CF911F910F91FF90CC
:104B1000EF90DF90CF90BF90AF909F90089522E1EB
:104B2000829FC00111249C01260F311DF901E05E16
:104B3000FD4F8081F901ED58FC4F908193FF1AC021
:104B400018161CF46091B20213C0982F907E903E0C
:104B500089F4E82FF0E0EE0FFF1FE851F54D849146
:104B600080959091B20289238093B202649180E093
:104B70000C94571A089520910A04211112C0FC01C7
:104B8000A8ECB2E0069621E030910604332311F040
:104B9000208302C03C91308331961196E817F907C3
:104BA00099F7089520910A04211109C0DC01EBEB6B
:104BB000F2E08DE08E0F91919D938E13FCCF0895BE
:104BC000FC0180910A04811106C0809168019091D6
:104BD000B202982B9083089522E1829FC001112494
:104BE000FC01E60FF11DE55EF04FE491E83211F0B3
:104BF000E83539F441E060E070E081E50E948A1B0D
:104C0000B3C3089590E09C01220F331F820F931FBE
:104C1000FC01E951FB4D2491FC0131968B519B4DD8
:104C2000EB51FB4D621721F06491FC01849176C930
:104C30006491FC01849186C90F931F93CF93DF93F6
:104C4000E6E1F5E2D49105EE14E2C0E0CD1769F09B
:104C5000F80131966491F80184913CD960E08C2F81
:104C6000D1DFCF5F0D5F1F4FF1CF80915205809351
:104C70001604DF91CF911F910F9108958091130435
:104C8000893F69F4809118048F3E19F4109218043A
:104C900003C08F5F809318041092130408958F5FF0
:104CA00080931304089590E0880F991FFC01E55448
:104CB000FB4DA491FC01E454FB4D8491E5E1F5E248
:104CC000E491AE1778F4B0E0A55FBB4F811103C04B
:104CD0008C91816006C09C919170E82FEE0F892F16
:104CE0008E0F8C93089590E0880F991FFC01E55476
:104CF000FB4DA491FC01E454FB4D8491E5E1F5E208
:104D0000E491AE1780F4B0E0A55FBB4F811104C001
:104D10008C918E7F8C9308959C91292F2695281332
:104D200002C091709C930895823049F0833079F0ED
:104D30008130A1F481E1B7DF82E1D5DF0CC081E1F0
:104D4000D2DF82E1D0DF83E1AEDF84E1CCCF81E14D
:104D5000CADF82E1A8DF83E1C6DFF7CF81E1C3DFED
:104D600082E1C1DF83E1BFDF84E19DCF0F931F9319
:104D7000CF93E5E1F5E2E491C0E00E2F10E08C2F37
:104D80000C2E000C990B8017910714F52091140438
:104D90002223C9F0FC01E55FFB4F2081223018F48B
:104DA00021110FC010C0E22FE695F0E0E954F34D59
:104DB0006491809118040E943036921720F490FF7D
:104DC00002C061E001C060E08C2F1CDFCF5FD7CF55
:104DD000CF911F910F91089580911604803110F0AA
:104DE00081E002C08C5F8C7F8093160408958091CF
:104DF00017048F5F813118F480931704089581E0C0
:104E00008093170410921504089590911604903120
:104E100020F081E08093140408958091150420917E
:104E20001704929F902D1124891738F491E09093E4
:104E30001404805F8093150408951092140408955B
:104E4000D6DFE3DF1BDF92CF27B1242B27B928B1B0
:104E5000342F3095232338B1432B3FB7F894FC010E
:104E6000680F791FE617F70789F0819198E048B934
:104E7000000000C087FF28B9880F000000C000C0F4
:104E800000C028B900C09A9591F7ECCF3FBF0895B4
:104E90009B01220F331F620F731FD6DF87EC90E058
:104EA0000197F1F700C0000008951F920F920FB60E
:104EB0000F9211240F900FBE0F901F901895E4E6EB
:104EC000F0E0808180718083A5E6B0E08C918677E8
:104ED0008C938081816080838081846080838081E5
:104EE000806280838081806480838C9188608C93D1
:104EF0008081806880838081826080838C918160E2
:104F00008C938C918F778C9390E080E80FB6F89417
:104F100080936100909361000FBE0895D0CF8DEA19
:104F20009EED9093710580937005089580E189BD91
:104F300082E189BD09B400FEFDCF8091D8008F7D4C
:104F40008093D8008091E00082608093E00080919F
:104F5000E00081FDFCCF0895CF92DF92EF92FF92A7
:104F60001F93CF93DF93E2EAF5E2E491E093190413
:104F7000E1EAF5E2E491E0931F04E0EAF5E2E4916E
:104F8000E0932004EFE9F5E2E491E093210485E960
:104F9000E82E85E2F82E9AE1C92E94E0D92ED0E0D1
:104FA000F701149180911F0481111FEFF7013196D1
:104FB000C4914C2F612F8D2F0E947E1F2C2F209586
:104FC000F60121936F01422F412380911F04642F2A
:104FD0006095811101C040E08D2F0E94B71FDF5FF7
:104FE000F2E0EF0EF11CD530D9F6DF91CF911F9191
:104FF000FF90EF90DF90CF900895CF92DF92EF92E5
:10500000FF920F931F93CF93C0E08091200490E014
:105010002C2F0C2E000C330B281739070CF054C022
:105020008AE1E82E84E0F82EF5E0CF026001112439
:1050300000E010E0F801EC0DFD1DE55CFA4D449137
:10504000F70161917F01802F0E94B71F0F5F1F4FF3
:105050000530110579F7809156058A95F1F710E032
:10506000212F012E000C330B8091210490E0281792
:10507000390744F580911F04220F331FF901E85EC0
:10508000FA4D882351F06491F901E95EFA4D84915B
:105090000E94C61F882351F013C06491F901E95E94
:1050A000FA4D84910E94C61F882351F08091190403
:1050B000882319F06C2F812F02C0612F8C2F8CDD7B
:1050C0001F5FCECFCF5FA1CFCF911F910F91FF90E8
:1050D000EF90DF90CF900895CF93DF93962F642FBA
:1050E00022E1929FE0011124C40FD11DCC0FDD1FDE
:1050F000CE5DDB4F48815981882301F157FF0EC0F7
:1051000020915C0530E03195219531092417350750
:105110007CF1892F66DC84E090E020C02091580566
:10512000309159054217530794F0892FF8DC2091EC
:105130004B0588819981821B910910C014161506B0
:1051400084F420915C0530E0421753071CF44C5F57
:105150005F4F10C0892FA4DC8CEF9FEF9983888369
:105160000BC080915005909151058417950724F448
:105170004450510959834883DF91CF910895CF92CC
:10518000DF92EF92FF920F931F93CF93DF93D62F6F
:10519000C82FCD170CF05AC08AE1E82E84E0F82E13
:1051A000F5E0CF026001112400E010E0F701619109
:1051B0007F016F3F49F0F801EC0DFD1DE55CFA4DF4
:1051C0004491802F0E94B71F0F5F1F4F05301105BC
:1051D00069F7809156058A95F1F710E0212F012E8D
:1051E000000C330B8091210490E02817390764F5F7
:1051F00080911F04220F331FF901E85EFA4D8823C6
:1052000059F06491F901E95EFA4D84910E94C61F3C
:1052100091E0882361F00AC06491F901E95EFA4DDA
:1052200084910E94C61F91E0811101C090E080919D
:105230001904882319F04C2F612F02C0412F6C2FC5
:10524000892F4ADF1F5FCACFCF5FA3CFDF91CF91F6
:105250001F910F91FF90EF90DF90CF900895609194
:1052600020046695669580E08ACF80912004682F9F
:1052700070E0759567958695869581CF809120041D
:1052800093E0899FB0011124759567957595679591
:10529000869575CF6091200423E0629FC0011124A0
:1052A00095958795959587956ACF81E0809345057B
:1052B000089520914505AC01249FC001259F900DC4
:1052C00011246AE070E00E943C3680914405562F1C
:1052D000581B852F609344052F5F209345052B3085
:1052E00028F01092440591E090934505089580912F
:1052F0000404811104C08091CF02882311F181E060
:105300008093480520914D05809146059091530565
:1053100030914705311120C0899FC0011124820FAF
:10532000911DC7DF90910404899F902D11249093C3
:1053300043059091CF02899F802D112480934205CF
:105340000BC010924805109244051092430510922C
:1053500042058AE08093450580914705811103C08D
:1053600081E0809347050895CF93DF93CDB7DEB7F3
:1053700063970FB6F894DEBF0FBECDBF59E15093CF
:105380004E051092570510925B0510924C0540E1B6
:105390004093520510925A0536E030935C05109206
:1053A0004F051092490580EF90E09093550580934A
:1053B000540588E89FEF909351058093500585E050
:1053C00080934D052FE02093530560E273E07093C6
:1053D00059056093580590E290934B0580935605CC
:1053E00059831A821B821C824D831E823F8318863A
:1053F000198630EF3A871B8638E83C873FEF3D87B8
:105400008E872F87988B23E0298B9A8B8B8B43E198
:1054100050E060E070E0CE0101960E949336639602
:105420000FB6F894DEBF0FBECDBFDF91CF910895C8
:105430000F931F93CF93DF93C4ECDCE2FE0132960F
:1054400084913196E49190E0E23059F4FE010591A7
:105450001491805090400E948E36F8019183808391
:1054600009C0FE0105911491805090400E9486363B
:10547000F80180832496FDE2C430DF07F9F66091DD
:105480004E05693131F070E041E080E50E948A1BF1
:105490006BDF80915A0580934A05DF91CF911F9170
:1054A0000F91089524E0829FC0011124FC01EA536A
:1054B000F34D2491FC01E953F34D3491FC01EC537D
:1054C000F34D822F90E0323041F4A591B4916D916B
:1054D0007C91805090400C94AA36A591B4916C9127
:1054E000805090400C949C3685E080936005089530
:1054F00080915F052EE28202C0011124FC01E45379
:10550000FA4D4491FC01E353FA4D3491FC01E2530E
:10551000FA4D2491FC01E153FA4D949150917A0196
:1055200080915D05513079F01CF4552331F01FC096
:10553000523081F05330A9F01AC0442321F06AE1BF
:105540000E9430362EC0332329F06AE10E943036A3
:10555000965E27C0222329F06AE00E9430369C5CC8
:1055600020C0992321F0982F9F71925C1AC0442388
:1055700011F06AE101C060E03111665E2111665FE1
:105580009111605E0E943036411101C0965E31116A
:1055900003C09A3134F0965E211103C094330CF0AD
:1055A000965FE92F990FFF0BEC51F24D849108950E
:1055B00084509272E82FF0E0EE0FFF1F911103C0AC
:1055C000EC5FF24D02C0EB5FF24D849108950F93B2
:1055D0001F93CF93DF93E0915F0520917A01022E14
:1055E000000C330BCE2F0E2E000CDD0B8EE2E802EA
:1055F000F0011124E553FA4D649170E0C9010E9455
:105600005036082F10915D0560916A01062E000C3E
:10561000770BC9010E945036FC01FF27EE0FFF1FD8
:10562000E053FD4F80819181C3DF810F982F990F47
:1056300087FD9F5F90935D058EE28C9FF0018D9FAB
:10564000F00D1124E00FF11DED55FA4DE49180911C
:105650005D05E827E0935D05DF91CF911F910F91E4
:105660000895EF92FF920F931F93CF93DF931F92B2
:10567000CDB7DEB780915F052EE28202C001112412
:10568000FC01E053FA4D6491062F10E020E530E074
:10569000201B310B220F331FA90140535D4F7A01AC
:1056A00020916005223009F444C028F4222351F0EF
:1056B0002130C9F0AEC0233009F45BC0243009F4B6
:1056C0007FC0A7C010925D0521E020936005109275
:1056D0007A01FC01E553FA4DE491E1119AC085E0AD
:1056E0008093600596C020917A01FC01E20FF11DC4
:1056F00027FDFA95ED55FA4DE49140915D054E0F69
:1057000040935D052F5F20937A01FC01E553FA4D2C
:105710008491022E000C330B90E0281739070CF40B
:1057200078C082E08093600510927A0140935E0514
:1057300070C010915E05E0917A01EE0FFF0BE0530F
:10574000FD4F80819181698333DF810F80935E05F6
:1057500090917A019F5F90937A0120916A0169810B
:1057600092170CF456C00E94303690935E0583E089
:1057700022C02DDF80915E05E80EF11CE80EF11CC1
:10578000B7DE0E94261BF7019183808380915E051E
:1057900090E00196B8010E94503680935E0580919A
:1057A0007A018F5F80937A01082E000C990B801785
:1057B00091077CF184E08093600510927A0129C002
:1057C00080917A01282F220F330BFA01E20FF31F89
:1057D00040815181F901E053FD4F518340838F5F38
:1057E00080937A01082E000C990B801791078CF09A
:1057F00085E08093600560936A01B80180ED92E0D6
:105800000F90DF91CF911F910F91FF90EF900C942B
:10581000A41A0F90DF91CF911F910F91FF90EF90FD
:10582000089580916005853009F01BCF0895CF92CF
:10583000DF92EF92FF920F931F93CF93DF93CDB739
:10584000DEB7EDB6FEB6E3E4FEE21491E4E4FEE278
:10585000E4916E2F70E08DB79EB7F3E0EF9F801953
:10586000910911240FB6F8949EBF0FBE8DBF01960B
:105870006C0125E43EE2ADB7BEB7139640E050E0C0
:1058800046175707B4F4F90131960491CD010197F9
:10589000FC010083F9018491FD0132978083F901B5
:1058A0003296E491EC934F5F5F4F2D5F3F4F13961D
:1058B000E7CF412FC601ECDA412F61E070E0C6016D
:1058C000E7DA0FB6F894FEBE0FBEEDBEDF91CF91C2
:1058D0001F910F91FF90EF90DF90CF90089513BC30
:1058E000109280001092820080E89EE390938900DD
:1058F0008093880008951092610578941092850035
:105900001092840081E08093810082E080936F0098
:105910009AE088E10FB6F894A895809360000FBED6
:1059200090936000E0E6F0E08081806C80830895D1
:105930000FB6F894A895809160008861809360000C
:10594000109260000FBEE0E6F0E080818F7B8083E4
:1059500010926F00109281000895CF93DF93C0E002
:10596000D0E080916105FE0124E0829FE00DF11DF1
:105970001124EE0FFF1FE55AF94D85919491009780
:1059800021F0C0936305FC0109952196C430D1052F
:1059900041F7DF91CF910895109285001092840015
:1059A00080916205882381F0809161056091630593
:1059B00070E0782B40E081E10E948A1B80916205B3
:1059C0008F5F80936205089581E0809362057894EB
:1059D000C4DF809161058F5F80936105843010F092
:1059E0001092610580916205823038F06091620505
:1059F00070E040E084E10E948A1BA8951092620545
:105A000008951F920F920FB60F9211242F933F9378
:105A10004F935F936F937F938F939F93AF93BF93B6
:105A2000EF93FF93B9DFFF91EF91BF91AF919F91FA
:105A30008F917F916F915F914F913F912F910F9037
:105A40000FBE0F901F901895292F33272330310553
:105A500011F13CF42130310561F02230310571F053
:105A600070C02132310531F12232310509F43DC0D7
:105A700068C082E190E02FE331E36CC080914A0579
:105A8000833009F44AC0813009F44CC084E590E0C9
:105A90002BEE30E35FC09927009731F0019709F0B2
:105AA00050C0E5E2F0E302C0E1E7F0E3849190E06A
:105AB0009F0150C0613049F068F0623009F041C088
:105AC00089E090E02FE231E345C089E090E026E1F3
:105AD00031E340C080914A05833049F1813061F162
:105AE00089E090E02DEF30E335C0613041F060F0A7
:105AF000623039F58BE190E021E531E32BC08AE398
:105B000090E02CE631E326C080914A0580FD1EC05E
:105B10008FE390E026EA31E31DC082E290E025E7C2
:105B200030E318C084E590E027E930E313C089E052
:105B300090E027E830E30EC089E090E029EA30E306
:105B400009C080E090E020E030E004C08FE390E006
:105B500025EE31E3FA0131832083089581E0E4C822
:105B60000895CF93DF9380E291E058D7C82F8091BA
:105B70004A0581FD09C080E191E050D7D82F80E02F
:105B800091E04CD78D23C823CC2311F080E001C0D5
:105B900083E0CAD88091E20084608093E200DF91C4
:105BA000CF91089580E291E001D680914A0581FD70
:105BB00006C080E191E0FAD580E091E0F7C5089554
:105BC00080912E0190912F01009729F001979093D9
:105BD0002F0180932E0180914A0581FD16C080918E
:105BE0001E0190911F01009729F0019790931F01CA
:105BF00080931E0180910E0190910F01009729F072
:105C0000019790930F0180930E01089580E08CC856
:105C100082E08AC880E088C80F931F93CF93DF93F8
:105C2000F90121E080329207F9F4EF011092790135
:105C300020914A05CF01029620FD07C0209129013D
:105C4000222319F00E94D22502C00E94BB25CE015A
:105C50000E94E02580914A0580FF03C088E090E023
:105C600024C082E190E021C080519140B1F41092B3
:105C7000470580910304808380914305818380914F
:105C80004205828383E090E0F8019183808381E084
:105C90009091480591110DC00BC0809171039091B6
:105CA00072039183808382E090E0F8019183808386
:105CB00080E0DF91CF911F910F910895CF93805293
:105CC000914009F081C0F90180818093B302C091B5
:105CD0004F01C82780934F01CC2309F475C09091E0
:105CE0004F05911111C0C0FF0FC080FF07C080E0B9
:105CF0000E94532680E00E94482106C080E00E9456
:105D0000732680E00E94BF21C1FF11C08091B302C1
:105D100081FF07C081E00E94532681E00E94482154
:105D200006C081E00E94732681E00E94BF21C2FF6D
:105D300024C08091B30282FF11C082E00E945326EA
:105D400082E00E944821809157058823B1F081E0CC
:105D50008093070485E00E9453260FC082E00E94D2
:105D6000732682E00E94BF2180915705882329F085
:105D70001092070485E00E947326C3FF11C0809132
:105D8000B30283FF07C083E00E94532683E00E9492
:105D9000482106C083E00E94732683E00E94BF2151
:105DA000C4FF12C08091B30284FF07C084E00E9448
:105DB000532684E0CF910C94482184E00E947326FE
:105DC00084E0CF910C94BF21CF91089580914A0532
:105DD00080FF09C088E08093280188E090E09093DC
:105DE000230180932201089580E291E02AD68091D8
:105DF0004A0581FD06C080E191E023D680E091E074
:105E000020D6BAD48091670590914E01981759F029
:105E10006091670570E041E086EA0E948A1B8091EC
:105E2000670580934E01089580916505882329F0C8
:105E300080916705853009F479C80895CF92DF9283
:105E4000EF92FF920F931F93CF93DF93EC018B019F
:105E50007A01DED1811133C0E114F10439F0F70188
:105E600080819181081B190BC80FD91FC12CD12C1F
:105E70000115110519F18091E80085FD16C080918A
:105E8000E8008E778093E80077D4E114F10449F0BC
:105E9000F70180819181C80ED91ED182C08285E030
:105EA0000EC0B6D1882321F30AC089918093F100F6
:105EB00001501109FFEFCF1ADF0ADACF80E0DF913E
:105EC000CF911F910F91FF90EF90DF90CF900895A9
:105ED00020916E0530916F052617370748F0611540
:105EE000710539F42091E8002E772093E80001C075
:105EF000B90140E061157105A9F1209167052223E0
:105F000009F443C0253009F442C02091E80023FD84
:105F100040C02091E80022FD32C02091E80020FF1F
:105F2000E9CF4091F3002091F20030E0342BFC01E6
:105F3000CF016115710559F02830310540F4819188
:105F40008093F100615071092F5F3F4FF1CF41E025
:105F50002830310509F040E02091E8002E772093A9
:105F6000E800C8CF4111C9CF0AC0809167058823D6
:105F700061F0853061F08091E80083FD0AC0809176
:105F8000E80082FFF2CF80E0089582E0089583E088
:105F9000089581E008956115710529F42091E800C4
:105FA0002B772093E800FC016115710541F1809188
:105FB0006705882361F1853061F18091E80083FDF8
:105FC00024C08091E80082FFEFCF2091F300809100
:105FD000F20090E0922B892B31F08091F1008193B7
:105FE0006150710991F78091E8008B778093E80008
:105FF000DBCF80916705882351F0853051F0809187
:10600000E80080FFF6CF80E0089581E0089582E007
:10601000089583E0089520916E0530916F0526174D
:10602000370748F06115710539F42091E8002E77A3
:106030002093E80001C0B901FC0120E06115710561
:1060400091F180916705882309F440C0853009F4F7
:106050003FC08091E80083FD3DC08091E80082FD53
:106060002FC08091E80080FFE9CF2091F30080915C
:10607000F20090E0922B6115710559F0883091057E
:1060800040F424912093F1003196615071090196FA
:10609000F2CF21E0089709F020E08091E8008E77A8
:1060A0008093E800CBCF2111CCCF0AC08091670547
:1060B000882361F0853061F08091E80083FD0AC09B
:1060C0008091E80082FFF2CF80E0089582E0089599
:1060D00083E0089581E00895982F973058F59093C4
:1060E000E900981739F07091EC002091ED00509183
:1060F000F00003C0242F762F50E021FF19C030910B
:10610000EB003E7F3093EB003091ED003D7F30930C
:10611000ED003091EB0031603093EB007093EC00B8
:106120002093ED005093F0002091EE0027FF07C070
:106130009F5FD3CF8F708093E90081E0089580E066
:106140000895EF92FF920F931F93CF93DF93E62E64
:10615000EC018C010C5F1F4FF12CFE1491F1588162
:10616000552351F1F801208169817A81319790811D
:10617000852F8F70873010F080E024C0223010F41B
:1061800042E001C046E0E8E0F0E020E0E617F70773
:1061900020F42F5FEE0FFF1FF9CF2295207F422BB7
:1061A000F0E49F9F90011124551F5527551F652F1F
:1061B000622B92DF882301F3F39425960B5F1F4F28
:1061C000CCCF81E0DF91CF911F910F91FF90EF90A5
:1061D00008958091680587FF11C08091E80082FDD5
:1061E00005C0809167058111F8CF11C08091E8004A
:1061F0008B770BC080916705882349F08091E80078
:1062000080FFF8CF8091E8008E778093E8000895B2
:106210002091E4003091E50095E64091EC00842F58
:10622000817040FF22C08091E80080FD1CC08091F9
:106230006705882391F0853091F08091EB0085FD12
:1062400010C04091E4005091E5004217530729F334
:106250009A01915011F784E0089582E0089583E057
:10626000089581E0089580E008954091E80042FF9C
:10627000DECF089565D06CD0E0EEF0E080818160E3
:106280008083E8EDF0E080818F77808319BCA7EDF3
:10629000B0E08C918E7F8C9380818F7E8083109272
:1062A000660508950F931F93CF93DF9349D050D085
:1062B000C8EDD0E088818F77888388818068888363
:1062C00088818F7D888319BC1092670510926405C0
:1062D0001092650500EE10E0F80180818B7F8083CD
:1062E00088818160888342E060E080E0F5DEE1EE55
:1062F000F0E080818E7F8083E2EEF0E0808181603B
:106300008083808188608083F80180818E7F808394
:10631000888180618883DF91CF911F910F910895CB
:10632000E8EDF0E080818F7E8083E7EDF0E0808112
:106330008160808384E082BF81E080936605B2CF74
:10634000E8EDF0E080818E7F80831092E200089576
:106350001092DA001092E10008951F920F920FB68A
:106360000F9211242F933F934F935F936F937F93DB
:106370008F939F93AF93BF93EF93FF938091E1002F
:1063800082FF0AC08091E20082FF06C08091E10096
:106390008B7F8093E10014DC8091DA0080FF1DC0C8
:1063A0008091D80080FF19C08091DA008E7F8093A1
:1063B000DA008091D90080FF0CC080E189BD82E1C4
:1063C00089BD09B400FEFDCF81E080936705C6DB7F
:1063D00004C019BC10926705C3DB8091E10080FF07
:1063E00018C08091E20080FF14C08091E2008E7F8F
:1063F0008093E2008091E20080618093E2008091CE
:10640000D80080628093D80019BC85E0809367052E
:10641000FFDB8091E10084FF2FC08091E20084FFC8
:106420002BC080E189BD82E189BD09B400FEFDCFAA
:106430008091D8008F7D8093D8008091E1008F7E7D
:106440008093E1008091E2008F7E8093E200809152
:10645000E20081608093E20080916405882311F05E
:1064600084E007C08091E30087FD02C081E001C0A5
:1064700083E080936705CEDB8091E10083FF22C03B
:106480008091E20083FF1EC08091E100877F8093AE
:10649000E10082E080936705109264058091E1003D
:1064A0008E7F8093E1008091E2008E7F8093E200F6
:1064B0008091E20080618093E20042E060E080E051
:1064C0000BDEA4DBFF91EF91BF91AF919F918F9174
:1064D0007F916F915F914F913F912F910F900FBEE0
:1064E0000F901F9018951F93CF93DF93CDB7DEB712
:1064F000AA970FB6F894DEBF0FBECDBFE8E6F5E071
:1065000088E08E0F9091F10091938E13FBCF4ADBC0
:106510008091E80083FF18C180916805909169051A
:10652000492F50E04A30510508F00EC1FA01E059F8
:10653000FF4FC9C3803881F0823809F005C18091CE
:106540006C058F708093E9008091EB0085FB8827B4
:1065500080F91092E90007C080916505882311F049
:1065600082E001C080E09091E800977F9093E8007E
:106570008093F1001092F100C4C0282F2D7F09F004
:10658000E3C0882319F0823061F0DEC080916A0593
:10659000813009F0D9C0933009F080E0809365051F
:1065A0002BC080916A05811127C080916C058F7086
:1065B00009F4CAC08093E9002091EB0020FF1CC0C1
:1065C000933021F48091EB00806214C09091EB0035
:1065D00090619093EB0021E030E0A90102C0440FEC
:1065E000551F8A95E2F74093EA001092EA008091E5
:1065F000EB0088608093EB001092E9008091E80046
:10660000877F82C08111A0C010916A051F77809199
:10661000E3008078812B8093E3008091E800877FFE
:106620008093E800D6DD8091E80080FFFCCF809168
:10663000E30080688093E300111102C082E001C092
:1066400083E08093670580C08058823008F07CC06A
:1066500080916A0590916B058C3D53E0950771F52B
:1066600083E08A838AE289834FB7F894DE01139628
:1066700020E03EE051E2E32FF0E050935700E49138
:1066800020FF03C0E295EF703F5FEF708E2F90E028
:10669000EA3010F0C79601C0C0968D939D932F5F8E
:1066A000243149F74FBF8091E800877F8093E8004D
:1066B0006AE270E0CE0101960BDC12C0AE014F5FC2
:1066C0005F4F60916C05C0D9BC01892B09F43CC0B7
:1066D0009091E800977F9093E80089819A819BDCF4
:1066E0008091E8008B778093E8002EC0803861F5B8
:1066F0008091E800877F8093E80080916405809313
:10670000F1008091E8008E778093E80062DD1CC084
:1067100081111AC090916A059230B0F48091E8001E
:10672000877F8093E8009093640553DD8091640532
:10673000811106C08091E30087FD02C081E001C0A5
:1067400084E0809367050DDA8091E80083FF0AC03A
:106750008091E800877F8093E8008091EB00806261
:106760008093EB00AA960FB6F894DEBF0FBECDBFA4
:10677000DF91CF911F910895CF9380916705882372
:1067800099F0C091E900CF709091EC00892F817051
:1067900090FD80E8C82B1092E9008091E80083FD0D
:1067A000A2DECF70C093E900CF9108956F927F92DF
:1067B0008F929F92AF92BF92CF92DF92EF92FF9211
:1067C0000F931F93CF93DF9300D01F92CDB7DEB707
:1067D0007C01CDB6DEB68091E80083FF08C1F701E9
:1067E000808190E020916C0530916D052817390764
:1067F00009F0FDC080916905833009F49FC030F431
:10680000813071F0823009F4D6C0F1C08A3009F4C9
:10681000BAC08B3009F4A3C0893009F0E8C051C078
:1068200080916805813A09F0E2C08DB69EB61A8261
:10683000198280916A0510916B058B83F701808521
:10684000482F50E08DB79EB7841B950B0FB6F89478
:106850009EBF0FBE8DBFEDB7FEB731965F0160E002
:1068600070E0CF014CD24FEF410F8E010F5F1F4FF1
:106870009501BE016D5F7F4FC701CED9F7018681BB
:106880009781009721F0408550E0B5012FD21092FA
:10689000E9008091E800877F8093E8008B81811177
:1068A0008093F10069817A81C50112DB8091E80053
:1068B0008B778093E8000FB6F8949EBE0FBE8DBE16
:1068C00096C080916805813209F091C0ADB6BEB620
:1068D00000916E0510916F0570906A0560906B05D0
:1068E0008DB79EB7801B910B0FB6F8949EBF0FBE5D
:1068F0008DBFEDB7FEB731964F018091E800877FDD
:106900008093E800B801CF0146DB8091E8008E77E4
:106910008093E80021E0711001C020E030E0021B0C
:10692000130B280D391D4FEF460D672DC701C6D932
:106930000FB6F894BEBE0FBEADBE59C080916805BB
:10694000813A09F054C08091E800877F8093E80085
:106950008091E80080FFFCCFF701818540C08091E5
:106960006805813209F043C08091E800877F8093F9
:10697000E8002FDC90916A0581E0911101C080E070
:10698000F701818734C080916805813281F580915B
:10699000E800877F8093E8001CDC80916A05909175
:1069A0006B05882736E0969587953A95E1F7F701CC
:1069B000958784871CC080916805813AC1F48091D5
:1069C000E800877F8093E8008091E80080FFFCCF9B
:1069D000F7018485958596958795969587958093FB
:1069E000F1008091E8008E778093E800F2DB0FB62B
:1069F000F894DEBE0FBECDBE0F900F900F90DF91CA
:106A0000CF911F910F91FF90EF90DF90CF90BF90AB
:106A1000AF909F908F907F906F900895FC01399672
:106A200027E0DF011D922A95E9F721E0FC0121878B
:106A300024EF31E03587248723E0248361E0019649
:106A400080CB4F925F926F927F928F929F92AF9284
:106A5000BF92CF92DF92EF92FF920F931F93CF934B
:106A6000DF9300D01F92CDB7DEB77C01ADB6BEB6C6
:106A700080916705843009F08DC08091E400909189
:106A8000E500F701228533852817390709F482C00C
:106A900081818F708093E9008091E80085FF7AC042
:106AA0008DB69EB6408550E08DB79EB7841B950B82
:106AB0000FB6F8949EBF0FBE8DBFEDB7FEB73196EF
:106AC0006F011B821A82198260E070E0CF0117D13A
:106AD0008E010F5F1F4F960140E0BE016D5F7F4F3B
:106AE000C7019AD8482EF70184859585892B51F0E6
:106AF00091E080E026853785232B09F090E0092F6F
:106B0000182F02C000E010E0F70166807780611462
:106B1000710489F049815A81B301C601DAD0552444
:106B20005394892B09F4512CF701408550E0B601AC
:106B3000C301DCD001C0512C89819A81892BF1F0ED
:106B4000411004C0511002C0012BC1F0F70184852F
:106B500095859787868781818F708093E9008B81E7
:106B600081118093F10069817A8140E050E0C60193
:106B700065D98091E8008E778093E8008091E400E9
:106B80009091E500F701938782870FB6F8949EBE37
:106B90000FBE8DBE0FB6F894BEBE0FBEADBE0F9039
:106BA0000F900F90DF91CF911F910F91FF90EF9079
:106BB000DF90CF90BF90AF909F908F907F906F901D
:106BC0005F904F90089508950E948E270E94891B20
:106BD0000E94182A0E94AC270E941C260E94B52001
:106BE0000E9455290E9457190E94742A0E946F2CF6
:106BF000EDD80E94172C0E942F1B0E94FD2790CBDE
:106C00000E947B2C80918F018823E1F30C94982CB7
:106C100031DBF8942FEF87EA91E6215080409040D5
:106C2000E1F700C0000080918F01823011F40E94D2
:106C30008F2780918F01882359F09CE088E10FB65F
:106C4000F894A895809360000FBE90936000FFCFEA
:106C50000895B9DFB9DFD4DFDBDF80E090E008958D
:106C6000991B79E004C0991F961708F0961B881F9E
:106C70007A95C9F780950895AA1BBB1B51E107C0FF
:106C8000AA1FBB1FA617B70710F0A61BB70B881FBC
:106C9000991F5A95A9F780959095BC01CD0108954B
:106CA00097FB072E16F4009406D077FD08D0E4DF9A
:106CB00007FC05D03EF4909581959F4F08957095FF
:106CC00061957F4F0895EE0FFF1F0590F491E02D21
:106CD0000994FB01DC0104C08D910190801921F41D
:106CE00041505040C8F7881B990B0895FB01DC0107
:106CF00002C001900D9241505040D8F70895DC0138
:106D000001C06D9341505040E0F70895F999FECFCE
:106D100092BD81BDF89A992780B50895A8E1B0E0A9
:106D200042E050E01CC0DC01CB0102C02D9105D037
:106D300041505040D8F70895262FF999FECF1FBA39
:106D400092BD81BD20BD0FB6F894FA9AF99A0FBE94
:106D500001960895F1DF272FF0CFDC01CB01FC0174
:106D6000F999FECF06C0F2BDE1BDF89A319600B4A4
:0E6D70000D9241505040B8F70895F894FFCFAF
:106D7E00028302000001500102000000000000002A
:106D8E000182030000015201030000000000000018
:106D9E0000811200000155011200000000000000E9
:106DAE002400250023002700280026002A002B009F
:0E6DBE0029002D002E002C00300031002F0087
:00000001FF
