:100000000C94E2180C941F190C941F190C941F19CE
:100010000C941F190C941F190C941F190C941F1980
:100020000C941F190C941F190C941F190C94163260
:100030000C941F190C9486270C941F190C948E2D68
:100040000C941F190C941F190C941F190C941F1950
:100050000C941F190C941F190C941F190C941F1940
:100060000C941F190C941F190C941F190C941F1930
:100070000C941F192D1F1B1C211C3A1C401C2B1FEC
:100080002B1FF61CFC1C2B1F2B1F2B1F2B1F2B1F8A
:100090002B1FD61DEC1E111FF31D0F1E2E1E531EEF
:1000A0006C1E911EB11ECA1EE1320433EB330433C1
:1000B000EB3349336B33EB33BD33CF3300000000F8
:1000C0000000000000000000000000002A002B00DB
:1000D00028000000000028000000000000000000D0
:1000E0000000000000000000000000000000000010
:1000F0000000290000000000000000002C001E028B
:1001000034022002210222022402340026022702A5
:1001100025022E0236002D003700380027001E0071
:100120001F002000210022002300240025002600BB
:100130003302330036022E00370238021F02040257
:10014000050206020702080209020A020B020C025B
:100150000D020E020F02100211021202130214020B
:10016000150216021702180219021A021B021C02BB
:100170001D022F003100300023022D023500040043
:10018000050006000700080009000A000B000C002B
:100190000D000E000F0010001100120013001400DB
:1001A000150016001700180019001A001B001C008B
:1001B0001D002F023102300235024C0040000000C9
:1001C000000000000000000000000000000000002F
:1001D000000000000000000000000000000000001F
:1001E000000000000000000000000000000000000F
:1001F00000000000000000000000000000000000FF
:10248000000000FF00FF00FF00FF00FF00FF00FF53
:1024900000FF00FF00FF00FF00FF00FF00FF00FF44
:1024A00000FF00FF00FF00FF00FF00FF0000000032
:1024B000000000000000000000000000000000001C
:1024C000000000000000000000000000000000000C
:1024D00000000000000000000000000000080C00E8
:1024E00000000000000000000000000000000000EC
:1024F00000000000000000000000000000000000DC
:1025000000000000000000000000000000000000CB
:1025100000000000000000000000000000000000BB
:1025200000000000000000000000000000000000AB
:10253000000000000000000000000000000000009B
:10254000000000000000000000000000000000008B
:10255000000000000000000000000000000000007B
:102560000000000000000000000000000101010167
:102570001400000000000000000000000000000047
:10258000000000000000000000000000000000004B
:102590000000000000000000000001010101140023
:1025A000000000000000000000000000000000002B
:1025B000000000000000000000000000000000001B
:1025C00000000000000000000101010114000000F3
:1025D00000000000000000000000000000000000FB
:1025E00000000000000000000000000000000000EB
:1025F00000000000000001010101147D2F9B295102
:10260000270000A129992CE92951277D2FAA2951BA
:10261000270000BB29B51A031C51274F7574206F82
:10262000662072616E67652E0A00456E74657220C1
:102630006E65772064656661756C742064696D6D84
:102640006572206C6576656C2028312D3136293E07
:102650002000456E746572206E6577206465666142
:10266000756C74206261636B6C6967687420656E59
:1026700061626C652028312D31293E2000456E7441
:102680006572206E6577206D61747269782073655C
:10269000747570207761697420696E206379636C4A
:1026A00065732028312D323535293E2000456E7462
:1026B0006572206E6577207265706561742074693B
:1026C0006D6520696E206D732028312D3939293EC2
:1026D0002000456E746572206E657720686F6C64AB
:1026E0002074696D6520696E206D732028312D3945
:1026F0003939293E2000456E746572206E65772059
:102700006D6F757365206D6F76656D656E74206D88
:10271000756C7469706C6965722028312D3939299E
:102720003E2000456E746572206E6577206261738D
:1027300065206D6F757365206D6F76656D656E7460
:102740002028312D3939293E2000456E74657220CC
:102750006E657720646F75626C6574617020646566
:102760006C61792074696D6520696E206D73202815
:10277000312D393939293E2000456E746572206E3D
:102780006577207461702074696D6520696E206DB5
:10279000732028312D393939293E2000456E746562
:1027A00072206E6577206465626F756E6365207454
:1027B000696D6520696E206D732028312D393929A6
:1027C0003E20005365743A00456E746572206E6554
:1027D000772064656661756C74206C617965722020
:1027E00028302D39293E20004E756D206C6F636BAB
:1027F000206973206C696E6B656420746F20746847
:10280000652073797374656D206E756D206C6F63D0
:102810006B2E0A004E756D206C6F636B2077696CB0
:102820006C2066756E6374696F6E20696E64657086
:10283000656E64656E746C79206F662074686520BF
:1028400073797374656D206E756D206C6F636B2E7C
:102850000A004B6579626F61726420616374732052
:10286000617320657874656E646564204E4B524FC9
:10287000206B6579626F6172642077697468206D7E
:102880006F75736520616E64206D65646961206B8E
:102890006579732E0A004B6579626F6172642061FD
:1028A00063747320617320364B524F206B657962DD
:1028B0006F61726420706C7573206D6F7573652025
:1028C000616E64206D65646961206B6579732E0AA1
:1028D000004B6579626F617264206973206C696D69
:1028E0006974656420746F207374616E64617264CE
:1028F00020364B524F20626F6F742D636F6D706185
:102900007469626C65206B6579626F6172642E0A0E
:10291000005363726F6C6C206C6F636B2077696C13
:102920006C206E6F74206166666563742077696ED3
:10293000206C6F636B2E0A0057696E646F7773208B
:102940006B65792077696C6C2062652064697361BE
:10295000626C6564207768656E207363726F6C6C5F
:10296000206C6F636B20697320656E61626C6564B7
:102970002E0A004E756D206C6F636B2077696C6C4E
:10298000206E6F7420616666656374206E756D627B
:10299000657220726F772E0A004E756D6265722027
:1029A000726F772077696C6C206265207377617035
:1029B00070656420666F72206E756D706164206B47
:1029C000657973207768656E206E756D206C6F6316
:1029D0006B20697320656E61626C65642E0A004924
:1029E0006E707574206E6F74207265636F676E69A8
:1029F0007A65642E0A000A54696D696E67204D6518
:102A00006E753A0A312920536574206465626F75CA
:102A10006E63652074696D650A32292053657420E0
:102A20006D617820686F6C642074696D6520666FD5
:102A300072207461700A332920536574206D6178A7
:102A40002064656C61792074696D6520666F722001
:102A5000646F75626C65207461700A342920536557
:102A6000742062617365206D6F757365206D6F767C
:102A7000656D656E740A352920536574206D6F7518
:102A80007365206D6F76656D656E74206D756C7401
:102A900069706C6965720A362920536574206D6906
:102AA0006E20686F6C642074696D6520666F72209B
:102AB0007265706561740A372920536574207265E8
:102AC0007065617420706572696F640A38292053DB
:102AD0006574206D617472697820736574757020F7
:102AE000776169740A3929204261636B0A3E2000CC
:102AF0000A436F6E666967204D656E753A0A312923
:102B000020546F67676C65207669727475616C20FC
:102B10006E756D207061640A322920546F67676C8E
:102B2000652077696E206C6F636B206F6E20736316
:102B3000726F6C6C206C6F636B0A33292053657461
:102B40002064656661756C74206C617965720A3405
:102B50002920546F67676C65206261736963206B1D
:102B60006579626F6172640A352920546F67676CFA
:102B70006520756E6C696E6B206E756D206C6F6371
:102B80006B0A3629205365742064656661756C7420
:102B90002064696D6D6572206C6576656C0A3729F5
:102BA000205365742064656661756C74206261638E
:102BB0006B6C6967687420656E61626C650A39299F
:102BC000204261636B0A3E20000A4D61696E204D10
:102BD000656E753A0A312920436F6E666967206D0C
:102BE000656E750A32292054696D696E67206D65BE
:102BF0006E750A34292052657365740A392920518B
:102C00007569740A3E20001E4D1F51204E2150222E
:102C100000234F244A2552264B2749374CE200E92E
:102C200000EA00E500B500B600B700CD002402259B
:102C30000283018A019201940121022302C101C28F
:102C400002C304C408C510E001E102E204E308E4A1
:102C500010E520E640E7800105080A0C0F10141467
:102C600018180038D0030001D9030101DD03020167
:102C7000CE030301D4030401DC030501DE030601D6
:102C8000D1030701CB030801D6030902D2030B02CB
:102C9000CF030D01D5030E01DA030F02CD0311019D
:102CA000D80312016141624263436444654566464C
:102CB0006747684869496A4A6B4B6C4C6D4D6E4E6C
:102CC0006F4F7050715172527353745475557656DC
:102CD0007757785879597A5A31213240332334243E
:102CE0003525365E3726382A39283029000000007D
:102CF0000000000020202D5F3D2B5B7B5D7D5C7C18
:102D0000237E3B3A2722607E2C3C2E3E2F3F000044
:102D100000000000000000000000000000000000B3
:102D200000000000000000000000000000000000A3
:102D30000000000000000000000000000000000093
:102D4000000000002F2F2A2A2D2D2B2B00003100F0
:102D500032003300340035003600370038003900C7
:102D600030002E005C7C000000000000000000002D
:102D70000000000000000000000000000000000053
:102D8000000000006162636465666768696A6B6C75
:102D90006D6E6F707172737475767778797A41425F
:102DA000434445464748494A4B4C4D4E4F5051527B
:102DB000535455565758595A3031323334353637C3
:102DC00038392122232425262728292A2B2C2D2E69
:102DD0002F3A3B3C3D3E3F405B5C5D5E5F607B7CF1
:102DE0007D7E008000000000000000000000000068
:102DF00000000000000000000000000000000000D3
:102E000000000000000000000000000000000000C2
:102E100000000000000000000000000000000000B2
:102E200000000000000000000000000000000000A2
:102E30000000000000000000000000000000000092
:102E40000000000000000000000000000000000082
:102E50000000000000000000000000000000000072
:102E60000000000000000000000000000000000062
:102E70000000000000000000000000000000000052
:102E80000000000000000000000000000000000042
:102E90000000000000000000000000000000000032
:102EA0000000000000000000000000000000000022
:102EB0000000000000000000000000000000000012
:102EC0000000000000000000000000000000000002
:102ED00000000000000000000000000000000000F2
:102EE00000000000000000000000000000000000E2
:102EF00000000000000000000000000000000000D2
:102F000000000000000000000000000000000000C1
:102F100000000000000000000000000000000000B1
:102F200000000000000000000000000000000000A1
:102F30000000000000000000000000000000000091
:102F40000000000000000000000000000000000081
:102F50000000000000000000000000000000000071
:102F60000000000000000000000000000000000061
:102F70000000000000000000000000000000000051
:102F80000000000000000000000000000000000041
:102F90000000000000000000000000000000000031
:102FA0000000000000000000000000000000000021
:102FB0000000000000000000000000000000000011
:102FC00000000000004A03450061007300790041E1
:102FD000005600520020004D0075006C007400691E
:102FE000006D00650064006900610020004B006511
:102FF00000790062006F00610072006400200076BA
:103000000023002E00230023002E002300230000B5
:10301000000403090409022200010100A03209048E
:10302000000001030101000921B0010001223F005D
:103030000705810308000109025400030100A032C2
:103040000904000001030101000921B0010001226F
:103050003F00070581030800010904010001030185
:1030600002000921B0010001223A00070582030392
:1030700000050904020001030000000921B001005D
:1030800001221B0007058303020008090254000304
:103090000100A0320904000001030101000921B070
:1030A000010001223F00070581031200010904010C
:1030B0000001030102000921B0010001223A0007CA
:1030C0000582030300050904020001030000000952
:1030D00021B0010001221B00070583030200081232
:1030E00001000200000008EB03FF201000000100B7
:1030F00001050C0901A101050C160100269C021A0C
:1031000001002A9C02751095018100C00501090289
:10311000A1010901A10005091901290315002501D3
:10312000950375018102950175058101050109303D
:1031300009311681FF267F00360000460000950207
:1031400075088106C0C005010906A101050719E03F
:1031500029E715002501750195088102950175087B
:10316000810105081901290595057501910295014F
:10317000750391011500250105071900297F958028
:1031800075018102C005010906A101050719E029A1
:10319000E7150025017501950881029501750881E3
:1031A000010508190129059505750191029501751B
:1031B000039101150025FF0507190029FF950675E4
:1031C000088100C011241FBECFEFD4E0DEBFCDBF09
:1031D00084B714BE0FB6F894A895909160009861DA
:1031E00090936000109260000FBE83FF11C0809129
:1031F000F2039091F3038D3A9E4D51F41092F30334
:103200001092F203E2E6FCE225913491F90109956E
:1032100011E0A0E0B1E0E0E4FEE602C005900D920E
:10322000A234B107D9F723E0A2E4B1E001C01D92B6
:10323000A23FB207E1F70E9470360C941E370C943F
:1032400000001092660110926501109261011092C7
:1032500060011092700110926F01089590916201C7
:1032600080916D01992399F181113AC08091640197
:10327000811129C080918101811121C0E0915B0100
:10328000E91305C01092620110925B0129C081E030
:103290008E0F80935B01F0E0EE0FFF1FEF58FE4FA3
:1032A00080819181813019F49093640119C09093C9
:1032B0005C0180938101882399F050D611C083D698
:1032C000109281010DC081508093640109C0811169
:1032D00007C010925C01809163018D7F8093630130
:1032E00080916D01811103C081E080936D0108958B
:1032F00080912C0290915D01981731F180935D01CE
:10330000882311F1883211F0883531F480916301FE
:103310008B7F809363010895E0915F018A3251F4BD
:10332000EE2391F0E150E0935F01F0E0E959FE4FA8
:1033300010820895E63040F4AE2FB0E0A959BE4F98
:103340008C93EF5FE0935F01089580912C028111CF
:1033500002C0109263010895BC0180916201DB01FB
:10336000982F292F281B983058F090936201620FF4
:10337000711D27FD7A957093700160936F0122C0D3
:10338000FD0125913491211109C0909362011092A1
:10339000700110926F019923D1F014C0492F50E0B1
:1033A000F901FF27EE0FFF1FE454FF4F25913491E1
:1033B000440F551FFA01EF58FE4F318320839F5F62
:1033C0001196CFCF8091630183608093630181E088
:1033D00008954091620128E030E0241B310926174E
:1033E000370758F1B0E04B2F0B2E000C550B46174A
:1033F0005707D8F4A09162012A2F30E0FC01E40FB6
:10340000F51FE081F0E0EE0FFF1FE454FF4F459100
:103410005491220F331FF901EF58FE4F518340831F
:10342000AF5FA0936201BF5FDECF672B41F0809159
:10343000630183608093630102C080E0089581E0AE
:10344000089590916201983090F4E92FF0E0EE0F2A
:10345000FF1FEF58FE4F808361839F5F909362014F
:103460008091630183608093630181E0089580E02F
:1034700008959C019091620191112EC0A90198308C
:1034800049F490936201205F3F4F3093660120938F
:1034900065011BC0FA01659174914E5F5F4F611524
:1034A000710549F4909362011092660110926501D2
:1034B000992381F00AC0E92FF0E0EE0FFF1FEF58CB
:1034C000FE4F718360839F5FDACF809163018360D9
:1034D0008093630181E0089580E00895AC018091BC
:1034E000620181113EC060936E01282F082E000CEE
:1034F000330B2617370758F590916201220F331FBF
:10350000983038F0240F351F30936101209360010B
:103510001EC0FA01E20FF31F20813181E92FF0E094
:10352000EE0FFF1FEF58FE4F318320839F5F909374
:10353000620190916E01915090936E01911105C0BE
:10354000109261011092600102C08F5FCECF809116
:103550006201882341F0809163018360809363015D
:1035600002C080E0089581E008959091630191FD8B
:1035700075CE20916501309166012115310511F05C
:10358000C90177CF2091600130916101211531058A
:1035900039F060916E01062E000C770BC9019ECFA9
:1035A00020916F01309170012115310511F0C90191
:1035B000D3CE92FD9DCEC9CEE7E6F1E01082118216
:1035C000128213821482158210925F0180912C0264
:1035D00080935D018091630185608093630108950C
:1035E000E82FF0E0EE0FFF1FE454FF4F8591949118
:1035F0000895CF92DF92EF92FF920F931F93CF9394
:10360000DF93CDB7DEB7CDB6DEB6ECEBF1E01491CB
:10361000EDEBF1E0E4912E2F30E0C90163E070E0C2
:103620000E9480364DB75EB7481B590B0FB6F89411
:103630005EBF0FBE4DBFEDB7FEB731967F016EEB9B
:1036400071E0ADB7BEB7139682549E4F68177907E5
:10365000A9F0FB0131960491AD0141505109FA01E5
:103660000083FB014491FD0132974083FB013296B8
:10367000E491EC936D5F7F4F1396E8CF412FB90132
:10368000C7010E947927412F61E070E0C7010E94C5
:1036900079270FB6F894DEBE0FBECDBEDF91CF9175
:1036A0001F910F91FF90EF90DF90CF9008950895B4
:1036B00008958A3010F4805D0895895C08951F9301
:1036C000CF93DF93182FEB0182958F70F2DF888301
:1036D000812F8F70EEDF8983DF91CF911F91089545
:1036E0008F929F92AF92BF92CF92DF92EF92FF9212
:1036F0000F931F93CF93DF931F92CDB7DEB79C013B
:103700008B0180E3FB01808380E28183828383E0FD
:10371000E82EF12C94E6892E912C4AE0B42E682DE7
:1037200070E0911003C02617370790F06801C90CAC
:10373000D11C97FCDA94C9010E949D36A82E862FD1
:103740009983B7DFF60180832A2D9981392F9394CD
:10375000882D6B2D0E949136882EF1E0EF1AF1082A
:10376000F1F60F90DF91CF911F910F91FF90EF90A5
:10377000DF90CF90BF90AF909F908F90089597EA81
:10378000980F993010F48855089592EE980F99305B
:1037900010F48D5108959CEF980F963010F48A5FC5
:1037A000089580E00895BF92CF92DF92EF92FF924A
:1037B0000F931F93CF93DF936C017B0180E090E028
:1037C000B12C042F10E02B2D0B2C000C330B2E15DD
:1037D0003F0578F4B8010E948036EC01F601E20F53
:1037E000F31F8081CCDF9E01280F311DC901B394E6
:1037F000EACFDF91CF911F910F91FF90EF90DF9073
:10380000CF90BF9008951F93CF93DF9300D000D047
:10381000CDB7DEB78091630181111FC3E0918201B2
:103820008E2F90E08A31910508F015C3FC01E65C0B
:10383000FF4F0C94C43689EC9BE28EDDBDDE82E046
:10384000B2C111E0109382018091670198DF893045
:1038500009F401C3843019F410938301FEC281304E
:1038600011F483E0A0C1823011F487E09CC18FED98
:1038700099E286C080EF9AE26FDD9EDE84E093C11C
:1038800013E0109382018091670179DF893011F490
:1038900081E089C1813091F49091DD038927809383
:1038A000DD0382E00E94C52A8091DD03882319F0A0
:1038B00089E999E265C083E799E262C0823099F4B0
:1038C0009091D90381E089278093D90381E00E94F8
:1038D000C52A8091D903882319F088E399E250C062
:1038E00081E199E24DC08330B1F483EC97E234DD9D
:1038F000BE016F5F7F4F8091CE03E1DE8AE08B8354
:1039000063E070E0CE01019664DD88EC97E224DD8F
:1039100053DE8FE048C18430F9F48091DC038111DB
:1039200009C081E08093DC0385E00E94C52A86E916
:1039300098E226C0813041F41093DC0385E00E94B8
:10394000C52A81ED98E21CC01092DC0385E00E943C
:10395000C52A82E598E214C08530A1F49091D10384
:1039600081E089278093D10387E00E94C52A809156
:10397000D103882319F084E198E202C088EE97E22F
:10398000EBDC6BC28630B9F483EC97E2E5DC809126
:10399000D403BE016F5F7F4F90E0A2DE8AE08B838D
:1039A00063E070E0CE01019614DD8AE296E2D4DC99
:1039B00003DE80E1F8C0873009F059CF83EC97E24D
:1039C000CBDC8091CB0390E0BE016F5F7F4F01960F
:1039D00087DE8AE08B8363E070E0CE010196F9DC3C
:1039E00082E596E2B9DCE8DD81E1DDC086EF99E2AF
:1039F000B3DCE2DD88E0D7C087E08093820180916C
:103A00006701BDDE893009F443CF8130B9F483EC1E
:103A100097E2A2DC8091DE03BE016F5F7F4F90E0F2
:103A20005FDE8AE08B8363E070E0CE010196D1DC3B
:103A30008CE997E291DCC0DD82E1B5C08230C1F44F
:103A400083EC97E289DCBE016F5F7F4F8091D603E4
:103A50009091D70345DE8AE08C8364E070E0CE016C
:103A60000196B7DC89E797E277DCA6DD83E19BC0AE
:103A70008330D9F483EC97E26FDC8091D20390918C
:103A8000D303BE016F5F7F4F91958195910928DE29
:103A90008AE08C8364E070E0CE0101969ADC8AE4CF
:103AA00097E25ADC89DD84E17EC08430B9F483EC8E
:103AB00097E252DC8091CF03BE016F5F7F4F90E0B1
:103AC0000FDE8AE08B8363E070E0CE01019681DC3B
:103AD00083E297E241DC70DD85E165C08530B9F4B1
:103AE00083EC97E239DC8091D503BE016F5F7F4F95
:103AF00090E0F6DD8AE08B8363E070E0CE01019612
:103B000068DC86EF96E228DC57DD86E14CC0863023
:103B1000C1F483EC97E220DCBE016F5F7F4F8091A0
:103B2000DA039091DB03DCDD8AE08C8364E070E0F3
:103B3000CE0101964EDC82ED96E20EDC3DDD87E1A2
:103B400032C08730B9F483EC97E206DC8091CD0374
:103B5000BE016F5F7F4F90E0C3DD8AE08B8363E03F
:103B600070E0CE01019635DC8DEA96E2F5DB24DDCE
:103B700088E119C0883009F070C183EC97E2ECDB72
:103B80008091D803BE016F5F7F4F90E0A9DD8AE08E
:103B90008C8364E070E0CE0101961BDC8DE796E239
:103BA000DBDB0ADD89E18093820157C160915F010F
:103BB00070E04AE087E691E0F6DD8A30910578F41E
:103BC0008093CE0383E00E94C52A83EC97E2C4DB96
:103BD000BE016F5F7F4F8091CE0371DD1AC18BE113
:103BE00096E2BADB3ECE60915F0170E04AE087E684
:103BF00091E0D9DD9C01215031092336310558F47B
:103C00008093DE0386E00E94C52A83EC97E2A4DB62
:103C10008091DE0379C08BE196E29EDB26CE609137
:103C20005F0170E04AE087E691E0BDDD9C01215034
:103C30003109273E334078F79093D7038093D6031A
:103C400089E00E94C52A83EC97E286DBBE016F5FA4
:103C50007F4F8091D6039091D703B8C060915F01E8
:103C600070E04AE087E691E09EDD9C012150310939
:103C7000273E334080F69195819591099093D30327
:103C80008093D2038AE00E94C52A83EC97E264DB2A
:103C90008091D2039091D303BE016F5F7F4F9195C6
:103CA0008195910993C060915F0170E04AE087E6D9
:103CB00091E079DD9C01215031092336310508F06E
:103CC000AACF8093CF038BE00E94C52A83EC97E2B2
:103CD00043DB8091CF0318C060915F0170E04AE040
:103CE00087E691E060DD9C012150310923363105E2
:103CF00008F091CF8093D5038CE00E94C52A83EC15
:103D000097E22ADB8091D503BE016F5F7F4F90E081
:103D1000E7DC8AE08B8363E070E0CE01019659DB3B
:103D2000A4CD60915F0170E04AE087E691E03BDD61
:103D30009C0121503109273E334008F06CCF90930D
:103D4000DB038093DA038DE00E94C52A83EC97E2BF
:103D500003DBBE016F5F7F4F8091DA039091DB033D
:103D600035C060915F0170E04AE087E691E01BDDBD
:103D70009C01215031092336310508F04CCF809346
:103D8000CD038EE00E94C52A83EC97E2E5DA8091AC
:103D9000CD03BACF60915F0170E04AE087E691E021
:103DA00002DD9C01215031092F3F310508F033CF4E
:103DB0008093D8038FE00E94C52A83EC97E2CCDA87
:103DC0008091D803BE016F5F7F4F90E089DC8AE06D
:103DD0008C8364E070E0A1CF60915F0170E04AE005
:103DE00087E691E0E0DC9C0121503109203131056A
:103DF00008F0F5CE8093D40384E00E94C52A83ECBA
:103E000097E2AADA8091D403BE016F5F7F4F90E002
:103E100067DC8AE08B8363E070E0CE010196D9DA3B
:103E200020CD60915F0170E04AE087E691E0BBDC65
:103E3000019709F0D4CE1092CB0388E00E94C52AE6
:103E400083EC97E289DA8091CB0390E0BE016F5F4B
:103E50007F4F0196DDCF109282010F900F900F904F
:103E60000F90DF91CF911F910895362F90E066E07B
:103E700070E00E948036805D9E4FDC01ED91FC91E8
:103E8000208181E090E001C0880F3A95EAF7822B0B
:103E900080830895262F90E066E070E00E948036CF
:103EA000805D9E4FDC01ED91FC918081622F6095D9
:103EB0006823462B40830895362F90E066E070E03B
:103EC0000E948036805D9E4FDC011296ED91FC9140
:103ED0001397208181E090E001C0880F3A95EAF7BE
:103EE000822B80830895362F90E066E070E00E9478
:103EF0008036805D9E4FDC011296ED91FC91139708
:103F0000208181E090E001C0880F3A95EAF7809522
:103F1000822380830895262F90E066E070E00E945F
:103F20008036805D9E4FDC011296ED91FC911397D7
:103F30008081622F6823462B40830895262F90E0CE
:103F400066E070E00E948036805D9E4FDC01149632
:103F5000ED91FC911597808182230895E82FE695D5
:103F6000E695E695F0E0E15EFD4F982F977021E031
:103F700030E001C0220F9A95EAF79081292B208327
:103F80009091190220E029175CF4E22F022E000C18
:103F9000FF0BE45DFD4F30813817A1F02F5FF3CFA9
:103FA00096305CF4E92F092E000CFF0BE45DFD4F09
:103FB00080839F5F9093190208951092320281E0EE
:103FC00080938A020895E82FE695E695E695F0E05D
:103FD000E15EFD4F982F977021E030E001C0220F85
:103FE0009A95EAF7209590812923208390911902D0
:103FF0004CE252E0FA012E2F241B291724F43191B0
:104000003813F9CF01C00895E22F022E000CFF0BE8
:10401000E45DFD4F818180832F5F2917ACF39150C0
:104020009093190210928A020895E82FE695E6957A
:10403000E695F0E0E15EFD4F982F977021E030E0CB
:1040400001C0220F9A95EAF7908129272083909149
:1040500019024CE252E0FA012E2F241B291724F4F6
:1040600031913813F9CF13C096305CF4E92F092E43
:10407000000CFF0BE45DFD4F80839F5F909319025E
:1040800008951092320281E080938A020895E22F0F
:10409000022E000CFF0BE45DFD4F818180832F5FBA
:1040A0002917ACF391509093190210928A02089547
:1040B0009091840294305CF4E92F092E000CFF0BE0
:1040C000E65EFD4F80839F5F90938402089540E0F9
:1040D00060E070E082E4ECDA10921E020895209114
:1040E00084024AE152E0FA019E2F941B92179CF43D
:1040F00031913813F9CF921751F0E92F092E000CA6
:10410000FF0BE65EFD4F818180839F5FF4CF91506E
:10411000909384020895682F70E040E083E4C8CA59
:104120008091CE0380938D020895962F62E10E94C4
:104130007736890F9091140289130DC08091D203B4
:104140009091D3038417950734F480918C028F5F8C
:1041500080938C0208951092140210928C0208959C
:10416000962F6091D6037091D7034617570754F4E2
:1041700041E0F901408362E10E947736890F809324
:1041800014020895F90110821092140210928C0208
:10419000089590916E01E92FEE0FFF0BEC5CFD4F3F
:1041A0002091160230E0322F2227282B31832083E2
:1041B00081E0890F80936E01883234F01092890279
:1041C00080935E0180E1C1C5089590918E029111A6
:1041D00010C0805D8E3068F4E82FF0E0EE0FFF1F16
:1041E000ED57FB4E85919491880F991F8D579B4EEB
:1041F00040C90895CF93DF93C82FD62F59DF809100
:104200008D029091CE03891711F08B5F9ED580E1CE
:104210008C0F80938D0285E18C0F77D58FE075D55B
:1042200080918D0290911502D0FF02C0981308C0B2
:10423000981308C080918C02811104C08091CE0334
:1042400080931502DF91CF910895E82FF0E0E256B8
:10425000FC4F8491882311F060E0CCCF08951F9328
:10426000CF93DF9300D01F92CDB7DEB7182F2B83EB
:104270004A83698334DF2B814A816981222391F14A
:1042800020918D02E22FF0E0812F90E0805F910974
:10429000E817F90739F580918C02882319F061FD40
:1042A000209315028091180281131CC062FF1AC06E
:1042B000141624F460911602842F13C0842F807E7C
:1042C000803E81F4E42FF0E0EE0FFF1FE857F54D3C
:1042D00084918095909116028923809316026491AF
:1042E00080E0AFD880918D028B5F2FD5E091840262
:1042F000E11103C08091150207C00E2E000CFF0BC8
:10430000E75EFD4F8081805F80938D0280918D02FA
:104310009091CE03891741F08B5F0F900F900F9013
:10432000DF91CF911F91F1C48FE00F900F900F900C
:10433000DF91CF911F9109C5E82FF0E0E256FC4FC5
:104340008491882321F020E040E060E088CF089548
:104350006F70623051F028F4662339F0613081F0DB
:104360000895643011F06830F1F4E82FF0E0EE0FBA
:10437000FF1FE857F54DE49180911602E82B0AC023
:10438000E82FF0E0EE0FFF1FE857F54DE491809124
:104390001602E827E093160280918B02882319F019
:1043A000E777E093160208956F70623009F43EC01B
:1043B00018F4662379F10895643019F0683051F1EA
:1043C0000895E82FF0E0EE0FFF1FE857F54DE49158
:1043D000E095609116026E2360931602222309F481
:1043E00043C09091180298133FC0842F14168CF08C
:1043F000807E803E09F038C0E42FF0E0EE0FFF1F12
:10440000E857F54D84918095682360931602649176
:1044100080E017C8E82FF0E0EE0FFF1FE857F54DDA
:10442000E491E09580911602E8231CC0E82FF0E0AB
:1044300090911602EE0FFF1FE857F54D222379F0F9
:1044400080918C02882359F08491E82FE92BE09326
:10445000160280918B02882339F0E77703C0E4913C
:10446000E095E923E093160208956F70623051F0F1
:1044700028F4662339F0613031F00895643011F08A
:10448000683011F46BCDD1CD08956F70623049F072
:1044900018F461110DC00BC0643049F0683041F46C
:1044A00006C0222321F090918C02911101C08BCD86
:1044B00008951F93CF93DF931F92CDB7DEB7182FC8
:1044C000862F807F11F080935C01103C70F5103BCB
:1044D00008F0BAC0183AB8F4143A08F085C0123897
:1044E00009F468C030F48CEF810F803708F457C0AE
:1044F00004C1143809F470C008F464C0113A09F01A
:10450000FCC09CD400C11A3A09F4FDC038F4183A32
:1045100009F47AC0193A09F47EC0EFC01E3A09F4D2
:1045200087C01F3A09F488C0E8C01E3D20F5103D41
:1045300008F0BBC0163C09F49CC088F4113C08F498
:10454000DCC0EFE3E10FF0E0EE0FFF1FE25CF34DA4
:10455000E49180918702E82BE0938702D4C0183C55
:1045600009F491C008F489C0193C09F0C6C08091D3
:1045700033028F5F8BC0183E50F4103E08F0BAC073
:104580001E3D09F495C01F3D09F4A6C0B6C08FE0DA
:10459000810F893008F0B1C0812F2CDEB4C080912A
:1045A0008902882321F0812F6983F3DD6981812FBE
:1045B0005CDFA9C08091170281FDA5C06091160241
:1045C00089E307C08091170280FD9DC060911602AB
:1045D00083E50E94211A97C08091170282FD93C043
:1045E0006091160287E4F5CF8091890281118BC01A
:1045F00081E08093890210926E0180938E028CE597
:10460000810F8093E1035EC090918E0281E0892743
:1046100080938E0278C090918B0281E089278093ED
:104620008B02811102C085E055C085E06ED36BC05E
:1046300082E08093830167C080918201811163C011
:1046400081E0809382015FC0809185029091860213
:10465000892B09F058C0E0E5E10FF0E0EE0FFF1FF5
:10466000E35EF34D85919491909386028093850249
:104670004AC0809188028F5F03C080918802815078
:104680008093880205C08091330281508093330269
:104690009091CA0380918C02992321F09091C803D4
:1046A000981788F58093C8032EC0812F8EDD2BC00C
:1046B0009091890281E0892780938902882321F0E3
:1046C00010926E0180E1B2CF80916E0181118093D2
:1046D0005E0180E13AD317C080918902811113C035
:1046E00060915E01062E000C770B84E392E00E943D
:1046F0006E1A09C0812F2CDE06C0612F70E040E0E9
:1047000084E40E94581B109318020F90DF91CF9100
:104710001F9108951F93CF93DF9300D01F92CDB7C1
:10472000DEB7182F862F807F11F010925C01163CA7
:1047300010F5113C08F0A0C01B3A98F4113A08F0AB
:10474000DFC0123809F462C028F48CEF810F803783
:10475000B0F1CAC0133809F461C0143809F46DC04F
:10476000C3C01E3A08F4C0C0103B08F4C9C0103CD6
:1047700008F46BC0B9C0103E90F4103D08F0C0C002
:10478000173C09F48DC008F487C0183C09F48EC0AA
:10479000193C09F0A9C08091330281508AC0183EAB
:1047A00008F48AC08FE0810F893008F09DC0812F06
:1047B0000F900F900F90DF91CF911F9150CD80916E
:1047C00089028823D9F080918E028823B9F01832AB
:1047D00011F01B3299F410928E021092890280918E
:1047E0006E01815080935E011092E20380E12B8381
:1047F0004A836983AAD269814A812B81812F0F90D4
:104800000F900F90DF91CF911F913FCE80911702B3
:1048100081FF76C06091160289E307C0809117027C
:1048200080FF6EC06091160283E50F900F900F908D
:10483000DF91CF911F910C94211A8091170282FF72
:104840005FC06091160287E4F0CF60E5610FE62F4C
:10485000F0E0EE0FFF1FE35EF34D85919491209100
:104860008502309186022817390709F049C0109255
:1048700086021092850244C06FE3610FE62FF0E0DC
:10488000EE0FFF1FE25CF34DE491E095809187020B
:10489000E823E093870234C080918802815003C0EE
:1048A000809188028F5F809388022AC080913302B2
:1048B0008F5F8093330224C080918902882361F046
:1048C00080911802811308C080E02B834A8369839A
:1048D00060DC69814A812B81812F0F900F900F90AE
:1048E000DF91CF911F9160CD612F70E040E085E4B2
:1048F0000F900F900F90DF91CF911F910C94581B48
:104900000F900F900F90DF91CF911F9108952091FC
:104910001602227291E009F090E02091DD0322233B
:1049200059F0992349F02091170220FF05C022EE8B
:10493000280F2A3008F4855C2091D103222321F12D
:10494000833571F49091170281E0892780931702D3
:1049500080FF03C080E0D9D11FC080E0F6D11CC029
:1049600027EA280F2B3080F420911702E82FF0E07F
:10497000EE0FFF1F20FF05C0992319F0EB5AF44DED
:1049800002C0EA5AF44D84918A3A39F4911102C076
:1049900085E3089589E2089580E008958F929F92BB
:1049A000AF92BF92CF92DF92EF92FF920F931F933D
:1049B000CF93DF93B82EA62E7A01C82ED12C062FC6
:1049C00010E080918D0290E060E970E00E948036F6
:1049D000FC01C60162E170E00E948036EC01E80F44
:1049E000F91FE00FF11FED51F14F849190DF882EF8
:1049F00040918D02242F30E0C90160E970E00E94EF
:104A000080368C0F9D1FF801E80FF91FED5BF64F04
:104A10009490C90160E970E00E9480368C0F9D1F60
:104A2000F801E80FF91FED55FC4FC491C60162E192
:104A300070E00E948036800F911FFC01EC57FE4F02
:104A40004083A7016A2D8B2D70DB4C2F692D882D9B
:104A500030DDDF91CF911F910F91FF90EF90DF90AC
:104A6000CF90BF90AF909F908F900C949D2F8F927E
:104A70009F92AF92BF92CF92DF92EF92FF920F93ED
:104A80001F93CF93DF931F92CDB7DEB7982E862E5C
:104A9000DA01C82ED12C062F10E0C60162E170E0C9
:104AA0000E9480369C01FC01E00FF11FEC57FE4F85
:104AB000A080B12CC50160E970E00E948036820FB1
:104AC000931F800F911FFC01ED51F14FE490FC0109
:104AD000ED5BF64FF490C50160E970E00E9480360E
:104AE000820F931FF801E80FF91FED55FC4FB490AA
:104AF0009E012F5F3F4FAD01682D892D31DB29814C
:104B00004B2D6F2D8E2D06DEC60162E170E00E94F6
:104B10008036800F911FFC01EC57FE4F10820F90E2
:104B2000DF91CF911F910F91FF90EF90DF90CF9089
:104B3000BF90AF909F908F900895E62FF0E090E0A7
:104B400062E170E00E9480369C01DC01AE0FBF1F65
:104B5000AC57BE4F8C9190E060E970E00E948036C7
:104B6000820F931F9F01280F391FF901ED51F14F5B
:104B70008491F901ED5BF64F249123FF1AC01816BA
:104B80001CF46091160213C0982F907E903E89F419
:104B9000E82FF0E0EE0FFF1FE857F54D8491809568
:104BA00090911602892380931602649180E00C9400
:104BB000211A089520918E02211112C0FC01ACE24D
:104BC000B2E0069621E030918A02332311F020836F
:104BD00002C03C91308331961196E817F90799F796
:104BE000089520918E02211109C0DC01EFE1F2E06D
:104BF0008DE08E0F91919D938E13FCCF0895FC0153
:104C000080918E02811106C080915C019091160204
:104C1000982B90830895262F90E062E170E00E9427
:104C20008036820F911DFC01ED51F14FE491E83285
:104C300011F0E83539F441E060E070E081E50E9470
:104C4000581B05C40895462FA82FB0E0CD0163E09E
:104C500070E00E9480369C01FC01E155FB4D84917F
:104C6000F9013196E355FB4D481761F02491CD01D0
:104C700063E070E00E94803683559B4DFC01849177
:104C8000622F1AC92491CD0163E070E00E94803642
:104C900083559B4DFC018491622F25C90F931F936F
:104CA000CF93DF93EEEDF4E2D4910DEA14E2C0E08D
:104CB000CD1769F0F80131966491F8018491D5D847
:104CC00060E08C2FC0DFCF5F0D5F1F4FF1CF809171
:104CD000D40380939A02DF91CF911F910F91089591
:104CE00080919702893F69F480919C028F3E19F46C
:104CF00010929C0203C08F5F80939C0210929702D7
:104D000008958F5F80939702089590E0880F991F10
:104D1000FC01ED57FB4DA491FC01EC57FB4D849138
:104D2000EDEDF4E2E491AE1778F4B0E0A157BD4F99
:104D3000811103C08C91816006C09C919170E82F15
:104D4000EE0F892F8E0F8C93089590E0880F991F96
:104D5000FC01ED57FB4DA491FC01EC57FB4D8491F8
:104D6000EDEDF4E2E491AE1780F4B0E0A157BD4F51
:104D7000811104C08C918E7F8C9308959C91292F72
:104D80002695281302C091709C930895823049F0B3
:104D9000833079F08130A1F481E1B7DF82E1D5DFA2
:104DA0000CC081E1D2DF82E1D0DF83E1AEDF84E1BC
:104DB000CCCF81E1CADF82E1A8DF83E1C6DFF7CF94
:104DC00081E1C3DF82E1C1DF83E1BFDF84E19DCF09
:104DD0000F931F93CF93EDEDF4E2E491C0E00E2F1B
:104DE00010E08C2F0C2E000C990B8017910714F5F6
:104DF000209198022223C9F0FC01E157FD4F208148
:104E0000223018F421110FC010C0E22FE695F0E017
:104E1000E95AF34D649180919C020E949136921759
:104E200020F490FF02C061E001C060E08C2F0BDF36
:104E3000CF5FD7CFCF911F910F91089580919A02A4
:104E4000803110F081E002C08C5F8C7F80939A02E9
:104E5000089580919B028F5F813118F480939B02AB
:104E6000089581E080939B021092990208958091A9
:104E70009A02803120F081E0809398020895909109
:104E8000990260919B020E947736981738F481E06E
:104E900080939802905F90939902089510929802DF
:104EA0000895D7DFE4DF1CDF93CF27B1242B27B988
:104EB00028B1342F3095232338B1432B3FB7F894D2
:104EC000FC01680F791FE617F70789F0819198E0D8
:104ED00048B9000000C087FF28B9880F000000C053
:104EE00000C000C028B900C09A9591F7ECCF3FBF31
:104EF00008959B01220F331F620F731FD6DF87ECCB
:104F000090E00197F1F700C0000008951F920F9202
:104F10000FB60F9211240F900FBE0F901F9018958F
:104F200090E080E80FB6F894809361009093610060
:104F30000FBE0895F5CF8DEA9EED9093F303809315
:104F4000F203089584E089BD86E089BD09B400FEBE
:104F5000FDCF8091D8008F7D8093D8008091E000B4
:104F600082608093E0008091E00081FDFCCF089595
:104F7000CF92DF92EF92FF921F93CF93DF93E2E401
:104F8000F5E2E491E0939D02E1E4F5E2E491E0933F
:104F9000A102E0E4F5E2E491E093A202EFE3F5E29E
:104FA000E491E093A30289E3E82E85E2F82E9EE9DE
:104FB000C92E92E0D92ED0E0F70114918091A10280
:104FC00081111FEFF7013196C4914C2F612F8D2F66
:104FD0000E944A1F2C2F2095F60121936F01422F2A
:104FE00041238091A102642F6095811101C040E0AE
:104FF0008D2F0E948B1FDF5FF2E0EF0EF11CD3308C
:10500000D9F6DF91CF911F91FF90EF90DF90CF9075
:105010000895CF92DF92EF92FF921F93CF93DF9389
:1050200010E0812F012E000C990B2091A20230E09C
:10503000821793070CF054C02EE9E22E22E0F22EE4
:1050400063E070E00E9480366C01C0E0D0E0FE01B9
:10505000EC0DFD1DED5FFA4D4491F70161917F016B
:105060008C2F0E948B1F2196C330D10581F7809130
:10507000D8038A95F1F7C0E02C2F0C2E000C330BCF
:105080008091A30290E02817390744F58091A1028E
:10509000220F331FF901E052FB4D882351F0649138
:1050A000F901E152FB4D84910E949E1F882351F02B
:1050B00013C06491F901E152FB4D84910E949E1F3F
:1050C000882351F080919D02882319F0612F8C2F45
:1050D00002C06C2F812F9FDDCF5FCECF1F5FA1CF8E
:1050E000DF91CF911F91FF90EF90DF90CF900895C7
:1050F000DF92EF92FF920F931F93CF93DF93D82EFF
:10510000A62FB42FE62EF12CC42FD0E0C70162E108
:1051100070E00E9480368C0F9D1F8C01000F111FC4
:105120000C551D4FF80120813181DD2009F440C06C
:1051300037FF1EC0E091DE03F0E0F195E195F10943
:10514000E217F30714F4E80174C0A9016B2F8A2F4A
:1051500025DCC70162E170E00E9480368C0F9D1F44
:10516000EC01CC0FDD1FCC55DD4F84E090E04BC04F
:105170008091DA039091DB032817390714F1642F2B
:105180008A2FDBDCC70162E170E00E9480368C0F61
:105190009D1FEC01CC0FDD1FCC55DD4F2091CD03C1
:1051A00088819981821B9109F8019183808346C08F
:1051B000121613065CF58091DE0390E0281739077C
:1051C00084F4C70162E170E00E9480368C0F9D1F5D
:1051D000EC01CC0FDD1FCC55DD4FA9014C5F5F4FBB
:1051E0002BC0A9016B2F8A2F42DCC70162E170E05E
:1051F0000E9480368C0F9D1FEC01CC0FDD1FCC551B
:10520000DD4F8CEF9FEF9983888318C08091D20384
:105210009091D303821793078CF4C70162E170E089
:105220000E9480368C0F9D1FEC01CC0FDD1FCC55EA
:10523000DD4FA9014450510959834883DF91CF9133
:105240001F910F91FF90EF90DF900895CF92DF9222
:10525000EF92FF920F931F93CF93DF93D62FC82F18
:10526000CD170CF05FC08EE9E82E82E0F82E8C2F6F
:105270000C2E000C990B63E070E00E9480366C01EC
:1052800000E010E0F70161917F016F3F49F0F80104
:10529000EC0DFD1DED5FFA4D4491802F0E948B1F98
:1052A0000F5F1F4F0330110569F78091D8038A956E
:1052B000F1F710E0212F012E000C330B8091A30297
:1052C00090E02817390764F58091A102220F331F5F
:1052D000F901E052FB4D882359F06491F901E15244
:1052E000FB4D84910E949E1F91E0882361F00AC0CB
:1052F0006491F901E152FB4D84910E949E1F91E05F
:10530000811101C090E080919D02882319F04C2FFB
:10531000612F02C0412F6C2F892FEADE1F5FCACF99
:10532000CF5F9ECFDF91CF911F910F91FF90EF90B4
:10533000DF90CF9008956091A2026695669580E017
:1053400085CF8091A202682F70E07595679586954C
:1053500086957CCF2091A20230E0C90163E070E025
:105360000E948036959587959595879535952795D3
:10537000682F822F6BCF2091A202822F90E063E0F2
:1053800070E00E9480369595879595958795622F58
:105390005DCF81E08093C70308952091C703622FFA
:1053A00070E00E9480366AE070E00E949D36809135
:1053B000C603962F981B892F6093C6032F5F2093F7
:1053C000C7032B3028F01092C60391E09093C703D7
:1053D000089580918802811104C08091330288234E
:1053E00019F181E08093CA032091CF038091C80313
:1053F0006091D5039091C903911121C070E090E0B4
:105400000E948036820F911DC8DF982F609188021C
:105410000E9477368093C50360913302892F0E94E2
:1054200077368093C4030BC01092CA031092C60350
:105430001092C5031092C4038AE08093C703809141
:10544000C903811103C081E08093C9030895CF93FC
:10545000DF93CDB7DEB763970FB6F894DEBF0FBE0C
:10546000CDBF59E15093D0031092D9031092DD03C0
:105470001092CE0340E14093D4031092DC0336E057
:105480003093DE031092D1031092CB0380EF90E0B3
:105490009093D7038093D60388E89FEF9093D3032C
:1054A0008093D20385E08093CF032FE02093D50330
:1054B00060E273E07093DB036093DA0390E2909311
:1054C000CD038093D80359831A821B821C824D839B
:1054D0001E823F831886198630EF3A871B8638E88C
:1054E0003C873FEF3D878E872F87988B23E0298B62
:1054F0009A8B8B8B43E150E060E070E0CE01019627
:105500000E94F43663960FB6F894DEBF0FBECDBF8F
:10551000DF91CF9108950F931F93CF93DF93C4E64C
:10552000DCE2FE01329684913196E49190E0E23023
:1055300059F4FE0105911491805090400E94EF367D
:10554000F8019183808309C0FE0105911491805078
:1055500090400E94E736F80180832496FCE2C43A2A
:10556000DF07F9F66091D003693131F070E041E076
:1055700080E50E94581B6BDF8091DC038093CC0395
:10558000DF91CF911F910F91089590E0880F991F9F
:10559000880F991FFC01EA59F34D2491FC01E95948
:1055A000F34D3491FC01EC59F34D822F90E03230F1
:1055B00041F4A591B4916D917C91805090400C94F0
:1055C0000B37A591B4916C91805090400C94FD36AE
:1055D00085E08093E20308958091E103082E000C9A
:1055E000990B6EE270E00E948036FC01E459FA4D9E
:1055F0004491FC01E359FA4D3491FC01E259FA4D12
:105600002491FC01E159FA4D949150916E018091E1
:10561000DF03513079F01CF4552331F01FC05230B4
:1056200081F05330A9F01AC0442321F06AE10E94AE
:1056300091362EC0332329F06AE10E949136965E9E
:1056400027C0222329F06AE00E9491369C5C20C08A
:10565000992321F0982F9F71925C1AC0442311F076
:105660006AE101C060E03111665E2111665F91114F
:10567000605E0E949136411101C0965E311103C0F7
:105680009A3134F0965E211103C094330CF0965F8A
:10569000E92F990FFF0BEC57F24D84910895845038
:1056A0009272E82FF0E0EE0FFF1F911103C0EC554E
:1056B000F34D02C0EB55F34D849108950F931F9362
:1056C000CF93DF93C091E1030C2E000CDD0B2091F2
:1056D0006E01022E000C330BCE016EE270E00E94D0
:1056E0008036FC01E559FA4D649170E0C9010E94D1
:1056F000B136082F1091DF0360915E01062E000C79
:10570000770BC9010E94B136FC01FF27EE0FFF1F86
:10571000EC5CFD4F80819181C2DF810F982F990F42
:1057200087FD9F5F9093DF03CE016EE270E00E94E1
:105730008036800F911DFC01ED5BFA4DE491809164
:10574000DF03E827E093DF03DF91CF911F910F91F3
:105750000895EF92FF920F931F93CF93DF931F92C1
:10576000CDB7DEB7A091E1030A2E000CBB0BCD0133
:105770006EE270E00E9480369C01FC01E059FA4D17
:105780006491062F10E088E290E0801B910B880F57
:10579000991FAC014C5C5D4F7A018091E20382302D
:1057A00009F44EC028F4882351F08130F1F0B9C0DB
:1057B000833009F465C0843009F48AC0B2C0109205
:1057C000DF0381E08093E20310926E01CD016EE26F
:1057D00070E00E94803685599A4DFC0184918111B8
:1057E000A0C085E08093E2039CC040916E01F90166
:1057F000E40FF11D47FDFA95ED5BFA4DE491209120
:10580000DF032E0F2093DF034F5F40936E01CD0126
:105810006EE270E00E94803685599A4DFC016491D9
:10582000042E000C550B70E0461757070CF479C096
:1058300082E08093E20310926E012093E00371C036
:105840001091E003A0916E01AA0FBB0BAC5CBD4FA1
:105850008D919C91698323DF810F8093E003909168
:105860006E019F5F90936E0120915E016981921796
:105870000CF457C00E9491369093E00383E023C05C
:105880001DDF8091E00390E0880F991FE80EF91E5C
:10589000A3DE0E94F01AF701918380838091E003D8
:1058A00090E00196B8010E94B1368093E0038091A8
:1058B0006E018F5F80936E01082E000C990B80178C
:1058C00091077CF184E08093E20310926E0129C07D
:1058D00080916E01282F220F330BFA01E20FF31F84
:1058E00040815181F901EC5CFD4F518340838F5F12
:1058F00080936E01082E000C990B801791078CF095
:1059000085E08093E20360935E01B80184E392E056
:105910000F90DF91CF911F910F91FF90EF900C941A
:105920006E1A0F90DF91CF911F910F91FF90EF9022
:1059300008958091E203853009F00BCF0895CF924E
:10594000DF92EF92FF920F931F93CF93DF93CDB728
:10595000DEB7CDB6DEB6E3EEFDE21491E4EEFDE295
:10596000E4912E2F30E0C90163E070E00E948036A0
:105970004DB75EB7481B590B0FB6F8945EBF0FBE0C
:105980004DBFEDB7FEB731967F0165EE7DE2ADB755
:10599000BEB713968B51924D68177907A9F0FB019A
:1059A00031960491AD0141505109FA010083FB0188
:1059B0004491FD0132974083FB013296E491EC93D0
:1059C0006D5F7F4F1396E8CF412FB901C70191DA80
:1059D000412F61E070E0C7018CDA0FB6F894DEBEAB
:1059E0000FBECDBEDF91CF911F910F91FF90EF9031
:1059F000DF90CF90089513BC109280001092820027
:105A000080E89EE390938900809388000895109227
:105A1000E3037894109285001092840081E08093D3
:105A2000810082E080936F009AE088E10FB6F894DD
:105A3000A895809360000FBE90936000E0E6F0E0D0
:105A40008081806C808308950FB6F894A89580912A
:105A50006000886180936000109260000FBEE0E6F5
:105A6000F0E080818F7B808310926F001092810024
:105A70000895CF93DF93C0E0D0E0E091E303F0E03E
:105A8000EE0FFF1FEE0FFF1FEC0FFD1FEE0FFF1FAE
:105A9000E550FA4D85919491009721F0C093E5036C
:105AA000FC0109952196C430D10539F7DF91CF91DA
:105AB000089510928500109284008091E403882359
:105AC00081F08091E3036091E50370E0782B40E082
:105AD00081E10E94581B8091E4038F5F8093E4036F
:105AE000089581E08093E4037894C3DF8091E30319
:105AF0008F5F8093E303843010F01092E303809172
:105B0000E403823038F06091E40370E040E084E127
:105B10000E94581BA8951092E40308951F920F92BB
:105B20000FB60F9211242F933F934F935F936F9370
:105B30007F938F939F93AF93BF93EF93FF93B9DFBF
:105B4000FF91EF91BF91AF919F918F917F916F9155
:105B50005F914F913F912F910F900FBE0F901F902B
:105B60001895292F33272330310511F13CF42130CA
:105B7000310561F02230310571F070C021323105FC
:105B800031F12232310509F43DC068C082E190E074
:105B90002FED30E36CC08091CC03833009F44AC010
:105BA000813009F44CC084E590E02BE830E35FC01D
:105BB0009927009731F0019709F050C0E5ECFFE21A
:105BC00002C0E1E1F0E3849190E09F0150C06130B8
:105BD00049F068F0623009F041C089E090E02FECB4
:105BE00030E345C089E090E026EB30E340C080918F
:105BF000CC03833049F1813061F189E090E02DE9F7
:105C000030E335C0613041F060F0623039F58BE14E
:105C100090E021EF30E32BC08AE390E02CE031E309
:105C200026C08091CC0380FD1EC08FE390E026E467
:105C300031E31DC082E290E025E130E318C084E545
:105C400090E027E330E313C089E090E027E230E3FF
:105C50000EC089E090E029E430E309C080E090E0E4
:105C600020E030E004C08FE390E025E831E3FA0162
:105C700031832083089581E089C80895CF93DF930D
:105C800080E291E012D7C82F8091CC0381FD09C03A
:105C900080E191E00AD7D82F80E091E006D78D23EC
:105CA000C823CC2311F080E001C083E06FD880913D
:105CB000E20084608093E200DF91CF91089580E25A
:105CC00091E0BBD58091CC0381FD06C080E191E0DD
:105CD000B4D580E091E0B1C5089580912E019091F6
:105CE0002F01009729F0019790932F0180932E01A7
:105CF0008091CC0381FD16C080911E0190911F01FF
:105D0000009729F0019790931F0180931E018091C5
:105D10000E0190910F01009729F0019790930F01C8
:105D200080930E01089580E031C80F931F93CF93A5
:105D3000DF93F90121E080329207F9F4EF0110922C
:105D40006D012091CC03CF01029620FD07C0209168
:105D50002901222319F00E94F12502C00E94DA25B0
:105D6000CE010E94FF258091CC0380FF03C088E014
:105D700090E024C082E190E021C080519140B1F4D4
:105D80001092C9038091870280838091C50381832B
:105D90008091C403828383E090E0F8019183808343
:105DA00081E09091CA0391110DC00BC080918502D2
:105DB000909186029183808382E090E0F801918344
:105DC000808380E0DF91CF911F910F910895CF9351
:105DD0008052914009F081C0F901808180931702BF
:105DE000C0914301C82780934301CC2309F475C0B7
:105DF0009091D103911111C0C0FF0FC080FF07C067
:105E000080E00E94852680E00E94252106C080E077
:105E10000E94A52680E00E949C21C1FF11C08091B4
:105E2000170281FF07C081E00E94852681E00E9461
:105E3000252106C081E00E94A52681E00E949C21C8
:105E4000C2FF24C08091170282FF11C082E00E942D
:105E5000852682E00E9425218091D9038823B1F014
:105E600081E080938B0285E00E9485260FC082E04E
:105E70000E94A52682E00E949C218091D90388235C
:105E800029F010928B0285E00E94A526C3FF11C065
:105E90008091170283FF07C083E00E94852683E07C
:105EA0000E94252106C083E00E94A52683E00E946F
:105EB0009C21C4FF12C08091170284FF07C084E0B8
:105EC0000E94852684E0CF910C94252184E00E94D5
:105ED000A52684E0CF910C949C21CF9108958091C8
:105EE000CC0380FF09C088E08093280188E090E01F
:105EF0009093230180932201089580E291E0E8D5F8
:105F00008091CC0381FD06C080E191E0E1D580E085
:105F100091E0DED578D48091E90390914201981701
:105F200059F06091E90370E041E086EA0E94581B55
:105F30008091E9038093420108958091E7038823CB
:105F400031F08091E903853011F40C94A227089573
:105F5000CF92DF92EF92FF920F931F93CF93DF9335
:105F6000EC018B017A01D5D1811133C0E114F10428
:105F700039F0F70180819181081B190BC80FD91FD7
:105F8000C12CD12C0115110519F18091E80085FD76
:105F900016C08091E8008E778093E80034D4E11435
:105FA000F10449F0F70180819181C80ED91ED18298
:105FB000C08285E00EC0ADD1882321F30AC089914B
:105FC0008093F10001501109FFEFCF1ADF0ADACFF9
:105FD00080E0DF91CF911F910F91FF90EF90DF90C4
:105FE000CF9008952091F0033091F10326173707E1
:105FF00048F06115710539F42091E8002E7720935F
:10600000E80001C0B90140E06115710591F12091EE
:10601000E903222309F440C0253009F43FC0209150
:10602000E80023FD3DC02091E80022FD2FC0209113
:10603000E80020FFE9CF2091F20030E0FC01CF0121
:106040006115710559F02830310540F48191809334
:10605000F100615071092F5F3F4FF1CF41E02830CF
:10606000310509F040E02091E8002E772093E80008
:10607000CBCF4111CCCF0AC08091E903882361F0D6
:10608000853061F08091E80083FD0AC08091E800CE
:1060900082FFF2CF80E0089582E0089583E00895C2
:1060A00081E008956115710529F42091E8002B77AE
:1060B0002093E800FC016115710521F18091E9034D
:1060C000882341F1853041F18091E80083FD20C0B3
:1060D0008091E80082FFEFCF8091F200882331F0B9
:1060E0008091F100819361507109B1F78091E800CE
:1060F0008B778093E800DFCF8091E903882351F00C
:10610000853051F08091E80080FFF6CF80E008955F
:1061100081E0089582E0089583E008952091F003DE
:106120003091F1032617370748F06115710539F4EE
:106130002091E8002E772093E80001C0B901FC010E
:1061400020E06115710579F18091E903882309F454
:106150003DC0853009F43CC08091E80083FD3AC021
:106160008091E80082FD2CC08091E80080FFE9CF9B
:106170008091F20090E06115710559F08830910529
:1061800040F424912093F1003196615071090196F9
:10619000F2CF21E0089709F020E08091E8008E77A7
:1061A0008093E800CECF2111CFCF0AC08091E903C0
:1061B000882361F0853061F08091E80083FD0AC09A
:1061C0008091E80082FFF2CF80E0089582E0089598
:1061D00083E0089581E00895982F953058F59093C5
:1061E000E900981739F07091EC002091ED00509182
:1061F000F00003C0242F762F50E021FF19C030910A
:10620000EB003E7F3093EB003091ED003D7F30930B
:10621000ED003091EB0031603093EB007093EC00B7
:106220002093ED005093F0002091EE0027FF07C06F
:106230009F5FD3CF8F708093E90081E0089580E065
:106240000895EF92FF920F931F93CF93DF93E62E63
:10625000EC018C010C5F1F4FF12CFE1499F1988119
:10626000992359F1F801208169817A813197308130
:10627000892F8F70853010F080E025C0223010F417
:1062800042E001C046E0E8E0F0E020E0E617F70772
:1062900020F42F5FEE0FFF1FF9CF2295207F422BB6
:1062A000232F2295220F220F207C991F9927991FB7
:1062B000622F692B91DF8823F9F2F39425960B5F07
:1062C0001F4FCBCF81E0DF91CF911F910F91FF90B6
:1062D000EF9008958091EA0387FF11C08091E80054
:1062E00082FD05C08091E9038111F8CF11C0809132
:1062F000E8008B770BC08091E903882349F08091F7
:10630000E80080FFF8CF8091E8008E778093E80066
:1063100008952091E4003091E50095E64091EC006D
:10632000842F817040FF22C08091E80080FD1CC056
:106330008091E903882391F0853091F08091EB0002
:1063400085FD10C04091E4005091E50042175307CD
:1063500029F39A01915011F784E0089582E008959D
:1063600083E0089581E0089580E008954091E80079
:1063700042FFDECF089554D056D0E0EEF0E08081A9
:1063800081608083E8EDF0E080818F77808319BCA5
:10639000E3E6F0E08081816080831092E803089555
:1063A0003FD041D08091D8008F778093D8008091E2
:1063B000D80080688093D8008091D8008F7D80932A
:1063C000D80084E089BD86E089BD09B400FEFDCF18
:1063D0001092E9031092E6031092E70342E060E0B6
:1063E00080E0FADE8091E1008E7F8093E100809171
:1063F000E20081608093E2008091E20088608093F7
:10640000E2008091E0008E7F8093E0000895E3E653
:10641000F0E080818E7F808381E08093E803C0CFAD
:106420001092E20008951092E10008951F920F92D9
:106430000FB60F9211242F933F934F935F936F9357
:106440007F938F939F93AF93BF93EF93FF9380912D
:10645000E10082FF0AC08091E20082FF06C08091C5
:10646000E1008B7F8093E10038DC8091E10080FFC8
:1064700017C08091E20080FF13C08091E2008E7F00
:106480008093E2008091E20080618093E20080913D
:10649000D80080628093D80019BC1092E903EDDB2C
:1064A0008091E10084FF2FC08091E20084FF2BC027
:1064B00084E089BD86E089BD09B400FEFDCF8091EE
:1064C000D8008F7D8093D8008091E1008F7E8093EB
:1064D000E1008091E2008F7E8093E2008091E200F3
:1064E00081608093E2008091E603882311F084E0CC
:1064F00007C08091E30087FD02C081E001C083E016
:106500008093E903B8DB8091E10083FF22C0809192
:10651000E20083FF1EC08091E100877F8093E1004D
:1065200082E08093E9031092E6038091E1008E7F80
:106530008093E1008091E2008E7F8093E200809161
:10654000E20080618093E20042E060E080E044DEAF
:10655000EADBFF91EF91BF91AF919F918F917F9176
:106560006F915F914F913F912F910F900FBE0F90C0
:106570001F9018951F93CF93DF93CDB7DEB7AA97DF
:106580000FB6F894DEBF0FBECDBFEAEEF3E088E0B1
:106590008E0F9091F10091938E13FBCF90DB809141
:1065A000E80083FF18C18091EA039091EB03492F23
:1065B00050E04A30510508F00EC1FA01EC5AFF4F85
:1065C000E3C3803881F0823809F005C18091EE0381
:1065D0008F708093E9008091EB0085FB882780F91C
:1065E0001092E90007C08091E703882311F082E050
:1065F00001C080E09091E800977F9093E80080933D
:10660000F1001092F100C4C0282F2D7F09F0E3C0E3
:10661000882319F0823061F0DEC08091EC03813074
:1066200009F0D9C0933009F080E08093E7032BC0D4
:106630008091EC03811127C08091EE038F7009F4E3
:10664000CAC08093E9002091EB0020FF1CC093306A
:1066500021F48091EB00806214C09091EB00906176
:106660009093EB0021E030E0A90102C0440F551FD8
:106670008A95E2F74093EA001092EA008091EB00DD
:1066800088608093EB001092E9008091E800877F9A
:1066900082C08111A0C01091EC031F778091E300AC
:1066A0008078812B8093E3008091E800877F80933E
:1066B000E80010DE8091E80080FFFCCF8091E300CD
:1066C00080688093E300111102C082E001C083E082
:1066D0008093E90380C08058823008F07CC08091AC
:1066E000EC039091ED038C3D53E0950771F583E049
:1066F0008A838AE289834FB7F894DE01139620E0FB
:106700003EE051E2E32FF0E050935700E49120FF88
:1067100003C0E295EF703F5FEF708E2F90E0EA309C
:1067200010F0C79601C0C0968D939D932F5F2431C2
:1067300049F74FBF8091E800877F8093E8006AE2C5
:1067400070E0CE0101964EDC12C0AE014F5F5F4F8C
:106750006091EE0306DABC01892B09F43CC09091EC
:10676000E800977F9093E80089819A81D7DC809137
:10677000E8008B778093E8002EC0803861F5809127
:10678000E800877F8093E8008091E6038093F10022
:106790008091E8008E778093E8009CDD1CC0811119
:1067A0001AC09091EC039230B0F48091E800877F9A
:1067B0008093E8009093E6038DDD8091E6038111DC
:1067C00006C08091E30087FD02C081E001C084E043
:1067D0008093E90353DA8091E80083FF0AC0809137
:1067E000E800877F8093E8008091EB0080628093CF
:1067F000EB00AA960FB6F894DEBF0FBECDBFDF91B7
:10680000CF911F910895CF938091E903882399F048
:10681000C091E900CF709091EC00892F817090FDBC
:1068200080E8C82B1092E9008091E80083FDA2DE89
:10683000CF70C093E900CF9108956F927F928F92AD
:106840009F92AF92BF92CF92DF92EF92FF920F93FF
:106850001F93CF93DF9300D01F92CDB7DEB77C019B
:10686000CDB6DEB68091E80083FF08C1F7018081D4
:1068700090E02091EE033091EF032817390709F0DB
:10688000FDC08091EB03833009F49FC030F4813068
:1068900071F0823009F4D6C0F1C08A3009F4BAC070
:1068A0008B3009F4A3C0893009F0E8C051C0809151
:1068B000EA03813A09F0E2C08DB69EB61A821982C7
:1068C0008091EC031091ED038B83F7018085482FB5
:1068D00050E08DB79EB7841B950B0FB6F8949EBF02
:1068E0000FBE8DBFEDB7FEB731965F0160E070E07F
:1068F000CF0166D24FEF410F8E010F5F1F4F950101
:10690000BE016D5F7F4FC70110DAF7018681978165
:10691000009721F0408550E0B50149D21092E9007E
:106920008091E800877F8093E8008B8181118093BC
:10693000F10069817A81C50155DB8091E8008B7790
:106940008093E8000FB6F8949EBE0FBE8DBE96C031
:106950008091EA03813209F091C0ADB6BEB60091D4
:10696000F0031091F1037090EC036090ED038DB78C
:106970009EB7801B910B0FB6F8949EBF0FBE8DBFC4
:10698000EDB7FEB731964F018091E800877F809385
:10699000E800B801CF0186DB8091E8008E77809314
:1069A000E80021E0711001C020E030E0021B130B71
:1069B000280D391D4FEF460D672DC70108DA0FB6B8
:1069C000F894BEBE0FBEADBE59C08091EA03813AB5
:1069D00009F054C08091E800877F8093E80080919F
:1069E000E80080FFFCCFF701818540C08091EA0379
:1069F000813209F043C08091E800877F8093E800EE
:106A000069DC9091EC0381E0911101C080E0F70115
:106A1000818734C08091EA03813281F58091E8005A
:106A2000877F8093E80056DC8091EC039091ED0322
:106A3000882736E0969587953A95E1F7F70195878F
:106A400084871CC08091EA03813AC1F48091E800F8
:106A5000877F8093E8008091E80080FFFCCFF701FA
:106A60008485958596958795969587958093F10071
:106A70008091E8008E778093E8002CDC0FB6F894C4
:106A8000DEBE0FBECDBE0F900F900F90DF91CF9165
:106A90001F910F91FF90EF90DF90CF90BF90AF903C
:106AA0009F908F907F906F900895FC01399627E01A
:106AB000DF011D922A95E9F721E0FC01218724EFEF
:106AC00031E03587248723E0248361E00196B9CB48
:106AD0004F925F926F927F928F929F92AF92BF92EE
:106AE000CF92DF92EF92FF920F931F93CF93DF939A
:106AF00000D01F92CDB7DEB77C01ADB6BEB6809197
:106B0000E903843009F08DC08091E4009091E500A4
:106B1000F701228533852817390709F482C081815E
:106B20008F708093E9008091E80085FF7AC08DB670
:106B30009EB6408550E08DB79EB7841B950B0FB66F
:106B4000F8949EBF0FBE8DBFEDB7FEB731966F01B3
:106B50001B821A82198260E070E0CF0131D18E0170
:106B60000F5F1F4F960140E0BE016D5F7F4FC70171
:106B7000DCD8482EF70184859585892B51F091E06A
:106B800080E026853785232B09F090E0092F182F08
:106B900002C000E010E0F7016680778061147104A4
:106BA00089F049815A81B301C601F4D05524539428
:106BB000892B09F4512CF701408550E0B601C3013F
:106BC000F6D001C0512C89819A81892BF1F04110B6
:106BD00004C0511002C0012BC1F0F70184859585D6
:106BE0009787868781818F708093E9008B818111DF
:106BF0008093F10069817A8140E050E0C601A8D914
:106C00008091E8008E778093E8008091E400909175
:106C1000E500F701938782870FB6F8949EBE0FBEFA
:106C20008DBE0FB6F894BEBE0FBEADBE0F900F90D6
:106C30000F90DF91CF911F910F91FF90EF90DF9018
:106C4000CF90BF90AF909F908F907F906F905F900C
:106C50004F90089508950E949A270E94571B0E9402
:106C60008B2A0E94B8270E944E260E9490200E94E4
:106C7000C9290E9421190E94E82A0E94FB2C2FD9C1
:106C80000E949F2C0E94F91A0E940928C0CB0E94E2
:106C9000072D809183018823E1F30C94242D6BDB75
:106CA000F8942FEF87EA91E6215080409040E1F779
:106CB00000C0000080918301823011F40E949B2764
:106CC00080918301882359F09CE088E10FB6F89405
:106CD000A895809360000FBE90936000FFCF089549
:106CE000B9DFB9DFD4DFDBDF80E090E00895002476
:106CF00080FD060E660F11F08695D1F7802D089560
:106D00000024552704C0080E591F880F991F0097AB
:106D100029F076956795B8F37105B9F7802D952F11
:106D20000895991B79E004C0991F961708F0961BE7
:106D3000881F7A95C9F780950895AA1BBB1B51E15E
:106D400007C0AA1FBB1FA617B70710F0A61BB70BDB
:106D5000881F991F5A95A9F780959095BC01CD0180
:106D6000089597FB072E16F4009406D077FD08D0FF
:106D7000E4DF07FC05D03EF4909581959F4F089580
:106D8000709561957F4F0895EE0FFF1F0590F49168
:106D9000E02D0994FB01DC0104C08D910190801964
:106DA00021F441505040C8F7881B990B0895FB010E
:106DB000DC0102C001900D9241505040D8F7089577
:106DC000DC0101C06D9341505040E0F70895F999FE
:106DD000FECF92BD81BDF89A992780B50895A8E1AC
:106DE000B0E042E050E01CC0DC01CB0102C02D91BC
:106DF00005D041505040D8F70895262FF999FECF7D
:106E00001FBA92BD81BD20BD0FB6F894FA9AF99AC7
:106E10000FBE01960895F1DF272FF0CFDC01CB01E3
:106E2000FC01F999FECF06C0F2BDE1BDF89A31969A
:106E300000B40D9241505040B8F70895F894FFCF38
:106E40000283020000014401020000000000000073
:106E50000182030000014601030000000000000061
:106E60000081120000014901120000000000000032
:106E70002400250023002700280026002A002B00DC
:026E80002900E7
:00000001FF
