:100000000C94B7030C94FB030C94FB030C94FB03BC
:100010000C94FB030C94FB030C94FB030C94FB0368
:100020000C94FB030C94FB030C94271E0C94F91EF8
:100030000C9431160C94FB030C94FB030C94FB03FF
:100040000C94FB030C94FB030C94FB030C94FB0338
:100050000C94FB030C94A4160C94FB030C94FB036C
:100060000C94FB030C94B6200C94FB030C94FB0340
:100070000C94FB030C94FB030C94FB030C94FB0308
:100080000C94FB030C94FB030C94FB030C94FB03F8
:100090000C94FB030C94FB030C94FB030C94FB03E8
:1000A0000C94FB030C94FB030C94FB030E0D0E0D40
:1000B0003D0D3D0D9A0E9A0E9A0E9A0E7D0D9A0EDA
:1000C000240E240E8D0E9A0E9A0E950E310E310EC0
:1000D000310E310E310E310E310E310E310E310E28
:1000E000310E310E310E310E310E310E410E510EE8
:1000F000580E5F0E690E5E1F801F6B20801F6B20E5
:10010000C21FE51F6B203A204D2035001E001F0046
:1001100020002100220023002400250026002700C3
:100120002D002E002A0029004B002B0014001A007D
:100130000800150017001C0018000C001200130026
:100140002F00300031004C004E0039000400160032
:10015000070009000A000B000D000E000F0033001D
:1001600034000000280000000000E10000001D0035
:100170001B000600190005001100100036003700B2
:1001800038000000E50052000000E000E300E2005B
:100190000000000000002C00000000000000E6004D
:1001A000E700E400500051004F000A444542554723
:1001B0003A20656E61626C65642E0A000A00253083
:1001C000313662003A200025303258000A722F631F
:1001D00020303132333435363738394142434445A3
:1001E000460A000A002530325800626F756E63655A
:1001F000213A20000A002530325820006B657962D0
:100200006F6172645F7265706F72743A20000A00E9
:1002100025303258006B6579626F6172645F736577
:10022000745F6C65643A200064656C5F6B65795F30
:100230006269743A2063616E27742064656C3A20A9
:10024000253032580A006164645F6B65795F6269CA
:10025000743A2063616E2774206164643A2025300B
:1002600032580A003F00433E20004C25640A0074C7
:10027000696D65725F72656164333228293A2025A1
:1002800030346C580A006B6579626F6172645F6E1E
:100290006B726F3A2025580A006B6579626F617244
:1002A000645F69646C653A2025580A006B65796261
:1002B0006F6172645F70726F746F636F6C3A202548
:1002C000580A00686F73745F6B6579626F6172645E
:1002D0005F6C65647328293A2025580A000A092DA5
:1002E00020537461747573202D0A004743433A20EC
:1002F000342E382E32204156522D4C4942433A205A
:10030000312E382E30204156525F415243483A2018
:10031000617672350A004F5054494F4E533A204C83
:1003200055464120434F4E534F4C4520434F4D4D72
:10033000414E44204E4B524F20343039360A004251
:1003400055494C443A20323031362D30372D323633
:100350002D31363A35363A3433202831363A35366F
:100360003A3437204A756C20323620323031362903
:100370000A005649443A2030784645454428596F8A
:100380007529205049443A20307836303630286478
:100390006863363829205645523A2030783030305C
:1003A000310A00444553433A204120637573746F0A
:1003B0006D206B6579626F6172640A000A092D20F5
:1003C00056657273696F6E202D0A000A092D20434D
:1003D0006F6E736F6C65202D0A4553432F713A0978
:1003E000717569740A000A092D204D6167696320DF
:1003F0002D0A443A094465627567204D657373613F
:10040000676520546F67676C650A583A094D6174D7
:10041000726978204465627567204D6F6465205469
:100420006F67676C65202D2053686F77206B657947
:100430007072657373657320696E206D6174726983
:100440007820677269640A4B3A094B6579626F617B
:10045000726420446562756720546F67676C65201D
:100460002D2053686F77206B6579707265737320E8
:100470007265706F72740A4D3A094465627567203F
:100480004D6F75736520546F67676C650A563A093E
:1004900056657273696F6E0A533A095374617475C5
:1004A000730A433A09416374697661746520436F46
:1004B0006E736F6C65204D6F64650A46312D463151
:1004C000303A0953776974636820746F204C6179FE
:1004D000657220302D392028463130203D204C30A7
:1004E000290A302D393A0953776974636820746F8B
:1004F000204C6179657220302D390A4553433A0901
:1005000053776974636820746F204C617965722039
:10051000302028616C7465726E617465206B65793A
:100520002031290A47524156453A09537769746385
:100530006820746F204C6179657220302028616CCE
:100540007465726E617465206B65792032290A507A
:10055000415553453A094A756D7020746F20426FBA
:100560006F746C6F616465722028526573657429BD
:100570000A4E3A094E4B524F20546F67676C650A1A
:10058000003F004E4B524F3A206F66660A004E4BBA
:10059000524F3A206F6E0A000A6D6F7573653A20EC
:1005A0006F66660A000A6D6F7573653A206F6E0A92
:1005B000000A6B6579626F6172643A206F66660A41
:1005C000000A6B6579626F6172643A206F6E0A008F
:1005D0000A6D61747269783A206F66660A000A6D66
:1005E00061747269783A206F6E0A000A64656275F8
:1005F000673A206F66660A000A64656275673A208A
:100600006F6E0A000A0A4A756D70696E6720746F12
:1006100020626F6F746C6F616465722E2E2E2000E5
:10062000433E20004B6579626F6172642073746190
:1006300072742E0A005B575D005B535D005B525D78
:10064000005B445D005B435D000C03640068006375
:1006500000360038000000080359006F00750000E4
:10066000000403090409025B00030100A0FA090465
:1006700000000103010100092111010001224000D5
:100680000705810308000A090401000203000000B5
:100690000921110100012222000705820320000127
:1006A0000705020320000109040200010300000005
:1006B00009211101000122390007058303100001FF
:1006C0001201100100000008EDFE6060010001024F
:1006D000000105010906A101050719E029E7150038
:1006E000250195087501810205081901290595055F
:1006F000750191029501750391010507190029778C
:1007000015002501957875018102C00631FF097435
:10071000A1010975150026FF0095207508810209C1
:1007200076150026FF00952075089102C005010985
:1007300006A101050719E029E715002501950875AF
:1007400001810295017508810105081901290595A6
:10075000057501910295017503910105071900299D
:10076000FF150026FF00950675088100C0001124C2
:100770001FBECFEFDAE0DEBFCDBF04B603FE24C05C
:1007800080912F0390913003A0913103B0913203F7
:100790008730904BA740B04BB9F410922F031092C2
:1007A0003003109231031092320314BE84B7877F56
:1007B00084BF88E10FB6F8948093600010926000C7
:1007C0000FBEE0E0F8E3099511E0A0E0B1E0E4E558
:1007D000F2E402C005900D92A433B107D9F713E0FB
:1007E000A4E3B1E001C01D92AF32B107E1F70E946E
:1007F000901B0C9428210C940000FF93EF93E09140
:100800003401F0913501309709F00995EF91FF918E
:100810000895FC018591803011F0EFDFFBCF089542
:10082000FF27E0E230E247FF0CC0419597FF09C087
:10083000EDE26095709580959095611D711D811D0B
:10084000911D27FF02C0219530E350E2AA27660FD1
:10085000771F881F991FAA1FA41710F0A41B639568
:100860005A95A9F7AA3008F0A95FA05DAF93F39558
:10087000611571058105910541F7ED3211F4EF9392
:10088000F395F21718F43F93F395FBCF8F91B5DFF3
:10089000FA95E1F70895E991F9918591803021F079
:1008A000853219F0AADFF9CF089520E0E894559138
:1008B0005532C1F3503311F4689455915A3348F4CA
:1008C000505390F3220F022E220F220F200D250FDE
:1008D000F4CF0EF4219589919991533619F353373A
:1008E00029F1533559F1BC0188279927E8945C36E2
:1008F00021F48991999168945591543639F446EFD1
:100900007EF077FF0DC08FEF9FEF0AC055374AE0AA
:1009100039F0583540E121F0523642E009F00895AF
:10092000FF93EF937DDFEF91FF91B7CFFF93EF93AD
:10093000FC0181918030B9F360DFFBCFFF93EF932F
:1009400068DFF1CFDF93CF93CDB7DEB72596A3DF76
:10095000CF91DF9108950C94C3040C94C4040C94BB
:10096000C5040C94C70461110BC0FC01828188236B
:1009700021F085EE0E94A10B03C085EE0E94740C4D
:1009800080E090E008950895089581E00895089525
:1009900081E008950E94FC0E2FEF84E39CE021503B
:1009A00080409040E1F700C000000C94C9160F93FE
:1009B0001F93CF93DF938C01FC01C081D181CE01C5
:1009C0000E942914BE010E949807EC01B8010E9400
:1009D000AF04882309F40FC1B801CE010E942A0890
:1009E000882309F408C1C431F0E7DF0708F0D1C05B
:1009F000C23080E7D80708F4A3C0F80182818823B9
:100A000009F4AAC00E940F16811102C00E94F515B8
:100A10000E94221690E09093210380932003C2301D
:100A2000F0E7DF0721F480912003816082C0C330AA
:100A300080E7D80721F48091200382607AC0C43017
:100A4000E0E7DE0721F480912003846072C0C530A6
:100A5000F0E7DF0719F48091200327C0C63080E754
:100A6000D80721F480912003806163C0C730E0E79C
:100A7000DE0721F48091200380625BC0C830F0E77C
:100A8000DF0721F480912003806453C0C93080E7E0
:100A9000D80721F48091200380684BC0CA30E0E77A
:100AA000DE0729F4809120038460886042C0CB3047
:100AB000F0E7DF0721F4809120038E7F3AC0CC302D
:100AC00080E7D80721F4809120038D7F32C0CD309C
:100AD000E0E7DE0721F4809120038B7F2AC0CE302F
:100AE000F0E7DF0719F48091200322C0CF3080E7C0
:100AF000D80721F4809120038F7E1BC0C031E0E72E
:100B0000DE0721F4809120038F7D13C0C131F0E70F
:100B1000DF0721F4809120038F7B0BC0C231D047C7
:100B200021F4809120038F7704C0809120038B7F74
:100B3000877F80932003809120030E9426165BC04C
:100B4000C115E0E7DE0779F0C130D047A1F081E0C0
:100B50008093360180933701C801DF91CF911F91B7
:100B60000F910C94C804F8018281882309F443C0D2
:100B70000E94CA0440C0F80182818823E1F18AEA18
:100B800091E00E940904809100028160809300023C
:100B900032C0CB3380E7D807A1F4F80182818823E3
:100BA00021F01092360182E016C080913601811149
:100BB00006C086E20E94A10B86E20E94740C82E0CD
:100BC00018C0CC33D04719F6F8018281882331F060
:100BD0001092370180E20E94C30C0DC08091370152
:100BE000811106C087E20E94A10B87E20E94740C6B
:100BF00080E20E94CA0C80E0DF91CF911F910F919B
:100C000008950C94AB040C94AD040C94B104E72F3C
:100C1000F0E025E0829FE00DF11D1124B4E0EE0F1D
:100C2000FF1FBA95E1F7E60FF11DEE0FFF1FE65F1C
:100C3000FE4F859194910E94AD07811540E4940781
:100C4000B0F5811520E3920708F0E5C0803E9105DC
:100C5000D8F4803C910508F06BC0883A910578F48F
:100C6000853A910508F06AC08130910509F45EC1AA
:100C700008F415C18430910508F058C110C18D3BAE
:100C8000910508F466C00BC18F3F910509F048F447
:100C9000803F910508F0B4C0883E910508F446C134
:100CA000FEC0811540E2940708F0ACC0089581159C
:100CB00023E5920790F4811542E5940708F0CFC030
:100CC000811521E5920708F0C5C0811540E594071C
:100CD00008F0A4C09F70906A0895811525E59207D9
:100CE000D0F4811544E5940708F0CEC0282F26954E
:100CF000269540E2249F90011124AC0143705527B2
:100D000081E090E002C0880F991F4A95E2F7822B9C
:100D1000932B9A680895811526E5920708F4B9C0C7
:100D20009C0130562115304108F0B9C09F70B5C004
:100D3000FC01EE0FFF1FE657F0406AC0853A9105AF
:100D400009F4B0C0863A910509F4AFC083E890E495
:100D50000895883A910509F4ABC0893A910509F4E0
:100D6000AAC08A3A910509F4A9C08B3A910509F401
:100D7000A8C08C3A910509F4A7C08B3B910509F4F2
:100D8000A6C08C3B910509F4A5C08D3A910509F4E4
:100D9000A4C0803B910509F4A3C08E3A910509F4E3
:100DA000A2C08F3A910509F4A1C0813B910509F4D5
:100DB000A0C0823B910509F49FC0833B910509F4D3
:100DC0009EC0843B910509F49DC0853B910509F4C3
:100DD0009CC0863B910509F49BC0873B910509F4B3
:100DE0009AC0883B910509F499C0893B910509F4A3
:100DF00098C08A3B910509F097C08AE296E408956D
:100E0000906508959F70880F991F865F9E4FFC0123
:100E10008591949108959927906C0895482F437077
:100E200021E030E002C0220F331F4A95E2F73C6810
:100E3000AC0164E0569547956A95E1F74370342B11
:100E40008F708695869540E2849FC0011124822B85
:100E5000932B0895982F8827816F906A0895282FE3
:100E60002695269540E2249F90011124AC01437001
:100E7000552781E090E002C0880F991F4A95E2F75C
:100E8000822B932B9C680895982F8827846F906AF3
:100E900008958F719927982F88279062089580E090
:100EA00090E0089581E890E4089582E890E4089540
:100EB00082EE94E4089589EE94E408958AEE94E431
:100EC000089585EB94E4089586EB94E4089583EB0C
:100ED00094E4089584EB94E4089587EB94E40895F2
:100EE0008CEC94E408958DEC94E4089583E895E403
:100EF00008958AE895E4089582E995E4089584E9DF
:100F000095E4089581E296E4089583E296E40895D5
:100F100084E296E4089585E296E4089586E296E4F4
:100F2000089587E296E4089580E094E40895089592
:100F3000E72FF0E095E0899FE00DF11D112494E08A
:100F4000EE0FFF1F9A95E1F7E60FF11DEE0FFF1F61
:100F5000E65FFE4F8591949108958238910549F19D
:100F6000B0F48133910509F459C048F489329105F0
:100F700009F44FC08A32910509F455C008958533AC
:100F8000910509F441C08933910599F00895833E94
:100F9000910531F138F4803E910591F0823E910542
:100FA000A9F00895863E910501F1873E910539F13A
:100FB00008952091200320FD3BC021FD39C00895F4
:100FC0008091200380FF34C089E341C080912003D9
:100FD00082FF32C08091200384FF2CC080E037C0A4
:100FE0008091200382FD28C0F5CF8091200383FFEC
:100FF00025C08091200384FDF1CF87EE28C0809129
:10100000200383FD1BC0F5CF8091200385FF18C00E
:1010100019C08091200385FF15C012C08091200364
:1010200086FF12C013C08091200386FF0FC00CC042
:1010300080EE0DC083EE0BC082EE09C086EE07C0C5
:1010400085E305C089E203C081E301C08AE290E044
:1010500008950895CF93DF93EC01FB018281811104
:1010600002C081E040C080914501811125C0C4319A
:10107000D047B9F70E94290881E0809345010E947A
:1010800063169093440180934301109238011092AB
:101090003A011092390110923C0110923B011092DA
:1010A0003E0110923D011092400110923F011092BA
:1010B00042011092410116C0809143019091440178
:1010C0000E947B16883C910560F680913801E82FDC
:1010D000F0E0EE0FFF1FE75CFE4FD183C0838F5F10
:1010E0008093380180E0DF91CF910895AFE0B1E0C7
:1010F00021E030E08D91E82FF0E094E0F595E79560
:101100009A95E1F741A18F70B90102C0660F771F70
:101110008A95E2F7CB01962F9095492341A392A19E
:10112000982B92A371E0AF31B70721F7089585B7E7
:10113000806885BF85B7806885BF0E947608AFE16B
:10114000B1E021E030E08D91E82FF0E044E0F5954A
:10115000E7954A95E1F741A18F70B90102C0660F8A
:10116000771F8A95E2F7CB01962F9095492341A3EB
:1011700092A1982B92A371E0A432B70721F7E0E97E
:10118000F1E0A6E8B1E0119211921D921D9281E06A
:10119000EA39F807C1F70C940106BF92CF92DF92AB
:1011A000EF92FF920F931F93CF93DF930FE011E025
:1011B000C6E4D1E0EE24E394F12CE5E0BE2EF5EE9A
:1011C000CF2EF1E0DF2EF80181918F01E82FF0E0C2
:1011D00064E0F595E7956A95E1F721A18F70A70185
:1011E00002C0440F551F8A95E2F7CA01242B21A3A0
:1011F00092A18095982392A350EA5A95F1F7AFE116
:10120000B1E080E090E020E030E06D91E62FF0E08A
:1012100054E0F595E7955A95E1F740A150E06F70DD
:1012200002C0559547956A95E2F740FD08C0A701B1
:10123000022E02C0440F551F0A94E2F702C040E09C
:1012400050E0842B952B2F5F3F4F25303105E9F679
:10125000288139812817390741F199838883809142
:101260000001882301F18091000280FF04C08AEE12
:1012700091E00E9409048091000280FF0CC08091DF
:1012800000011F928F93DF92CF920E94A2040F90D1
:101290000F900F900F908091000280FF04C083EEAA
:1012A00091E00E940904B09200010E947608229603
:1012B00081E00F31180709F086CF80910001882363
:1012C00059F0815080930001882369F0EFE9FFE035
:1012D0003197F1F700C00000A0E9B1E020E030E074
:1012E00001E010E00DC0A6E6B1E0E6E4F1E0819196
:1012F00091918D939D9341E0E636F407C1F7ECCFD1
:10130000F22EE801022E02C0CC0FDD1F0A94E2F794
:10131000E6E6F1E040E050E060E070E0819191911C
:101320008C239D230F2C02C0969587950A94E2F793
:10133000042E02C0880F991F0A94E2F7682B792BBC
:101340004F5F5F4F4031510549F76D937D932F5F9C
:101350003F4F25303105A1F60E94030681E0DF9161
:10136000CF911F910F91FF90EF90DF90CF90BF90A2
:101370000895E82FF0E0EE0FFF1FE057FE4F808149
:1013800091810895CF92DF92EF92FF920F931F9376
:10139000CF93DF938CEC91E00E940904C0E9EC2E1E
:1013A000C1E0FC2EC0E0D0E017ECC12E11E0D12E40
:1013B0000EEB11E0DF93CF93DF92CF920E94A20455
:1013C00084EC91E00E940904F701819191917F01E1
:1013D0000E94DB159F938F931F930F930E94A2048B
:1013E0008CEB91E00E94090421968DB79EB7089678
:1013F0000FB6F8949EBF0FBE8DBFC530D105D1F694
:10140000DF91CF911F910F91FF90EF90DF90CF90E0
:10141000089590939F0180939E010895E0919E010D
:10142000F0919F01309721F00190F081E02D099417
:1014300080E00895FF920F931F93CF93DF938C0169
:10144000E0919E01F0919F01309799F10280F38124
:10145000E02D09958091000282FF2BC080FF04C01F
:101460008CEF91E00E940904E80180E1F82E06EF7C
:1014700011E08091000280FF0BC088811F928F9342
:101480001F930F930E94A2040F900F900F900F9044
:10149000FA942196F110EDCF8091000280FF09C0EF
:1014A00084EF91E0DF91CF911F910F91FF900C9409
:1014B0000904DF91CF911F910F91FF900895209122
:1014C0009C0130919D018217930771F090939D01CB
:1014D00080939C01E0919E01F0919F01309721F053
:1014E0000680F781E02D0994089520919A013091AA
:1014F0009B018217930771F090939B0180939A014F
:10150000E0919E01F0919F01309721F00084F185D8
:10151000E02D0994089508950C948B0A0E945A16A0
:101520000E9497080C94EC16CF93C82F809100026C
:1015300082FF1EC080FF04C085E192E00E94090482
:101540008091000280FF0CC01F92CF9320E132E017
:101550003F932F930E94A2040F900F900F900F9033
:101560008091000280FF04C08EE092E00E94090496
:101570008C2FCF910C9405065F926F927F928F9281
:101580009F92AF92BF92CF92DF92EF92FF920F9312
:101590001F93CF93DF93CDB7DEB72A970FB6F8949A
:1015A000DEBF0FBECDBF0E94CD0891EAC92E91E0EB
:1015B000D92E00E010E0AA24A394B12C502E802F45
:1015C0000E94B9093C01F601E190F1906F01E82613
:1015D000F926E114F104B1F40F5F1F4F0530110536
:1015E00069F78FEF89838A831B820E94631681606B
:1015F000782F9D838C8349815A816B818D810E94D4
:10160000730B3AC08091000281FD0E94C20920E064
:1016100030E04501022E02C0880C991C0A94E2F7C2
:10162000C4018E219F21892B09F12E835F826820BE
:10163000792081E0672809F480E088870E9463169A
:101640008160782F9A8789874E815F8168858A8536
:101650000E94730BF801EE0FFF1FEF55FE4F8081C4
:101660009181882599259183808306C02F5F3F4F04
:101670002031310571F6B0CF1091A0010E940E0A01
:101680001817D9F00E940E0A8093A0012A960FB66F
:10169000F894DEBF0FBECDBFDF91CF911F910F91A8
:1016A000FF90EF90DF90CF90BF90AF909F908F9082
:1016B0007F906F905F900C94940A2A960FB6F894DE
:1016C000DEBF0FBECDBFDF91CF911F910F91FF9075
:1016D000EF90DF90CF90BF90AF909F908F907F90D2
:1016E0006F905F900895CF93DF93CDB7DEB72B97C0
:1016F0000FB6F894DEBF0FBECDBF4F835887698702
:101700007A878B87DE01119686E0FD0111928A951A
:10171000E9F785E0FE01379601900D928A95E1F791
:1017200049815A816B817C818D819E810E94CC117F
:101730002B960FB6F894DEBF0FBECDBFDF91CF91D1
:101740000895CF93C82F882309F4CCC0823859F468
:101750000E940E0A81FDC6C089E30E94A9140E945E
:10176000951589E30CC0833879F40E940E0A80FD38
:10177000B9C083E50E94A9140E94951583E50E94D3
:10178000FA14CF910C949515843859F40E940E0ADE
:1017900082FDA8C087E40E94A9140E94951587E4E1
:1017A000EECF8CEF8C0F813A48F48C2F0E946C188E
:1017B000811198C08C2F0E94A914E3CF80E28C0F76
:1017C000883048F4C77081E001C0880FCA95EAF7F5
:1017D0000E944C15D6CF8BE58C0F833078F4C53A38
:1017E00029F0C63A31F482E890E005C081E890E043
:1017F00002C083E890E0CF910C945F0A88E58C0FDB
:10180000853108F06FC0C83A61F1C93A69F1CA3A46
:1018100071F1CB3A79F1CC3A81F1CB3B89F1CC3BF8
:1018200091F1CD3A99F1C03BA1F1CE3AA9F1CF3A6D
:10183000B1F1C13BB9F1C23BC1F1C33BC9F1C43BFA
:10184000D1F1C53BD9F1C63BE1F1C73BE9F1C83B5A
:10185000F1F1C93BF9F1CA3B09F03FC08AE292E0DD
:101860003EC082EE90E03BC089EE90E038C08AEE48
:1018700090E035C085EB90E032C086EB90E02FC061
:1018800083EB90E02CC084EB90E029C087EB90E0E4
:1018900026C08CEC90E023C08DEC90E020C083E863
:1018A00091E01DC08AE891E01AC082E991E017C07A
:1018B00084E991E014C081E292E011C083E292E0F9
:1018C0000EC084E292E00BC085E292E008C086E29E
:1018D00092E005C087E292E002C080E090E0CF9104
:1018E0000C94750ACF910895882309F44BC082386F
:1018F00059F40E940E0A81FF45C089E30E94A91491
:101900000E94951589E30CC0833871F40E940E0A79
:1019100080FF38C083E50E94A9140E94951583E5D5
:101920000E94FA140C949515843859F40E940E0AFA
:1019300082FF28C087E40E94A9140E94951587E4BD
:10194000EFCF9CEF980F913A58F390E2980F9830B0
:1019500050F4877091E001C0990F8A95EAF7892FBA
:101960000E945215DFCF9BE5980F933020F480E062
:1019700090E00C945F0A885A853120F480E090E072
:101980000C94750A0895882321F00E944C150C943C
:1019900095150895882321F00E9452150C949515F1
:1019A00008958F929F92AF92BF92CF92DF92EF9263
:1019B000FF920F931F93CF93DF931F92CDB7DEB7A4
:1019C0004C01A62E472FFC01F580F2948FE0F822FF
:1019D000E280EE2021F079830E94691549814983D4
:1019E0000E94A2144981882381F0EE2071F080E2E8
:1019F0008A0D883050F082E00E948B140E94A2145D
:101A0000BB24B394B826498101C0B12CE42FE295E0
:101A1000EF70F0E0EA5AFF4F0C94EC20842F807FA7
:101A2000142F1F70882311F01295107FEE2089F07B
:101A3000112309F468C180E28A0D883020F4812FD7
:101A40000E944C1503C0812F0E945C150E949515C1
:101A50005AC18A2D0E94740C112309F46BC180E2D3
:101A60008A0D883020F4812F0E94521503C0812FE7
:101A70000E9462150E9495155DC1942F907F842F5E
:101A80008F70903211F08295807FAA2021F0F1E0D2
:101A9000AF16B1F021C0EE2041F0FF2039F191E006
:101AA000F91224C00E947C1545C1FF2021F0E1E01D
:101AB000FE1609F43FC189830E947F158981DEC02B
:101AC000EE2029F0F5E0FF1508F434C10FC094E0D2
:101AD0009F1508F42FC1D2C0EE2059F0FF2031F03D
:101AE000F401958190FF0FC19F7095830E94C30CF4
:101AF00021C1FF2009F4C2C00CC1842F837009F0FA
:101B00004EC0E11017C12A2D229526952770220F6D
:101B1000220F8A2D8F70C82ED12CE12CF12C022E91
:101B200004C0CC0CDD1CEE1CFF1C0A94D2F7A4FEF2
:101B300010C06FE070E080E090E004C0660F771F97
:101B4000881F991F2A95D2F760957095809590957A
:101B500003C060E070E0CB01242F2695269523700A
:101B600030E02230310569F02330310589F06C29ED
:101B70007D298E299F292130310571F00E94201383
:101B8000D9C06C297D298E299F290E943A13D2C081
:101B90000E942013C701B6010E940613CBC0EE209D
:101BA00019F0842F817001C08695882309F4C2C082
:101BB0002A2D229526952770220F220F8A2D8F70AD
:101BC000C82ED12CE12CF12C022E04C0CC0CDD1C33
:101BD000EE1CFF1C0A94D2F7A4FE10C06FE070E068
:101BE00080E090E004C0660F771F881F991F2A9538
:101BF000D2F7609570958095909503C060E070E095
:101C0000CB01242F26952695237030E02230310514
:101C100069F02330310589F06C297D298E299F29AF
:101C20002130310571F00E94F41384C06C297D29A4
:101C30008E299F290E940E147DC00E94F413C701B3
:101C4000B6010E94DA1376C00A2D10E0F801E05EBA
:101C5000F109E531F10508F052C0EA59FF4F0C9443
:101C6000EC201A2D1F70842F8F71EE2021F00E941E
:101C70007313812F3BCF0E949413812F0E94CA0CB3
:101C800059C0EE2049F0F4E0FF1508F453C0842F4A
:101C90008F710E94B9134EC085E08F1508F44AC0B9
:101CA000F6CFEE2039F0842F8F710E94731342C05B
:101CB000EE20C9F3842F8F710E9494133BC0EE2055
:101CC00029F0842F8F710E945E1334C00E94541338
:101CD00031C0EE2051F0142F1F71812F0E94731319
:101CE00063E0812F0E94821425C081E00E948B1442
:101CF00091E09F15F8F482E00E948B141BC0EE2047
:101D000031F0FF2081F28A2D0E94A10B13C0FF2029
:101D100089F28A2D0E94740C0DC04F706A2DC40187
:101D20000E94B3040E94791205C04F706A2DC4014D
:101D30000E949707BB20F1F00E947E1480FD1AC01C
:101D4000F40112820E9478140E947313C4010E944D
:101D5000C80E0E9478140F90DF91CF911F910F91C0
:101D6000FF90EF90DF90CF90BF90AF909F908F90BB
:101D70000C9494130F90DF91CF911F910F91FF90CE
:101D8000EF90DF90CF90BF90AF909F908F9008958D
:101D90000F931F93CF93DF93EC01288139818B81BF
:101DA0009C81892B31F03F3F11F080E003C02F3F31
:101DB000E1F781E0811113C0CE010E94D70488238E
:101DC00071F0688179818A810E9474148C010E946B
:101DD00028140E94FB12B801CE010E94D10CDF91A1
:101DE000CF911F910F9108950E9469150E94791556
:101DF0000E943E150C9495150E9459150C94F40EF2
:101E00000E946914292F22952F7030E02C30310563
:101E10004CF42A3031056CF422503109223031055E
:101E2000B0F407C02C30310571F02F30310559F076
:101E30000EC0803F31F018F4803E48F402C0843F69
:101E400031F481E0089593FB882780F9089580E0BC
:101E50000895CF93DF9300D000D01F92CDB7DEB7A7
:101E60000F900F900F900F900F90DF91CF910895EA
:101E7000CF93DF9300D000D000D0CDB7DEB7269649
:101E80000FB6F894DEBF0FBECDBFDF91CF9108959E
:101E90001F93CF93DF93C091AB0116E08091AC010B
:101EA000C81799F0D0E01C9FF0011D9FF00D112480
:101EB000E355FE4F40815181628173818481958118
:101EC0000E94380F2196C770E9CFDF91CF911F9103
:101ED00008954091DD015091DE016091DF01709124
:101EE000E0018091E1019091E2010C94380FCF93D1
:101EF0008091E20182958F7009F05FC08091DF01CF
:101F0000882309F45AC02091AB01A091AC016091E3
:101F1000DD017091DE018091E0019091E10131E0FD
:101F20006F3F09F030E0B32FC6E02A1709F445C02F
:101F3000009721F07F3F21F44B2F03C041E001C007
:101F400040E030E040FD35C0C29FF001C39FF00D7E
:101F50001124E355FE4F418174132BC0408164135B
:101F600028C04281411125C0438154814817590737
:101F700010F441505109481B590B483C5105C8F415
:101F80008091E2018F7080618093E20186E0829F00
:101F9000F001839FF00D1124EE54FE4F80818F706D
:101FA000806180838DED91E00E94C80ECF910C94EA
:101FB000480F2F5F3F4F2770B8CFCF910895CF9232
:101FC000DF92EF92FF920F931F93CF93DF93CDB7E2
:101FD000DEB762970FB6F894DEBF0FBECDBF8C019F
:101FE00085E0F801DE011D9601900D928A95E1F7DA
:101FF000D8014C9111965C91119712966C911297A1
:102000001396ED90FC9014977091DD01E091DE0144
:102010002091E0013091E1012115310531F0EF3FD0
:1020200031F481E07F3F19F403C081E001C080E01A
:10203000B82FB170CB2E80FD6CC1D090DF01DD20B8
:1020400009F4F5C0F091E201E216F30638F0C70199
:10205000821B930B883C910548F09BC020953095DE
:102060002E0D3F1D283C310508F093C08F2F807F37
:1020700009F052C0E51314C0741312C0D62E6111BA
:102080000FC0FF70F061F093E2010E94690F8DEDC7
:1020900091E00E94C80E8091E201F80185836CC135
:1020A000EF2831F05F3F31F481E04F3F19F403C076
:1020B00081E001C080E080FD03C081E0862701C08F
:1020C00080E0F82FF170FF2E80FF1CC08091AB01E3
:1020D0002091AC0136E0821709F428C190E0389FC6
:1020E000F001399FF00D1124E355FE4F7181571314
:1020F00006C07081471303C07281671303C0019645
:102100008770E9CFD62E662309F436C18091E201AB
:1021100081608093E20153C0E51308C0741306C0C8
:10212000611104C0D8011596FC93AEC04D875E873F
:102130008D859E856A8B0E94000F6A89882329F10C
:10214000D62E662311F12091E201822F82958F70A5
:1021500090E002970CF460C08091DD019091DE0167
:1021600098878F831986FB86EA862C87CE0107968F
:1021700051C0E51731F14D875E878D859E856A8B4D
:102180000E94000F6A8981112EC0C8010E94C80EEA
:10219000A4C08F2F807F69F77E2DF98AE88A89890C
:1021A0000E94290F8DED91E00E94C80EEDEDF1E047
:1021B00086E0DF011D928A95E9F70E94690FD12C14
:1021C000DBC07413D8CF6111D6CFD8011596FC931C
:1021D000C8010E94C80EEDEDF1E086E0DF011D921E
:1021E0008A95E9F7C9C0D62E662379F22091E201DB
:1021F000822F82958F7090E0029774F08091DD01BC
:102200009091DE019A8389831B82FD82EC822E836A
:10221000CE0101960E94C80E86E0F801ADEDB1E056
:1022200001900D928A95E1F70E94770F6FC0E21638
:10223000F30628F0C701821B930B9C0104C0209574
:1022400030952E0D3F1D283C310508F052C0D62E8A
:10225000662309F49ACFE5132CC074132AC0809129
:10226000E20180FD1DC0982F92959F70C9F0D801A2
:1022700015968C9315979F3039F09F5F9295907FBC
:102280008F70892B15968C93C8010E94C80E86E02A
:10229000F801ADEDB1E001900D928A95E1F736C0FD
:1022A00086E0F801ADEDB1E001900D928A95E1F77D
:1022B00063C04D875E878D859E850E94000F8823B1
:1022C00079F086E0F801ADEDB1E001900D928A95CC
:1022D000E1F70E94770F0E94690FDD24D3944CC070
:1022E0008091E20181608093E201C8010E94C80EE2
:1022F00043C07E2DF98AE88A89890E94290FEDED75
:10230000F1E086E0DF011D928A95E9F70E94690FEE
:1023100033C0662309F439CF4D875E878D859E854E
:102320000E94000F882309F430CFCBCF4D875E8702
:102330008D859E850E946914292F22952F7030E08B
:10234000223031052CF49F7041F0811106C00CC081
:10235000243031052CF49F7049F4805E883020F0E1
:10236000C8010E94C80ECF2CDC2C06C0D8011596DF
:102370009C91907F91F7F8CF8D2D62960FB6F894CF
:10238000DEBF0FBECDBFDF91CF911F910F91FF90A8
:10239000EF90DF90CF9008951F93CF93DF93CDB749
:1023A000DEB72C970FB6F894DEBF0FBECDBF4F83BC
:1023B000588769877A878B879C87CE0107960E940A
:1023C000DF0F8823C1F02F8138858A859B85892B73
:1023D00031F03F3F11F080E003C02F3FE1F781E093
:1023E000811147C04F81588569857A858B859C8589
:1023F0000E94380F3EC086E0FE013796DE0111963E
:1024000001900D928A95E1F7FF81E8854A855B8509
:102410004115510531F0EF3F31F481E0FF3F19F4F0
:1024200003C081E001C080E080FD23C02091AC01A9
:1024300030E0C9010196877099276091AB0170E087
:1024400086179707F1F1F983EA835D834C8396E061
:10245000929FD001939FB00D1124A355BE4FFE0152
:10246000319601900D929A95E1F78093AC010E940C
:10247000480F16E08091AB019091AC01891779F17A
:10248000189FC001112483559E4F0E94DF0F88239F
:1024900031F1E091AB011E9FF0011124E355FE4F95
:1024A0004081518162817381848195810E94380FBE
:1024B0008091AB0190E00196877099278093AB01E2
:1024C000D9CF0E94FC0E1092AC011092AB01EDED41
:1024D000F1E086E0DF011D928A95E9F7CACF2C96DC
:1024E0000FB6F894DEBF0FBECDBFDF91CF911F9125
:1024F0000895EF92FF920F931F93CF93DF939C0168
:10250000009709F471C0F12CEE24E394E9012196BF
:10251000F9018491843740F4843008F056C081304A
:1025200081F0823021F160C0853709F449C0C0F1E3
:102530009CE7980F903708F057C08F770E94740C73
:1025400046C089010E5F1F4FFE01849190E2980FF3
:10255000983050F48770FE2D01C0FF0F8A95EAF77E
:102560008F2F0E946C1515C00E94A10B14C0890109
:102570000E5F1F4FFE01849190E2980F983068F42F
:102580008770FE2D01C0FF0F8A95EAF78F2F0E94FA
:1025900072150E949515E8011AC00E94740CFBCFB9
:1025A0002E5F3F4FFE01C491CC2341F08FE99FE0A5
:1025B0000197F1F700C00000C150F6CFE90107C054
:1025C000FE01F490E901229602C00E94A10B8F2D1A
:1025D000882341F0EFE9FFE03197F1F700C00000F8
:1025E0008150F6CF9E0192CFDF91CF911F910F9135
:1025F000FF90EF90089508956093E7017093E801CC
:102600008093E9019093EA010C94F40E0F931F93C9
:102610000091E7011091E8012091E9013091EA0170
:10262000062B172B282B392B0093E7011093E80179
:102630002093E9013093EA011F910F910C94F40E5D
:102640000F931F930091E7011091E8012091E90198
:102650003091EA0106231723282339230093E70149
:102660001093E8012093E9013093EA011F910F9143
:102670000C94F40E0F931F930091E7011091E80161
:102680002091E9013091EA010627172728273927E9
:102690000093E7011093E8012093E9013093EA01E8
:1026A0001F910F910C94F40E1092E3011092E4012B
:1026B0001092E5011092E6010C94F40E41E050E016
:1026C00060E070E004C0440F551F661F771F8A95B5
:1026D000D2F74093E3015093E4016093E5017093D6
:1026E000E6010C94F40E41E050E060E070E004C0BC
:1026F000440F551F661F771F8A95D2F78091E3011B
:102700009091E401A091E501B091E601842B952B15
:10271000A62BB72B8093E3019093E401A093E501EE
:10272000B093E6010C94F40E41E050E060E070E0FC
:1027300004C0440F551F661F771F8A95D2F7409536
:102740005095609570958091E3019091E401A0917E
:10275000E501B091E60184239523A623B723809356
:10276000E3019093E401A093E501B093E6010C949A
:10277000F40E41E050E060E070E004C0440F551FEB
:10278000661F771F8A95D2F78091E3019091E4014B
:10279000A091E501B091E60184279527A627B727E8
:1027A0008093E3019093E401A093E501B093E601E7
:1027B0000C94F40E0F931F930091E3011091E40128
:1027C0002091E5013091E601062B172B282B392BA0
:1027D0000093E3011093E4012093E5013093E601B7
:1027E0001F910F910C94F40E0F931F930091E3012E
:1027F0001091E4012091E5013091E60106231723B1
:10280000282339230093E3011093E4012093E50189
:102810003093E6011F910F910C94F40E0F931F93C8
:102820000091E3011091E4012091E5013091E6016E
:1028300006271727282739270093E3011093E4017F
:102840002093E5013093E6011F910F910C94F40E53
:102850000895CF92DF92EF92FF920F931F93CF9341
:10286000DF93EC01C090E701D090E801E090E9012E
:10287000F090EA018091E3019091E401A091E501DB
:10288000B091E601C82AD92AEA2AFB2A0FE110E012
:10289000B701A601002E04C0769567955795479518
:1028A0000A94D2F740FD05C00150110988F780E075
:1028B00007C0BE01802F0E9407060197A9F3802F51
:1028C000DF91CF911F910F91FF90EF90DF90CF900C
:1028D0000895CF93DF93EC010E942914BE010E945A
:1028E0000706DF91CF910895CB010E9469140895E6
:1028F0008091EB0185958595859508958091EB01F3
:102900008770089598E0899F90011124622B60934D
:10291000EB010C9473134091EB0180958423809319
:10292000EB01982F977069F450E0282F332727FD8B
:1029300030954217530729F08595859585950C9418
:10294000941308959091EB01977081E009F480E071
:10295000089590910E01992361F1909101019923BD
:1029600041F1982F9695969596959F3088F4E09131
:102970000201F0910301E90FF11D877021E030E0C1
:1029800001C0220F8A95EAF78181822B8183089505
:102990009091000290FF2DC01F928F9386E492E0E9
:1029A0009F938F930E94A2040F900F900F900F900F
:1029B0000895409102015091030120E030E09FEF23
:1029C000FA01E20FF31F6281681799F09F3F19F433
:1029D000611101C0922F2F5F3F4F2E30310581F7DB
:1029E0009F3F39F0FA01E90FF11D97FDFA958283B7
:1029F0000895089590910E01992369F19091010134
:102A0000992349F1982F9695969596959F3090F435
:102A1000E0910201F0910301E90FF11D877021E0BF
:102A200030E001C0220F8A95EAF7209581812823A2
:102A3000218308959091000290FF1FC01F928F93F1
:102A400088E292E09F938F930E94A2040F900F90D0
:102A50000F900F900895409102015091030120E0E2
:102A600030E0FA01E20FF31F9281981301C0128245
:102A70002F5F3F4F2E303105A1F7089581E090E0A0
:102A8000E0910201F0910301E80FF91F1082019615
:102A900080319105A9F708959091FF01982B9093AB
:102AA000FF01089580959091FF0198239093FF0175
:102AB00008951092FF0108959091FE01982B909334
:102AC000FE01089580959091FE0198239093FE0158
:102AD00008951092FE0108959091FD01982B909316
:102AE000FD01089580959091FD0198239093FD013B
:102AF00008951092FD0108958093EC0108951092BD
:102B0000EC010895409102015091030120E030E072
:102B100080E0FA01E20FF31F918191118F5F2F5F27
:102B20003F4F2F303105A9F70895E0910201F09150
:102B300003018091FF018083E0910201F091030184
:102B400080819091FE01892B8083E0910201F091B8
:102B5000030180819091FD01892B80839091EC018C
:102B6000992361F0E0910201F09103018081892BAA
:102B700080830E94821581111092EC0180910201E4
:102B8000909103010C941A0A9093350180933401BB
:102B900008958295982F9C7C96959695837344E032
:102BA000849F90011124922B892F8A7A869595759E
:102BB000990F892B08951F93CF93DF931F92CDB761
:102BC000DEB799830E94C915182F9981892F0E9419
:102BD000C915212F30E0322F2227A901482BCA0125
:102BE0000F90DF91CF911F9108956DEE7EEF80E001
:102BF00090E00E94122160E082E090E00E940021BB
:102C000060E083E090E00E94002160E084E090E0DA
:102C10000E94002160E085E090E00C94002180E0BB
:102C200090E00E94FA2021E08D3E9E4F09F020E0C6
:102C3000822F089582E090E00C94F22083E090E0EF
:102C40000C94F22084E090E00C94F220682F84E051
:102C500090E00C9400210E94FC0E0E940E0A0C943D
:102C600005061F920F920FB60F9211248F939F9318
:102C7000AF93BF9380910102811113C08091020232
:102C800090910302A0910402B09105024196A11D0A
:102C9000B11D8093020290930302A0930402B093AB
:102CA0000502BF91AF919F918F910F900FBE0F9032
:102CB0001F90189582E084BD93E095BD9AEF97BD73
:102CC00080936E0008952FB7F8948091020290913E
:102CD0000302A0910402B09105022FBF08952FB7FF
:102CE000F894609102027091030280910402909125
:102CF00005022FBF0895CF92DF92EF92FF920F93BC
:102D00001F932FB7F89440910202509103026091F3
:102D10000402709105022FBF6A017B01EE24FF249B
:102D20008C0120E030E0C016D106E206F30610F474
:102D300041505109481B590BCA011F910F91FF9037
:102D4000EF90DF90CF9008951F920F920FB60F92E1
:102D500011248F939F93AF93BF9380910202909120
:102D60000302A0910402B09105020196A11DB11DBC
:102D70008093020290930302A0930402B093050291
:102D8000BF91AF919F918F910F900FBE0F901F90A9
:102D900018950E94AC1DF8942FEF87EA91E6215018
:102DA00080409040E1F700C0000087E090EBDC013C
:102DB00080932F0390933003A0933103B093320399
:102DC0002CE088E190E00FB6F894A895809360001D
:102DD0000FBE20936000FFCF0E940F16811102C02A
:102DE0000E94F5150E941A16809300020E94221676
:102DF00090E0909321038093200387FB882780F93C
:102E0000809301010E941E16682F70E080E090E020
:102E10000C94FC12CF93C82F1F928F932AE632E0B6
:102E20003F932F930E94A20461E070E080E090E065
:102E300004C0660F771F881F991FCA95D2F70E949A
:102E4000FC120F900F900F900F90CF910C94FC0EEE
:102E5000CF938732A8F58E3108F02CC1803109F468
:102E6000A3C0F8F4873009F465C0A8F4863009F0EF
:102E700027C180910002817F8E7F809300028BECBE
:102E800093E00E94090480E296E00E94090481E038
:102E9000809306024DC08B30F1F18E3009F471C081
:102EA0000FC1863109F4B3C020F4813109F4F0C0B8
:102EB00007C1893109F494C08B3109F44FC000C1B6
:102EC000883349F150F4893209F4F6C0853309F4A6
:102ED000F3C0873209F4F0C0F3C0833409F4ECC0C6
:102EE00028F48A3308F4ECC08953E7C0883409F029
:102EF000E7C00E94FC0E84E096E00E9409042FEFD8
:102F000083ED90E3215080409040E1F700C0000045
:102F10000E94C9160DC086EE93E05FC08BEE95E06F
:102F20000E94090480910002897F877F80930002BC
:102F3000C1E0CBC080910002C82FC095C170C0FB1A
:102F400080F980930002CC2349F388EF95E00E943A
:102F5000090480910002866088603AC08091000276
:102F600081FBCC27C0F991E0C927C0FB81F9809390
:102F70000002CC2319F08EED95E025C080ED95E0A0
:102F80002CC08091000282FBCC27C0F991E0C927B8
:102F9000C0FB82F980930002CC2319F081EC95E00C
:102FA00012C081EB95E019C08091000283FBCC2711
:102FB000C0F991E0C927C0FB83F980930002CC23BC
:102FC00051F085EA95E00E94090480910002816039
:102FD000809300027AC088E995E00E940904A8CF96
:102FE0008CEB93E00E94090483EA93E00E940904B9
:102FF00082E793E00E9409048FE393E00E940904B2
:1030000086E193E00E9409048BEE92E0E6CF8DED1D
:1030100092E00E9409040E940E0A1F928F9383EC93
:1030200092E09F938F930E94A20480910E011F92C1
:103030008F938CEA92E09F938F930E94A2048091D9
:103040001D021F928F9389E992E09F938F930E94B4
:10305000A204809101011F928F9386E892E09F93D2
:103060008F930E94A2040E946F169F938F937F9369
:103070006F938FE692E09F938F930E94A2048DB787
:103080009EB746960FB6F8949EBF0FBE8DBF50CF29
:103090000E94FC0EC091010181E0C827C09301018C
:1030A000CC2329F08EE895E00E9409040EC083E845
:1030B00095E093CF8D5101C080E00E940A1738CF70
:1030C00081E895E00E940904C0E08C2FCF9108951B
:1030D00080E0089580E00895CF93C82F8091060284
:1030E000882319F0813049F03BC0E0910201F09152
:1030F000030180818232B1F507C0E0910201F091B5
:1031000003018081823249F48C2F0E94681881115A
:1031100024C08C2F0E94281721C08C2F0E946A186F
:1031200081111BC0C43189F018F4CB3029F010C0D4
:10313000C93259F0C83361F48BEC93E00E94090462
:1031400086E692E00E94090408C0109206020CC0B4
:1031500084E692E00E94090407C081E0817006C005
:103160001092060280E002C080E0F8CFCF9108956F
:1031700080911C02089508959FB7F89410920B0255
:103180009FBF90912603943009F058C09091E900B8
:103190009F702091EC0020FF02C020E801C020E0D9
:1031A000292B92E09093E9009091EB0090FF43C0AF
:1031B0009091EE0097FF3FC090910702992321F074
:1031C0009091E80095FF37C01092070296E0309189
:1031D000E80035FD15C030912603343061F530919B
:1031E000EB0035FD28C0915021F481E08093070267
:1031F00022C0EFE9FFE03197F1F700C00000E7CF10
:103200008093F1008091E80085FD0AC08091E8007C
:1032100080FFFCCF8091E8008E778093E80006C0A5
:103220008FB7F89491E090930B028FBF2F7020938B
:10323000E90080E008952F702093E9008FEF089552
:103240000F931F93CF93DF9300D000D01F92CDB781
:10325000DEB78C018091090290910A0208171907C4
:1032600009F493C010930A0200930902023E11056B
:10327000F1F1093E110559F10A3E110559F1053BDD
:10328000110559F1063B110551F1073B110551F1AB
:103290000C3C110561F10D3C110531F1033881E061
:1032A000180729F10A3891E0190709F1023981E07C
:1032B0001807E9F0043991E01907C9F0013282E0FA
:1032C0001807B9F0033292E0190789F415C090E0AD
:1032D00020E114C090E020E211C092E001C094E02F
:1032E00020E00CC090E1FCCF90E020E407C090E02B
:1032F000F7CF90E024E002C090E021E08DEF2C8336
:103300009D830E94A02080E00E94A02082E00E9475
:10331000A0202C81822F0E94A0209D81892F0E94B5
:10332000A02080E00E94A02080E00E94A02080E0F9
:103330000E94A02080E00E94A0208091260384307B
:1033400021F583E089831B830A8381E08093E90070
:103350008FEF9091E800815095FD06C095ED9A950C
:10336000F1F700008111F5CF8091E80085FF0DC0D5
:1033700040E050E063E070E0CE0101960E941A1C2C
:103380008091E8008E778093E8000F900F900F9067
:103390000F900F90DF91CF911F910F910895CF93D0
:1033A000DF9300D01F92CDB7DEB7209126032430E3
:1033B00021F522E029839B838A8381E08093E900C1
:1033C0008FEF9091E800815095FD06C095ED9A959C
:1033D000F1F700008111F5CF8091E80085FF0DC065
:1033E00040E050E063E070E0CE0101960E941A1CBC
:1033F0008091E8008E778093E8000F900F900F90F7
:10340000DF91CF910895FF920F931F93CF93DF9396
:103410008C018DEF0E94A020C02FD12FF12C89911B
:103420000E94A020F39488E0F812F9CF809126033F
:10343000843009F047C080910E018823E1F080912B
:1034400001018823C1F083E08093E9008FEF909120
:10345000E800815095FD06C095E19A95F1F70000CE
:103460008111F5CF8091E80085FF2CC040E050E04D
:1034700060E170E017C081E08093E9008FEF9091E8
:10348000E800815095FD06C095ED9A95F1F7000092
:103490008111F5CF8091E80085FF14C040E050E035
:1034A00068E070E0C8010E941A1C8091E8008E77E5
:1034B0008093E80080E1F801ACE0B2E001900D9269
:1034C0008A95E1F7DF91CF911F910F91FF900895B9
:1034D00085E496E00E94090480912503811109C0CA
:1034E0000E94AC1D0E94091E8091E20084608093BE
:1034F000E200089581E496E00E94090410922503F9
:1035000008958DE396E00C94090489E396E00C9409
:10351000090485E396E00E9409040C942B1680911F
:1035200008028F5F8093080262E30E94E0209111FD
:1035300035C01092080280910B02882379F18091A6
:103540002603843049F58091E9008F709091EC005A
:1035500090FF02C090E801C090E0982B82E0809339
:10356000E9008091EB0080FF14C08091EE0087FF9E
:1035700010C08091E80085FF03C01092F100F9CFE0
:103580008091E80080FF05C08091E8008E778093ED
:10359000E8009F709093E90010920B02089542E0BA
:1035A00061EC81E00E94261D42E261EC82E00E9413
:1035B000261D42E161EC83E00C94261D80912803D6
:1035C000833009F455C030F4813071F0823009F451
:1035D0008EC008958A3009F47AC08B3009F460C037
:1035E000893009F09CC020C080912703813A09F0FE
:1035F00096C08091E800877F8093E80080912B033C
:1036000090912C03892B21F060E080E090E003C0D2
:1036100060E18CE092E070E00E94631C8091E80021
:103620008B778093E800089580912703813209F019
:1036300076C080912B0390912C03009719F002978C
:1036400009F06DC08091E800877F8093E800809149
:10365000E80082FD05C0809126038111F8CF5FC08C
:103660008091F10080931C028091E8008B7753C019
:1036700080912703813A09F052C080912B039091E9
:103680002C03892B09F04BC08091E800877F809341
:10369000E8008091E80080FFFCCF80910E0136C0E9
:1036A000809127038132D9F580912B0390912C03CF
:1036B000892BA9F58091E800877F8093E8000E941C
:1036C0005B1D8091290380930E010C94FC0E809168
:1036D0002703813221F58091E800877F8093E800FD
:1036E0000E945B1D80912A0380931D0208958091A2
:1036F0002703813AA1F48091E800877F8093E80056
:103700008091E80080FFFCCF80911D028093F10042
:103710008091E8008E778093E8000C945B1D0895FB
:1037200084B7877F84BF88E10FB6F89480936000E8
:10373000109260000FBE80E88093610010926100DB
:103740000E948C0A0E94AC1D0E94091E8091E2001A
:1037500084608093E2008CEB98E10E94C415789419
:103760000E94A2200E9483200E948E0A84E091E0A1
:103770000E94090A84E296E00E9409040E94BC0AA1
:10378000FDCF292F332723303105A9F06CF42130E8
:10379000310509F442C02230310509F043C08BE500
:1037A00090E025E636E042C021323105C9F02232F0
:1037B000310519F137C099278130910541F08230E8
:1037C000910541F0892B71F5E1E6F6E005C0E7E5EA
:1037D000F6E002C0E9E4F6E0849190E09F0126C0A3
:1037E000633000F5E62FF0E0EE0FFF1FE35DFE4FC4
:1037F0002081318189E090E019C0633098F4E62F90
:10380000F0E0DF01AA0FBB1FA95DBE4F2D913C91D7
:10381000EC5DFE4F808190E009C082E190E020ECF9
:1038200036E004C080E090E020E030E0FA0131832F
:1038300020830895CF92DF92EF92FF920F931F9310
:10384000CF93DF937C018B01EA010E947C1D8111E3
:1038500031C0209731F088819981081B190BE80E3F
:10386000F91EC12CD12C0115110519F18091E80028
:1038700085FD14C08091E8008E778093E800209742
:1038800041F0888199818C0D9D1D9983888385E005
:1038900011C00E947C1D882331F30CC0F701819177
:1038A0007F018093F10001501109FFEFCF1ADF0A69
:1038B000DACF80E0DF91CF911F910F91FF90EF90D1
:1038C000DF90CF90089520912D0330912E0326177D
:1038D000370748F06115710539F42091E8002E771B
:1038E0002093E80001C0B901FC0120E061157105D9
:1038F000B9F180912603882309F440C0853009F48A
:103900003FC08091E80083FD3DC08091E80082FFC8
:1039100006C08091E80082FF26C080E00895809173
:10392000E80080FFE3CF2091F3008091F20090E067
:10393000922B6115710551F08830910538F4219171
:103940002093F100615071090196F3CF21E00897AF
:1039500009F020E08091E8008E778093E800C6CFE0
:103960002111C7CFD6CF80912603882339F0853027
:1039700039F08091E80083FFCCCF04C082E0089545
:1039800083E0089581E0089520912D0330912E0366
:103990002617370748F06115710539F42091E800C2
:1039A0002E772093E80001C0B901FC0120E06115E9
:1039B0007105C1F180912603882309F441C0853047
:1039C00009F440C08091E80083FD3EC08091E8008A
:1039D00082FF06C08091E80082FF27C080E0089542
:1039E0008091E80080FFE3CF2091F3008091F20006
:1039F00090E0922B6115710559F08830910540F4E3
:103A000024912093F1003196615071090196F2CF13
:103A100021E0089709F020E08091E8008E778093FC
:103A2000E800C5CF2111C6CFD5CF809126038823CA
:103A300039F0853039F08091E80083FFCBCF04C0A6
:103A400082E0089583E0089581E00895982F9730EB
:103A500058F59093E900981739F07091EC00209197
:103A6000ED005091F00003C0242F762F50E021FF8D
:103A700019C03091EB003E7F3093EB003091ED00A8
:103A80003D7F3093ED003091EB0031603093EB00DF
:103A90007093EC002093ED005093F0002091EE0025
:103AA00027FF07C09F5FD3CF8F708093E90081E02D
:103AB000089580E008958091270387FD05C08091D7
:103AC000E80080FF0EC012C08091E80082FD05C0B2
:103AD000809126038111F8CF08958091E8008B77BB
:103AE00008C0809126038111EACF08958091E800F3
:103AF0008E778093E80008958091E4009091E5002E
:103B000045E62091EC0020FF21C02091E80020FD37
:103B100021C020912603222389F0253089F02091AD
:103B2000EB0025FD0FC02091E4003091E50028173F
:103B3000390739F3415041F0C901E3CF82E00895DC
:103B400083E0089581E0089584E008952091E800DD
:103B500022FFDFCF80E008950E941A1E0E94221EDD
:103B6000E0EEF0E0808181608083E8EDF0E080812C
:103B70008F77808319BCA7EDB0E08C918E7F8C93FA
:103B800080818F7E80831092250308950F931F9369
:103B9000CF93DF930E941A1E0E94221EC8EDD0E030
:103BA00088818F77888388818068888388818F7DEA
:103BB000888319BC109226031092220310922403CA
:103BC0001092230300EE10E0F80180818B7F808348
:103BD00088818160888342E060E080E00E94261D49
:103BE000E1EEF0E080818E7F8083E2EEF0E0808184
:103BF00081608083808188608083F80180818E7FEE
:103C00008083888180618883DF91CF911F910F919C
:103C10000895E8EDF0E080818F7E8083E7EDF0E0AD
:103C200080818160808384E082BF81E0809325036E
:103C30000C94C61DE8EDF0E080818E7F80831092A9
:103C4000E20008951092DA001092E10008951F92A8
:103C50000F920FB60F9211242F933F934F935F93C0
:103C60006F937F938F939F93AF93BF93EF93FF9344
:103C70008091E10082FF0BC08091E20082FF07C0CB
:103C80008091E1008B7F8093E1000E948F1A8091E8
:103C9000DA0080FF1FC08091D80080FF1BC0809198
:103CA000DA008E7F8093DA008091D90080FF0DC00A
:103CB00080E189BD82E189BD09B400FEFDCF81E0CC
:103CC000809326030E94681A05C019BC109226032F
:103CD0000E947A1A8091E10080FF19C08091E20071
:103CE00080FF15C08091E2008E7F8093E20080917A
:103CF000E20080618093E2008091D800806280932E
:103D0000D80019BC85E0809326030E94851A809113
:103D1000E10084FF30C08091E20084FF2CC080E18C
:103D200089BD82E189BD09B400FEFDCF8091D80034
:103D30008F7D8093D8008091E1008F7E8093E10099
:103D40008091E2008F7E8093E2008091E2008160AA
:103D50008093E20080912203882311F084E007C061
:103D60008091E30087FF02C083E001C081E080937F
:103D700026030E94891A8091E10083FF29C0809167
:103D8000E20083FF25C08091E100877F8093E100FE
:103D900082E080932603109222038091E1008E7FBF
:103DA0008093E1008091E2008E7F8093E200809119
:103DB000E20080618093E20042E060E080E00E94E7
:103DC000261D8091F00088608093F0000E94811A87
:103DD000FF91EF91BF91AF919F918F917F916F91E3
:103DE0005F914F913F912F910F900FBE0F901F90B9
:103DF00018951F920F920FB60F9211242F933F9395
:103E00004F935F936F937F938F939F93AF93BF93E2
:103E1000CF93EF93FF93C091E900CF708091EC00B6
:103E20001092E9008091F000877F8093F0007894F1
:103E30000E94351F1092E9008091F0008860809305
:103E4000F000C093E900FF91EF91CF91BF91AF9146
:103E50009F918F917F916F915F914F913F912F91A2
:103E60000F900FBE0F901F9018951F93CF93DF9365
:103E7000CDB7DEB7AA970FB6F894DEBF0FBECDBFA1
:103E8000E7E2F3E08091F100819323E0EF32F20763
:103E9000C9F70E94DE1A8091E80083FF1CC12091BF
:103EA000270330912803832F90E08A30910508F092
:103EB00012C1FC01E558FF4F0C94EC20203881F032
:103EC000223809F008C180912B038F708093E9009C
:103ED0008091EB0085FB882780F91092E90006C0ED
:103EE0008091230390912403911182609091E800C6
:103EF000977F9093E8008093F1001092F100C5C085
:103F0000822F8D7F09F0E7C0222319F0223061F063
:103F1000E2C080912903813009F0DDC0333009F01F
:103F200080E08093240328C080912903811124C05C
:103F300020912B032F7009F4CEC02093E9008091CB
:103F4000EB0080FF19C08091EB00333011F48062E8
:103F500011C080618093EB0081E090E0022E01C0EF
:103F6000880F0A94EAF78093EA001092EA008091A1
:103F7000EB0088608093EB001092E9008091E800EC
:103F8000877F86C02111A7C0109129031F778091D8
:103F9000E3008078812B8093E3008091E800877FA5
:103FA0008093E8000E945B1D8091E80080FFFCCFB9
:103FB0008091E30080688093E300112311F083E097
:103FC00001C082E08093260386C02058223008F08A
:103FD00082C08091290390912A038C3D23E09207AF
:103FE00079F583E08A838AE289834FB7F894DE010A
:103FF000139620E03EE051E2E32FF0E050935700AB
:10400000E49120FF03C0E295EF703F5FEF708E2FC9
:1040100090E0EA3010F0C79601C0C0968D939D9352
:104020002F5F243149F74FBF8091E800877F80934D
:10403000E8006AE270E0CE0101960E94631C14C0A1
:10404000AE014F5F5F4F60912B030E94C11B009731
:1040500009F441C02091E800277F2093E800BC01CB
:1040600089819A810E94C41C8091E8008B7780939B
:10407000E80031C0203879F58091E800877F80938F
:10408000E800809122038093F1008091E8008E7710
:104090008093E8000E945B1D1EC021111CC09091FE
:1040A00029039230C0F48091E800877F8093E80074
:1040B000909322030E945B1D80912203811104C012
:1040C0008091E30087FF02C084E001C081E080931B
:1040D00026030E94CF1A8091E80083FF0AC08091D6
:1040E000E800877F8093E8008091EB0080628093F6
:1040F000EB00AA960FB6F894DEBF0FBECDBFDF91DE
:10410000CF911F910895CF93809126038823B1F01A
:104110008091E9008F709091EC0090FF02C090E8D0
:1041200001C090E0C92FC82B1092E9008091E800EF
:1041300083FD0E94351FCF70C093E900CF91089591
:104140000C94AF2087E68093CC001092CD0088E0DD
:104150008093C90086E08093CA0078940895909176
:10416000C80095FFFCCF8093CE0008951F920F9258
:104170000FB60F9211242F933F934F938F939F93DA
:10418000EF93FF9320911F0230E0C9010196992718
:1041900040911E02481741F09091CE00F901E05E77
:1041A000FD4F908380931F02FF91EF919F918F911C
:1041B0004F913F912F910F900FBE0F901F90189528
:1041C000991B79E004C0991F961708F0961B881F69
:1041D0007A95C9F780950895EE0FFF1F0590F49129
:1041E000E02D0994F999FECF92BD81BDF89A9927E7
:1041F00080B50895A8E1B0E042E050E00C941A21A7
:10420000262FF999FECF92BD81BDF89A019700B48F
:10421000021639F01FBA20BD0FB6F894FA9AF99A2F
:104220000FBE08950196272F0E9401210C940021B2
:10423000DC01CB01FC01F999FECF06C0F2BDE1BD66
:10424000F89A319600B40D9241505040B8F7089555
:04425000F894FFCF10
:104254000501ED01B818031ABB18CF19201901F094
:10426400F4F5F1F6F731323635349796943337C690
:10427400309091954022392D070B07D2067706908E
:0442840006B006007A
:00000001FF
